{
  "contractName": "Blackjack",
  "abi": [
    {
      "constant": true,
      "inputs": [],
      "name": "player",
      "outputs": [
        {
          "name": "",
          "type": "address"
        }
      ],
      "payable": false,
      "stateMutability": "view",
      "type": "function"
    },
    {
      "constant": true,
      "inputs": [],
      "name": "placedBets",
      "outputs": [
        {
          "name": "",
          "type": "uint256"
        }
      ],
      "payable": false,
      "stateMutability": "view",
      "type": "function"
    },
    {
      "constant": true,
      "inputs": [],
      "name": "number",
      "outputs": [
        {
          "name": "",
          "type": "uint256"
        }
      ],
      "payable": false,
      "stateMutability": "view",
      "type": "function"
    },
    {
      "constant": true,
      "inputs": [],
      "name": "playerFund",
      "outputs": [
        {
          "name": "",
          "type": "uint256"
        }
      ],
      "payable": false,
      "stateMutability": "view",
      "type": "function"
    },
    {
      "constant": true,
      "inputs": [],
      "name": "owner",
      "outputs": [
        {
          "name": "",
          "type": "address"
        }
      ],
      "payable": false,
      "stateMutability": "view",
      "type": "function"
    },
    {
      "constant": true,
      "inputs": [],
      "name": "dealerFund",
      "outputs": [
        {
          "name": "",
          "type": "uint256"
        }
      ],
      "payable": false,
      "stateMutability": "view",
      "type": "function"
    },
    {
      "constant": true,
      "inputs": [],
      "name": "dealer",
      "outputs": [
        {
          "name": "",
          "type": "address"
        }
      ],
      "payable": false,
      "stateMutability": "view",
      "type": "function"
    },
    {
      "constant": true,
      "inputs": [],
      "name": "Bankobj",
      "outputs": [
        {
          "name": "",
          "type": "address"
        }
      ],
      "payable": false,
      "stateMutability": "view",
      "type": "function"
    },
    {
      "constant": true,
      "inputs": [],
      "name": "winnings",
      "outputs": [
        {
          "name": "",
          "type": "uint256"
        }
      ],
      "payable": false,
      "stateMutability": "view",
      "type": "function"
    },
    {
      "inputs": [
        {
          "name": "BankAddress",
          "type": "address"
        }
      ],
      "payable": false,
      "stateMutability": "nonpayable",
      "type": "constructor"
    },
    {
      "anonymous": false,
      "inputs": [
        {
          "indexed": false,
          "name": "winner",
          "type": "uint256"
        },
        {
          "indexed": false,
          "name": "amount",
          "type": "uint256"
        }
      ],
      "name": "GameState",
      "type": "event"
    },
    {
      "anonymous": false,
      "inputs": [
        {
          "indexed": false,
          "name": "winner",
          "type": "uint256"
        },
        {
          "indexed": false,
          "name": "amount",
          "type": "uint256"
        }
      ],
      "name": "GameEnded",
      "type": "event"
    },
    {
      "anonymous": false,
      "inputs": [
        {
          "indexed": false,
          "name": "msg",
          "type": "string"
        }
      ],
      "name": "TestEvent",
      "type": "event"
    },
    {
      "anonymous": false,
      "inputs": [
        {
          "indexed": false,
          "name": "suit",
          "type": "string"
        },
        {
          "indexed": false,
          "name": "value",
          "type": "string"
        },
        {
          "indexed": false,
          "name": "numval",
          "type": "uint256"
        }
      ],
      "name": "CardDealt",
      "type": "event"
    },
    {
      "anonymous": false,
      "inputs": [
        {
          "indexed": true,
          "name": "_from",
          "type": "address"
        },
        {
          "indexed": true,
          "name": "_to",
          "type": "address"
        },
        {
          "indexed": false,
          "name": "_value",
          "type": "uint256"
        }
      ],
      "name": "Transfer",
      "type": "event"
    },
    {
      "constant": false,
      "inputs": [
        {
          "name": "bet",
          "type": "uint256"
        }
      ],
      "name": "placedBet",
      "outputs": [],
      "payable": false,
      "stateMutability": "nonpayable",
      "type": "function"
    },
    {
      "constant": false,
      "inputs": [
        {
          "name": "won",
          "type": "bool"
        }
      ],
      "name": "setWinnings",
      "outputs": [],
      "payable": false,
      "stateMutability": "nonpayable",
      "type": "function"
    },
    {
      "constant": false,
      "inputs": [],
      "name": "clearWinnings",
      "outputs": [],
      "payable": false,
      "stateMutability": "nonpayable",
      "type": "function"
    },
    {
      "constant": false,
      "inputs": [],
      "name": "DeckInit",
      "outputs": [],
      "payable": false,
      "stateMutability": "nonpayable",
      "type": "function"
    },
    {
      "constant": false,
      "inputs": [],
      "name": "deal",
      "outputs": [
        {
          "name": "suit",
          "type": "string"
        },
        {
          "name": "val",
          "type": "string"
        },
        {
          "name": "numval",
          "type": "uint256"
        }
      ],
      "payable": false,
      "stateMutability": "nonpayable",
      "type": "function"
    },
    {
      "constant": false,
      "inputs": [],
      "name": "PlayerHit",
      "outputs": [],
      "payable": false,
      "stateMutability": "nonpayable",
      "type": "function"
    },
    {
      "constant": false,
      "inputs": [],
      "name": "DealerHit",
      "outputs": [],
      "payable": false,
      "stateMutability": "nonpayable",
      "type": "function"
    },
    {
      "constant": true,
      "inputs": [],
      "name": "getLastDealer",
      "outputs": [
        {
          "name": "",
          "type": "string"
        },
        {
          "name": "",
          "type": "string"
        },
        {
          "name": "",
          "type": "uint256"
        }
      ],
      "payable": false,
      "stateMutability": "view",
      "type": "function"
    },
    {
      "constant": true,
      "inputs": [],
      "name": "getLastPlayer",
      "outputs": [
        {
          "name": "",
          "type": "string"
        },
        {
          "name": "",
          "type": "string"
        },
        {
          "name": "",
          "type": "uint256"
        }
      ],
      "payable": false,
      "stateMutability": "view",
      "type": "function"
    },
    {
      "constant": false,
      "inputs": [
        {
          "name": "bettingAmount",
          "type": "uint256"
        }
      ],
      "name": "checkDealer17",
      "outputs": [
        {
          "name": "",
          "type": "uint256"
        }
      ],
      "payable": false,
      "stateMutability": "nonpayable",
      "type": "function"
    },
    {
      "constant": true,
      "inputs": [],
      "name": "getHandResults",
      "outputs": [
        {
          "name": "",
          "type": "uint256"
        }
      ],
      "payable": false,
      "stateMutability": "view",
      "type": "function"
    },
    {
      "constant": false,
      "inputs": [],
      "name": "PlayerStand",
      "outputs": [],
      "payable": false,
      "stateMutability": "nonpayable",
      "type": "function"
    },
    {
      "constant": false,
      "inputs": [],
      "name": "DealerTurn",
      "outputs": [],
      "payable": false,
      "stateMutability": "nonpayable",
      "type": "function"
    },
    {
      "constant": false,
      "inputs": [
        {
          "name": "_dealer",
          "type": "address"
        },
        {
          "name": "_fund",
          "type": "uint256"
        }
      ],
      "name": "setDealer",
      "outputs": [
        {
          "name": "success",
          "type": "bool"
        }
      ],
      "payable": false,
      "stateMutability": "nonpayable",
      "type": "function"
    },
    {
      "constant": false,
      "inputs": [
        {
          "name": "_player",
          "type": "address"
        },
        {
          "name": "_fund",
          "type": "uint256"
        }
      ],
      "name": "setPlayer",
      "outputs": [
        {
          "name": "success",
          "type": "bool"
        }
      ],
      "payable": false,
      "stateMutability": "nonpayable",
      "type": "function"
    },
    {
      "constant": false,
      "inputs": [
        {
          "name": "dealerSum",
          "type": "uint256"
        },
        {
          "name": "playerSum",
          "type": "uint256"
        },
        {
          "name": "bettingAmount",
          "type": "uint256"
        },
        {
          "name": "premium",
          "type": "uint256"
        }
      ],
      "name": "compare",
      "outputs": [
        {
          "name": "results",
          "type": "uint256"
        }
      ],
      "payable": false,
      "stateMutability": "nonpayable",
      "type": "function"
    },
    {
      "constant": false,
      "inputs": [
        {
          "name": "sender",
          "type": "address"
        },
        {
          "name": "receiver",
          "type": "address"
        },
        {
          "name": "amount",
          "type": "uint256"
        }
      ],
      "name": "sendCoin",
      "outputs": [
        {
          "name": "sufficient",
          "type": "bool"
        }
      ],
      "payable": false,
      "stateMutability": "nonpayable",
      "type": "function"
    },
    {
      "constant": true,
      "inputs": [
        {
          "name": "addr",
          "type": "address"
        }
      ],
      "name": "getBalanceInEth",
      "outputs": [
        {
          "name": "",
          "type": "uint256"
        }
      ],
      "payable": false,
      "stateMutability": "view",
      "type": "function"
    },
    {
      "constant": true,
      "inputs": [
        {
          "name": "amount",
          "type": "uint256"
        },
        {
          "name": "conversionRate",
          "type": "uint256"
        }
      ],
      "name": "convert",
      "outputs": [
        {
          "name": "convertedAmount",
          "type": "uint256"
        }
      ],
      "payable": false,
      "stateMutability": "pure",
      "type": "function"
    },
    {
      "constant": true,
      "inputs": [
        {
          "name": "addr",
          "type": "address"
        }
      ],
      "name": "getBalance",
      "outputs": [
        {
          "name": "",
          "type": "uint256"
        }
      ],
      "payable": false,
      "stateMutability": "view",
      "type": "function"
    }
  ],
  "bytecode": "0x608060405260026008556000602d556001602e556002602f556080604051908101604052806040805190810160405280600181526020017f430000000000000000000000000000000000000000000000000000000000000081525081526020016040805190810160405280600181526020017f440000000000000000000000000000000000000000000000000000000000000081525081526020016040805190810160405280600181526020017f480000000000000000000000000000000000000000000000000000000000000081525081526020016040805190810160405280600181526020017f530000000000000000000000000000000000000000000000000000000000000081525081525060cf90600462000120929190620004f7565b506101a0604051908101604052806040805190810160405280600181526020017f410000000000000000000000000000000000000000000000000000000000000081525081526020016040805190810160405280600181526020017f320000000000000000000000000000000000000000000000000000000000000081525081526020016040805190810160405280600181526020017f330000000000000000000000000000000000000000000000000000000000000081525081526020016040805190810160405280600181526020017f340000000000000000000000000000000000000000000000000000000000000081525081526020016040805190810160405280600181526020017f350000000000000000000000000000000000000000000000000000000000000081525081526020016040805190810160405280600181526020017f360000000000000000000000000000000000000000000000000000000000000081525081526020016040805190810160405280600181526020017f370000000000000000000000000000000000000000000000000000000000000081525081526020016040805190810160405280600181526020017f380000000000000000000000000000000000000000000000000000000000000081525081526020016040805190810160405280600181526020017f390000000000000000000000000000000000000000000000000000000000000081525081526020016040805190810160405280600181526020017f540000000000000000000000000000000000000000000000000000000000000081525081526020016040805190810160405280600181526020017f4a0000000000000000000000000000000000000000000000000000000000000081525081526020016040805190810160405280600181526020017f510000000000000000000000000000000000000000000000000000000000000081525081526020016040805190810160405280600181526020017f4b0000000000000000000000000000000000000000000000000000000000000081525081525060d390600d6200043d92919062000551565b503480156200044b57600080fd5b5060405160208062002db283398101806040528101908080519060200190929190505050806000806101000a81548173ffffffffffffffffffffffffffffffffffffffff021916908373ffffffffffffffffffffffffffffffffffffffff16021790555033600160006101000a81548173ffffffffffffffffffffffffffffffffffffffff021916908373ffffffffffffffffffffffffffffffffffffffff16021790555050620006d7565b82600481019282156200053e579160200282015b828111156200053d5782518290805190602001906200052c929190620005ab565b50916020019190600101906200050b565b5b5090506200054d919062000632565b5090565b82600d810192821562000598579160200282015b828111156200059757825182908051906020019062000586929190620005ab565b509160200191906001019062000565565b5b509050620005a7919062000632565b5090565b828054600181600116156101000203166002900490600052602060002090601f016020900481019282601f10620005ee57805160ff19168380011785556200061f565b828001600101855582156200061f579182015b828111156200061e57825182559160200191906001019062000601565b5b5090506200062e919062000663565b5090565b6200066091905b808211156200065c57600081816200065291906200068b565b5060010162000639565b5090565b90565b6200068891905b80821115620006845760008160009055506001016200066a565b5090565b90565b50805460018160011615610100020316600290046000825580601f10620006b35750620006d4565b601f016020900490600052602060002090810190620006d3919062000663565b5b50565b6126cb80620006e76000396000f300608060405260043610610175576000357c0100000000000000000000000000000000000000000000000000000000900463ffffffff168063014892a41461017a5780630b40bd88146101df5780631207ca521461026457806316557d9e146102c957806316fd0608146102f857806348db5f891461030f5780634d495c331461036657806354750bac146103a7578063553df021146103be5780635fbd5bdc146104c157806377c8599d146104d85780637bd703e8146105035780637bde97f91461055a5780638381f58a146105715780638410315b1461059c5780638da5cb5b146105c757806391d2dc481461061e57806396e4ee3d146106495780639de2ee2114610694578063a4bf0108146106eb578063b42fd847146107ee578063c269cc6914610845578063cb2f9a4c14610872578063cbbbbedf14610889578063d134474c1461098c578063d6dcb491146109b7578063da323e7c14610a16578063f8b2cb4f14610a2d578063f9056e8814610a84575b600080fd5b34801561018657600080fd5b506101c5600480360381019080803573ffffffffffffffffffffffffffffffffffffffff16906020019092919080359060200190929190505050610aaf565b604051808215151515815260200191505060405180910390f35b3480156101eb57600080fd5b5061024a600480360381019080803573ffffffffffffffffffffffffffffffffffffffff169060200190929190803573ffffffffffffffffffffffffffffffffffffffff16906020019092919080359060200190929190505050610b62565b604051808215151515815260200191505060405180910390f35b34801561027057600080fd5b506102af600480360381019080803573ffffffffffffffffffffffffffffffffffffffff16906020019092919080359060200190929190505050610cbf565b604051808215151515815260200191505060405180910390f35b3480156102d557600080fd5b506102f6600480360381019080803515159060200190929190505050610d72565b005b34801561030457600080fd5b5061030d610d9e565b005b34801561031b57600080fd5b50610324610e95565b604051808273ffffffffffffffffffffffffffffffffffffffff1673ffffffffffffffffffffffffffffffffffffffff16815260200191505060405180910390f35b34801561037257600080fd5b5061039160048036038101908080359060200190929190505050610ebb565b6040518082815260200191505060405180910390f35b3480156103b357600080fd5b506103bc61117b565b005b3480156103ca57600080fd5b506103d3611185565b604051808060200180602001848152602001838103835286818151815260200191508051906020019080838360005b8381101561041d578082015181840152602081019050610402565b50505050905090810190601f16801561044a5780820380516001836020036101000a031916815260200191505b50838103825285818151815260200191508051906020019080838360005b83811015610483578082015181840152602081019050610468565b50505050905090810190601f1680156104b05780820380516001836020036101000a031916815260200191505b509550505050505060405180910390f35b3480156104cd57600080fd5b506104d6611739565b005b3480156104e457600080fd5b506104ed6118ae565b6040518082815260200191505060405180910390f35b34801561050f57600080fd5b50610544600480360381019080803573ffffffffffffffffffffffffffffffffffffffff1690602001909291905050506118b4565b6040518082815260200191505060405180910390f35b34801561056657600080fd5b5061056f6118d0565b005b34801561057d57600080fd5b506105866118db565b6040518082815260200191505060405180910390f35b3480156105a857600080fd5b506105b16118e1565b6040518082815260200191505060405180910390f35b3480156105d357600080fd5b506105dc6118e7565b604051808273ffffffffffffffffffffffffffffffffffffffff1673ffffffffffffffffffffffffffffffffffffffff16815260200191505060405180910390f35b34801561062a57600080fd5b5061063361190d565b6040518082815260200191505060405180910390f35b34801561065557600080fd5b5061067e6004803603810190808035906020019092919080359060200190929190505050611913565b6040518082815260200191505060405180910390f35b3480156106a057600080fd5b506106a9611920565b604051808273ffffffffffffffffffffffffffffffffffffffff1673ffffffffffffffffffffffffffffffffffffffff16815260200191505060405180910390f35b3480156106f757600080fd5b50610700611946565b604051808060200180602001848152602001838103835286818151815260200191508051906020019080838360005b8381101561074a57808201518184015260208101905061072f565b50505050905090810190601f1680156107775780820380516001836020036101000a031916815260200191505b50838103825285818151815260200191508051906020019080838360005b838110156107b0578082015181840152602081019050610795565b50505050905090810190601f1680156107dd5780820380516001836020036101000a031916815260200191505b509550505050505060405180910390f35b3480156107fa57600080fd5b50610803611b7e565b604051808273ffffffffffffffffffffffffffffffffffffffff1673ffffffffffffffffffffffffffffffffffffffff16815260200191505060405180910390f35b34801561085157600080fd5b5061087060048036038101908080359060200190929190505050611ba3565b005b34801561087e57600080fd5b50610887611c5e565b005b34801561089557600080fd5b5061089e611d6c565b604051808060200180602001848152602001838103835286818151815260200191508051906020019080838360005b838110156108e85780820151818401526020810190506108cd565b50505050905090810190601f1680156109155780820380516001836020036101000a031916815260200191505b50838103825285818151815260200191508051906020019080838360005b8381101561094e578082015181840152602081019050610933565b50505050905090810190601f16801561097b5780820380516001836020036101000a031916815260200191505b509550505050505060405180910390f35b34801561099857600080fd5b506109a1611fa4565b6040518082815260200191505060405180910390f35b3480156109c357600080fd5b50610a0060048036038101908080359060200190929190803590602001909291908035906020019092919080359060200190929190505050611faa565b6040518082815260200191505060405180910390f35b348015610a2257600080fd5b50610a2b6122e9565b005b348015610a3957600080fd5b50610a6e600480360381019080803573ffffffffffffffffffffffffffffffffffffffff1690602001909291905050506123f2565b6040518082815260200191505060405180910390f35b348015610a9057600080fd5b50610a9961243b565b6040518082815260200191505060405180910390f35b600082600360006101000a81548173ffffffffffffffffffffffffffffffffffffffff021916908373ffffffffffffffffffffffffffffffffffffffff16021790555081600a6000600360009054906101000a900473ffffffffffffffffffffffffffffffffffffffff1673ffffffffffffffffffffffffffffffffffffffff1673ffffffffffffffffffffffffffffffffffffffff168152602001908152602001600020819055506001905092915050565b600081600a60008673ffffffffffffffffffffffffffffffffffffffff1673ffffffffffffffffffffffffffffffffffffffff168152602001908152602001600020541015610bb45760009050610cb8565b81600a60008673ffffffffffffffffffffffffffffffffffffffff1673ffffffffffffffffffffffffffffffffffffffff1681526020019081526020016000206000828254039250508190555081600a60008573ffffffffffffffffffffffffffffffffffffffff1673ffffffffffffffffffffffffffffffffffffffff168152602001908152602001600020600082825401925050819055508273ffffffffffffffffffffffffffffffffffffffff168473ffffffffffffffffffffffffffffffffffffffff167fddf252ad1be2c89b69c2b068fc378daa952ba7f163c4a11628f55a4df523b3ef846040518082815260200191505060405180910390a3600190505b9392505050565b600082600260006101000a81548173ffffffffffffffffffffffffffffffffffffffff021916908373ffffffffffffffffffffffffffffffffffffffff16021790555081600a6000600260009054906101000a900473ffffffffffffffffffffffffffffffffffffffff1673ffffffffffffffffffffffffffffffffffffffff1673ffffffffffffffffffffffffffffffffffffffff168152602001908152602001600020819055506001905092915050565b8015610d9257600854600754026006819055506000600781905550610d9b565b60006007819055505b50565b6000601c600f01549050610db0611185565b601c60000184600581101515610dc257fe5b600302016000016000601c60000186600581101515610ddd57fe5b600302016001016000601c60000188600581101515610df857fe5b6003020160020160008691905055859190509080519060200190610e1d92919061244a565b50849190509080519060200190610e3592919061244a565b50505050601c60000181600581101515610e4b57fe5b6003020160020154601c60100160008282540192505081905550601c600f01600081548092919060010191905055506010601c601001541115610e9257602f546031819055505b50565b600360009054906101000a900473ffffffffffffffffffffffffffffffffffffffff1681565b60008060008091506011601c601001541015610eda5760019050610f51565b6010601c60100154118015610ef457506016601c60100154105b15610f4757600b60100154601c601001541015610f145760029050600191505b600b60100154601c601001541115610f2b57600390505b600b60100154601c601001541415610f4257600490505b610f50565b60029050600191505b5b600181111561112b57811561104757610faf600260009054906101000a900473ffffffffffffffffffffffffffffffffffffffff16600360009054906101000a900473ffffffffffffffffffffffffffffffffffffffff1686610b62565b15610fb957611042565b6001600960006101000a81548160ff021916908315150217905550600390507f4c4660db760944215f41e957066d756ad5fd0eed1b4640632322eb06f77b034d81611025600360009054906101000a900473ffffffffffffffffffffffffffffffffffffffff166118b4565b604051808381526020018281526020019250505060405180910390a15b61112a565b611096600360009054906101000a900473ffffffffffffffffffffffffffffffffffffffff16600260009054906101000a900473ffffffffffffffffffffffffffffffffffffffff1686610b62565b156110a057611129565b6001600960006101000a81548160ff021916908315150217905550600290507f4c4660db760944215f41e957066d756ad5fd0eed1b4640632322eb06f77b034d8161110c600260009054906101000a900473ffffffffffffffffffffffffffffffffffffffff166118b4565b604051808381526020018281526020019250505060405180910390a15b5b5b7f4b5de2075ef693ef5f4607a6b8b9a40b725a253f266a58fadf7cf9bd9805f99c8185604051808381526020018281526020019250505060405180910390a1806030819055508092505050919050565b6000600681905550565b60608060008060008060006111986124ca565b60346032609c01541015156111ac57600080fd5b6032609c01546034039450846001430340600190048115156111ca57fe5b06935060016032609c01546034030392506032600001846034811015156111ed57fe5b600302019150816000018054600181600116156101000203166002900480601f01602080910402602001604051908101604052809291908181526020018280546001816001161561010002031660029004801561128b5780601f106112605761010080835404028352916020019161128b565b820191906000526020600020905b81548152906001019060200180831161126e57829003601f168201915b50505050508160000181905250816001018054600181600116156101000203166002900480601f0160208091040260200160405190810160405280929190818152602001828054600181600116156101000203166002900480156113305780601f1061130557610100808354040283529160200191611330565b820191906000526020600020905b81548152906001019060200180831161131357829003601f168201915b50505050508160200181905250816002015481604001818152505060326000018360348110151561135d57fe5b6003020160326000018560348110151561137357fe5b600302016000820181600001908054600181600116156101000203166002900461139e9291906124ec565b50600182018160010190805460018160011615610100020316600290046113c69291906124ec565b5060028201548160020155905050806032600001846034811015156113e757fe5b600302016000820151816000019080519060200190611407929190612573565b506020820151816001019080519060200190611424929190612573565b50604082015181600201559050506032609c01600081548092919060010191905055507f58910095584cca529bba7f5ac1d747b5c1a875b81b1ab46d3b5ab1a7cf212866826000018360010184600201546040518080602001806020018481526020018381038352868181546001816001161561010002031660029004815260200191508054600181600116156101000203166002900480156115085780601f106114dd57610100808354040283529160200191611508565b820191906000526020600020905b8154815290600101906020018083116114eb57829003601f168201915b505083810382528581815460018160011615610100020316600290048152602001915080546001816001161561010002031660029004801561158b5780601f106115605761010080835404028352916020019161158b565b820191906000526020600020905b81548152906001019060200180831161156e57829003601f168201915b50509550505050505060405180910390a17fe75028ff36bb6473da3731a30e1aeeae9988e2415dba2c4e91e0357955065fba82600101604051808060200182810382528381815460018160011615610100020316600290048152602001915080546001816001161561010002031660029004801561164a5780601f1061161f5761010080835404028352916020019161164a565b820191906000526020600020905b81548152906001019060200180831161162d57829003601f168201915b50509250505060405180910390a17fe75028ff36bb6473da3731a30e1aeeae9988e2415dba2c4e91e0357955065fba8260000160405180806020018281038252838181546001816001161561010002031660029004815260200191508054600181600116156101000203166002900480156117065780601f106116db57610100808354040283529160200191611706565b820191906000526020600020905b8154815290600101906020018083116116e957829003601f168201915b50509250505060405180910390a18060000151816020015182604001518292508191509750975097505050505050909192565b6000806000602d5460318190555060006030819055506000600b601001819055506000601c601001819055506000600b600f01819055506000601c600f018190555060006032609c018190555060009250600091505b60048210156118a957600090505b600d81101561189c5760cf826004811015156117b557fe5b016032600001846034811015156117c857fe5b6003020160000190805460018160011615610100020316600290046117ee9291906125f3565b5060d381600d811015156117fe57fe5b0160326000018460348110151561181157fe5b6003020160010190805460018160011615610100020316600290046118379291906125f3565b50600a811015611867576001810160326000018460348110151561185757fe5b6003020160020181905550611887565b600a60326000018460348110151561187b57fe5b60030201600201819055505b8280600101935050808060010191505061179d565b818060010192505061178f565b505050565b60075481565b60006118c96118c2836123f2565b6001611913565b9050919050565b602e54603181905550565b60085481565b60055481565b600160009054906101000a900473ffffffffffffffffffffffffffffffffffffffff1681565b60045481565b6000818302905092915050565b600260009054906101000a900473ffffffffffffffffffffffffffffffffffffffff1681565b606080600080601c600f01541115611aff57601c6000016001601c600f01540360058110151561197257fe5b60030201600001601c6000016001601c600f01540360058110151561199357fe5b60030201600101601c6000016001601c600f0154036005811015156119b457fe5b6003020160020154828054600181600116156101000203166002900480601f016020809104026020016040519081016040528092919081815260200182805460018160011615610100020316600290048015611a515780601f10611a2657610100808354040283529160200191611a51565b820191906000526020600020905b815481529060010190602001808311611a3457829003601f168201915b50505050509250818054600181600116156101000203166002900480601f016020809104026020016040519081016040528092919081815260200182805460018160011615610100020316600290048015611aed5780601f10611ac257610100808354040283529160200191611aed565b820191906000526020600020905b815481529060010190602001808311611ad057829003601f168201915b50505050509150925092509250611b79565b60026040805190810160405280600181526020017f5800000000000000000000000000000000000000000000000000000000000000815250906040805190810160405280600181526020017f5800000000000000000000000000000000000000000000000000000000000000815250908090509250925092505b909192565b6000809054906101000a900473ffffffffffffffffffffffffffffffffffffffff1681565b806007600082825401925050819055506000809054906101000a900473ffffffffffffffffffffffffffffffffffffffff1673ffffffffffffffffffffffffffffffffffffffff16638ffbf100826040518263ffffffff167c010000000000000000000000000000000000000000000000000000000002815260040180828152602001915050600060405180830381600087803b158015611c4357600080fd5b505af1158015611c57573d6000803e3d6000fd5b5050505050565b6000602e54603154141515611c7257600080fd5b5b6011601c601001541015611d6057601c600f01549050611c91611185565b601c60000184600581101515611ca357fe5b600302016000016000601c60000186600581101515611cbe57fe5b600302016001016000601c60000188600581101515611cd957fe5b6003020160020160008691905055859190509080519060200190611cfe92919061244a565b50849190509080519060200190611d1692919061244a565b50505050601c60000181600581101515611d2c57fe5b6003020160020154601c60100160008282540192505081905550601c600f0160008154809291906001019190505550611c73565b602f5460318190555050565b606080600080600b600f01541115611f2557600b6000016001600b600f015403600581101515611d9857fe5b60030201600001600b6000016001600b600f015403600581101515611db957fe5b60030201600101600b6000016001600b600f015403600581101515611dda57fe5b6003020160020154828054600181600116156101000203166002900480601f016020809104026020016040519081016040528092919081815260200182805460018160011615610100020316600290048015611e775780601f10611e4c57610100808354040283529160200191611e77565b820191906000526020600020905b815481529060010190602001808311611e5a57829003601f168201915b50505050509250818054600181600116156101000203166002900480601f016020809104026020016040519081016040528092919081815260200182805460018160011615610100020316600290048015611f135780601f10611ee857610100808354040283529160200191611f13565b820191906000526020600020905b815481529060010190602001808311611ef657829003601f168201915b50505050509150925092509250611f9f565b60026040805190810160405280600181526020017f5800000000000000000000000000000000000000000000000000000000000000815250906040805190810160405280600181526020017f5800000000000000000000000000000000000000000000000000000000000000815250908090509250925092505b909192565b60065481565b6000806000602f54603154141515611fc157600080fd5b85871480611fdb5750601587118015611fda5750601586115b5b1561202b57600192507f4b5de2075ef693ef5f4607a6b8b9a40b725a253f266a58fadf7cf9bd9805f99c8386604051808381526020018281526020019250505060405180910390a18292506122df565b600091506000905085871180156120425750601687105b1561205057600292506120cc565b868611801561205f5750601686105b15612084576003925060019150601586141561207f576001905083850194505b6120cb565b6015871180156120945750601686105b156120a65760039250600191506120ca565b6015861180156120b65750601687105b156120c457600292506120c9565b600080fd5b5b5b5b7f4b5de2075ef693ef5f4607a6b8b9a40b725a253f266a58fadf7cf9bd9805f99c8386604051808381526020018281526020019250505060405180910390a181156121f857612160600260009054906101000a900473ffffffffffffffffffffffffffffffffffffffff16600360009054906101000a900473ffffffffffffffffffffffffffffffffffffffff1687610b62565b1561216a576121f3565b6001600960006101000a81548160ff021916908315150217905550600392507f4c4660db760944215f41e957066d756ad5fd0eed1b4640632322eb06f77b034d836121d6600360009054906101000a900473ffffffffffffffffffffffffffffffffffffffff166118b4565b604051808381526020018281526020019250505060405180910390a15b6122db565b612247600360009054906101000a900473ffffffffffffffffffffffffffffffffffffffff16600260009054906101000a900473ffffffffffffffffffffffffffffffffffffffff1687610b62565b15612251576122da565b6001600960006101000a81548160ff021916908315150217905550600292507f4c4660db760944215f41e957066d756ad5fd0eed1b4640632322eb06f77b034d836122bd600260009054906101000a900473ffffffffffffffffffffffffffffffffffffffff166118b4565b604051808381526020018281526020019250505060405180910390a15b5b8292505b5050949350505050565b6000602d546031541415156122fd57600080fd5b600b600f0154905061230d611185565b600b6000018460058110151561231f57fe5b600302016000016000600b6000018660058110151561233a57fe5b600302016001016000600b6000018860058110151561235557fe5b600302016002016000869190505585919050908051906020019061237a92919061244a565b5084919050908051906020019061239292919061244a565b50505050600b600001816005811015156123a857fe5b6003020160020154600b60100160008282540192505081905550600b600f01600081548092919060010191905055506015600b6010015411156123ef57602e546031819055505b50565b6000600a60008373ffffffffffffffffffffffffffffffffffffffff1673ffffffffffffffffffffffffffffffffffffffff168152602001908152602001600020549050919050565b60008060305490508091505090565b828054600181600116156101000203166002900490600052602060002090601f016020900481019282601f1061248b57805160ff19168380011785556124b9565b828001600101855582156124b9579182015b828111156124b857825182559160200191906001019061249d565b5b5090506124c6919061267a565b5090565b6060604051908101604052806060815260200160608152602001600081525090565b828054600181600116156101000203166002900490600052602060002090601f016020900481019282601f106125255780548555612562565b8280016001018555821561256257600052602060002091601f016020900482015b82811115612561578254825591600101919060010190612546565b5b50905061256f919061267a565b5090565b828054600181600116156101000203166002900490600052602060002090601f016020900481019282601f106125b457805160ff19168380011785556125e2565b828001600101855582156125e2579182015b828111156125e15782518255916020019190600101906125c6565b5b5090506125ef919061267a565b5090565b828054600181600116156101000203166002900490600052602060002090601f016020900481019282601f1061262c5780548555612669565b8280016001018555821561266957600052602060002091601f016020900482015b8281111561266857825482559160010191906001019061264d565b5b509050612676919061267a565b5090565b61269c91905b80821115612698576000816000905550600101612680565b5090565b905600a165627a7a72305820f2a828391b26bda6103c8aba6e02a69118347be87157ad81ab5c9c3884ec08140029",
  "source": "pragma solidity ^0.4.23;\r\nimport \"./bank.sol\";\r\n\r\n\r\ncontract Blackjack {\r\n//Constructor\r\nBank public Bankobj;\r\nconstructor(address BankAddress) public{Bankobj = Bank (BankAddress); owner = msg.sender;}\r\n\r\n// Parameters of the game.\r\n  address public owner;\r\n  address public dealer;\r\n  address public player;\r\n\r\n  uint public dealerFund;\r\n  uint public playerFund;\r\n  uint public winnings;\r\n  uint public placedBets;\r\n  uint public number = 2;\r\n\r\n//Function to keep track of bet\r\n  function placedBet(uint bet){\r\n    placedBets += bet;\r\n    Bankobj.AdjustChips(bet);\r\n  }\r\n//Function to double the amount of bet (the winnings)\r\n  function setWinnings(bool won){\r\n    if (won){\r\n      winnings = placedBets * number;\r\n\r\n      placedBets = 0;\r\n    }\r\n    else{\r\n      placedBets = 0;\r\n    }\r\n  }\r\n\r\n// Clears the winnings when cashing out\r\n  function clearWinnings(){\r\n    winnings = 0;\r\n  }\r\n\r\n/*\r\n        Many of the code below this is implementation meant for transactions between two players(accounts).\r\n        This part was not implemented since we used the bank contract where all the money would go through there.\r\n\r\n*/\r\n\r\n  // Set to true at the end, disallows any change\r\n  bool ended;\r\n\r\n  event GameState(uint winner, uint amount);\r\n  event GameEnded(uint winner, uint amount);\r\n  event TestEvent(string msg);\r\n  event CardDealt(string suit, string value, uint numval);\r\n\r\n  // for MetaCoin\r\n  mapping (address => uint) balances;\r\n    event Transfer(address indexed _from, address indexed _to, uint256 _value);\r\n\r\n  // define cards & deck\r\n  struct Card {\r\n\t   string suit;\r\n\t   string value;\r\n\t   uint numval;\r\n  }\r\n\r\n  struct Deck {\r\n    Card [52] cards;\r\n\t  uint currentCard;\r\n  }\r\n\r\n  struct Hand{\r\n    Card [5] hand;\r\n    uint numCards;\r\n    uint cardTotal;\r\n  }\r\n\r\n  Hand playerHand;\r\n  Hand dealerHand;\r\n\r\n  uint playerTurn = 0;\r\n  uint dealerTurn = 1;\r\n  uint evalTurn = 2;\r\n\r\n  uint gameResult;\r\n\r\n  uint turn;\r\n\r\n  Deck myDeck;\r\n\r\n  string [4] Suits = [\"C\", \"D\", \"H\", \"S\"];\r\n  string [13] Vals =  [\"A\", \"2\", \"3\", \"4\", \"5\", \"6\", \"7\", \"8\", \"9\", \"T\", \"J\", \"Q\", \"K\"];\r\n\r\n  function DeckInit() public {\r\n    turn = playerTurn;\r\n    gameResult = 0;\r\n    playerHand.cardTotal = 0;\r\n    dealerHand.cardTotal = 0;\r\n    playerHand.numCards = 0;\r\n    dealerHand.numCards = 0;\r\n\r\n\t\tmyDeck.currentCard = 0;\r\n\t\tuint counter = 0;\r\n\t\tfor (uint i = 0; i< 4; i++){\r\n\t\t\tfor (uint j = 0; j< 13; j++){\r\n\t\t\t\tmyDeck.cards[counter].suit = Suits[i];\r\n\t\t\t\tmyDeck.cards[counter].value = Vals[j];\r\n\t\t\t\tif (j<10) {\r\n\t\t\t\t\tmyDeck.cards[counter].numval = j+1;\r\n\t\t\t\t}\r\n\t\t\t\telse{\r\n\t\t\t\t\tmyDeck.cards[counter].numval = 10;\r\n\t\t\t\t}\r\n\t\t\t\tcounter++;\r\n\t\t\t}\r\n\t\t}\r\n\t}\r\n\r\n\tfunction deal() public returns (string suit, string val, uint numval){\r\n\t\tif (myDeck.currentCard >= myDeck.cards.length){\r\n      revert();\r\n      // Getting an error on null return. Fix later\r\n\t\t\t//return null;\r\n    }\r\n\t\t// Pick Random number between (myDeck.currentCard and cards.length)\r\n\t\tuint range = myDeck.cards.length - myDeck.currentCard;\r\n\t\t// https://www.reddit.com/r/ethereum/comments/442z66/how_to_generate_a_number_between_110_in_solidity/\r\n\t\tuint cardNum = uint(blockhash(block.number-1)) % range;\r\n\r\n\t\t// Say we selected card (5) out of array on first try\r\n\t\t// Now the range will be 1 unit shorter\r\n\t\t// swap used card with card currently at end of range so it does not get reused and so other card is not cut out\r\n\r\n\t\tuint replaceCardNum = myDeck.cards.length - myDeck.currentCard - 1;\r\n\t\tCard storage temp = myDeck.cards[cardNum];\r\n    Card memory temp1;\r\n    temp1.suit = temp.suit; temp1.value = temp.value; temp1.numval = temp.numval;\r\n\t\tmyDeck.cards[cardNum] = myDeck.cards [replaceCardNum];\r\n\t\tmyDeck.cards[replaceCardNum] = temp1;\r\n\r\n\t\tmyDeck.currentCard++;\r\n\r\n    emit CardDealt(temp.suit, temp.value, temp.numval);\r\n    emit TestEvent(temp.value);\r\n    emit TestEvent(temp.suit);\r\n\t\treturn (temp1.suit, temp1.value, temp1.numval);\r\n    ///return temp.value;\r\n\r\n\t}\r\n\r\n\r\n  function PlayerHit() public /*returns(string Psuit1, string Pval1, uint Pnumval1)*/{\r\n    if (turn != playerTurn){\r\n      revert();\r\n    }\r\n\r\n    uint i = playerHand.numCards;\r\n    (playerHand.hand[i].suit, playerHand.hand[i].value, playerHand.hand[i].numval) = deal();\r\n    playerHand.cardTotal += playerHand.hand[i].numval;\r\n    playerHand.numCards++;\r\n    if (playerHand.cardTotal > 21){\r\n      //Bust\r\n      turn = dealerTurn;\r\n    }\r\n    /*return (playerHand.hand[i].suit, playerHand.hand[i].value, playerHand.hand[i].numval);*/\r\n  }\r\n\r\n  function DealerHit() public /*returns(string, string, uint256)*/{\r\n\r\n   uint i = dealerHand.numCards;\r\n    (dealerHand.hand[i].suit, dealerHand.hand[i].value, dealerHand.hand[i].numval) = deal();\r\n    dealerHand.cardTotal += dealerHand.hand[i].numval;\r\n    dealerHand.numCards++;\r\n    if (dealerHand.cardTotal > 16){\r\n      //Bust\r\n      turn = evalTurn;\r\n    }\r\n\r\n  }\r\n\r\n  function getLastDealer() public constant returns (string, string, uint256){\r\n    if (dealerHand.numCards > 0){\r\n      return (dealerHand.hand[dealerHand.numCards-1].suit, dealerHand.hand[dealerHand.numCards-1].value, dealerHand.hand[dealerHand.numCards-1].numval);\r\n      //return(\"C\", Vals[4], dealerHand.cardTotal);\r\n    }\r\n    return(\"X\", \"X\", 2); //Works\r\n  }\r\n  function getLastPlayer() public constant returns (string, string, uint256){\r\n    if (playerHand.numCards > 0){\r\n      return (playerHand.hand[playerHand.numCards-1].suit, playerHand.hand[playerHand.numCards-1].value, playerHand.hand[playerHand.numCards-1].numval);\r\n      //return(\"C\", Vals[4], dealerHand.cardTotal);\r\n    }\r\n    return(\"X\", \"X\", 2); //Works\r\n  }\r\n\r\n  //function checkDealer17(/*uint bettingAmount*/) public constant returns (uint256){\r\n  function checkDealer17(uint bettingAmount) public returns (uint256){\r\n    bool isPlayerWinner = false;\r\n    uint256 results;\r\n    if (dealerHand.cardTotal < 17){\r\n      results =  1; // Keep Hitting\r\n    }\r\n    else if (dealerHand.cardTotal > 16 && dealerHand.cardTotal < 22){\r\n      if (dealerHand.cardTotal < playerHand.cardTotal){\r\n        results = 2; // Dealer over 17. Dealer not bust. Player hand higher. Player win\r\n        isPlayerWinner = true;\r\n      }\r\n      if (dealerHand.cardTotal > playerHand.cardTotal){\r\n        results =  3; // Dealer over 17. Dealer not bust. Dealer hand higher. Dealer win\r\n      }\r\n      if (dealerHand.cardTotal == playerHand.cardTotal){\r\n      results =  4; // Same hand. Push\r\n    }\r\n    }\r\n    else{\r\n      results =  2; // Dealer > 21. Dealer Bust. Player win.\r\n      isPlayerWinner = true;\r\n    }\r\n\r\n    if (results > 1){\r\n      if (isPlayerWinner) {\r\n        if(sendCoin(dealer, player, bettingAmount)) {\r\n        } else {\r\n            ended = true;\r\n            results = 3; // Player\r\n            emit GameEnded(results, getBalanceInEth(player));\r\n        }\r\n      } else {\r\n            if (sendCoin(player, dealer, bettingAmount)) {\r\n              } else {\r\n                ended = true;\r\n                results = 2; // Dealer\r\n                emit GameEnded(results, getBalanceInEth(dealer));\r\n              }\r\n      }\r\n    }\r\n\r\n    emit GameState(results, bettingAmount);\r\n\r\n    gameResult = results;\r\n    return results;\r\n  }\r\n\r\n  function getHandResults() public constant returns (uint256){\r\n    uint results = gameResult;\r\n    //gameResult = 0;\r\n    return results;\r\n  }\r\n\r\n\r\n  function PlayerStand()public{\r\n    /*\r\n    // Initially in place for security. Had to remove for Javascript recursion\r\n    if (turn != playerTurn){\r\n      revert();\r\n    }*/\r\n    turn = dealerTurn;\r\n  }\r\n\r\n  function DealerTurn() public {\r\n    if (turn != dealerTurn){\r\n      revert();\r\n    }\r\n    uint i;\r\n    while (dealerHand.cardTotal < 17){\r\n      i = dealerHand.numCards;\r\n      (dealerHand.hand[i].suit, dealerHand.hand[i].value, dealerHand.hand[i].numval) = deal();\r\n      dealerHand.cardTotal += dealerHand.hand[i].numval;\r\n      dealerHand.numCards++;\r\n    }\r\n    turn = evalTurn;\r\n  }\r\n\r\n  // Shuffle;\r\n\r\n\r\n\r\n  //constructor () public {\r\n    //owner = msg.sender;\r\n  //}\r\n\r\n  function setDealer(address _dealer, uint _fund) public returns (bool success) {\r\n    dealer = _dealer;\r\n    balances[dealer] = _fund;\r\n    return true;\r\n  }\r\n\r\n  function setPlayer(address _player, uint _fund) public returns (bool success) {\r\n    player = _player;\r\n    balances[player] = _fund;\r\n    return true;\r\n  }\r\n\r\n  /// compare actions to determine winner\r\n  ///\r\n  function compare(uint dealerSum, uint playerSum, uint bettingAmount, uint premium) public returns (uint results){\r\n\r\n    if (turn != evalTurn){\r\n      revert();\r\n    }\r\n    // Return if the hand is a push. No money transfer\r\n\tif ((dealerSum == playerSum)||(dealerSum > 21 && playerSum > 21)) {\r\n      results = 1; // tied\r\n      emit GameState(results, bettingAmount);\r\n      return results;\r\n    }\r\n\r\n\r\n    // determine who is winner.\r\n    bool isPlayerWinner = false;\r\n\tbool isBlackjack = false;\r\n\r\n\t// Dealer Win\r\n\tif (dealerSum > playerSum && dealerSum < 22){\r\n\t\tresults = 2; // dealer\r\n\t}\r\n\t// Player Win\r\n\telse if (playerSum > dealerSum && playerSum < 22){\r\n\t\tresults = 3; // player\r\n\t\tisPlayerWinner = true;\r\n\t\tif (playerSum == 21){\r\n\t\t\tisBlackjack = true;\r\n\t\t\t// Premium is BettingAmount/2 --> passed in from front end because cant divide in solidity\r\n\t\t\tbettingAmount = (bettingAmount + premium);\r\n\t\t}\r\n\t}\r\n\t// Dealer Bust\r\n\telse if (dealerSum > 21 && playerSum < 22){\r\n\t\tresults = 3; //player\r\n\t\tisPlayerWinner = true;\r\n\t}\r\n\t// Player Bust\r\n\telse if (playerSum > 21 && dealerSum < 22){\r\n\t\tresults = 2; //dealer\r\n\t}\r\n\t// Default\r\n\telse{\r\n\t\trevert();\r\n\t}\r\n\r\n    emit GameState(results, bettingAmount);\r\n\r\n    // send betting amount\r\n    if (isPlayerWinner) {\r\n      if(sendCoin(dealer, player, bettingAmount)) {\r\n        // continue game\r\n      } else {\r\n        // end of game\r\n        ended = true;\r\n        results = 3; // Player\r\n        emit GameEnded(results, getBalanceInEth(player));\r\n      }\r\n    } else {\r\n      if (sendCoin(player, dealer, bettingAmount)) {\r\n        // continue game\r\n      } else {\r\n        // end of game\r\n        ended = true;\r\n        results = 2; // Dealer\r\n\r\n        emit GameEnded(results, getBalanceInEth(dealer));\r\n      }\r\n    }\r\n\r\n    return results;\r\n  }\r\n\r\n  // send or receive game coin via smart contract\r\n  function sendCoin(address sender, address receiver, uint amount) public returns(bool sufficient) {\r\n    if (balances[sender] < amount) return false;\r\n    balances[sender] -= amount;\r\n    balances[receiver] += amount;\r\n    emit Transfer(sender, receiver, amount);\r\n    return true;\r\n  }\r\n\r\n  function getBalanceInEth(address addr) public view returns(uint){\r\n    return convert(getBalance(addr), 1);\r\n  }\r\n\r\n  function convert(uint amount,uint conversionRate) public pure returns (uint convertedAmount) {\r\n        return amount * conversionRate;\r\n    }\r\n\r\n  function getBalance(address addr) public view returns(uint) {\r\n    return balances[addr];\r\n  }\r\n}\r\n",
  "sourcePath": "C:\\Users\\Guest 1\\chainWang\\Practice\\Blackjack2\\contracts\\Blackjack.sol",
  "compiler": {
    "name": "solc",
    "version": "0.4.24+commit.e67f0147.Emscripten.clang"
  },
  "schemaVersion": "2.0.1",
  "updatedAt": "2021-04-30T00:08:45.917Z"
}