{
  "contractName": "Baccarat",
  "abi": [
    {
      "constant": true,
      "inputs": [],
      "name": "banker",
      "outputs": [
        {
          "name": "",
          "type": "uint256"
        }
      ],
      "payable": false,
      "stateMutability": "view",
      "type": "function"
    },
    {
      "constant": false,
      "inputs": [
        {
          "name": "winnings",
          "type": "uint256"
        }
      ],
      "name": "withdraw",
      "outputs": [],
      "payable": false,
      "stateMutability": "nonpayable",
      "type": "function"
    },
    {
      "constant": true,
      "inputs": [],
      "name": "chips",
      "outputs": [
        {
          "name": "",
          "type": "uint256"
        }
      ],
      "payable": false,
      "stateMutability": "view",
      "type": "function"
    },
    {
      "constant": true,
      "inputs": [],
      "name": "player",
      "outputs": [
        {
          "name": "",
          "type": "uint256"
        }
      ],
      "payable": false,
      "stateMutability": "view",
      "type": "function"
    },
    {
      "constant": true,
      "inputs": [],
      "name": "betsplaced",
      "outputs": [
        {
          "name": "",
          "type": "uint256"
        }
      ],
      "payable": false,
      "stateMutability": "view",
      "type": "function"
    },
    {
      "constant": false,
      "inputs": [
        {
          "name": "amount",
          "type": "uint256"
        }
      ],
      "name": "Pay",
      "outputs": [],
      "payable": true,
      "stateMutability": "payable",
      "type": "function"
    },
    {
      "constant": false,
      "inputs": [
        {
          "name": "money",
          "type": "uint256"
        }
      ],
      "name": "AdjustChips",
      "outputs": [],
      "payable": false,
      "stateMutability": "nonpayable",
      "type": "function"
    },
    {
      "constant": true,
      "inputs": [],
      "name": "Bankobj",
      "outputs": [
        {
          "name": "",
          "type": "address"
        }
      ],
      "payable": false,
      "stateMutability": "view",
      "type": "function"
    },
    {
      "constant": true,
      "inputs": [],
      "name": "winnings",
      "outputs": [
        {
          "name": "",
          "type": "uint256"
        }
      ],
      "payable": false,
      "stateMutability": "view",
      "type": "function"
    },
    {
      "constant": true,
      "inputs": [],
      "name": "getchips",
      "outputs": [
        {
          "name": "",
          "type": "uint256"
        }
      ],
      "payable": false,
      "stateMutability": "view",
      "type": "function"
    },
    {
      "inputs": [
        {
          "name": "bankaddress",
          "type": "address"
        }
      ],
      "payable": false,
      "stateMutability": "nonpayable",
      "type": "constructor"
    },
    {
      "constant": false,
      "inputs": [],
      "name": "ClearWinnings",
      "outputs": [],
      "payable": false,
      "stateMutability": "nonpayable",
      "type": "function"
    },
    {
      "constant": false,
      "inputs": [
        {
          "name": "_money",
          "type": "uint256"
        }
      ],
      "name": "setBet",
      "outputs": [
        {
          "name": "",
          "type": "uint256"
        }
      ],
      "payable": false,
      "stateMutability": "nonpayable",
      "type": "function"
    },
    {
      "constant": false,
      "inputs": [],
      "name": "getBet",
      "outputs": [
        {
          "name": "",
          "type": "uint256"
        }
      ],
      "payable": false,
      "stateMutability": "nonpayable",
      "type": "function"
    },
    {
      "constant": false,
      "inputs": [
        {
          "name": "pdraw1",
          "type": "uint256"
        },
        {
          "name": "pdraw2",
          "type": "uint256"
        },
        {
          "name": "pdraw3",
          "type": "uint256"
        },
        {
          "name": "bdraw1",
          "type": "uint256"
        },
        {
          "name": "bdraw2",
          "type": "uint256"
        },
        {
          "name": "bdraw3",
          "type": "uint256"
        }
      ],
      "name": "play",
      "outputs": [
        {
          "name": "",
          "type": "uint256"
        }
      ],
      "payable": false,
      "stateMutability": "nonpayable",
      "type": "function"
    }
  ],
  "bytecode": "0x60806040526101a060405190810160405280600160ff168152602001600260ff168152602001600360ff168152602001600460ff168152602001600560ff168152602001600660ff168152602001600760ff168152602001600860ff168152602001600960ff168152602001600060ff168152602001600060ff168152602001600060ff168152602001600060ff16815250600790600d6100a1929190610118565b503480156100ae57600080fd5b50604051602080610be38339810180604052810190808051906020019092919050505080601460006101000a81548173ffffffffffffffffffffffffffffffffffffffff021916908373ffffffffffffffffffffffffffffffffffffffff16021790555050610182565b82600d810192821561014c579160200282015b8281111561014b578251829060ff1690559160200191906001019061012b565b5b509050610159919061015d565b5090565b61017f91905b8082111561017b576000816000905550600101610163565b5090565b90565b610a52806101916000396000f3006080604052600436106100d0576000357c0100000000000000000000000000000000000000000000000000000000900463ffffffff1680630ab9db5b146100d557806320835e8c146101005780632e1a7d4d1461012b5780634396a9761461015857806348db5f89146101835780634c6c46df146101ae57806353661d38146101c55780635c48e9ea146101f0578063781a2cca146102635780638ffbf10014610283578063b42fd847146102b0578063d134474c14610307578063e5e9f09614610332578063e8399cc61461035d575b600080fd5b3480156100e157600080fd5b506100ea61039e565b6040518082815260200191505060405180910390f35b34801561010c57600080fd5b506101156103a4565b6040518082815260200191505060405180910390f35b34801561013757600080fd5b50610156600480360381019080803590602001909291905050506103b0565b005b34801561016457600080fd5b5061016d6103fa565b6040518082815260200191505060405180910390f35b34801561018f57600080fd5b50610198610400565b6040518082815260200191505060405180910390f35b3480156101ba57600080fd5b506101c3610406565b005b3480156101d157600080fd5b506101da610410565b6040518082815260200191505060405180910390f35b3480156101fc57600080fd5b5061024d600480360381019080803590602001909291908035906020019092919080359060200190929190803590602001909291908035906020019092919080359060200190929190505050610416565b6040518082815260200191505060405180910390f35b61028160048036038101908080359060200190929190505050610911565b005b34801561028f57600080fd5b506102ae60048036038101908080359060200190929190505050610923565b005b3480156102bc57600080fd5b506102c5610931565b604051808273ffffffffffffffffffffffffffffffffffffffff1673ffffffffffffffffffffffffffffffffffffffff16815260200191505060405180910390f35b34801561031357600080fd5b5061031c610957565b6040518082815260200191505060405180910390f35b34801561033e57600080fd5b5061034761095d565b6040518082815260200191505060405180910390f35b34801561036957600080fd5b5061038860048036038101908080359060200190929190505050610966565b6040518082815260200191505060405180910390f35b60045481565b60006002805402905090565b3373ffffffffffffffffffffffffffffffffffffffff166108fc829081150290604051600060405180830381858888f193505050501580156103f6573d6000803e3d6000fd5b5050565b60005481565b60035481565b6000600181905550565b60025481565b6000806000905060006003819055506000600481905550846006819055506007600654600d8110151561044557fe5b0154600581905550600554600460008282540192505081905550836006819055506007600654600d8110151561047757fe5b0154600581905550600554600460008282540192505081905550600a6004541015156104b357600a6004548115156104ab57fe5b066004819055505b876006819055506007600654600d811015156104cb57fe5b0154600581905550600554600360008282540192505081905550866006819055506007600654600d811015156104fd57fe5b0154600581905550600554600360008282540192505081905550600a60035410151561053957600a60035481151561053157fe5b066003819055505b600860035410158061054e5750600860045410155b15610590576008600354101515610577576105676103a4565b6001600082825401925050819055505b6009600381905550600960048190555060019050610906565b600660035414806105a357506007600354145b1561090557600560045411151561060d57826006819055506007600654600d811015156105cc57fe5b0154600581905550600554600460008282540192505081905550600a60045410151561060857600a60045481151561060057fe5b066004819055505b6108cc565b60056003541115156108cb57856006819055506007600654600d8110151561063157fe5b0154600581905550600554600360008282540192505081905550600a60035410151561066d57600a60035481151561066557fe5b066003819055505b60026004541115156106d257826006819055506007600654600d8110151561069157fe5b0154600581905550600554600460008282540192505081905550600a6004541015156106cd57600a6004548115156106c557fe5b066004819055505b6108ca565b60036004541480156106e75750600860035414155b1561074557826006819055506007600654600d8110151561070457fe5b0154600581905550600554600460008282540192505081905550600a60045410151561074057600a60045481151561073857fe5b066004819055505b6108c9565b600480541480156107595750600260035410155b80156107685750600760035411155b156107c657826006819055506007600654600d8110151561078557fe5b0154600581905550600554600460008282540192505081905550600a6004541015156107c157600a6004548115156107b957fe5b066004819055505b6108c8565b60056004541480156107db5750600460035410155b80156107ea5750600760035411155b1561084857826006819055506007600654600d8110151561080757fe5b0154600581905550600554600460008282540192505081905550600a60045410151561084357600a60045481151561083b57fe5b066004819055505b6108c7565b600660045414801561085d5750600660035410155b801561086c5750600760035411155b156108c657826006819055506007600654600d8110151561088957fe5b0154600581905550600554600460008282540192505081905550600a6004541015156108c557600a6004548115156108bd57fe5b066004819055505b5b5b5b5b5b5b5b6004546003541180156108df5750600081145b156108fc576108ec6103a4565b6001600082825401925050819055505b60006002819055505b5b509695505050505050565b80600080828254019250508190555050565b806000540360008190555050565b601460009054906101000a900473ffffffffffffffffffffffffffffffffffffffff1681565b60015481565b60008054905090565b6000601460009054906101000a900473ffffffffffffffffffffffffffffffffffffffff1673ffffffffffffffffffffffffffffffffffffffff16638ffbf100836040518263ffffffff167c010000000000000000000000000000000000000000000000000000000002815260040180828152602001915050600060405180830381600087803b1580156109f957600080fd5b505af1158015610a0d573d6000803e3d6000fd5b50505050816002600082825401925050819055509190505600a165627a7a72305820608a299a0500c4a4b67e03e04cee457d3a8a1a7b42e962b7441e55bc30a544900029",
  "source": "pragma solidity ^0.4.22;\n\nimport \"./Bank.sol\";\ncontract Baccarat is Bank{\n  uint public winnings; // Player's total winnings\n  uint public betsplaced;// Player's placed bet.\n  uint public player;// Player's total score from the cards\n  uint public banker;// Player's total score from the cards\n  uint draw;// Draws card from deck\n  uint index; //Index used for array holding the cards\n  uint[13] deck = [1, 2, 3, 4, 5, 6, 7, 8, 9, 0, 0, 0, 0]; // Deck of cards\n\n  // Bank object for calling bank functions and variables\n  Bank public Bankobj;\n\n  //accepts the address to the bank smart contract\n  constructor (address bankaddress) public{\n    //initializes the bank object\n    Bankobj = Bank(bankaddress);\n  }\n\n  // ClearWinnings function clears player's winnings\n  // once the player withdraws their total winnings\n  // to the bank.\n  function ClearWinnings() public{\n    winnings = 0;\n  }\n\n  // setBet function sets the bet for the Player.\n  // The function calls for Bank.sol to exchange money for chips.\n  function setBet(uint _money) public returns (uint){\n    Bankobj.AdjustChips(_money);\n    betsplaced += _money;\n  }\n\n  // getBet function returns double the player's bets\n  function getBet() public returns(uint){\n    return betsplaced * 2;\n  }\n\n  // Play function plays the game Baccarat between the Player and the Banker\n  // parameters pdraw 1, 2, and 3 take in three random numbers for the index of the deck for the Player.\n  // parameters bdraw 1, 2, and 3 take in three random numbers for the index of the deck for the Banker.\n  function play(uint pdraw1, uint pdraw2, uint pdraw3,\n    uint bdraw1, uint bdraw2, uint bdraw3) public returns(uint){\n    uint flag = 0; // Flag is used if there is a tie between the Player and the Banker.\n    player = 0; // Player's total score\n    banker= 0; //Banker's total score\n    //Banker draws two cards\n\t\tindex = bdraw1;\n\t\tdraw = deck[index];\n\t\tbanker += draw;\n    index = bdraw2;\n\t\tdraw = deck[index];\n\t\tbanker += draw;\n    // If Banker score is 10 or above\n    // then the score will be the second digit of the two digit Number\n    // Ex: If the score of the cards is 11, the score is then 1.\n\t\tif(banker>=10)\n\t\t\tbanker = banker%10;\n\n    //Player draws two cards\n\t\tindex = pdraw1;\n\t\tdraw = deck[index];\n\t\tplayer += draw;\n    index = pdraw2;\n\t\tdraw = deck[index];\n\t\tplayer += draw;\n    // If Player score is 10 or above\n    // then the score will be the second digit of the two digit Number\n    // Ex: If the score of the cards is 11, the score is then 1.\n\t\tif(player>=10)\n\t\t\tplayer = player%10;\n\t\tif(player >= 8||banker >= 8){//if either of them has a score more than 7 then both stand\n\t\t\tif(player >= 8)//the one with a greater score wins\n\t\t\t\twinnings += getBet();\n\n\t\t\tplayer = 9;\n\t\t\tbanker = 9;//this is the value set so that other conditions are not executed and the last statement is reached straightaway\n\t\t\tflag = 1;//this flag doesn't prints the winner again\n\t\t}\n\t\telse if(player == 6||player == 7){//if player's score is 6 or 7\n\t\t\tif(banker <= 5){//and if banker's score is less than 6\n\t\t\t\tindex = bdraw3;//he deals a third card\n\t\t\t\tdraw = deck[index];\n\t\t\t\tbanker += draw;\n\n\t\t\t\tif(banker >= 10)\n\t\t\t\t\tbanker = banker%10;\n\t\t}\n    //if player's score is less than 6\n    //then player will draw a third card\n    else if(player <= 5){\n\t\t\tindex = pdraw3;\n\t\t\tdraw = deck[index];\n\t\t\tplayer += draw;\n\t\t\tif(player >= 10)\n\t\t\t\tplayer = player%10;\n\n      //if banker's score is less than 6\n      //then banker will draw a third card\n\t\t\tif(banker <=2){\n\t\t\t\tindex = bdraw3;\n\t\t\t\tdraw = deck[index];\n\t\t\t\tbanker += draw;\n\t\t\t\tif(banker >= 10)\n\t\t\t\t\tbanker = banker%10;\n\t\t\t}\n\t\t\telse if(banker == 3 && player != 8){\n\t\t\t\tindex = bdraw3;\n\t\t\t\tdraw = deck[index];\n\t\t\t\tbanker += draw;\n\t\t\t\tif(banker >= 10)\n\t\t\t\t\tbanker = banker%10;\n\t\t\t}\n\t\t\telse if(banker == 4 && player >= 2 && player <= 7){\n\t\t\t\tindex = bdraw3;\n\t\t\t\tdraw = deck[index];\n\t\t\t\tbanker += draw;\n\t\t\t\tif(banker >= 10)\n\t\t\t\t\tbanker = banker%10;\n\t\t\t}\n\t\t\telse if(banker == 5 && player >= 4 && player <= 7){\n\t\t\t\tindex = bdraw3;\n\t\t\t\tdraw = deck[index];\n\t\t\t\tbanker += draw;\n\t\t\t\tif(banker >= 10)\n\t\t\t\t\tbanker = banker%10;\n\t\t\t}\n\t\t\telse if(banker == 6 && player >= 6 && player <= 7){\n\t\t\t\tindex = bdraw3;\n\t\t\t\tdraw = deck[index];\n\t\t\t\tbanker += draw;\n\t\t\t\tif(banker >= 10)\n\t\t\t\t\tbanker = banker%10;\n\t\t\t}\n\t\t}\n\n    //if the winner was not announced before and player is more than banker\n    //then player's bet gets added to their winnings\n    if(player>banker && flag == 0){\n\t\t\twinnings += getBet();//bet is added to the player's amount\n\t\t}\n        betsplaced = 0;\n\n\n  }\n}\n}\n",
  "sourcePath": "C:\\Users\\jerem\\chainjeremy\\casino\\blockchaincasino\\contracts\\Baccarat.sol",
  "compiler": {
    "name": "solc",
    "version": "0.4.23+commit.124ca40d.Emscripten.clang"
  },
  "schemaVersion": "2.0.0",
  "updatedAt": "2021-04-30T02:38:11.091Z"
}