{
  "contractName": "Bank",
  "abi": [
    {
      "constant": true,
      "inputs": [],
      "name": "chips",
      "outputs": [
        {
          "name": "",
          "type": "uint256"
        }
      ],
      "payable": false,
      "stateMutability": "view",
      "type": "function"
    },
    {
      "constant": true,
      "inputs": [],
      "name": "tsting",
      "outputs": [
        {
          "name": "",
          "type": "uint256"
        }
      ],
      "payable": false,
      "stateMutability": "view",
      "type": "function"
    },
    {
      "constant": false,
      "inputs": [
        {
          "name": "amount",
          "type": "uint256"
        }
      ],
      "name": "Pay",
      "outputs": [],
      "payable": true,
      "stateMutability": "payable",
      "type": "function"
    },
    {
      "constant": false,
      "inputs": [
        {
          "name": "winnings",
          "type": "uint256"
        }
      ],
      "name": "withdraw",
      "outputs": [],
      "payable": false,
      "stateMutability": "nonpayable",
      "type": "function"
    },
    {
      "constant": true,
      "inputs": [],
      "name": "getchips",
      "outputs": [
        {
          "name": "",
          "type": "uint256"
        }
      ],
      "payable": false,
      "stateMutability": "view",
      "type": "function"
    },
    {
      "constant": false,
      "inputs": [
        {
          "name": "money",
          "type": "uint256"
        }
      ],
      "name": "AdjustChips",
      "outputs": [],
      "payable": false,
      "stateMutability": "nonpayable",
      "type": "function"
    }
  ],
  "bytecode": "0x6080604052600060015534801561001557600080fd5b50610249806100256000396000f300608060405260043610610078576000357c0100000000000000000000000000000000000000000000000000000000900463ffffffff1680632e1a7d4d1461007d5780634396a976146100aa578063781a2cca146100d55780638ffbf100146100f5578063de45369014610122578063e5e9f0961461014d575b600080fd5b34801561008957600080fd5b506100a860048036038101908080359060200190929190505050610178565b005b3480156100b657600080fd5b506100bf6101e8565b6040518082815260200191505060405180910390f35b6100f3600480360381019080803590602001909291905050506101ee565b005b34801561010157600080fd5b5061012060048036038101908080359060200190929190505050610200565b005b34801561012e57600080fd5b5061013761020e565b6040518082815260200191505060405180910390f35b34801561015957600080fd5b50610162610214565b6040518082815260200191505060405180910390f35b3073ffffffffffffffffffffffffffffffffffffffff1631811115151561019e57600080fd5b3373ffffffffffffffffffffffffffffffffffffffff166108fc829081150290604051600060405180830381858888f193505050501580156101e4573d6000803e3d6000fd5b5050565b60005481565b80600080828254019250508190555050565b806000540360008190555050565b60015481565b600080549050905600a165627a7a7230582065808bb80269f158284c3a37770a165f07c9b4380f3fc111ab0003daf7ca8d950029",
  "source": "pragma solidity ^0.4.23;\r\ncontract Bank{\r\n  uint public chips;\r\n  uint public tsting = 0;\r\n\r\n//accepts payment to increase the number of chips\r\nfunction Pay(uint amount) payable public{\r\n  chips += amount;\r\n}\r\n//sends the mesage sender their winnings or some amount of money\r\nfunction withdraw(uint winnings) public{\r\n  require(winnings <= this.balance);\r\n  msg.sender.transfer(winnings);\r\n}\r\n//returns the amount of chips\r\nfunction getchips() public view returns (uint){\r\n  return chips;\r\n}\r\n//adjusts the amount of chips that are in the account\r\nfunction AdjustChips(uint money/*,string bet,uint number*/) public {\r\n    chips = chips - money;\r\n}\r\n\r\n}\r\n",
  "sourcePath": "C:\\Users\\jerem\\chainjeremy\\casino\\blockchaincasino\\contracts\\Bank.sol",
  "compiler": {
    "name": "solc",
    "version": "0.4.23+commit.124ca40d.Emscripten.clang"
  },
  "schemaVersion": "2.0.0",
  "updatedAt": "2021-04-29T02:06:10.643Z"
}