{
  "contractName": "Bank",
  "abi": [
    {
      "constant": true,
      "inputs": [],
      "name": "chips",
      "outputs": [
        {
          "name": "",
          "type": "uint256"
        }
      ],
      "payable": false,
      "stateMutability": "view",
      "type": "function"
    },
    {
      "constant": true,
      "inputs": [],
      "name": "tsting",
      "outputs": [
        {
          "name": "",
          "type": "uint256"
        }
      ],
      "payable": false,
      "stateMutability": "view",
      "type": "function"
    },
    {
      "anonymous": false,
      "inputs": [
        {
          "indexed": false,
          "name": "money",
          "type": "uint256"
        }
      ],
      "name": "ReRender",
      "type": "event"
    },
    {
      "constant": false,
      "inputs": [
        {
          "name": "amount",
          "type": "uint256"
        }
      ],
      "name": "Pay",
      "outputs": [],
      "payable": true,
      "stateMutability": "payable",
      "type": "function"
    },
    {
      "constant": false,
      "inputs": [
        {
          "name": "winnings",
          "type": "uint256"
        }
      ],
      "name": "withdraw",
      "outputs": [],
      "payable": false,
      "stateMutability": "nonpayable",
      "type": "function"
    },
    {
      "constant": true,
      "inputs": [],
      "name": "getchips",
      "outputs": [
        {
          "name": "",
          "type": "uint256"
        }
      ],
      "payable": false,
      "stateMutability": "view",
      "type": "function"
    },
    {
      "constant": false,
      "inputs": [],
      "name": "Test",
      "outputs": [
        {
          "name": "",
          "type": "uint256"
        }
      ],
      "payable": false,
      "stateMutability": "nonpayable",
      "type": "function"
    },
    {
      "constant": false,
      "inputs": [
        {
          "name": "money",
          "type": "uint256"
        }
      ],
      "name": "AdjustChips",
      "outputs": [],
      "payable": false,
      "stateMutability": "nonpayable",
      "type": "function"
    }
  ],
  "bytecode": "0x6080604052600060015534801561001557600080fd5b5061032f806100256000396000f300608060405260043610610083576000357c0100000000000000000000000000000000000000000000000000000000900463ffffffff1680632e1a7d4d146100885780634396a976146100b5578063781a2cca146100e05780638ffbf10014610100578063a163a6241461012d578063de45369014610158578063e5e9f09614610183575b600080fd5b34801561009457600080fd5b506100b3600480360381019080803590602001909291905050506101ae565b005b3480156100c157600080fd5b506100ca610256565b6040518082815260200191505060405180910390f35b6100fe6004803603810190808035906020019092919050505061025c565b005b34801561010c57600080fd5b5061012b600480360381019080803590602001909291905050506102a6565b005b34801561013957600080fd5b506101426102eb565b6040518082815260200191505060405180910390f35b34801561016457600080fd5b5061016d6102f4565b6040518082815260200191505060405180910390f35b34801561018f57600080fd5b506101986102fa565b6040518082815260200191505060405180910390f35b3073ffffffffffffffffffffffffffffffffffffffff163181111515156101d457600080fd5b3373ffffffffffffffffffffffffffffffffffffffff166108fc829081150290604051600060405180830381858888f1935050505015801561021a573d6000803e3d6000fd5b507fafc95d1f039c281835f22bd8b6130230b62953de60e8c4126096832f79b4d03960016040518082815260200191505060405180910390a150565b60005481565b7fafc95d1f039c281835f22bd8b6130230b62953de60e8c4126096832f79b4d03960036040518082815260200191505060405180910390a180600080828254019250508190555050565b80600054036000819055507fafc95d1f039c281835f22bd8b6130230b62953de60e8c4126096832f79b4d039816040518082815260200191505060405180910390a150565b60008054905090565b60015481565b600080549050905600a165627a7a723058200ad5bbb633d82e1f91c635ce116851b5dc46280f1c92225b2343bb485794cc140029",
  "source": "pragma solidity ^0.4.23;\r\ncontract Bank{\r\n  uint public chips;\r\n  uint public tsting = 0;\r\nevent ReRender(uint money);\r\n\r\nfunction Pay(uint amount) payable public{\r\n  emit ReRender(3);\r\n  chips += amount;\r\n}\r\n\r\nfunction withdraw(uint winnings) public{\r\n  require(winnings <= this.balance);\r\n  msg.sender.transfer(winnings);\r\n  emit ReRender(1);\r\n}\r\nfunction getchips() public view returns (uint){\r\n  return chips;\r\n}\r\nfunction Test() public returns (uint){\r\n  return chips;\r\n}\r\nfunction AdjustChips(uint money/*,string bet,uint number*/) public {\r\n    chips = chips - money;\r\n\r\n    emit ReRender(money);\r\n}\r\n\r\n}\r\n",
  "sourcePath": "C:\\Users\\jerem\\chainjeremy\\casino\\blockchaincasino\\contracts\\Bank.sol",
  "compiler": {
    "name": "solc",
    "version": "0.4.23+commit.124ca40d.Emscripten.clang"
  },
  "schemaVersion": "2.0.0",
  "updatedAt": "2021-04-26T16:18:33.628Z"
}