{
  "contractName": "Bank",
  "abi": [
    {
      "constant": true,
      "inputs": [],
      "name": "chips",
      "outputs": [
        {
          "name": "",
          "type": "uint256"
        }
      ],
      "payable": false,
      "stateMutability": "view",
      "type": "function"
    },
    {
      "constant": false,
      "inputs": [
        {
          "name": "amount",
          "type": "uint256"
        }
      ],
      "name": "Pay",
      "outputs": [],
      "payable": true,
      "stateMutability": "payable",
      "type": "function"
    },
    {
      "constant": false,
      "inputs": [
        {
          "name": "winnings",
          "type": "uint256"
        }
      ],
      "name": "withdraw",
      "outputs": [],
      "payable": false,
      "stateMutability": "nonpayable",
      "type": "function"
    },
    {
      "constant": true,
      "inputs": [],
      "name": "getchips",
      "outputs": [
        {
          "name": "",
          "type": "uint256"
        }
      ],
      "payable": false,
      "stateMutability": "view",
      "type": "function"
    },
    {
      "constant": false,
      "inputs": [
        {
          "name": "money",
          "type": "uint256"
        }
      ],
      "name": "AdjustChips",
      "outputs": [],
      "payable": false,
      "stateMutability": "nonpayable",
      "type": "function"
    }
  ],
  "bytecode": "0x608060405234801561001057600080fd5b506101e7806100206000396000f30060806040526004361061006d576000357c0100000000000000000000000000000000000000000000000000000000900463ffffffff1680632e1a7d4d146100725780634396a9761461009f578063781a2cca146100ca5780638ffbf100146100ea578063e5e9f09614610117575b600080fd5b34801561007e57600080fd5b5061009d60048036038101908080359060200190929190505050610142565b005b3480156100ab57600080fd5b506100b461018c565b6040518082815260200191505060405180910390f35b6100e860048036038101908080359060200190929190505050610192565b005b3480156100f657600080fd5b50610115600480360381019080803590602001909291905050506101a4565b005b34801561012357600080fd5b5061012c6101b2565b6040518082815260200191505060405180910390f35b3373ffffffffffffffffffffffffffffffffffffffff166108fc829081150290604051600060405180830381858888f19350505050158015610188573d6000803e3d6000fd5b5050565b60005481565b80600080828254019250508190555050565b806000540360008190555050565b600080549050905600a165627a7a7230582076fa8f1d37cce209819bd322749396973aa082f1f93eb0962fa3be2f66470bc20029",
  "source": "pragma solidity ^0.4.23;\r\ncontract Bank{\r\n  uint public chips;\r\n\r\n\r\n//accepts payment to increase the number of chips\r\nfunction Pay(uint amount) payable public{\r\n  chips += amount;\r\n}\r\n//sends the mesage sender their winnings or some amount of money\r\nfunction withdraw(uint winnings) public{\r\n  //require(winnings <= this.balance);\r\n  msg.sender.transfer(winnings);\r\n}\r\n//returns the amount of chips\r\nfunction getchips() public view returns (uint){\r\n  return chips;\r\n}\r\n//adjusts the amount of chips that are in the account\r\nfunction AdjustChips(uint money) public {\r\n    chips = chips - money;\r\n}\r\n\r\n}\r\n",
  "sourcePath": "C:\\Users\\jerem\\chainjeremy\\casino\\blockchaincasino\\contracts\\bank.sol",
  "compiler": {
    "name": "solc",
    "version": "0.4.23+commit.124ca40d.Emscripten.clang"
  },
  "schemaVersion": "2.0.0",
  "updatedAt": "2021-04-30T02:01:36.475Z"
}