{
  "contractName": "Blockchaincasino",
  "abi": [
    {
      "constant": false,
      "inputs": [
        {
          "name": "_PIE",
          "type": "string"
        }
      ],
      "name": "setPI",
      "outputs": [],
      "payable": false,
      "stateMutability": "nonpayable",
      "type": "function"
    },
    {
      "constant": true,
      "inputs": [],
      "name": "getPI",
      "outputs": [
        {
          "name": "",
          "type": "string"
        }
      ],
      "payable": false,
      "stateMutability": "view",
      "type": "function"
    },
    {
      "constant": false,
      "inputs": [],
      "name": "Welcome",
      "outputs": [],
      "payable": false,
      "stateMutability": "nonpayable",
      "type": "function"
    }
  ],
  "bytecode": "0x6060604052341561000f57600080fd5b6103518061001e6000396000f300606060405260043610610057576000357c0100000000000000000000000000000000000000000000000000000000900463ffffffff1680633d6979621461005c578063aadaeef7146100b9578063d41d385b14610147575b600080fd5b341561006757600080fd5b6100b7600480803590602001908201803590602001908080601f0160208091040260200160405190810160405280939291908181526020018383808284378201915050505050509190505061015c565b005b34156100c457600080fd5b6100cc610176565b6040518080602001828103825283818151815260200191508051906020019080838360005b8381101561010c5780820151818401526020810190506100f1565b50505050905090810190601f1680156101395780820380516001836020036101000a031916815260200191505b509250505060405180910390f35b341561015257600080fd5b61015a61021e565b005b806000908051906020019061017292919061026c565b5050565b61017e6102ec565b60008054600181600116156101000203166002900480601f0160208091040260200160405190810160405280929190818152602001828054600181600116156101000203166002900480156102145780601f106101e957610100808354040283529160200191610214565b820191906000526020600020905b8154815290600101906020018083116101f757829003601f168201915b5050505050905090565b6040805190810160405280601d81526020017f48656c6c6f20746869732077696c6c206769766520796f75205049452e0000008152506000908051906020019061026992919061026c565b50565b828054600181600116156101000203166002900490600052602060002090601f016020900481019282601f106102ad57805160ff19168380011785556102db565b828001600101855582156102db579182015b828111156102da5782518255916020019190600101906102bf565b5b5090506102e89190610300565b5090565b602060405190810160405280600081525090565b61032291905b8082111561031e576000816000905550600101610306565b5090565b905600a165627a7a72305820fea994ca2b32a346c2561ee2de993ec67ec978777b973620c72157401789f5f20029",
  "source": "pragma solidity ^0.4.18;\r\n\r\ncontract Blockchaincasino {\r\n  string PIE;\r\n\r\n  function Welcome() public {\r\n    PIE = \"Hello this will give you PIE.\";\r\n  }\r\n  function setPI(string _PIE) public {\r\n    PIE = _PIE;\r\n  }\r\n  function getPI() public view returns (string) {\r\n    return PIE;\r\n  }\r\n}\r\n",
  "sourcePath": "C:\\Users\\jerem\\chainjeremy\\blockchaincasino\\casino\\contracts\\Blockchaincasino.sol",
  "compiler": {
    "name": "solc",
    "version": "0.4.18+commit.9cf6e910.Emscripten.clang"
  },
  "schemaVersion": "1.0.1",
  "updatedAt": "2021-03-19T20:53:12.996Z"
}