{
  "contractName": "Blockchaincasino",
  "abi": [
    {
      "constant": false,
      "inputs": [
        {
          "name": "winnings",
          "type": "uint256"
        }
      ],
      "name": "withdraw",
      "outputs": [],
      "payable": false,
      "stateMutability": "nonpayable",
      "type": "function"
    },
    {
      "constant": true,
      "inputs": [],
      "name": "chips",
      "outputs": [
        {
          "name": "",
          "type": "uint256"
        }
      ],
      "payable": false,
      "stateMutability": "view",
      "type": "function"
    },
    {
      "constant": true,
      "inputs": [],
      "name": "betsplaced",
      "outputs": [
        {
          "name": "",
          "type": "uint256"
        }
      ],
      "payable": false,
      "stateMutability": "view",
      "type": "function"
    },
    {
      "constant": false,
      "inputs": [
        {
          "name": "amount",
          "type": "uint256"
        }
      ],
      "name": "Pay",
      "outputs": [],
      "payable": true,
      "stateMutability": "payable",
      "type": "function"
    },
    {
      "constant": false,
      "inputs": [
        {
          "name": "money",
          "type": "uint256"
        }
      ],
      "name": "AdjustChips",
      "outputs": [],
      "payable": false,
      "stateMutability": "nonpayable",
      "type": "function"
    },
    {
      "constant": true,
      "inputs": [],
      "name": "Bankobj",
      "outputs": [
        {
          "name": "",
          "type": "address"
        }
      ],
      "payable": false,
      "stateMutability": "view",
      "type": "function"
    },
    {
      "constant": true,
      "inputs": [],
      "name": "winnings",
      "outputs": [
        {
          "name": "",
          "type": "uint256"
        }
      ],
      "payable": false,
      "stateMutability": "view",
      "type": "function"
    },
    {
      "constant": true,
      "inputs": [],
      "name": "tsting",
      "outputs": [
        {
          "name": "",
          "type": "uint256"
        }
      ],
      "payable": false,
      "stateMutability": "view",
      "type": "function"
    },
    {
      "constant": true,
      "inputs": [],
      "name": "getchips",
      "outputs": [
        {
          "name": "",
          "type": "uint256"
        }
      ],
      "payable": false,
      "stateMutability": "view",
      "type": "function"
    },
    {
      "inputs": [
        {
          "name": "bankaddress",
          "type": "address"
        }
      ],
      "payable": false,
      "stateMutability": "nonpayable",
      "type": "constructor"
    },
    {
      "constant": false,
      "inputs": [],
      "name": "ClearWinnings",
      "outputs": [],
      "payable": false,
      "stateMutability": "nonpayable",
      "type": "function"
    },
    {
      "constant": false,
      "inputs": [
        {
          "name": "_money",
          "type": "uint256"
        },
        {
          "name": "bet",
          "type": "string"
        },
        {
          "name": "number",
          "type": "uint256"
        }
      ],
      "name": "setbet",
      "outputs": [
        {
          "name": "",
          "type": "uint256"
        }
      ],
      "payable": false,
      "stateMutability": "nonpayable",
      "type": "function"
    },
    {
      "constant": false,
      "inputs": [
        {
          "name": "bet",
          "type": "string"
        },
        {
          "name": "number",
          "type": "uint256"
        }
      ],
      "name": "getbet",
      "outputs": [
        {
          "name": "",
          "type": "uint256"
        }
      ],
      "payable": false,
      "stateMutability": "nonpayable",
      "type": "function"
    },
    {
      "constant": false,
      "inputs": [
        {
          "name": "draw",
          "type": "uint256"
        }
      ],
      "name": "play",
      "outputs": [
        {
          "name": "",
          "type": "uint256"
        }
      ],
      "payable": false,
      "stateMutability": "nonpayable",
      "type": "function"
    }
  ],
  "bytecode": "0x60806040526000600155602060405190810160405280600060ff1681525060059060016200002f929190620003ac565b50602060405190810160405280600060ff16815250600790600162000056929190620003ac565b50602060405190810160405280600060ff1681525060099060016200007d929190620003ac565b50602060405190810160405280600060ff16815250600b906001620000a4929190620003f6565b50602060405190810160405280600060ff16815250600e906001620000cb929190620003f6565b50602060405190810160405280600060ff168152506011906001620000f292919062000440565b50602060405190810160405280600060ff16815250601c906001620001199291906200048a565b50602060405190810160405280600060ff16815250603290600162000140929190620004d4565b50602060405190810160405280600060ff16815250603e906001620001679291906200051e565b50602060405190810160405280600060ff1681525060769060016200018e92919062000568565b5061024060405190810160405280600160ff168152602001600360ff168152602001600560ff168152602001600760ff168152602001600960ff168152602001600c60ff168152602001600e60ff168152602001601060ff168152602001601260ff168152602001601360ff168152602001601560ff168152602001601760ff168152602001601960ff168152602001601b60ff168152602001601e60ff168152602001602060ff168152602001602260ff168152602001602460ff16815250609c90601262000260929190620005b2565b5061024060405190810160405280600260ff168152602001600460ff168152602001600660ff168152602001600860ff168152602001600a60ff168152602001600b60ff168152602001600d60ff168152602001600f60ff168152602001601160ff168152602001601460ff168152602001601660ff168152602001601860ff168152602001601a60ff168152602001601c60ff168152602001601d60ff168152602001601f60ff168152602001602160ff168152602001602360ff1681525060ae90601262000332929190620005b2565b503480156200034057600080fd5b5060405160208062003a31833981018060405281019080805190602001909291905050508060c060006101000a81548173ffffffffffffffffffffffffffffffffffffffff021916908373ffffffffffffffffffffffffffffffffffffffff1602179055505062000624565b8260028101928215620003e3579160200282015b82811115620003e2578251829060ff16905591602001919060010190620003c0565b5b509050620003f29190620005fc565b5090565b82600381019282156200042d579160200282015b828111156200042c578251829060ff169055916020019190600101906200040a565b5b5090506200043c9190620005fc565b5090565b82600b810192821562000477579160200282015b8281111562000476578251829060ff1690559160200191906001019062000454565b5b509050620004869190620005fc565b5090565b8260168101928215620004c1579160200282015b82811115620004c0578251829060ff169055916020019190600101906200049e565b5b509050620004d09190620005fc565b5090565b82600c81019282156200050b579160200282015b828111156200050a578251829060ff16905591602001919060010190620004e8565b5b5090506200051a9190620005fc565b5090565b826038810192821562000555579160200282015b8281111562000554578251829060ff1690559160200191906001019062000532565b5b509050620005649190620005fc565b5090565b82602681019282156200059f579160200282015b828111156200059e578251829060ff169055916020019190600101906200057c565b5b509050620005ae9190620005fc565b5090565b8260128101928215620005e9579160200282015b82811115620005e8578251829060ff16905591602001919060010190620005c6565b5b509050620005f89190620005fc565b5090565b6200062191905b808211156200061d57600081600090555060010162000603565b5090565b90565b6133fd80620006346000396000f3006080604052600436106100c5576000357c0100000000000000000000000000000000000000000000000000000000900463ffffffff16806322ae8b6d146100ca5780632e1a7d4d146101515780634396a9761461017e5780634c6c46df146101a957806353661d38146101c05780636898f82b146101eb578063781a2cca1461022c5780638ffbf1001461024c578063b42fd84714610279578063c1058b0d146102d0578063d134474c14610361578063de4536901461038c578063e5e9f096146103b7575b600080fd5b3480156100d657600080fd5b5061013b600480360381019080803590602001908201803590602001908080601f0160208091040260200160405190810160405280939291908181526020018383808284378201915050505050509192919290803590602001909291905050506103e2565b6040518082815260200191505060405180910390f35b34801561015d57600080fd5b5061017c60048036038101908080359060200190929190505050610e49565b005b34801561018a57600080fd5b50610193610eb9565b6040518082815260200191505060405180910390f35b3480156101b557600080fd5b506101be610ebf565b005b3480156101cc57600080fd5b506101d5610f1d565b6040518082815260200191505060405180910390f35b3480156101f757600080fd5b5061021660048036038101908080359060200190929190505050610f23565b6040518082815260200191505060405180910390f35b61024a60048036038101908080359060200190929190505050611fc1565b005b34801561025857600080fd5b5061027760048036038101908080359060200190929190505050611fd3565b005b34801561028557600080fd5b5061028e611fe1565b604051808273ffffffffffffffffffffffffffffffffffffffff1673ffffffffffffffffffffffffffffffffffffffff16815260200191505060405180910390f35b3480156102dc57600080fd5b5061034b60048036038101908080359060200190929190803590602001908201803590602001908080601f016020809104026020016040519081016040528093929190818152602001838380828437820191505050505050919291929080359060200190929190505050612007565b6040518082815260200191505060405180910390f35b34801561036d57600080fd5b506103766133bc565b6040518082815260200191505060405180910390f35b34801561039857600080fd5b506103a16133c2565b6040518082815260200191505060405180910390f35b3480156103c357600080fd5b506103cc6133c8565b6040518082815260200191505060405180910390f35b600060405180807f72656400000000000000000000000000000000000000000000000000000000008152506003019050604051809103902060001916836040518082805190602001908083835b602083101515610454578051825260208201915060208101905060208303925061042f565b6001836020036101000a03801982511681845116808217855250505050505090500191505060405180910390206000191614156104a75760026005600060028110151561049d57fe5b0154029050610e43565b60405180807f626c61636b0000000000000000000000000000000000000000000000000000008152506005019050604051809103902060001916836040518082805190602001908083835b60208310151561051757805182526020820191506020810190506020830392506104f2565b6001836020036101000a038019825116818451168082178552505050505050905001915050604051809103902060001916141561056a5760026005600160028110151561056057fe5b0154029050610e43565b60405180807f6576656e000000000000000000000000000000000000000000000000000000008152506004019050604051809103902060001916836040518082805190602001908083835b6020831015156105da57805182526020820191506020810190506020830392506105b5565b6001836020036101000a038019825116818451168082178552505050505050905001915050604051809103902060001916141561062d5760026007600060028110151561062357fe5b0154029050610e43565b60405180807f6f646400000000000000000000000000000000000000000000000000000000008152506003019050604051809103902060001916836040518082805190602001908083835b60208310151561069d5780518252602082019150602081019050602083039250610678565b6001836020036101000a03801982511681845116808217855250505050505090500191505060405180910390206000191614156106f0576002600760016002811015156106e657fe5b0154029050610e43565b60405180807f6c6f7700000000000000000000000000000000000000000000000000000000008152506003019050604051809103902060001916836040518082805190602001908083835b602083101515610760578051825260208201915060208101905060208303925061073b565b6001836020036101000a03801982511681845116808217855250505050505090500191505060405180910390206000191614156107b3576002600960006002811015156107a957fe5b0154029050610e43565b60405180807f68696768000000000000000000000000000000000000000000000000000000008152506004019050604051809103902060001916836040518082805190602001908083835b60208310151561082357805182526020820191506020810190506020830392506107fe565b6001836020036101000a03801982511681845116808217855250505050505090500191505060405180910390206000191614156108765760026009600160028110151561086c57fe5b0154029050610e43565b60405180807f646f7a656e7300000000000000000000000000000000000000000000000000008152506006019050604051809103902060001916836040518082805190602001908083835b6020831015156108e657805182526020820191506020810190506020830392506108c1565b6001836020036101000a038019825116818451168082178552505050505050905001915050604051809103902060001916141561094a57600b8260038110151561092c57fe5b01546002600b8460038110151561093f57fe5b015402019050610e43565b60405180807f636f6c756d6e73000000000000000000000000000000000000000000000000008152506007019050604051809103902060001916836040518082805190602001908083835b6020831015156109ba5780518252602082019150602081019050602083039250610995565b6001836020036101000a0380198251168184511680821785525050505050509050019150506040518091039020600019161415610a1e57600e82600381101515610a0057fe5b01546002600e84600381101515610a1357fe5b015402019050610e43565b60405180807f7369786e756d00000000000000000000000000000000000000000000000000008152506006019050604051809103902060001916836040518082805190602001908083835b602083101515610a8e5780518252602082019150602081019050602083039250610a69565b6001836020036101000a0380198251168184511680821785525050505050509050019150506040518091039020600019161415610af257601182600b81101515610ad457fe5b01546005601184600b81101515610ae757fe5b015402019050610e43565b60405180807f666f75726e756d000000000000000000000000000000000000000000000000008152506007019050604051809103902060001916836040518082805190602001908083835b602083101515610b625780518252602082019150602081019050602083039250610b3d565b6001836020036101000a0380198251168184511680821785525050505050509050019150506040518091039020600019161415610bc657601c82601681101515610ba857fe5b01546008601c84601681101515610bbb57fe5b015402019050610e43565b60405180807f74687265656e756d7300000000000000000000000000000000000000000000008152506009019050604051809103902060001916836040518082805190602001908083835b602083101515610c365780518252602082019150602081019050602083039250610c11565b6001836020036101000a0380198251168184511680821785525050505050509050019150506040518091039020600019161415610c9a57603282600c81101515610c7c57fe5b0154600b603284600c81101515610c8f57fe5b015402019050610e43565b60405180807f74776f6e756d73000000000000000000000000000000000000000000000000008152506007019050604051809103902060001916836040518082805190602001908083835b602083101515610d0a5780518252602082019150602081019050602083039250610ce5565b6001836020036101000a0380198251168184511680821785525050505050509050019150506040518091039020600019161415610d6e57603e82603881101515610d5057fe5b01546011603e84603881101515610d6357fe5b015402019050610e43565b60405180807f73696e676c6500000000000000000000000000000000000000000000000000008152506006019050604051809103902060001916836040518082805190602001908083835b602083101515610dde5780518252602082019150602081019050602083039250610db9565b6001836020036101000a0380198251168184511680821785525050505050509050019150506040518091039020600019161415610e4257607682602681101515610e2457fe5b01546023607684602681101515610e3757fe5b015402019050610e43565b5b92915050565b3073ffffffffffffffffffffffffffffffffffffffff16318111151515610e6f57600080fd5b3373ffffffffffffffffffffffffffffffffffffffff166108fc829081150290604051600060405180830381858888f19350505050158015610eb5573d6000803e3d6000fd5b5050565b60005481565b670de0b6b3a76400006002540260c060009054906101000a900473ffffffffffffffffffffffffffffffffffffffff1673ffffffffffffffffffffffffffffffffffffffff163110151515610f1357600080fd5b6000600281905550565b60035481565b60008060038190555060008214158015610f3e575060258214155b15611dff5760006004819055505b6012600454101561104a57609c600454601281101515610f6857fe5b0154821415610fc557610fb16040805190810160405280600381526020017f726564000000000000000000000000000000000000000000000000000000000081525060006103e2565b60026000828254019250508190555061104a565b60ae600454601281101515610fd657fe5b01548214156110335761101f6040805190810160405280600581526020017f626c61636b00000000000000000000000000000000000000000000000000000081525060016103e2565b60026000828254019250508190555061104a565b600460008154809291906001019190505550610f4c565b600060028381151561105857fe5b0614156110b35761109f6040805190810160405280600481526020017f6576656e0000000000000000000000000000000000000000000000000000000081525060006103e2565b600260008282540192505081905550611103565b6110f36040805190810160405280600381526020017f6f6464000000000000000000000000000000000000000000000000000000000081525060016103e2565b6002600082825401925050819055505b60128211156111605761114c6040805190810160405280600481526020017f686967680000000000000000000000000000000000000000000000000000000081525060016103e2565b6002600082825401925050819055506111b0565b6111a06040805190810160405280600381526020017f6c6f77000000000000000000000000000000000000000000000000000000000081525060006103e2565b6002600082825401925050819055505b600182101580156111c25750600c8211155b1561121b576112076040805190810160405280600681526020017f646f7a656e73000000000000000000000000000000000000000000000000000081525060006103e2565b6002600082825401925050819055506112e1565b600d821015801561122d575060188211155b15611286576112726040805190810160405280600681526020017f646f7a656e73000000000000000000000000000000000000000000000000000081525060016103e2565b6002600082825401925050819055506112e0565b60198211156112df576112cf6040805190810160405280600681526020017f646f7a656e73000000000000000000000000000000000000000000000000000081525060026103e2565b6002600082825401925050819055505b5b5b60006003838115156112ef57fe5b06141561134a576113366040805190810160405280600781526020017f636f6c756d6e730000000000000000000000000000000000000000000000000081525060006103e2565b600260008282540192505081905550611420565b600060036001840181151561135b57fe5b0614156113b6576113a26040805190810160405280600781526020017f636f6c756d6e730000000000000000000000000000000000000000000000000081525060016103e2565b60026000828254019250508190555061141f565b60006003600284018115156113c757fe5b06141561141e5761140e6040805190810160405280600781526020017f636f6c756d6e730000000000000000000000000000000000000000000000000081525060026103e2565b6002600082825401925050819055505b5b5b60018210158015611432575060068211155b15611487576114776040805190810160405280600681526020017f7369786e756d000000000000000000000000000000000000000000000000000081525060006103e2565b6002600082825401925050819055505b60048210158015611499575060098211155b156114ee576114de6040805190810160405280600681526020017f7369786e756d000000000000000000000000000000000000000000000000000081525060016103e2565b6002600082825401925050819055505b600782101580156115005750600c8211155b15611555576115456040805190810160405280600681526020017f7369786e756d000000000000000000000000000000000000000000000000000081525060026103e2565b6002600082825401925050819055505b600a82101580156115675750600f8211155b156115bc576115ac6040805190810160405280600681526020017f7369786e756d000000000000000000000000000000000000000000000000000081525060036103e2565b6002600082825401925050819055505b600d82101580156115ce575060128211155b15611623576116136040805190810160405280600681526020017f7369786e756d000000000000000000000000000000000000000000000000000081525060046103e2565b6002600082825401925050819055505b60108210158015611635575060158211155b1561168a5761167a6040805190810160405280600681526020017f7369786e756d000000000000000000000000000000000000000000000000000081525060056103e2565b6002600082825401925050819055505b6013821015801561169c575060188211155b156116f1576116e16040805190810160405280600681526020017f7369786e756d000000000000000000000000000000000000000000000000000081525060066103e2565b6002600082825401925050819055505b601682101580156117035750601b8211155b15611758576117486040805190810160405280600681526020017f7369786e756d000000000000000000000000000000000000000000000000000081525060076103e2565b6002600082825401925050819055505b6019821015801561176a5750601e8211155b156117bf576117af6040805190810160405280600681526020017f7369786e756d000000000000000000000000000000000000000000000000000081525060086103e2565b6002600082825401925050819055505b601c82101580156117d1575060218211155b15611826576118166040805190810160405280600681526020017f7369786e756d000000000000000000000000000000000000000000000000000081525060096103e2565b6002600082825401925050819055505b601f8210158015611838575060248211155b1561188d5761187d6040805190810160405280600681526020017f7369786e756d0000000000000000000000000000000000000000000000000000815250600a6103e2565b6002600082825401925050819055505b60016004819055505b601f600454111515611951576004548214806118b6575060016004540182145b806118c5575060036004540182145b806118d35750600480540182145b1561193b5761192b6040805190810160405280600781526020017f666f75726e756d000000000000000000000000000000000000000000000000008152506001600360026004540181151561192457fe5b04036103e2565b6002600082825401925050819055505b6003600460008282540192505081905550611896565b60026004819055505b6020600454111515611a155760045482148061197a575060016004540182145b80611989575060036004540182145b806119975750600480540182145b156119ff576119ef6040805190810160405280600781526020017f666f75726e756d00000000000000000000000000000000000000000000000000815250600a60036001600454018115156119e857fe5b04016103e2565b6002600082825401925050819055505b600360046000828254019250508190555061195a565b60016004819055505b60226004541015611abe576004548210158015611a4057506002600454018211155b15611aa857611a986040805190810160405280600981526020017f74687265656e756d73000000000000000000000000000000000000000000000081525060016003600260045401811515611a9157fe5b04036103e2565b6002600082825401925050819055505b6003600460008282540192505081905550611a1e565b60016004819055505b6022600454111515611b6557600454821480611ae7575060016004540182145b15611b4f57611b3f6040805190810160405280600781526020017f74776f6e756d730000000000000000000000000000000000000000000000000081525060016003600260045401811515611b3857fe5b04036103e2565b6002600082825401925050819055505b6003600460008282540192505081905550611ac7565b60026004819055505b6023600454111515611c0c57600454821480611b8e575060016004540182145b15611bf657611be66040805190810160405280600781526020017f74776f6e756d7300000000000000000000000000000000000000000000000000815250600b6003600160045401811515611bdf57fe5b04016103e2565b6002600082825401925050819055505b6003600460008282540192505081905550611b6e565b60016004819055505b601f600454111515611cb357600454821480611c35575060036004540182145b15611c9d57611c8d6040805190810160405280600781526020017f74776f6e756d730000000000000000000000000000000000000000000000000081525060176003600260045401811515611c8657fe5b04016103e2565b6002600082825401925050819055505b6003600460008282540192505081905550611c15565b60026004819055505b6020600454111515611d5a57600454821480611cdc575060036004540182145b15611d4457611d346040805190810160405280600781526020017f74776f6e756d730000000000000000000000000000000000000000000000000081525060226003600160045401811515611d2d57fe5b04016103e2565b6002600082825401925050819055505b6003600460008282540192505081905550611cbc565b60036004819055505b6021600454111515611dfe57600454821480611d83575060036004540182145b15611de857611dd86040805190810160405280600781526020017f74776f6e756d7300000000000000000000000000000000000000000000000000815250602d6003600454811515611dd157fe5b04016103e2565b6002600082825401925050819055505b6003600460008282540192505081905550611d63565b5b611e3e6040805190810160405280600681526020017f73696e676c650000000000000000000000000000000000000000000000000000815250836103e2565b60026000828254019250508190555060006004819055505b60386004541015611fbc5760026004541015611eb55760006005600454600281101515611e7f57fe5b018190555060006007600454600281101515611e9757fe5b018190555060006009600454600281101515611eaf57fe5b01819055505b60036004541015611ef1576000600b600454600381101515611ed357fe5b01819055506000600e600454600381101515611eeb57fe5b01819055505b600b6004541015611f155760006011600454600b81101515611f0f57fe5b01819055505b60166004541015611f39576000601c600454601681101515611f3357fe5b01819055505b600c6004541015611f5d5760006032600454600c81101515611f5757fe5b01819055505b60386004541015611f81576000603e600454603881101515611f7b57fe5b01819055505b60266004541015611fa55760006076600454602681101515611f9f57fe5b01819055505b600460008154809291906001019190505550611e56565b919050565b80600080828254019250508190555050565b806000540360008190555050565b60c060009054906101000a900473ffffffffffffffffffffffffffffffffffffffff1681565b600060405180807f72656400000000000000000000000000000000000000000000000000000000008152506003019050604051809103902060001916836040518082805190602001908083835b6020831015156120795780518252602082019150602081019050602083039250612054565b6001836020036101000a038019825116818451168082178552505050505050905001915050604051809103902060001916141561218d5783600560006002811015156120c157fe5b016000828254019250508190555060c060009054906101000a900473ffffffffffffffffffffffffffffffffffffffff1673ffffffffffffffffffffffffffffffffffffffff16638ffbf100856040518263ffffffff167c010000000000000000000000000000000000000000000000000000000002815260040180828152602001915050600060405180830381600087803b15801561216057600080fd5b505af1158015612174573d6000803e3d6000fd5b50505050836003600082825401925050819055506133b5565b60405180807f626c61636b0000000000000000000000000000000000000000000000000000008152506005019050604051809103902060001916836040518082805190602001908083835b6020831015156121fd57805182526020820191506020810190506020830392506121d8565b6001836020036101000a038019825116818451168082178552505050505050905001915050604051809103902060001916141561231157836005600160028110151561224557fe5b016000828254019250508190555060c060009054906101000a900473ffffffffffffffffffffffffffffffffffffffff1673ffffffffffffffffffffffffffffffffffffffff16638ffbf100856040518263ffffffff167c010000000000000000000000000000000000000000000000000000000002815260040180828152602001915050600060405180830381600087803b1580156122e457600080fd5b505af11580156122f8573d6000803e3d6000fd5b50505050836003600082825401925050819055506133b4565b60405180807f6576656e000000000000000000000000000000000000000000000000000000008152506004019050604051809103902060001916836040518082805190602001908083835b602083101515612381578051825260208201915060208101905060208303925061235c565b6001836020036101000a03801982511681845116808217855250505050505090500191505060405180910390206000191614156124955783600760006002811015156123c957fe5b016000828254019250508190555060c060009054906101000a900473ffffffffffffffffffffffffffffffffffffffff1673ffffffffffffffffffffffffffffffffffffffff16638ffbf100856040518263ffffffff167c010000000000000000000000000000000000000000000000000000000002815260040180828152602001915050600060405180830381600087803b15801561246857600080fd5b505af115801561247c573d6000803e3d6000fd5b50505050836003600082825401925050819055506133b3565b60405180807f6f646400000000000000000000000000000000000000000000000000000000008152506003019050604051809103902060001916836040518082805190602001908083835b60208310151561250557805182526020820191506020810190506020830392506124e0565b6001836020036101000a038019825116818451168082178552505050505050905001915050604051809103902060001916141561261957836007600160028110151561254d57fe5b016000828254019250508190555060c060009054906101000a900473ffffffffffffffffffffffffffffffffffffffff1673ffffffffffffffffffffffffffffffffffffffff16638ffbf100856040518263ffffffff167c010000000000000000000000000000000000000000000000000000000002815260040180828152602001915050600060405180830381600087803b1580156125ec57600080fd5b505af1158015612600573d6000803e3d6000fd5b50505050836003600082825401925050819055506133b2565b60405180807f6c6f7700000000000000000000000000000000000000000000000000000000008152506003019050604051809103902060001916836040518082805190602001908083835b6020831015156126895780518252602082019150602081019050602083039250612664565b6001836020036101000a038019825116818451168082178552505050505050905001915050604051809103902060001916141561279d5783600960006002811015156126d157fe5b016000828254019250508190555060c060009054906101000a900473ffffffffffffffffffffffffffffffffffffffff1673ffffffffffffffffffffffffffffffffffffffff16638ffbf100856040518263ffffffff167c010000000000000000000000000000000000000000000000000000000002815260040180828152602001915050600060405180830381600087803b15801561277057600080fd5b505af1158015612784573d6000803e3d6000fd5b50505050836003600082825401925050819055506133b1565b60405180807f68696768000000000000000000000000000000000000000000000000000000008152506004019050604051809103902060001916836040518082805190602001908083835b60208310151561280d57805182526020820191506020810190506020830392506127e8565b6001836020036101000a038019825116818451168082178552505050505050905001915050604051809103902060001916141561291857836009600160028110151561285557fe5b018190555060c060009054906101000a900473ffffffffffffffffffffffffffffffffffffffff1673ffffffffffffffffffffffffffffffffffffffff16638ffbf100856040518263ffffffff167c010000000000000000000000000000000000000000000000000000000002815260040180828152602001915050600060405180830381600087803b1580156128eb57600080fd5b505af11580156128ff573d6000803e3d6000fd5b50505050836003600082825401925050819055506133b0565b60405180807f646f7a656e7300000000000000000000000000000000000000000000000000008152506006019050604051809103902060001916836040518082805190602001908083835b6020831015156129885780518252602082019150602081019050602083039250612963565b6001836020036101000a0380198251168184511680821785525050505050509050019150506040518091039020600019161415612a9b5783600b836003811015156129cf57fe5b016000828254019250508190555060c060009054906101000a900473ffffffffffffffffffffffffffffffffffffffff1673ffffffffffffffffffffffffffffffffffffffff16638ffbf100856040518263ffffffff167c010000000000000000000000000000000000000000000000000000000002815260040180828152602001915050600060405180830381600087803b158015612a6e57600080fd5b505af1158015612a82573d6000803e3d6000fd5b50505050836003600082825401925050819055506133af565b60405180807f636f6c756d6e73000000000000000000000000000000000000000000000000008152506007019050604051809103902060001916836040518082805190602001908083835b602083101515612b0b5780518252602082019150602081019050602083039250612ae6565b6001836020036101000a0380198251168184511680821785525050505050509050019150506040518091039020600019161415612c1e5783600e83600381101515612b5257fe5b016000828254019250508190555060c060009054906101000a900473ffffffffffffffffffffffffffffffffffffffff1673ffffffffffffffffffffffffffffffffffffffff16638ffbf100856040518263ffffffff167c010000000000000000000000000000000000000000000000000000000002815260040180828152602001915050600060405180830381600087803b158015612bf157600080fd5b505af1158015612c05573d6000803e3d6000fd5b50505050836003600082825401925050819055506133ae565b60405180807f7369786e756d00000000000000000000000000000000000000000000000000008152506006019050604051809103902060001916836040518082805190602001908083835b602083101515612c8e5780518252602082019150602081019050602083039250612c69565b6001836020036101000a0380198251168184511680821785525050505050509050019150506040518091039020600019161415612da15783601183600b81101515612cd557fe5b016000828254019250508190555060c060009054906101000a900473ffffffffffffffffffffffffffffffffffffffff1673ffffffffffffffffffffffffffffffffffffffff16638ffbf100856040518263ffffffff167c010000000000000000000000000000000000000000000000000000000002815260040180828152602001915050600060405180830381600087803b158015612d7457600080fd5b505af1158015612d88573d6000803e3d6000fd5b50505050836003600082825401925050819055506133ad565b60405180807f666f75726e756d000000000000000000000000000000000000000000000000008152506007019050604051809103902060001916836040518082805190602001908083835b602083101515612e115780518252602082019150602081019050602083039250612dec565b6001836020036101000a0380198251168184511680821785525050505050509050019150506040518091039020600019161415612f245783601c83601681101515612e5857fe5b016000828254019250508190555060c060009054906101000a900473ffffffffffffffffffffffffffffffffffffffff1673ffffffffffffffffffffffffffffffffffffffff16638ffbf100856040518263ffffffff167c010000000000000000000000000000000000000000000000000000000002815260040180828152602001915050600060405180830381600087803b158015612ef757600080fd5b505af1158015612f0b573d6000803e3d6000fd5b50505050836003600082825401925050819055506133ac565b60405180807f74687265656e756d7300000000000000000000000000000000000000000000008152506009019050604051809103902060001916836040518082805190602001908083835b602083101515612f945780518252602082019150602081019050602083039250612f6f565b6001836020036101000a03801982511681845116808217855250505050505090500191505060405180910390206000191614156130a75783603283600c81101515612fdb57fe5b016000828254019250508190555060c060009054906101000a900473ffffffffffffffffffffffffffffffffffffffff1673ffffffffffffffffffffffffffffffffffffffff16638ffbf100856040518263ffffffff167c010000000000000000000000000000000000000000000000000000000002815260040180828152602001915050600060405180830381600087803b15801561307a57600080fd5b505af115801561308e573d6000803e3d6000fd5b50505050836003600082825401925050819055506133ab565b60405180807f74776f6e756d73000000000000000000000000000000000000000000000000008152506007019050604051809103902060001916836040518082805190602001908083835b60208310151561311757805182526020820191506020810190506020830392506130f2565b6001836020036101000a038019825116818451168082178552505050505050905001915050604051809103902060001916141561322a5783603e8360388110151561315e57fe5b016000828254019250508190555060c060009054906101000a900473ffffffffffffffffffffffffffffffffffffffff1673ffffffffffffffffffffffffffffffffffffffff16638ffbf100856040518263ffffffff167c010000000000000000000000000000000000000000000000000000000002815260040180828152602001915050600060405180830381600087803b1580156131fd57600080fd5b505af1158015613211573d6000803e3d6000fd5b50505050836003600082825401925050819055506133aa565b60405180807f73696e676c6500000000000000000000000000000000000000000000000000008152506006019050604051809103902060001916836040518082805190602001908083835b60208310151561329a5780518252602082019150602081019050602083039250613275565b6001836020036101000a03801982511681845116808217855250505050505090500191505060405180910390206000191614156133a957836076836026811015156132e157fe5b016000828254019250508190555060c060009054906101000a900473ffffffffffffffffffffffffffffffffffffffff1673ffffffffffffffffffffffffffffffffffffffff16638ffbf100856040518263ffffffff167c010000000000000000000000000000000000000000000000000000000002815260040180828152602001915050600060405180830381600087803b15801561338057600080fd5b505af1158015613394573d6000803e3d6000fd5b50505050836003600082825401925050819055505b5b5b5b5b5b5b5b5b5b5b5b5b9392505050565b60025481565b60015481565b600080549050905600a165627a7a7230582033ce84bd5323eb017a6136dbd4d2041dceef1b2e545266618a28baeb7053c2770029",
  "source": "pragma solidity ^0.4.23;\r\n\r\nimport \"./Bank.sol\";\r\ncontract Blockchaincasino is Bank\r\n{\r\n//uint public chips = 10;\r\nuint public winnings;\r\nuint public betsplaced;\r\n//uint HouseWinningsInEther;\r\nuint i;\r\nuint[2] redblack = [0];\r\nuint[2] evenodd = [0];\r\nuint[2] lowhigh = [0];\r\nuint[3] dozens = [0];\r\nuint[3] columns = [0];\r\nuint[11] six = [0];\r\nuint[22] four = [0];\r\nuint[12] three = [0];\r\nuint[56] two = [0];\r\nuint[38] single = [0];\r\n//bets position\r\n//[Red,Black,even, odd, low ,high, dozens, columns, sixnum,\r\n//fournum,threenums, twonums, straight\r\nuint[18] red = [1, 3, 5, 7, 9, 12, 14, 16, 18, 19, 21, 23, 25, 27, 30, 32, 34, 36];\r\nuint[18] black = [2, 4, 6, 8, 10, 11, 13, 15, 17, 20, 22, 24, 26, 28, 29, 31, 33, 35];\r\n\r\n// Bank object for calling bank functions and variables\r\nBank public Bankobj;\r\n//accepts the address to the bank smart contract\r\nconstructor(address bankaddress) public{\r\n  //inialies the bank object\r\n  Bankobj = Bank(bankaddress);\r\n}\r\n//removes all the winnings of the player\r\n//only if we can pay them\r\nfunction ClearWinnings() public {\r\n  require(Bankobj.balance >= (winnings * 10**18));\r\n  winnings = 0;\r\n}\r\n  function setbet(uint _money, string bet, uint number) public returns (uint)\r\n  {\r\n        if((keccak256(bet) == keccak256(\"red\")))\r\n        {\r\n\r\n          redblack[0] += _money;\r\n          Bankobj.AdjustChips(_money);\r\n          betsplaced += _money;\r\n        }else if( (keccak256(bet) == keccak256(\"black\")))\r\n        {\r\n          redblack[1] += _money;\r\n          Bankobj.AdjustChips(_money);\r\n          betsplaced += _money;\r\n        }else if((keccak256(bet) == keccak256(\"even\")))\r\n        {\r\n            evenodd[0] += _money;\r\n          Bankobj.AdjustChips(_money);\r\n            betsplaced += _money;\r\n        }else if((keccak256(bet) == keccak256(\"odd\"))){\r\n          evenodd[1] += _money;\r\n          Bankobj.AdjustChips(_money);\r\n          betsplaced += _money;\r\n        }else if((keccak256(bet) == keccak256(\"low\")))\r\n        {\r\n            lowhigh[0] += _money;\r\n            Bankobj.AdjustChips(_money);\r\n            betsplaced += _money;\r\n        }else if((keccak256(bet) == keccak256(\"high\")))\r\n        {\r\n          lowhigh[1] = _money;\r\n          Bankobj.AdjustChips(_money);\r\n          betsplaced += _money;\r\n        }else if((keccak256(bet) == keccak256(\"dozens\")))\r\n        {\r\n          dozens[number] += _money;\r\n          Bankobj.AdjustChips(_money);\r\n          betsplaced += _money;\r\n        }else if((keccak256(bet) == keccak256(\"columns\")))\r\n        {\r\n            columns[number] += _money;\r\n          Bankobj.AdjustChips(_money);\r\n            betsplaced += _money;\r\n        }else if((keccak256(bet) == keccak256(\"sixnum\")))\r\n        {\r\n            six[number] += _money;\r\n          Bankobj.AdjustChips(_money);\r\n            betsplaced += _money;\r\n        }\r\n        else if((keccak256(bet) == keccak256(\"fournum\")))\r\n        {\r\n            four[number] += _money;\r\n          Bankobj.AdjustChips(_money);\r\n            betsplaced += _money;\r\n        }else if((keccak256(bet) == keccak256(\"threenums\")))\r\n        {\r\n            three[number] += _money;\r\n          Bankobj.AdjustChips(_money);\r\n            betsplaced += _money;\r\n        }else if((keccak256(bet) == keccak256(\"twonums\")))\r\n        {\r\n            two[number] += _money;\r\n          Bankobj.AdjustChips(_money);\r\n            betsplaced += _money;\r\n        }else if((keccak256(bet) == keccak256(\"single\")))\r\n        {\r\n            single[number] += _money;\r\n          Bankobj.AdjustChips(_money);\r\n            betsplaced += _money;\r\n        }\r\n\r\n  }\r\n  function getbet(string bet, uint number) public returns (uint)\r\n  {\r\n    if((keccak256(bet) == keccak256(\"red\")))\r\n    {\r\n    return redblack[0] * 2 ;\r\n    }else if( (keccak256(bet) == keccak256(\"black\")))\r\n    {\r\n    return redblack[1] * 2;\r\n    }else if((keccak256(bet) == keccak256(\"even\")))\r\n    {\r\n    return evenodd[0] * 2;\r\n    }else if((keccak256(bet) == keccak256(\"odd\")))\r\n    {\r\n    return evenodd[1] * 2;\r\n    }else if((keccak256(bet) == keccak256(\"low\")))\r\n    {\r\n    return lowhigh[0] * 2;\r\n    }else if((keccak256(bet) == keccak256(\"high\")))\r\n    {\r\n    return lowhigh[1] * 2;\r\n    }else if((keccak256(bet) == keccak256(\"dozens\")))\r\n    {\r\n    return ( (dozens[number] * 2) + dozens[number]);\r\n    }else if((keccak256(bet) == keccak256(\"columns\")))\r\n    {\r\n    return ( (columns[number] * 2) + columns[number]);\r\n    }else if((keccak256(bet) == keccak256(\"sixnum\")))\r\n    {\r\n    return ( (six[number] * 5) + six[number]);\r\n    }\r\n    else if((keccak256(bet) == keccak256(\"fournum\")))\r\n    {\r\n    return ( (four[number] * 8) + four[number]);\r\n    }else if((keccak256(bet) == keccak256(\"threenums\")))\r\n    {\r\n    return ( (three[number] * 11) + three[number]);\r\n    }else if((keccak256(bet) == keccak256(\"twonums\")))\r\n    {\r\n    return ( (two[number] * 17) + two[number]);\r\n    }else if((keccak256(bet) == keccak256(\"single\")))\r\n    {\r\n    return ( (single[number] * 35) + single[number]);\r\n    }\r\n    }\r\n\r\n    function play(uint draw) public returns (uint)\r\n    {\r\n\r\n      betsplaced = 0;\r\n      if(draw != 0 && draw != 37){\r\n      //red or black\r\n      for(i = 0; i < 18; i++)\r\n      {\r\n        if(draw == red[i] ){\r\n          winnings += getbet(\"red\",0);\r\n          break;\r\n        }else if(draw == black[i]){\r\n          winnings+= getbet(\"black\",1);\r\n          break;\r\n      }\r\n    }\r\n      //even odds\r\n      if(draw%2 == 0){\r\n        winnings += getbet(\"even\", 0);\r\n      }else{\r\n        winnings += getbet(\"odd\",1);\r\n      }\r\n\r\n      //high low\r\n      if(draw > 18){\r\n        winnings+= getbet(\"high\",1);\r\n      }\r\n      else{\r\n        winnings+= getbet(\"low\",0);\r\n      }\r\n\r\n      //dozens\r\n      if(draw >= 1 && draw <= 12){\r\n        winnings+= getbet(\"dozens\",0);\r\n      }else if(draw >= 13 && draw <= 24){\r\n        winnings+= getbet(\"dozens\",1);\r\n      }else if(draw > 25){\r\n        winnings+= getbet(\"dozens\",2);\r\n      }\r\n\r\n      //columns\r\n      // if you place a bet on the third column\r\n      if( (draw % 3) == 0)\r\n      {\r\n        winnings+= getbet(\"columns\",0);\r\n      }//second column\r\n      else if( ((draw + 1)%3) == 0){\r\n        winnings += getbet(\"columns\",1);\r\n      }//first column\r\n      else if( ((draw +2)%3) == 0){\r\n        winnings += getbet(\"columns\", 2);\r\n      }\r\n\r\n//bet six numbers\r\n            if(draw >= 1 && draw <=6){\r\n              winnings+= getbet(\"sixnum\",0);\r\n            }if(draw >=4 && draw <=9){\r\n              winnings+= getbet(\"sixnum\",1);\r\n            }if(draw >=7 && draw <=12){\r\n              winnings+= getbet(\"sixnum\",2);\r\n            }if(draw >=10 && draw <=15){\r\n              winnings+= getbet(\"sixnum\",3);\r\n            }if(draw >=13 && draw <=18){\r\n              winnings+= getbet(\"sixnum\",4);\r\n            }if(draw >=16 && draw <=21){\r\n              winnings+= getbet(\"sixnum\",5);\r\n            }if(draw >=19 && draw <=24){\r\n              winnings+= getbet(\"sixnum\",6);\r\n            }if(draw >=22 && draw <=27){\r\n              winnings+= getbet(\"sixnum\",7);\r\n            }if(draw >=25 && draw <=30){\r\n              winnings+= getbet(\"sixnum\",8);\r\n            }if(draw >=28 && draw <=33){\r\n              winnings+= getbet(\"sixnum\",9);\r\n            }if(draw >=31 && draw <=36){\r\n              winnings+= getbet(\"sixnum\",10);\r\n            }\r\n\r\n      //fournum 1,2,5,4 ; 4,5,8,7\r\n      for(i = 1; i<=31; i+=3){\r\n        if( (draw == i) || (draw == (i+1)) || (draw == (i+3)) || (draw == (i+4)) )\r\n        {\r\n        winnings += getbet(\"fournum\", ((i+2)/3)-1);\r\n        }\r\n      }\r\n      //2,5,6,9; 5,8,9,6\r\n      for(i = 2; i<=32; i+=3){\r\n        if( (draw == i) || (draw == (i+1)) || (draw == (i+3)) || (draw == (i+4)))\r\n        {\r\n        winnings += getbet(\"fournum\", ((i+1)/3)+10);\r\n        }\r\n      }\r\n\r\n      // three numbers 1,2,3 ; 4,5,6\r\n      for(i = 1; i<34;i+=3){\r\n        if(draw >= i && draw <= i+2){\r\n          winnings += getbet(\"threenums\", ((i+2)/3)-1);\r\n        }\r\n      }\r\n\r\n\r\n      //two numbers for vertical betting on the first vertical lines ie 1,2;4,5;\r\n      for(i = 1; i<=34; i+=3){\r\n        if( (draw == i) || (draw == (i+1)) )\r\n        {\r\n            winnings += getbet(\"twonums\", ( ((i+2)/3) -1) );\r\n        }\r\n      }\r\n      //two numbers for vertical betting on the second vertical line 2,3; 5,6\r\n      for(i = 2; i<=35; i+=3){\r\n        if( (draw == i) || (draw == (i+1)) )\r\n        {\r\n            winnings += getbet(\"twonums\", (((i+1)/3) + 11) );\r\n        }\r\n      }\r\n      //two numbers for horizontal betting on the first column horizontal lines\r\n      // bets like 1,4; 7,10;\r\n\r\n      for(i = 1; i<=31; i+=3){\r\n        if ( (draw == i) || (draw ==(i+3)) )\r\n        {\r\n            winnings += getbet(\"twonums\", (((i+2)/3) + 23) );\r\n        }\r\n      }\r\n      //second horizontal line 2,5; 5,8\r\n      for(i = 2; i<=32; i+=3){\r\n        if( (draw == i) || (draw == (i+3)) )\r\n        {\r\n            winnings += getbet(\"twonums\", (((i+1)/3) + 34) );\r\n        }\r\n      }\r\n      //third horizontal line 3,6; 6,9\r\n      for(i = 3; i<=33; i+=3){\r\n        if( (draw == i) || (draw == (i+3)) )\r\n        {\r\n            winnings += getbet(\"twonums\", ( (i/3) + 45) );\r\n        }\r\n      }\r\n\r\n\r\n\r\n\r\n}\r\n      //single\r\n      //for drawing a 00\r\n        winnings += getbet(\"single\", draw);\r\n\r\n      for(i = 0; i <56; i++)\r\n      {\r\n        if(i<2){\r\n          redblack[i] = 0;\r\n          evenodd[i] = 0;\r\n          lowhigh[i] = 0;\r\n        }if(i<3){\r\n          dozens[i] = 0;\r\n          columns[i] = 0;\r\n        }if(i< 11){\r\n          six[i] = 0;\r\n        }if(i< 22){\r\n          four[i] = 0;\r\n        }if(i< 12){\r\n          three[i] = 0;\r\n        }if(i< 56){\r\n          two[i] = 0;\r\n        }if(i< 38){\r\n          single[i] = 0;\r\n        }\r\n      }\r\n\r\n    }\r\n\r\n\r\n}\r\n",
  "sourcePath": "C:\\Users\\jerem\\chainjeremy\\casino\\blockchaincasino\\contracts\\Blockchaincasino.sol",
  "compiler": {
    "name": "solc",
    "version": "0.4.23+commit.124ca40d.Emscripten.clang"
  },
  "schemaVersion": "2.0.0",
  "updatedAt": "2021-04-29T02:06:10.655Z"
}