{
  "contractName": "Blockchaincasino",
  "abi": [
    {
      "constant": false,
      "inputs": [],
      "name": "morechips",
      "outputs": [
        {
          "name": "",
          "type": "uint256"
        }
      ],
      "payable": true,
      "stateMutability": "payable",
      "type": "function"
    },
    {
      "constant": false,
      "inputs": [
        {
          "name": "_money",
          "type": "uint256"
        },
        {
          "name": "bet",
          "type": "string"
        },
        {
          "name": "number",
          "type": "uint256"
        }
      ],
      "name": "setbet",
      "outputs": [
        {
          "name": "",
          "type": "uint256"
        }
      ],
      "payable": false,
      "stateMutability": "nonpayable",
      "type": "function"
    },
    {
      "constant": false,
      "inputs": [
        {
          "name": "bet",
          "type": "string"
        },
        {
          "name": "number",
          "type": "uint256"
        }
      ],
      "name": "getbet",
      "outputs": [
        {
          "name": "",
          "type": "uint256"
        }
      ],
      "payable": false,
      "stateMutability": "nonpayable",
      "type": "function"
    },
    {
      "constant": true,
      "inputs": [
        {
          "name": "a",
          "type": "uint256"
        }
      ],
      "name": "test",
      "outputs": [
        {
          "name": "",
          "type": "uint256"
        }
      ],
      "payable": false,
      "stateMutability": "view",
      "type": "function"
    },
    {
      "constant": false,
      "inputs": [
        {
          "name": "draw",
          "type": "uint256"
        }
      ],
      "name": "play",
      "outputs": [
        {
          "name": "",
          "type": "uint256"
        }
      ],
      "payable": false,
      "stateMutability": "nonpayable",
      "type": "function"
    }
  ],
  "bytecode": "0x6080604052600a6000556000600155602060405190810160405280600060ff168152506003906001620000349291906200034c565b50602060405190810160405280600060ff1681525060059060016200005b9291906200034c565b50602060405190810160405280600060ff168152506007906001620000829291906200034c565b50602060405190810160405280600060ff168152506009906001620000a992919062000396565b50602060405190810160405280600060ff16815250600c906001620000d092919062000396565b50602060405190810160405280600060ff16815250600f906001620000f7929190620003e0565b50602060405190810160405280600060ff16815250601a9060016200011e9291906200042a565b50602060405190810160405280600060ff1681525060309060016200014592919062000474565b50602060405190810160405280600060ff16815250603c9060016200016c929190620004be565b50602060405190810160405280600060ff1681525060749060016200019392919062000508565b5061024060405190810160405280600160ff168152602001600360ff168152602001600560ff168152602001600760ff168152602001600960ff168152602001600c60ff168152602001600e60ff168152602001601060ff168152602001601260ff168152602001601360ff168152602001601560ff168152602001601760ff168152602001601960ff168152602001601b60ff168152602001601e60ff168152602001602060ff168152602001602260ff168152602001602460ff16815250609a9060126200026592919062000552565b5061024060405190810160405280600260ff168152602001600460ff168152602001600660ff168152602001600860ff168152602001600a60ff168152602001600b60ff168152602001600d60ff168152602001600f60ff168152602001601160ff168152602001601460ff168152602001601660ff168152602001601860ff168152602001601a60ff168152602001601c60ff168152602001601d60ff168152602001601f60ff168152602001602160ff168152602001602360ff1681525060ac9060126200033792919062000552565b503480156200034557600080fd5b50620005c4565b826002810192821562000383579160200282015b8281111562000382578251829060ff1690559160200191906001019062000360565b5b5090506200039291906200059c565b5090565b8260038101928215620003cd579160200282015b82811115620003cc578251829060ff16905591602001919060010190620003aa565b5b509050620003dc91906200059c565b5090565b82600b810192821562000417579160200282015b8281111562000416578251829060ff16905591602001919060010190620003f4565b5b5090506200042691906200059c565b5090565b826016810192821562000461579160200282015b8281111562000460578251829060ff169055916020019190600101906200043e565b5b5090506200047091906200059c565b5090565b82600c8101928215620004ab579160200282015b82811115620004aa578251829060ff1690559160200191906001019062000488565b5b509050620004ba91906200059c565b5090565b8260388101928215620004f5579160200282015b82811115620004f4578251829060ff16905591602001919060010190620004d2565b5b5090506200050491906200059c565b5090565b82602681019282156200053f579160200282015b828111156200053e578251829060ff169055916020019190600101906200051c565b5b5090506200054e91906200059c565b5090565b826012810192821562000589579160200282015b8281111562000588578251829060ff1690559160200191906001019062000566565b5b5090506200059891906200059c565b5090565b620005c191905b80821115620005bd576000816000905550600101620005a3565b5090565b90565b61276d80620005d46000396000f30060806040526004361061006d576000357c0100000000000000000000000000000000000000000000000000000000900463ffffffff16806322ae8b6d1461007257806329e99f07146100f95780636898f82b1461013a578063be29a4741461017b578063c1058b0d14610199575b600080fd5b34801561007e57600080fd5b506100e3600480360381019080803590602001908201803590602001908080601f01602080910402602001604051908101604052809392919081815260200183838082843782019150505050505091929192908035906020019092919050505061022a565b6040518082815260200191505060405180910390f35b34801561010557600080fd5b5061012460048036038101908080359060200190929190505050610c91565b6040518082815260200191505060405180910390f35b34801561014657600080fd5b5061016560048036038101908080359060200190929190505050610ca3565b6040518082815260200191505060405180910390f35b610183611c1b565b6040518082815260200191505060405180910390f35b3480156101a557600080fd5b5061021460048036038101908080359060200190929190803590602001908201803590602001908080601f016020809104026020016040519081016040528093929190818152602001838380828437820191505050505050919291929080359060200190929190505050611c81565b6040518082815260200191505060405180910390f35b600060405180807f72656400000000000000000000000000000000000000000000000000000000008152506003019050604051809103902060001916836040518082805190602001908083835b60208310151561029c5780518252602082019150602081019050602083039250610277565b6001836020036101000a03801982511681845116808217855250505050505090500191505060405180910390206000191614156102ef576002600360006002811015156102e557fe5b0154029050610c8b565b60405180807f626c61636b0000000000000000000000000000000000000000000000000000008152506005019050604051809103902060001916836040518082805190602001908083835b60208310151561035f578051825260208201915060208101905060208303925061033a565b6001836020036101000a03801982511681845116808217855250505050505090500191505060405180910390206000191614156103b2576002600360016002811015156103a857fe5b0154029050610c8b565b60405180807f6576656e000000000000000000000000000000000000000000000000000000008152506004019050604051809103902060001916836040518082805190602001908083835b60208310151561042257805182526020820191506020810190506020830392506103fd565b6001836020036101000a03801982511681845116808217855250505050505090500191505060405180910390206000191614156104755760026005600060028110151561046b57fe5b0154029050610c8b565b60405180807f6f646400000000000000000000000000000000000000000000000000000000008152506003019050604051809103902060001916836040518082805190602001908083835b6020831015156104e557805182526020820191506020810190506020830392506104c0565b6001836020036101000a03801982511681845116808217855250505050505090500191505060405180910390206000191614156105385760026005600160028110151561052e57fe5b0154029050610c8b565b60405180807f6c6f7700000000000000000000000000000000000000000000000000000000008152506003019050604051809103902060001916836040518082805190602001908083835b6020831015156105a85780518252602082019150602081019050602083039250610583565b6001836020036101000a03801982511681845116808217855250505050505090500191505060405180910390206000191614156105fb576002600760006002811015156105f157fe5b0154029050610c8b565b60405180807f68696768000000000000000000000000000000000000000000000000000000008152506004019050604051809103902060001916836040518082805190602001908083835b60208310151561066b5780518252602082019150602081019050602083039250610646565b6001836020036101000a03801982511681845116808217855250505050505090500191505060405180910390206000191614156106be576002600760016002811015156106b457fe5b0154029050610c8b565b60405180807f646f7a656e7300000000000000000000000000000000000000000000000000008152506006019050604051809103902060001916836040518082805190602001908083835b60208310151561072e5780518252602082019150602081019050602083039250610709565b6001836020036101000a03801982511681845116808217855250505050505090500191505060405180910390206000191614156107925760098260038110151561077457fe5b0154600260098460038110151561078757fe5b015402019050610c8b565b60405180807f636f6c756d6e73000000000000000000000000000000000000000000000000008152506007019050604051809103902060001916836040518082805190602001908083835b60208310151561080257805182526020820191506020810190506020830392506107dd565b6001836020036101000a038019825116818451168082178552505050505050905001915050604051809103902060001916141561086657600c8260038110151561084857fe5b01546002600c8460038110151561085b57fe5b015402019050610c8b565b60405180807f7369786e756d00000000000000000000000000000000000000000000000000008152506006019050604051809103902060001916836040518082805190602001908083835b6020831015156108d657805182526020820191506020810190506020830392506108b1565b6001836020036101000a038019825116818451168082178552505050505050905001915050604051809103902060001916141561093a57600f82600b8110151561091c57fe5b01546005600f84600b8110151561092f57fe5b015402019050610c8b565b60405180807f666f75726e756d000000000000000000000000000000000000000000000000008152506007019050604051809103902060001916836040518082805190602001908083835b6020831015156109aa5780518252602082019150602081019050602083039250610985565b6001836020036101000a0380198251168184511680821785525050505050509050019150506040518091039020600019161415610a0e57601a826016811015156109f057fe5b01546008601a84601681101515610a0357fe5b015402019050610c8b565b60405180807f74687265656e756d7300000000000000000000000000000000000000000000008152506009019050604051809103902060001916836040518082805190602001908083835b602083101515610a7e5780518252602082019150602081019050602083039250610a59565b6001836020036101000a0380198251168184511680821785525050505050509050019150506040518091039020600019161415610ae257603082600c81101515610ac457fe5b0154600b603084600c81101515610ad757fe5b015402019050610c8b565b60405180807f74776f6e756d73000000000000000000000000000000000000000000000000008152506007019050604051809103902060001916836040518082805190602001908083835b602083101515610b525780518252602082019150602081019050602083039250610b2d565b6001836020036101000a0380198251168184511680821785525050505050509050019150506040518091039020600019161415610bb657603c82603881101515610b9857fe5b01546011603c84603881101515610bab57fe5b015402019050610c8b565b60405180807f73696e676c6500000000000000000000000000000000000000000000000000008152506006019050604051809103902060001916836040518082805190602001908083835b602083101515610c265780518252602082019150602081019050602083039250610c01565b6001836020036101000a0380198251168184511680821785525050505050509050019150506040518091039020600019161415610c8a57607482602681101515610c6c57fe5b01546023607484602681101515610c7f57fe5b015402019050610c8b565b5b92915050565b6000610c9c82610ca3565b9050919050565b6000806000905060006002819055505b60126002541015610d9b57609a600254601281101515610ccf57fe5b0154831415610d2157610d186040805190810160405280600381526020017f7265640000000000000000000000000000000000000000000000000000000000815250600061022a565b81019050610d9b565b60ac600254601281101515610d3257fe5b0154831415610d8457610d7b6040805190810160405280600581526020017f626c61636b000000000000000000000000000000000000000000000000000000815250600061022a565b81019050610d9b565b600260008154809291906001019190505550610cb3565b6000600284811515610da957fe5b061415610df957610df06040805190810160405280600481526020017f6576656e00000000000000000000000000000000000000000000000000000000815250600161022a565b81019050610e3e565b610e396040805190810160405280600381526020017f6f64640000000000000000000000000000000000000000000000000000000000815250600161022a565b810190505b6012831115610e9057610e876040805190810160405280600481526020017f6869676800000000000000000000000000000000000000000000000000000000815250600061022a565b81019050610ed5565b610ed06040805190810160405280600381526020017f6c6f770000000000000000000000000000000000000000000000000000000000815250600061022a565b810190505b60018310158015610ee75750600c8311155b15610f3557610f2c6040805190810160405280600681526020017f646f7a656e730000000000000000000000000000000000000000000000000000815250600061022a565b81019050610fe5565b600d8310158015610f47575060188311155b15610f9557610f8c6040805190810160405280600681526020017f646f7a656e730000000000000000000000000000000000000000000000000000815250600161022a565b81019050610fe4565b6019831115610fe357610fde6040805190810160405280600681526020017f646f7a656e730000000000000000000000000000000000000000000000000000815250600261022a565b810190505b5b5b6000600384811515610ff357fe5b0614156110435761103a6040805190810160405280600781526020017f636f6c756d6e7300000000000000000000000000000000000000000000000000815250600061022a565b81019050611103565b600060036001850181151561105457fe5b0614156110a45761109b6040805190810160405280600781526020017f636f6c756d6e7300000000000000000000000000000000000000000000000000815250600161022a565b81019050611102565b60006003600285018115156110b557fe5b061415611101576110fc6040805190810160405280600781526020017f636f6c756d6e7300000000000000000000000000000000000000000000000000815250600261022a565b810190505b5b5b60018310158015611115575060068311155b15611c145761115a6040805190810160405280600681526020017f7369786e756d0000000000000000000000000000000000000000000000000000815250600061022a565b8101905060048310158015611170575060098311155b156111ba576111b56040805190810160405280600681526020017f7369786e756d0000000000000000000000000000000000000000000000000000815250600161022a565b810190505b600783101580156111cc5750600c8311155b15611216576112116040805190810160405280600681526020017f7369786e756d0000000000000000000000000000000000000000000000000000815250600261022a565b810190505b600a83101580156112285750600f8311155b156112725761126d6040805190810160405280600681526020017f7369786e756d0000000000000000000000000000000000000000000000000000815250600361022a565b810190505b600d8310158015611284575060128311155b156112ce576112c96040805190810160405280600681526020017f7369786e756d0000000000000000000000000000000000000000000000000000815250600461022a565b810190505b601083101580156112e0575060158311155b1561132a576113256040805190810160405280600681526020017f7369786e756d0000000000000000000000000000000000000000000000000000815250600561022a565b810190505b6013831015801561133c575060188311155b15611386576113816040805190810160405280600681526020017f7369786e756d0000000000000000000000000000000000000000000000000000815250600661022a565b810190505b601683101580156113985750601b8311155b156113e2576113dd6040805190810160405280600681526020017f7369786e756d0000000000000000000000000000000000000000000000000000815250600761022a565b810190505b601983101580156113f45750601e8311155b1561143e576114396040805190810160405280600681526020017f7369786e756d0000000000000000000000000000000000000000000000000000815250600861022a565b810190505b601c8310158015611450575060218311155b1561149a576114956040805190810160405280600681526020017f7369786e756d0000000000000000000000000000000000000000000000000000815250600961022a565b810190505b601f83101580156114ac575060248311155b156114f6576114f16040805190810160405280600681526020017f7369786e756d0000000000000000000000000000000000000000000000000000815250600a61022a565b810190505b60016002819055505b601f6002541115156115af5760025483148061151f575060016002540183145b8061152e575060036002540183145b8061153d575060046002540183145b15611599576115946040805190810160405280600781526020017f666f75726e756d0000000000000000000000000000000000000000000000000081525060016003600280540181151561158d57fe5b040361022a565b810190505b60036002600082825401925050819055506114ff565b600280819055505b6020600254111515611668576002548314806115d7575060016002540183145b806115e6575060036002540183145b806115f5575060046002540183145b156116525761164d6040805190810160405280600781526020017f666f75726e756d00000000000000000000000000000000000000000000000000815250600a600360016002540181151561164657fe5b040161022a565b810190505b60036002600082825401925050819055506115b7565b60016002819055505b60226002541015611704576002548310158015611692575060028054018311155b156116ee576116e96040805190810160405280600981526020017f74687265656e756d7300000000000000000000000000000000000000000000008152506001600360028054018115156116e257fe5b040361022a565b810190505b6003600260008282540192505081905550611671565b60016002819055505b602260025411151561179f5760025483148061172d575060016002540183145b15611789576117846040805190810160405280600781526020017f74776f6e756d730000000000000000000000000000000000000000000000000081525060016003600280540181151561177d57fe5b040361022a565b810190505b600360026000828254019250508190555061170d565b600280819055505b602360025411151561183a576002548314806117c7575060016002540183145b156118245761181f6040805190810160405280600781526020017f74776f6e756d7300000000000000000000000000000000000000000000000000815250600b600360016002540181151561181857fe5b040161022a565b810190505b60036002600082825401925050819055506117a7565b60016002819055505b601f6002541115156118d557600254831480611863575060036002540183145b156118bf576118ba6040805190810160405280600781526020017f74776f6e756d73000000000000000000000000000000000000000000000000008152506017600360028054018115156118b357fe5b040161022a565b810190505b6003600260008282540192505081905550611843565b600280819055505b6020600254111515611970576002548314806118fd575060036002540183145b1561195a576119556040805190810160405280600781526020017f74776f6e756d73000000000000000000000000000000000000000000000000008152506022600360016002540181151561194e57fe5b040161022a565b810190505b60036002600082825401925050819055506118dd565b60036002819055505b6021600254111515611a0957600254831480611999575060036002540183145b156119f3576119ee6040805190810160405280600781526020017f74776f6e756d7300000000000000000000000000000000000000000000000000815250602d60036002548115156119e757fe5b040161022a565b810190505b6003600260008282540192505081905550611979565b6025831415611a5b57611a526040805190810160405280600681526020017f73696e676c650000000000000000000000000000000000000000000000000000815250602561022a565b81019050611a9f565b611a9a6040805190810160405280600681526020017f73696e676c6500000000000000000000000000000000000000000000000000008152508461022a565b810190505b60006002819055505b60386002541015611c0c57600280541015611b065760006003600254600281101515611ad057fe5b018190555060006005600254600281101515611ae857fe5b018190555060006007600254600281101515611b0057fe5b01819055505b60036002541015611b425760006009600254600381101515611b2457fe5b01819055506000600c600254600381101515611b3c57fe5b01819055505b600b6002541015611b66576000600f600254600b81101515611b6057fe5b01819055505b60166002541015611b8a576000601a600254601681101515611b8457fe5b01819055505b600c6002541015611bae5760006030600254600c81101515611ba857fe5b01819055505b60386002541015611bd2576000603c600254603881101515611bcc57fe5b01819055505b600b60261015611bf55760006074600254602681101515611bef57fe5b01819055505b600260008154809291906001019190505550611aa8565b809150611c15565b5b50919050565b600080731dd2a69a4923136f1d66dfa96b01a2907869f3fe90508073ffffffffffffffffffffffffffffffffffffffff166108fc60059081150290604051600060405180830381858888f19350505050158015611c7c573d6000803e3d6000fd5b505090565b60008360005410151561273a5760405180807f72656400000000000000000000000000000000000000000000000000000000008152506003019050604051809103902060001916836040518082805190602001908083835b602083101515611cfe5780518252602082019150602081019050602083039250611cd9565b6001836020036101000a0380198251168184511680821785525050505050509050019150506040518091039020600019161415611d60578360036000600281101515611d4657fe5b018190555083600160008282540392505081905550612739565b60405180807f626c61636b0000000000000000000000000000000000000000000000000000008152506005019050604051809103902060001916836040518082805190602001908083835b602083101515611dd05780518252602082019150602081019050602083039250611dab565b6001836020036101000a0380198251168184511680821785525050505050509050019150506040518091039020600019161415611e32578360036001600281101515611e1857fe5b018190555083600160008282540392505081905550612738565b60405180807f6576656e000000000000000000000000000000000000000000000000000000008152506004019050604051809103902060001916836040518082805190602001908083835b602083101515611ea25780518252602082019150602081019050602083039250611e7d565b6001836020036101000a0380198251168184511680821785525050505050509050019150506040518091039020600019161415611f04578360056000600281101515611eea57fe5b018190555083600160008282540392505081905550612737565b60405180807f6f646400000000000000000000000000000000000000000000000000000000008152506003019050604051809103902060001916836040518082805190602001908083835b602083101515611f745780518252602082019150602081019050602083039250611f4f565b6001836020036101000a0380198251168184511680821785525050505050509050019150506040518091039020600019161415611fd6578360056001600281101515611fbc57fe5b018190555083600160008282540392505081905550612736565b60405180807f6c6f7700000000000000000000000000000000000000000000000000000000008152506003019050604051809103902060001916836040518082805190602001908083835b6020831015156120465780518252602082019150602081019050602083039250612021565b6001836020036101000a03801982511681845116808217855250505050505090500191505060405180910390206000191614156120a857836007600060028110151561208e57fe5b018190555083600160008282540392505081905550612735565b60405180807f68696768000000000000000000000000000000000000000000000000000000008152506004019050604051809103902060001916836040518082805190602001908083835b60208310151561211857805182526020820191506020810190506020830392506120f3565b6001836020036101000a038019825116818451168082178552505050505050905001915050604051809103902060001916141561217a57836007600160028110151561216057fe5b018190555083600160008282540392505081905550612734565b60405180807f646f7a656e7300000000000000000000000000000000000000000000000000008152506006019050604051809103902060001916836040518082805190602001908083835b6020831015156121ea57805182526020820191506020810190506020830392506121c5565b6001836020036101000a038019825116818451168082178552505050505050905001915050604051809103902060001916141561224b578360098360038110151561223157fe5b018190555083600160008282540392505081905550612733565b60405180807f636f6c756d6e73000000000000000000000000000000000000000000000000008152506007019050604051809103902060001916836040518082805190602001908083835b6020831015156122bb5780518252602082019150602081019050602083039250612296565b6001836020036101000a038019825116818451168082178552505050505050905001915050604051809103902060001916141561231c5783600c8360038110151561230257fe5b018190555083600160008282540392505081905550612732565b60405180807f7369786e756d00000000000000000000000000000000000000000000000000008152506006019050604051809103902060001916836040518082805190602001908083835b60208310151561238c5780518252602082019150602081019050602083039250612367565b6001836020036101000a03801982511681845116808217855250505050505090500191505060405180910390206000191614156123ed5783600f83600b811015156123d357fe5b018190555083600160008282540392505081905550612731565b60405180807f666f75726e756d000000000000000000000000000000000000000000000000008152506007019050604051809103902060001916836040518082805190602001908083835b60208310151561245d5780518252602082019150602081019050602083039250612438565b6001836020036101000a03801982511681845116808217855250505050505090500191505060405180910390206000191614156124be5783601a836016811015156124a457fe5b018190555083600160008282540392505081905550612730565b60405180807f74687265656e756d7300000000000000000000000000000000000000000000008152506009019050604051809103902060001916836040518082805190602001908083835b60208310151561252e5780518252602082019150602081019050602083039250612509565b6001836020036101000a038019825116818451168082178552505050505050905001915050604051809103902060001916141561258f5783603083600c8110151561257557fe5b01819055508360016000828254039250508190555061272f565b60405180807f74776f6e756d73000000000000000000000000000000000000000000000000008152506007019050604051809103902060001916836040518082805190602001908083835b6020831015156125ff57805182526020820191506020810190506020830392506125da565b6001836020036101000a03801982511681845116808217855250505050505090500191505060405180910390206000191614156126605783603c8360388110151561264657fe5b01819055508360016000828254039250508190555061272e565b60405180807f73696e676c6500000000000000000000000000000000000000000000000000008152506006019050604051809103902060001916836040518082805190602001908083835b6020831015156126d057805182526020820191506020810190506020830392506126ab565b6001836020036101000a038019825116818451168082178552505050505050905001915050604051809103902060001916141561272d578360748360268110151561271757fe5b0181905550836001600082825403925050819055505b5b5b5b5b5b5b5b5b5b5b5b5b5b93925050505600a165627a7a72305820ccb700436ae57a7a12bb9bbfc77fc42fefbef2a096f60c0b19d9405d20be844e0029",
  "source": "pragma solidity ^0.4.18;\r\n\r\ncontract Blockchaincasino\r\n{\r\nuint chips = 10;\r\nuint money=0;\r\nuint i;\r\nuint[2] redblack = [0];\r\nuint[2] evenodd = [0];\r\nuint[2] lowhigh = [0];\r\nuint[3] dozens = [0];\r\nuint[3] columns = [0];\r\nuint[11] six = [0];\r\nuint[22] four = [0];\r\nuint[12] three = [0];\r\nuint[56] two = [0];\r\nuint[38] single = [0];\r\n//bets position\r\n//[Red,Black,even, odd, low ,high, dozens, columns, sixnum,\r\n//fournum,threenums, twonums, straight\r\nuint[18] red = [1, 3, 5, 7, 9, 12, 14, 16, 18, 19, 21, 23, 25, 27, 30, 32, 34, 36];\r\nuint[18] black = [2, 4, 6, 8, 10, 11, 13, 15, 17, 20, 22, 24, 26, 28, 29, 31, 33, 35];\r\n\r\n//string betName[11] = ['Red','B','evenodd', 'lowhigh', 'dozens',\r\n//'columns', 'sixnum', 'Fivenum', 'fournum','threenums', 'twonums', 'straight'];\r\nuint roll;\r\nfunction morechips() public payable returns (uint){\r\n  address me = 0x1Dd2A69A4923136f1d66DFA96b01a2907869F3FE;\r\n  me.transfer(5);\r\n}\r\n  function setbet(uint _money, string bet, uint number) public returns (uint)\r\n  {\r\n\r\n      if(chips >= _money)\r\n      {\r\n        if((keccak256(bet) == keccak256(\"red\")))\r\n        {\r\n          redblack[0] = _money;\r\n          money -= _money;\r\n        }else if( (keccak256(bet) == keccak256(\"black\")))\r\n        {\r\n          redblack[1] = _money;\r\n          money -= _money;\r\n        }else if((keccak256(bet) == keccak256(\"even\")))\r\n        {\r\n            evenodd[0] = _money;\r\n            money -= _money;\r\n        }else if((keccak256(bet) == keccak256(\"odd\"))){\r\n          evenodd[1] = _money;\r\n          money -= _money;\r\n        }else if((keccak256(bet) == keccak256(\"low\")))\r\n        {\r\n            lowhigh[0] = _money;\r\n            money -= _money;\r\n        }else if((keccak256(bet) == keccak256(\"high\")))\r\n        {\r\n          lowhigh[1] = _money;\r\n          money -= _money;\r\n        }else if((keccak256(bet) == keccak256(\"dozens\")))\r\n        {\r\n          dozens[number] = _money;\r\n          money -= _money;\r\n        }else if((keccak256(bet) == keccak256(\"columns\")))\r\n        {\r\n            columns[number] = _money;\r\n            money -= _money;\r\n        }else if((keccak256(bet) == keccak256(\"sixnum\")))\r\n        {\r\n            six[number] = _money;\r\n            money -= _money;\r\n        }\r\n        else if((keccak256(bet) == keccak256(\"fournum\")))\r\n        {\r\n            four[number] = _money;\r\n            money -= _money;\r\n        }else if((keccak256(bet) == keccak256(\"threenums\")))\r\n        {\r\n            three[number] = _money;\r\n            money -= _money;\r\n        }else if((keccak256(bet) == keccak256(\"twonums\")))\r\n        {\r\n            two[number] = _money;\r\n            money -= _money;\r\n        }else if((keccak256(bet) == keccak256(\"single\")))\r\n        {\r\n            single[number] = _money;\r\n            money -= _money;\r\n        }\r\n      }\r\n\r\n  }\r\n  function getbet(string bet, uint number) public returns (uint)\r\n  {\r\n\r\n    if((keccak256(bet) == keccak256(\"red\")))\r\n    {\r\n    return redblack[0] * 2 ;\r\n    }else if( (keccak256(bet) == keccak256(\"black\")))\r\n    {\r\n    return redblack[1] * 2;\r\n    }else if((keccak256(bet) == keccak256(\"even\")))\r\n    {\r\n    return evenodd[0] * 2;\r\n    }else if((keccak256(bet) == keccak256(\"odd\")))\r\n    {\r\n    return evenodd[1] * 2;\r\n    }else if((keccak256(bet) == keccak256(\"low\")))\r\n    {\r\n    return lowhigh[0] * 2;\r\n    }else if((keccak256(bet) == keccak256(\"high\")))\r\n    {\r\n    return lowhigh[1] * 2;\r\n    }else if((keccak256(bet) == keccak256(\"dozens\")))\r\n    {\r\n    return ( (dozens[number] * 2) + dozens[number]);\r\n    }else if((keccak256(bet) == keccak256(\"columns\")))\r\n    {\r\n    return ( (columns[number] * 2) + columns[number]);\r\n    }else if((keccak256(bet) == keccak256(\"sixnum\")))\r\n    {\r\n    return ( (six[number] * 5) + six[number]);\r\n    }\r\n    else if((keccak256(bet) == keccak256(\"fournum\")))\r\n    {\r\n    return ( (four[number] * 8) + four[number]);\r\n    }else if((keccak256(bet) == keccak256(\"threenums\")))\r\n    {\r\n    return ( (three[number] * 11) + three[number]);\r\n    }else if((keccak256(bet) == keccak256(\"twonums\")))\r\n    {\r\n    return ( (two[number] * 17) + two[number]);\r\n    }else if((keccak256(bet) == keccak256(\"single\")))\r\n    {\r\n    return ( (single[number] * 35) + single[number]);\r\n    }\r\n    }\r\n    function test(uint a) public view returns (uint)\r\n    {\r\n    return play(a);\r\n    }\r\n\r\n\r\n\r\n    function play(uint draw) public returns (uint)\r\n    {\r\n\r\n\r\n      uint winnings = 0;\r\n\r\n      //red or black\r\n      for(i = 0; i < 18; i++)\r\n      {\r\n        if(draw == red[i] ){\r\n          winnings += getbet(\"red\",0);\r\n          break;\r\n        }else if(draw == black[i]){\r\n          winnings+= getbet(\"black\",0);\r\n          break;\r\n      }\r\n    }\r\n      //even odds\r\n      if(draw%2 == 0){\r\n        winnings += getbet(\"even\", 1);\r\n      }else{\r\n        winnings += getbet(\"odd\",1);\r\n      }\r\n\r\n      //high low\r\n      if(draw > 18){\r\n        winnings+= getbet(\"high\",0);\r\n      }\r\n      else{\r\n        winnings+= getbet(\"low\",0);\r\n      }\r\n\r\n      //dozens\r\n      if(draw >= 1 && draw <= 12){\r\n        winnings+= getbet(\"dozens\",0);\r\n      }else if(draw >= 13 && draw <= 24){\r\n        winnings+= getbet(\"dozens\",1);\r\n      }else if(draw > 25){\r\n        winnings+= getbet(\"dozens\",2);\r\n      }\r\n\r\n      //columns\r\n      // if you place a bet on the third column\r\n      if( (draw % 3) == 0)\r\n      {\r\n        winnings+= getbet(\"columns\",0);\r\n      }//second column\r\n      else if( ((draw + 1)%3) == 0){\r\n        winnings += getbet(\"columns\",1);\r\n      }//first column\r\n      else if( ((draw +2)%3) == 0){\r\n        winnings += getbet(\"columns\", 2);\r\n      }\r\n\r\n      // six number bets\r\n      if(draw >= 1 && draw <=6){\r\n        winnings+= getbet(\"sixnum\",0);\r\n      if(draw >=4 && draw <=9){\r\n        winnings+= getbet(\"sixnum\",1);\r\n      }if(draw >=7 && draw <=12){\r\n        winnings+= getbet(\"sixnum\",2);\r\n      }if(draw >=10 && draw <=15){\r\n        winnings+= getbet(\"sixnum\",3);\r\n      }if(draw >=13 && draw <=18){\r\n        winnings+= getbet(\"sixnum\",4);\r\n      }if(draw >=16 && draw <=21){\r\n        winnings+= getbet(\"sixnum\",5);\r\n      }if(draw >=19 && draw <=24){\r\n        winnings+= getbet(\"sixnum\",6);\r\n      }if(draw >=22 && draw <=27){\r\n        winnings+= getbet(\"sixnum\",7);\r\n      }if(draw >=25 && draw <=30){\r\n        winnings+= getbet(\"sixnum\",8);\r\n      }if(draw >=28 && draw <=33){\r\n        winnings+= getbet(\"sixnum\",9);\r\n      }if(draw >=31 && draw <=36){\r\n        winnings+= getbet(\"sixnum\",10);\r\n      }\r\n\r\n      //fournum 1,2,5,4 ; 4,5,8,7\r\n      for(i = 1; i<=31; i+=3){\r\n        if( (draw == i) || (draw == (i+1)) || (draw == (i+3)) || (draw == (i+4)) )\r\n        {\r\n        winnings += getbet(\"fournum\", ((i+2)/3)-1);\r\n        }\r\n      }\r\n      //2,5,6,9; 5,8,9,6\r\n      for(i = 2; i<=32; i+=3){\r\n        if( (draw == i) || (draw == (i+1)) || (draw == (i+3)) || (draw == (i+4)))\r\n        {\r\n        winnings += getbet(\"fournum\", ((i+1)/3)+10);\r\n        }\r\n      }\r\n\r\n      // three numbers 1,2,3 ; 4,5,6\r\n      for(i = 1; i<34;i+=3){\r\n        if(draw >= i && draw <= i+2){\r\n          winnings += getbet(\"threenums\", ((i+2)/3)-1);\r\n        }\r\n      }\r\n\r\n\r\n      //two numbers for vertical betting on the first vertical lines ie 1,2;4,5;\r\n      for(i = 1; i<=34; i+=3){\r\n        if( (draw == i) || (draw == (i+1)) )\r\n        {\r\n            winnings += getbet(\"twonums\", ( ((i+2)/3) -1) );\r\n        }\r\n      }\r\n      //two numbers for vertical betting on the second vertical line 2,3; 5,6\r\n      for(i = 2; i<=35; i+=3){\r\n        if( (draw == i) || (draw == (i+1)) )\r\n        {\r\n            winnings += getbet(\"twonums\", (((i+1)/3) + 11) );\r\n        }\r\n      }\r\n      //two numbers for horizontal betting on the first column horizontal lines\r\n      // bets like 1,4; 7,10;\r\n\r\n      for(i = 1; i<=31; i+=3){\r\n        if ( (draw == i) || (draw ==(i+3)) )\r\n        {\r\n            winnings += getbet(\"twonums\", (((i+2)/3) + 23) );\r\n        }\r\n      }\r\n      //second horizontal line 2,5; 5,8\r\n      for(i = 2; i<=32; i+=3){\r\n        if( (draw == i) || (draw == (i+3)) )\r\n        {\r\n            winnings += getbet(\"twonums\", (((i+1)/3) + 34) );\r\n        }\r\n      }\r\n      //third horizontal line 3,6; 6,9\r\n      for(i = 3; i<=33; i+=3){\r\n        if( (draw == i) || (draw == (i+3)) )\r\n        {\r\n            winnings += getbet(\"twonums\", ( (i/3) + 45) );\r\n        }\r\n      }\r\n\r\n\r\n\r\n\r\n\r\n      //single\r\n      //for drawing a 00\r\n      if(draw == 37){\r\n        winnings += getbet(\"single\", 37);\r\n      }else\r\n      {\r\n        winnings += getbet(\"single\", draw);\r\n      }\r\n      for(i = 0; i <56; i++)\r\n      {\r\n        if(i<2){\r\n          redblack[i] = 0;\r\n          evenodd[i] = 0;\r\n          lowhigh[i] = 0;\r\n        }if(i<3){\r\n          dozens[i] = 0;\r\n          columns[i] = 0;\r\n        }if(i< 11){\r\n          six[i] = 0;\r\n        }if(i< 22){\r\n          four[i] = 0;\r\n        }if(i< 12){\r\n          three[i] = 0;\r\n        }if(i< 56){\r\n          two[i] = 0;\r\n        }if(38< 11){\r\n          single[i] = 0;\r\n        }\r\n      }\r\n      return winnings;\r\n    }\r\n\r\n\r\n}\r\n}\r\n",
  "sourcePath": "C:\\Users\\jerem\\chainjeremy\\casino\\blockchaincasino\\contracts\\Blockchaincasino.sol",
  "compiler": {
    "name": "solc",
    "version": "0.4.23+commit.124ca40d.Emscripten.clang"
  },
  "schemaVersion": "2.0.0",
  "updatedAt": "2021-04-20T15:07:21.753Z"
}