{
  "contractName": "Blockchaincasino",
  "abi": [
    {
      "constant": false,
      "inputs": [
        {
          "name": "winnings",
          "type": "uint256"
        }
      ],
      "name": "withdraw",
      "outputs": [],
      "payable": false,
      "stateMutability": "nonpayable",
      "type": "function"
    },
    {
      "constant": true,
      "inputs": [],
      "name": "chips",
      "outputs": [
        {
          "name": "",
          "type": "uint256"
        }
      ],
      "payable": false,
      "stateMutability": "view",
      "type": "function"
    },
    {
      "constant": true,
      "inputs": [],
      "name": "betsplaced",
      "outputs": [
        {
          "name": "",
          "type": "uint256"
        }
      ],
      "payable": false,
      "stateMutability": "view",
      "type": "function"
    },
    {
      "constant": false,
      "inputs": [
        {
          "name": "amount",
          "type": "uint256"
        }
      ],
      "name": "Pay",
      "outputs": [],
      "payable": true,
      "stateMutability": "payable",
      "type": "function"
    },
    {
      "constant": false,
      "inputs": [
        {
          "name": "money",
          "type": "uint256"
        }
      ],
      "name": "AdjustChips",
      "outputs": [],
      "payable": false,
      "stateMutability": "nonpayable",
      "type": "function"
    },
    {
      "constant": false,
      "inputs": [],
      "name": "Test",
      "outputs": [
        {
          "name": "",
          "type": "uint256"
        }
      ],
      "payable": false,
      "stateMutability": "nonpayable",
      "type": "function"
    },
    {
      "constant": true,
      "inputs": [],
      "name": "Bankobj",
      "outputs": [
        {
          "name": "",
          "type": "address"
        }
      ],
      "payable": false,
      "stateMutability": "view",
      "type": "function"
    },
    {
      "constant": true,
      "inputs": [],
      "name": "winnings",
      "outputs": [
        {
          "name": "",
          "type": "uint256"
        }
      ],
      "payable": false,
      "stateMutability": "view",
      "type": "function"
    },
    {
      "constant": true,
      "inputs": [],
      "name": "tsting",
      "outputs": [
        {
          "name": "",
          "type": "uint256"
        }
      ],
      "payable": false,
      "stateMutability": "view",
      "type": "function"
    },
    {
      "constant": true,
      "inputs": [],
      "name": "getchips",
      "outputs": [
        {
          "name": "",
          "type": "uint256"
        }
      ],
      "payable": false,
      "stateMutability": "view",
      "type": "function"
    },
    {
      "inputs": [
        {
          "name": "bankaddress",
          "type": "address"
        }
      ],
      "payable": false,
      "stateMutability": "nonpayable",
      "type": "constructor"
    },
    {
      "anonymous": false,
      "inputs": [
        {
          "indexed": false,
          "name": "value",
          "type": "uint256"
        }
      ],
      "name": "ReRender",
      "type": "event"
    },
    {
      "constant": false,
      "inputs": [
        {
          "name": "_money",
          "type": "uint256"
        },
        {
          "name": "bet",
          "type": "string"
        },
        {
          "name": "number",
          "type": "uint256"
        }
      ],
      "name": "setbet",
      "outputs": [
        {
          "name": "",
          "type": "uint256"
        }
      ],
      "payable": false,
      "stateMutability": "nonpayable",
      "type": "function"
    },
    {
      "constant": false,
      "inputs": [
        {
          "name": "bet",
          "type": "string"
        },
        {
          "name": "number",
          "type": "uint256"
        }
      ],
      "name": "getbet",
      "outputs": [
        {
          "name": "",
          "type": "uint256"
        }
      ],
      "payable": false,
      "stateMutability": "nonpayable",
      "type": "function"
    },
    {
      "constant": false,
      "inputs": [
        {
          "name": "draw",
          "type": "uint256"
        }
      ],
      "name": "play",
      "outputs": [
        {
          "name": "",
          "type": "uint256"
        }
      ],
      "payable": false,
      "stateMutability": "nonpayable",
      "type": "function"
    }
  ],
  "bytecode": "0x60806040526000600155602060405190810160405280600060ff1681525060059060016200002f929190620003ac565b50602060405190810160405280600060ff16815250600790600162000056929190620003ac565b50602060405190810160405280600060ff1681525060099060016200007d929190620003ac565b50602060405190810160405280600060ff16815250600b906001620000a4929190620003f6565b50602060405190810160405280600060ff16815250600e906001620000cb929190620003f6565b50602060405190810160405280600060ff168152506011906001620000f292919062000440565b50602060405190810160405280600060ff16815250601c906001620001199291906200048a565b50602060405190810160405280600060ff16815250603290600162000140929190620004d4565b50602060405190810160405280600060ff16815250603e906001620001679291906200051e565b50602060405190810160405280600060ff1681525060769060016200018e92919062000568565b5061024060405190810160405280600160ff168152602001600360ff168152602001600560ff168152602001600760ff168152602001600960ff168152602001600c60ff168152602001600e60ff168152602001601060ff168152602001601260ff168152602001601360ff168152602001601560ff168152602001601760ff168152602001601960ff168152602001601b60ff168152602001601e60ff168152602001602060ff168152602001602260ff168152602001602460ff16815250609c90601262000260929190620005b2565b5061024060405190810160405280600260ff168152602001600460ff168152602001600660ff168152602001600860ff168152602001600a60ff168152602001600b60ff168152602001600d60ff168152602001600f60ff168152602001601160ff168152602001601460ff168152602001601660ff168152602001601860ff168152602001601a60ff168152602001601c60ff168152602001601d60ff168152602001601f60ff168152602001602160ff168152602001602360ff1681525060ae90601262000332929190620005b2565b503480156200034057600080fd5b5060405160208062003bbd833981018060405281019080805190602001909291905050508060c060006101000a81548173ffffffffffffffffffffffffffffffffffffffff021916908373ffffffffffffffffffffffffffffffffffffffff1602179055505062000624565b8260028101928215620003e3579160200282015b82811115620003e2578251829060ff16905591602001919060010190620003c0565b5b509050620003f29190620005fc565b5090565b82600381019282156200042d579160200282015b828111156200042c578251829060ff169055916020019190600101906200040a565b5b5090506200043c9190620005fc565b5090565b82600b810192821562000477579160200282015b8281111562000476578251829060ff1690559160200191906001019062000454565b5b509050620004869190620005fc565b5090565b8260168101928215620004c1579160200282015b82811115620004c0578251829060ff169055916020019190600101906200049e565b5b509050620004d09190620005fc565b5090565b82600c81019282156200050b579160200282015b828111156200050a578251829060ff16905591602001919060010190620004e8565b5b5090506200051a9190620005fc565b5090565b826038810192821562000555579160200282015b8281111562000554578251829060ff1690559160200191906001019062000532565b5b509050620005649190620005fc565b5090565b82602681019282156200059f579160200282015b828111156200059e578251829060ff169055916020019190600101906200057c565b5b509050620005ae9190620005fc565b5090565b8260128101928215620005e9579160200282015b82811115620005e8578251829060ff16905591602001919060010190620005c6565b5b509050620005f89190620005fc565b5090565b6200062191905b808211156200061d57600081600090555060010162000603565b5090565b90565b61358980620006346000396000f3006080604052600436106100c5576000357c0100000000000000000000000000000000000000000000000000000000900463ffffffff16806322ae8b6d146100ca5780632e1a7d4d146101515780634396a9761461017e57806353661d38146101a95780636898f82b146101d4578063781a2cca146102155780638ffbf10014610235578063a163a62414610262578063b42fd8471461028d578063c1058b0d146102e4578063d134474c14610375578063de453690146103a0578063e5e9f096146103cb575b600080fd5b3480156100d657600080fd5b5061013b600480360381019080803590602001908201803590602001908080601f0160208091040260200160405190810160405280939291908181526020018383808284378201915050505050509192919290803590602001909291905050506103f6565b6040518082815260200191505060405180910390f35b34801561015d57600080fd5b5061017c60048036038101908080359060200190929190505050610e95565b005b34801561018a57600080fd5b50610193610f3d565b6040518082815260200191505060405180910390f35b3480156101b557600080fd5b506101be610f43565b6040518082815260200191505060405180910390f35b3480156101e057600080fd5b506101ff60048036038101908080359060200190929190505050610f49565b6040518082815260200191505060405180910390f35b61023360048036038101908080359060200190929190505050612065565b005b34801561024157600080fd5b50610260600480360381019080803590602001909291905050506120af565b005b34801561026e57600080fd5b506102776120f4565b6040518082815260200191505060405180910390f35b34801561029957600080fd5b506102a26120fd565b604051808273ffffffffffffffffffffffffffffffffffffffff1673ffffffffffffffffffffffffffffffffffffffff16815260200191505060405180910390f35b3480156102f057600080fd5b5061035f60048036038101908080359060200190929190803590602001908201803590602001908080601f016020809104026020016040519081016040528093929190818152602001838380828437820191505050505050919291929080359060200190929190505050612123565b6040518082815260200191505060405180910390f35b34801561038157600080fd5b5061038a613548565b6040518082815260200191505060405180910390f35b3480156103ac57600080fd5b506103b561354e565b6040518082815260200191505060405180910390f35b3480156103d757600080fd5b506103e0613554565b6040518082815260200191505060405180910390f35b60007fafc95d1f039c281835f22bd8b6130230b62953de60e8c4126096832f79b4d03960016040518082815260200191505060405180910390a160405180807f72656400000000000000000000000000000000000000000000000000000000008152506003019050604051809103902060001916836040518082805190602001908083835b6020831015156104a0578051825260208201915060208101905060208303925061047b565b6001836020036101000a03801982511681845116808217855250505050505090500191505060405180910390206000191614156104f3576002600560006002811015156104e957fe5b0154029050610e8f565b60405180807f626c61636b0000000000000000000000000000000000000000000000000000008152506005019050604051809103902060001916836040518082805190602001908083835b602083101515610563578051825260208201915060208101905060208303925061053e565b6001836020036101000a03801982511681845116808217855250505050505090500191505060405180910390206000191614156105b6576002600560016002811015156105ac57fe5b0154029050610e8f565b60405180807f6576656e000000000000000000000000000000000000000000000000000000008152506004019050604051809103902060001916836040518082805190602001908083835b6020831015156106265780518252602082019150602081019050602083039250610601565b6001836020036101000a03801982511681845116808217855250505050505090500191505060405180910390206000191614156106795760026007600060028110151561066f57fe5b0154029050610e8f565b60405180807f6f646400000000000000000000000000000000000000000000000000000000008152506003019050604051809103902060001916836040518082805190602001908083835b6020831015156106e957805182526020820191506020810190506020830392506106c4565b6001836020036101000a038019825116818451168082178552505050505050905001915050604051809103902060001916141561073c5760026007600160028110151561073257fe5b0154029050610e8f565b60405180807f6c6f7700000000000000000000000000000000000000000000000000000000008152506003019050604051809103902060001916836040518082805190602001908083835b6020831015156107ac5780518252602082019150602081019050602083039250610787565b6001836020036101000a03801982511681845116808217855250505050505090500191505060405180910390206000191614156107ff576002600960006002811015156107f557fe5b0154029050610e8f565b60405180807f68696768000000000000000000000000000000000000000000000000000000008152506004019050604051809103902060001916836040518082805190602001908083835b60208310151561086f578051825260208201915060208101905060208303925061084a565b6001836020036101000a03801982511681845116808217855250505050505090500191505060405180910390206000191614156108c2576002600960016002811015156108b857fe5b0154029050610e8f565b60405180807f646f7a656e7300000000000000000000000000000000000000000000000000008152506006019050604051809103902060001916836040518082805190602001908083835b602083101515610932578051825260208201915060208101905060208303925061090d565b6001836020036101000a038019825116818451168082178552505050505050905001915050604051809103902060001916141561099657600b8260038110151561097857fe5b01546002600b8460038110151561098b57fe5b015402019050610e8f565b60405180807f636f6c756d6e73000000000000000000000000000000000000000000000000008152506007019050604051809103902060001916836040518082805190602001908083835b602083101515610a0657805182526020820191506020810190506020830392506109e1565b6001836020036101000a0380198251168184511680821785525050505050509050019150506040518091039020600019161415610a6a57600e82600381101515610a4c57fe5b01546002600e84600381101515610a5f57fe5b015402019050610e8f565b60405180807f7369786e756d00000000000000000000000000000000000000000000000000008152506006019050604051809103902060001916836040518082805190602001908083835b602083101515610ada5780518252602082019150602081019050602083039250610ab5565b6001836020036101000a0380198251168184511680821785525050505050509050019150506040518091039020600019161415610b3e57601182600b81101515610b2057fe5b01546005601184600b81101515610b3357fe5b015402019050610e8f565b60405180807f666f75726e756d000000000000000000000000000000000000000000000000008152506007019050604051809103902060001916836040518082805190602001908083835b602083101515610bae5780518252602082019150602081019050602083039250610b89565b6001836020036101000a0380198251168184511680821785525050505050509050019150506040518091039020600019161415610c1257601c82601681101515610bf457fe5b01546008601c84601681101515610c0757fe5b015402019050610e8f565b60405180807f74687265656e756d7300000000000000000000000000000000000000000000008152506009019050604051809103902060001916836040518082805190602001908083835b602083101515610c825780518252602082019150602081019050602083039250610c5d565b6001836020036101000a0380198251168184511680821785525050505050509050019150506040518091039020600019161415610ce657603282600c81101515610cc857fe5b0154600b603284600c81101515610cdb57fe5b015402019050610e8f565b60405180807f74776f6e756d73000000000000000000000000000000000000000000000000008152506007019050604051809103902060001916836040518082805190602001908083835b602083101515610d565780518252602082019150602081019050602083039250610d31565b6001836020036101000a0380198251168184511680821785525050505050509050019150506040518091039020600019161415610dba57603e82603881101515610d9c57fe5b01546011603e84603881101515610daf57fe5b015402019050610e8f565b60405180807f73696e676c6500000000000000000000000000000000000000000000000000008152506006019050604051809103902060001916836040518082805190602001908083835b602083101515610e2a5780518252602082019150602081019050602083039250610e05565b6001836020036101000a0380198251168184511680821785525050505050509050019150506040518091039020600019161415610e8e57607682602681101515610e7057fe5b01546023607684602681101515610e8357fe5b015402019050610e8f565b5b92915050565b3073ffffffffffffffffffffffffffffffffffffffff16318111151515610ebb57600080fd5b3373ffffffffffffffffffffffffffffffffffffffff166108fc829081150290604051600060405180830381858888f19350505050158015610f01573d6000803e3d6000fd5b507fafc95d1f039c281835f22bd8b6130230b62953de60e8c4126096832f79b4d03960016040518082815260200191505060405180910390a150565b60005481565b60035481565b60008060038190555060006004819055505b6012600454101561105957609c600454601281101515610f7757fe5b0154821415610fd457610fc06040805190810160405280600381526020017f726564000000000000000000000000000000000000000000000000000000000081525060006103f6565b600260008282540192505081905550611059565b60ae600454601281101515610fe557fe5b01548214156110425761102e6040805190810160405280600581526020017f626c61636b00000000000000000000000000000000000000000000000000000081525060006103f6565b600260008282540192505081905550611059565b600460008154809291906001019190505550610f5b565b600060028381151561106757fe5b0614156110c2576110ae6040805190810160405280600481526020017f6576656e0000000000000000000000000000000000000000000000000000000081525060016103f6565b600260008282540192505081905550611112565b6111026040805190810160405280600381526020017f6f6464000000000000000000000000000000000000000000000000000000000081525060016103f6565b6002600082825401925050819055505b601282111561116f5761115b6040805190810160405280600481526020017f686967680000000000000000000000000000000000000000000000000000000081525060006103f6565b6002600082825401925050819055506111bf565b6111af6040805190810160405280600381526020017f6c6f77000000000000000000000000000000000000000000000000000000000081525060006103f6565b6002600082825401925050819055505b600182101580156111d15750600c8211155b1561122a576112166040805190810160405280600681526020017f646f7a656e73000000000000000000000000000000000000000000000000000081525060006103f6565b6002600082825401925050819055506112f0565b600d821015801561123c575060188211155b15611295576112816040805190810160405280600681526020017f646f7a656e73000000000000000000000000000000000000000000000000000081525060016103f6565b6002600082825401925050819055506112ef565b60198211156112ee576112de6040805190810160405280600681526020017f646f7a656e73000000000000000000000000000000000000000000000000000081525060026103f6565b6002600082825401925050819055505b5b5b60006003838115156112fe57fe5b061415611359576113456040805190810160405280600781526020017f636f6c756d6e730000000000000000000000000000000000000000000000000081525060006103f6565b60026000828254019250508190555061142f565b600060036001840181151561136a57fe5b0614156113c5576113b16040805190810160405280600781526020017f636f6c756d6e730000000000000000000000000000000000000000000000000081525060016103f6565b60026000828254019250508190555061142e565b60006003600284018115156113d657fe5b06141561142d5761141d6040805190810160405280600781526020017f636f6c756d6e730000000000000000000000000000000000000000000000000081525060026103f6565b6002600082825401925050819055505b5b5b60018210158015611441575060068211155b15612028576114866040805190810160405280600681526020017f7369786e756d000000000000000000000000000000000000000000000000000081525060006103f6565b600260008282540192505081905550600482101580156114a7575060098211155b156114fc576114ec6040805190810160405280600681526020017f7369786e756d000000000000000000000000000000000000000000000000000081525060016103f6565b6002600082825401925050819055505b6007821015801561150e5750600c8211155b15611563576115536040805190810160405280600681526020017f7369786e756d000000000000000000000000000000000000000000000000000081525060026103f6565b6002600082825401925050819055505b600a82101580156115755750600f8211155b156115ca576115ba6040805190810160405280600681526020017f7369786e756d000000000000000000000000000000000000000000000000000081525060036103f6565b6002600082825401925050819055505b600d82101580156115dc575060128211155b15611631576116216040805190810160405280600681526020017f7369786e756d000000000000000000000000000000000000000000000000000081525060046103f6565b6002600082825401925050819055505b60108210158015611643575060158211155b15611698576116886040805190810160405280600681526020017f7369786e756d000000000000000000000000000000000000000000000000000081525060056103f6565b6002600082825401925050819055505b601382101580156116aa575060188211155b156116ff576116ef6040805190810160405280600681526020017f7369786e756d000000000000000000000000000000000000000000000000000081525060066103f6565b6002600082825401925050819055505b601682101580156117115750601b8211155b15611766576117566040805190810160405280600681526020017f7369786e756d000000000000000000000000000000000000000000000000000081525060076103f6565b6002600082825401925050819055505b601982101580156117785750601e8211155b156117cd576117bd6040805190810160405280600681526020017f7369786e756d000000000000000000000000000000000000000000000000000081525060086103f6565b6002600082825401925050819055505b601c82101580156117df575060218211155b15611834576118246040805190810160405280600681526020017f7369786e756d000000000000000000000000000000000000000000000000000081525060096103f6565b6002600082825401925050819055505b601f8210158015611846575060248211155b1561189b5761188b6040805190810160405280600681526020017f7369786e756d0000000000000000000000000000000000000000000000000000815250600a6103f6565b6002600082825401925050819055505b60016004819055505b601f60045411151561195f576004548214806118c4575060016004540182145b806118d3575060036004540182145b806118e15750600480540182145b15611949576119396040805190810160405280600781526020017f666f75726e756d000000000000000000000000000000000000000000000000008152506001600360026004540181151561193257fe5b04036103f6565b6002600082825401925050819055505b60036004600082825401925050819055506118a4565b60026004819055505b6020600454111515611a2357600454821480611988575060016004540182145b80611997575060036004540182145b806119a55750600480540182145b15611a0d576119fd6040805190810160405280600781526020017f666f75726e756d00000000000000000000000000000000000000000000000000815250600a60036001600454018115156119f657fe5b04016103f6565b6002600082825401925050819055505b6003600460008282540192505081905550611968565b60016004819055505b60226004541015611acc576004548210158015611a4e57506002600454018211155b15611ab657611aa66040805190810160405280600981526020017f74687265656e756d73000000000000000000000000000000000000000000000081525060016003600260045401811515611a9f57fe5b04036103f6565b6002600082825401925050819055505b6003600460008282540192505081905550611a2c565b60016004819055505b6022600454111515611b7357600454821480611af5575060016004540182145b15611b5d57611b4d6040805190810160405280600781526020017f74776f6e756d730000000000000000000000000000000000000000000000000081525060016003600260045401811515611b4657fe5b04036103f6565b6002600082825401925050819055505b6003600460008282540192505081905550611ad5565b60026004819055505b6023600454111515611c1a57600454821480611b9c575060016004540182145b15611c0457611bf46040805190810160405280600781526020017f74776f6e756d7300000000000000000000000000000000000000000000000000815250600b6003600160045401811515611bed57fe5b04016103f6565b6002600082825401925050819055505b6003600460008282540192505081905550611b7c565b60016004819055505b601f600454111515611cc157600454821480611c43575060036004540182145b15611cab57611c9b6040805190810160405280600781526020017f74776f6e756d730000000000000000000000000000000000000000000000000081525060176003600260045401811515611c9457fe5b04016103f6565b6002600082825401925050819055505b6003600460008282540192505081905550611c23565b60026004819055505b6020600454111515611d6857600454821480611cea575060036004540182145b15611d5257611d426040805190810160405280600781526020017f74776f6e756d730000000000000000000000000000000000000000000000000081525060226003600160045401811515611d3b57fe5b04016103f6565b6002600082825401925050819055505b6003600460008282540192505081905550611cca565b60036004819055505b6021600454111515611e0c57600454821480611d91575060036004540182145b15611df657611de66040805190810160405280600781526020017f74776f6e756d7300000000000000000000000000000000000000000000000000815250602d6003600454811515611ddf57fe5b04016103f6565b6002600082825401925050819055505b6003600460008282540192505081905550611d71565b6025821415611e6957611e556040805190810160405280600681526020017f73696e676c65000000000000000000000000000000000000000000000000000081525060256103f6565b600260008282540192505081905550611eb8565b611ea86040805190810160405280600681526020017f73696e676c650000000000000000000000000000000000000000000000000000815250836103f6565b6002600082825401925050819055505b60006004819055505b603860045410156120275760026004541015611f205760006005600454600281101515611eea57fe5b018190555060006007600454600281101515611f0257fe5b018190555060006009600454600281101515611f1a57fe5b01819055505b60036004541015611f5c576000600b600454600381101515611f3e57fe5b01819055506000600e600454600381101515611f5657fe5b01819055505b600b6004541015611f805760006011600454600b81101515611f7a57fe5b01819055505b60166004541015611fa4576000601c600454601681101515611f9e57fe5b01819055505b600c6004541015611fc85760006032600454600c81101515611fc257fe5b01819055505b60386004541015611fec576000603e600454603881101515611fe657fe5b01819055505b60266004541015612010576000607660045460268110151561200a57fe5b01819055505b600460008154809291906001019190505550611ec1565b5b7fafc95d1f039c281835f22bd8b6130230b62953de60e8c4126096832f79b4d03960016040518082815260200191505060405180910390a1919050565b7fafc95d1f039c281835f22bd8b6130230b62953de60e8c4126096832f79b4d03960036040518082815260200191505060405180910390a180600080828254019250508190555050565b80600054036000819055507fafc95d1f039c281835f22bd8b6130230b62953de60e8c4126096832f79b4d039816040518082815260200191505060405180910390a150565b60008054905090565b60c060009054906101000a900473ffffffffffffffffffffffffffffffffffffffff1681565b60007fafc95d1f039c281835f22bd8b6130230b62953de60e8c4126096832f79b4d03960036040518082815260200191505060405180910390a160405180807f72656400000000000000000000000000000000000000000000000000000000008152506003019050604051809103902060001916836040518082805190602001908083835b6020831015156121cd57805182526020820191506020810190506020830392506121a8565b6001836020036101000a03801982511681845116808217855250505050505090500191505060405180910390206000191614156122e157836005600060028110151561221557fe5b016000828254019250508190555060c060009054906101000a900473ffffffffffffffffffffffffffffffffffffffff1673ffffffffffffffffffffffffffffffffffffffff16638ffbf100856040518263ffffffff167c010000000000000000000000000000000000000000000000000000000002815260040180828152602001915050600060405180830381600087803b1580156122b457600080fd5b505af11580156122c8573d6000803e3d6000fd5b5050505083600360008282540192505081905550613509565b60405180807f626c61636b0000000000000000000000000000000000000000000000000000008152506005019050604051809103902060001916836040518082805190602001908083835b602083101515612351578051825260208201915060208101905060208303925061232c565b6001836020036101000a038019825116818451168082178552505050505050905001915050604051809103902060001916141561246557836005600160028110151561239957fe5b016000828254019250508190555060c060009054906101000a900473ffffffffffffffffffffffffffffffffffffffff1673ffffffffffffffffffffffffffffffffffffffff16638ffbf100856040518263ffffffff167c010000000000000000000000000000000000000000000000000000000002815260040180828152602001915050600060405180830381600087803b15801561243857600080fd5b505af115801561244c573d6000803e3d6000fd5b5050505083600360008282540192505081905550613508565b60405180807f6576656e000000000000000000000000000000000000000000000000000000008152506004019050604051809103902060001916836040518082805190602001908083835b6020831015156124d557805182526020820191506020810190506020830392506124b0565b6001836020036101000a03801982511681845116808217855250505050505090500191505060405180910390206000191614156125e957836007600060028110151561251d57fe5b016000828254019250508190555060c060009054906101000a900473ffffffffffffffffffffffffffffffffffffffff1673ffffffffffffffffffffffffffffffffffffffff16638ffbf100856040518263ffffffff167c010000000000000000000000000000000000000000000000000000000002815260040180828152602001915050600060405180830381600087803b1580156125bc57600080fd5b505af11580156125d0573d6000803e3d6000fd5b5050505083600360008282540192505081905550613507565b60405180807f6f646400000000000000000000000000000000000000000000000000000000008152506003019050604051809103902060001916836040518082805190602001908083835b6020831015156126595780518252602082019150602081019050602083039250612634565b6001836020036101000a038019825116818451168082178552505050505050905001915050604051809103902060001916141561276d5783600760016002811015156126a157fe5b016000828254019250508190555060c060009054906101000a900473ffffffffffffffffffffffffffffffffffffffff1673ffffffffffffffffffffffffffffffffffffffff16638ffbf100856040518263ffffffff167c010000000000000000000000000000000000000000000000000000000002815260040180828152602001915050600060405180830381600087803b15801561274057600080fd5b505af1158015612754573d6000803e3d6000fd5b5050505083600360008282540192505081905550613506565b60405180807f6c6f7700000000000000000000000000000000000000000000000000000000008152506003019050604051809103902060001916836040518082805190602001908083835b6020831015156127dd57805182526020820191506020810190506020830392506127b8565b6001836020036101000a03801982511681845116808217855250505050505090500191505060405180910390206000191614156128f157836009600060028110151561282557fe5b016000828254019250508190555060c060009054906101000a900473ffffffffffffffffffffffffffffffffffffffff1673ffffffffffffffffffffffffffffffffffffffff16638ffbf100856040518263ffffffff167c010000000000000000000000000000000000000000000000000000000002815260040180828152602001915050600060405180830381600087803b1580156128c457600080fd5b505af11580156128d8573d6000803e3d6000fd5b5050505083600360008282540192505081905550613505565b60405180807f68696768000000000000000000000000000000000000000000000000000000008152506004019050604051809103902060001916836040518082805190602001908083835b602083101515612961578051825260208201915060208101905060208303925061293c565b6001836020036101000a0380198251168184511680821785525050505050509050019150506040518091039020600019161415612a6c5783600960016002811015156129a957fe5b018190555060c060009054906101000a900473ffffffffffffffffffffffffffffffffffffffff1673ffffffffffffffffffffffffffffffffffffffff16638ffbf100856040518263ffffffff167c010000000000000000000000000000000000000000000000000000000002815260040180828152602001915050600060405180830381600087803b158015612a3f57600080fd5b505af1158015612a53573d6000803e3d6000fd5b5050505083600360008282540192505081905550613504565b60405180807f646f7a656e7300000000000000000000000000000000000000000000000000008152506006019050604051809103902060001916836040518082805190602001908083835b602083101515612adc5780518252602082019150602081019050602083039250612ab7565b6001836020036101000a0380198251168184511680821785525050505050509050019150506040518091039020600019161415612bef5783600b83600381101515612b2357fe5b016000828254019250508190555060c060009054906101000a900473ffffffffffffffffffffffffffffffffffffffff1673ffffffffffffffffffffffffffffffffffffffff16638ffbf100856040518263ffffffff167c010000000000000000000000000000000000000000000000000000000002815260040180828152602001915050600060405180830381600087803b158015612bc257600080fd5b505af1158015612bd6573d6000803e3d6000fd5b5050505083600360008282540192505081905550613503565b60405180807f636f6c756d6e73000000000000000000000000000000000000000000000000008152506007019050604051809103902060001916836040518082805190602001908083835b602083101515612c5f5780518252602082019150602081019050602083039250612c3a565b6001836020036101000a0380198251168184511680821785525050505050509050019150506040518091039020600019161415612d725783600e83600381101515612ca657fe5b016000828254019250508190555060c060009054906101000a900473ffffffffffffffffffffffffffffffffffffffff1673ffffffffffffffffffffffffffffffffffffffff16638ffbf100856040518263ffffffff167c010000000000000000000000000000000000000000000000000000000002815260040180828152602001915050600060405180830381600087803b158015612d4557600080fd5b505af1158015612d59573d6000803e3d6000fd5b5050505083600360008282540192505081905550613502565b60405180807f7369786e756d00000000000000000000000000000000000000000000000000008152506006019050604051809103902060001916836040518082805190602001908083835b602083101515612de25780518252602082019150602081019050602083039250612dbd565b6001836020036101000a0380198251168184511680821785525050505050509050019150506040518091039020600019161415612ef55783601183600b81101515612e2957fe5b016000828254019250508190555060c060009054906101000a900473ffffffffffffffffffffffffffffffffffffffff1673ffffffffffffffffffffffffffffffffffffffff16638ffbf100856040518263ffffffff167c010000000000000000000000000000000000000000000000000000000002815260040180828152602001915050600060405180830381600087803b158015612ec857600080fd5b505af1158015612edc573d6000803e3d6000fd5b5050505083600360008282540192505081905550613501565b60405180807f666f75726e756d000000000000000000000000000000000000000000000000008152506007019050604051809103902060001916836040518082805190602001908083835b602083101515612f655780518252602082019150602081019050602083039250612f40565b6001836020036101000a03801982511681845116808217855250505050505090500191505060405180910390206000191614156130785783601c83601681101515612fac57fe5b016000828254019250508190555060c060009054906101000a900473ffffffffffffffffffffffffffffffffffffffff1673ffffffffffffffffffffffffffffffffffffffff16638ffbf100856040518263ffffffff167c010000000000000000000000000000000000000000000000000000000002815260040180828152602001915050600060405180830381600087803b15801561304b57600080fd5b505af115801561305f573d6000803e3d6000fd5b5050505083600360008282540192505081905550613500565b60405180807f74687265656e756d7300000000000000000000000000000000000000000000008152506009019050604051809103902060001916836040518082805190602001908083835b6020831015156130e857805182526020820191506020810190506020830392506130c3565b6001836020036101000a03801982511681845116808217855250505050505090500191505060405180910390206000191614156131fb5783603283600c8110151561312f57fe5b016000828254019250508190555060c060009054906101000a900473ffffffffffffffffffffffffffffffffffffffff1673ffffffffffffffffffffffffffffffffffffffff16638ffbf100856040518263ffffffff167c010000000000000000000000000000000000000000000000000000000002815260040180828152602001915050600060405180830381600087803b1580156131ce57600080fd5b505af11580156131e2573d6000803e3d6000fd5b50505050836003600082825401925050819055506134ff565b60405180807f74776f6e756d73000000000000000000000000000000000000000000000000008152506007019050604051809103902060001916836040518082805190602001908083835b60208310151561326b5780518252602082019150602081019050602083039250613246565b6001836020036101000a038019825116818451168082178552505050505050905001915050604051809103902060001916141561337e5783603e836038811015156132b257fe5b016000828254019250508190555060c060009054906101000a900473ffffffffffffffffffffffffffffffffffffffff1673ffffffffffffffffffffffffffffffffffffffff16638ffbf100856040518263ffffffff167c010000000000000000000000000000000000000000000000000000000002815260040180828152602001915050600060405180830381600087803b15801561335157600080fd5b505af1158015613365573d6000803e3d6000fd5b50505050836003600082825401925050819055506134fe565b60405180807f73696e676c6500000000000000000000000000000000000000000000000000008152506006019050604051809103902060001916836040518082805190602001908083835b6020831015156133ee57805182526020820191506020810190506020830392506133c9565b6001836020036101000a03801982511681845116808217855250505050505090500191505060405180910390206000191614156134fd578360768360268110151561343557fe5b016000828254019250508190555060c060009054906101000a900473ffffffffffffffffffffffffffffffffffffffff1673ffffffffffffffffffffffffffffffffffffffff16638ffbf100856040518263ffffffff167c010000000000000000000000000000000000000000000000000000000002815260040180828152602001915050600060405180830381600087803b1580156134d457600080fd5b505af11580156134e8573d6000803e3d6000fd5b50505050836003600082825401925050819055505b5b5b5b5b5b5b5b5b5b5b5b5b7fafc95d1f039c281835f22bd8b6130230b62953de60e8c4126096832f79b4d03960016040518082815260200191505060405180910390a19392505050565b60025481565b60015481565b600080549050905600a165627a7a7230582073d4e5b531aca34a1b321796bb801c8793b7c9eef31ff70677bf684d1c66fb800029",
  "source": "pragma solidity ^0.4.23;\r\n\r\nimport \"./Bank.sol\";\r\ncontract Blockchaincasino is Bank\r\n{\r\n//uint public chips = 10;\r\nuint public winnings;\r\nuint public betsplaced;\r\n//uint HouseWinningsInEther;\r\nuint i;\r\nuint[2] redblack = [0];\r\nuint[2] evenodd = [0];\r\nuint[2] lowhigh = [0];\r\nuint[3] dozens = [0];\r\nuint[3] columns = [0];\r\nuint[11] six = [0];\r\nuint[22] four = [0];\r\nuint[12] three = [0];\r\nuint[56] two = [0];\r\nuint[38] single = [0];\r\n//bets position\r\n//[Red,Black,even, odd, low ,high, dozens, columns, sixnum,\r\n//fournum,threenums, twonums, straight\r\nuint[18] red = [1, 3, 5, 7, 9, 12, 14, 16, 18, 19, 21, 23, 25, 27, 30, 32, 34, 36];\r\nuint[18] black = [2, 4, 6, 8, 10, 11, 13, 15, 17, 20, 22, 24, 26, 28, 29, 31, 33, 35];\r\n\r\n\r\nBank public Bankobj;\r\nevent ReRender(uint value);\r\n\r\nconstructor(address bankaddress) public{\r\n\r\n  Bankobj = Bank(bankaddress);\r\n}\r\n/*\r\nfunction getChips() public returns(uint){\r\n\r\n  // emit ReRender(1);\r\n  return chips;\r\n}\r\n/*function MoreChips(uint amount) public{\r\n\r\n  // emit ReRender(1);\r\n  chips += amount;\r\n}\r\n*/\r\n//function ClearWinnings() public {\r\n\r\n  // emit ReRender(1);\r\n\r\n//}\r\n/*\r\nfunction Payout(uint wins) external{\r\n  require( HouseWinningsInEther >= wins);\r\n  HouseWinningsInEther -= wins;\r\n  msg.sender.transfer(wins);\r\n  winnings = 0;\r\n  // emit ReRender(1);\r\n}\r\n*//*\r\nfunction getChips() public view returns (uint)\r\n{\r\n    return Bankobj.getchips();\r\n}\r\n*/\r\n  function setbet(uint _money, string bet, uint number) public returns (uint)\r\n  {\r\n\r\n     emit ReRender(3);\r\n\r\n        if((keccak256(bet) == keccak256(\"red\")))\r\n        {\r\n\r\n          redblack[0] += _money;\r\n          Bankobj.AdjustChips(_money);\r\n          betsplaced += _money;\r\n        }else if( (keccak256(bet) == keccak256(\"black\")))\r\n        {\r\n          redblack[1] += _money;\r\n          Bankobj.AdjustChips(_money);\r\n          betsplaced += _money;\r\n        }else if((keccak256(bet) == keccak256(\"even\")))\r\n        {\r\n            evenodd[0] += _money;\r\n          Bankobj.AdjustChips(_money);\r\n            betsplaced += _money;\r\n        }else if((keccak256(bet) == keccak256(\"odd\"))){\r\n          evenodd[1] += _money;\r\n          Bankobj.AdjustChips(_money);\r\n          betsplaced += _money;\r\n        }else if((keccak256(bet) == keccak256(\"low\")))\r\n        {\r\n            lowhigh[0] += _money;\r\n            Bankobj.AdjustChips(_money);\r\n            betsplaced += _money;\r\n        }else if((keccak256(bet) == keccak256(\"high\")))\r\n        {\r\n          lowhigh[1] = _money;\r\n          Bankobj.AdjustChips(_money);\r\n          betsplaced += _money;\r\n        }else if((keccak256(bet) == keccak256(\"dozens\")))\r\n        {\r\n          dozens[number] += _money;\r\n          Bankobj.AdjustChips(_money);\r\n          betsplaced += _money;\r\n        }else if((keccak256(bet) == keccak256(\"columns\")))\r\n        {\r\n            columns[number] += _money;\r\n          Bankobj.AdjustChips(_money);\r\n            betsplaced += _money;\r\n        }else if((keccak256(bet) == keccak256(\"sixnum\")))\r\n        {\r\n            six[number] += _money;\r\n          Bankobj.AdjustChips(_money);\r\n            betsplaced += _money;\r\n        }\r\n        else if((keccak256(bet) == keccak256(\"fournum\")))\r\n        {\r\n            four[number] += _money;\r\n          Bankobj.AdjustChips(_money);\r\n            betsplaced += _money;\r\n        }else if((keccak256(bet) == keccak256(\"threenums\")))\r\n        {\r\n            three[number] += _money;\r\n          Bankobj.AdjustChips(_money);\r\n            betsplaced += _money;\r\n        }else if((keccak256(bet) == keccak256(\"twonums\")))\r\n        {\r\n            two[number] += _money;\r\n          Bankobj.AdjustChips(_money);\r\n            betsplaced += _money;\r\n        }else if((keccak256(bet) == keccak256(\"single\")))\r\n        {\r\n            single[number] += _money;\r\n          Bankobj.AdjustChips(_money);\r\n            betsplaced += _money;\r\n        }\r\n        emit ReRender(1);\r\n\r\n  }\r\n  function getbet(string bet, uint number) public returns (uint)\r\n  {\r\n    emit ReRender(1);\r\n\r\n\r\n    if((keccak256(bet) == keccak256(\"red\")))\r\n    {\r\n    return redblack[0] * 2 ;\r\n    }else if( (keccak256(bet) == keccak256(\"black\")))\r\n    {\r\n    return redblack[1] * 2;\r\n    }else if((keccak256(bet) == keccak256(\"even\")))\r\n    {\r\n    return evenodd[0] * 2;\r\n    }else if((keccak256(bet) == keccak256(\"odd\")))\r\n    {\r\n    return evenodd[1] * 2;\r\n    }else if((keccak256(bet) == keccak256(\"low\")))\r\n    {\r\n    return lowhigh[0] * 2;\r\n    }else if((keccak256(bet) == keccak256(\"high\")))\r\n    {\r\n    return lowhigh[1] * 2;\r\n    }else if((keccak256(bet) == keccak256(\"dozens\")))\r\n    {\r\n    return ( (dozens[number] * 2) + dozens[number]);\r\n    }else if((keccak256(bet) == keccak256(\"columns\")))\r\n    {\r\n    return ( (columns[number] * 2) + columns[number]);\r\n    }else if((keccak256(bet) == keccak256(\"sixnum\")))\r\n    {\r\n    return ( (six[number] * 5) + six[number]);\r\n    }\r\n    else if((keccak256(bet) == keccak256(\"fournum\")))\r\n    {\r\n    return ( (four[number] * 8) + four[number]);\r\n    }else if((keccak256(bet) == keccak256(\"threenums\")))\r\n    {\r\n    return ( (three[number] * 11) + three[number]);\r\n    }else if((keccak256(bet) == keccak256(\"twonums\")))\r\n    {\r\n    return ( (two[number] * 17) + two[number]);\r\n    }else if((keccak256(bet) == keccak256(\"single\")))\r\n    {\r\n    return ( (single[number] * 35) + single[number]);\r\n    }\r\n    }\r\n\r\n    function play(uint draw) public returns (uint)\r\n    {\r\n\r\n      betsplaced = 0;\r\n      //red or black\r\n      for(i = 0; i < 18; i++)\r\n      {\r\n        if(draw == red[i] ){\r\n          winnings += getbet(\"red\",0);\r\n          break;\r\n        }else if(draw == black[i]){\r\n          winnings+= getbet(\"black\",0);\r\n          break;\r\n      }\r\n    }\r\n      //even odds\r\n      if(draw%2 == 0){\r\n        winnings += getbet(\"even\", 1);\r\n      }else{\r\n        winnings += getbet(\"odd\",1);\r\n      }\r\n\r\n      //high low\r\n      if(draw > 18){\r\n        winnings+= getbet(\"high\",0);\r\n      }\r\n      else{\r\n        winnings+= getbet(\"low\",0);\r\n      }\r\n\r\n      //dozens\r\n      if(draw >= 1 && draw <= 12){\r\n        winnings+= getbet(\"dozens\",0);\r\n      }else if(draw >= 13 && draw <= 24){\r\n        winnings+= getbet(\"dozens\",1);\r\n      }else if(draw > 25){\r\n        winnings+= getbet(\"dozens\",2);\r\n      }\r\n\r\n      //columns\r\n      // if you place a bet on the third column\r\n      if( (draw % 3) == 0)\r\n      {\r\n        winnings+= getbet(\"columns\",0);\r\n      }//second column\r\n      else if( ((draw + 1)%3) == 0){\r\n        winnings += getbet(\"columns\",1);\r\n      }//first column\r\n      else if( ((draw +2)%3) == 0){\r\n        winnings += getbet(\"columns\", 2);\r\n      }\r\n\r\n      // six number bets\r\n      if(draw >= 1 && draw <=6){\r\n        winnings+= getbet(\"sixnum\",0);\r\n      if(draw >=4 && draw <=9){\r\n        winnings+= getbet(\"sixnum\",1);\r\n      }if(draw >=7 && draw <=12){\r\n        winnings+= getbet(\"sixnum\",2);\r\n      }if(draw >=10 && draw <=15){\r\n        winnings+= getbet(\"sixnum\",3);\r\n      }if(draw >=13 && draw <=18){\r\n        winnings+= getbet(\"sixnum\",4);\r\n      }if(draw >=16 && draw <=21){\r\n        winnings+= getbet(\"sixnum\",5);\r\n      }if(draw >=19 && draw <=24){\r\n        winnings+= getbet(\"sixnum\",6);\r\n      }if(draw >=22 && draw <=27){\r\n        winnings+= getbet(\"sixnum\",7);\r\n      }if(draw >=25 && draw <=30){\r\n        winnings+= getbet(\"sixnum\",8);\r\n      }if(draw >=28 && draw <=33){\r\n        winnings+= getbet(\"sixnum\",9);\r\n      }if(draw >=31 && draw <=36){\r\n        winnings+= getbet(\"sixnum\",10);\r\n      }\r\n\r\n      //fournum 1,2,5,4 ; 4,5,8,7\r\n      for(i = 1; i<=31; i+=3){\r\n        if( (draw == i) || (draw == (i+1)) || (draw == (i+3)) || (draw == (i+4)) )\r\n        {\r\n        winnings += getbet(\"fournum\", ((i+2)/3)-1);\r\n        }\r\n      }\r\n      //2,5,6,9; 5,8,9,6\r\n      for(i = 2; i<=32; i+=3){\r\n        if( (draw == i) || (draw == (i+1)) || (draw == (i+3)) || (draw == (i+4)))\r\n        {\r\n        winnings += getbet(\"fournum\", ((i+1)/3)+10);\r\n        }\r\n      }\r\n\r\n      // three numbers 1,2,3 ; 4,5,6\r\n      for(i = 1; i<34;i+=3){\r\n        if(draw >= i && draw <= i+2){\r\n          winnings += getbet(\"threenums\", ((i+2)/3)-1);\r\n        }\r\n      }\r\n\r\n\r\n      //two numbers for vertical betting on the first vertical lines ie 1,2;4,5;\r\n      for(i = 1; i<=34; i+=3){\r\n        if( (draw == i) || (draw == (i+1)) )\r\n        {\r\n            winnings += getbet(\"twonums\", ( ((i+2)/3) -1) );\r\n        }\r\n      }\r\n      //two numbers for vertical betting on the second vertical line 2,3; 5,6\r\n      for(i = 2; i<=35; i+=3){\r\n        if( (draw == i) || (draw == (i+1)) )\r\n        {\r\n            winnings += getbet(\"twonums\", (((i+1)/3) + 11) );\r\n        }\r\n      }\r\n      //two numbers for horizontal betting on the first column horizontal lines\r\n      // bets like 1,4; 7,10;\r\n\r\n      for(i = 1; i<=31; i+=3){\r\n        if ( (draw == i) || (draw ==(i+3)) )\r\n        {\r\n            winnings += getbet(\"twonums\", (((i+2)/3) + 23) );\r\n        }\r\n      }\r\n      //second horizontal line 2,5; 5,8\r\n      for(i = 2; i<=32; i+=3){\r\n        if( (draw == i) || (draw == (i+3)) )\r\n        {\r\n            winnings += getbet(\"twonums\", (((i+1)/3) + 34) );\r\n        }\r\n      }\r\n      //third horizontal line 3,6; 6,9\r\n      for(i = 3; i<=33; i+=3){\r\n        if( (draw == i) || (draw == (i+3)) )\r\n        {\r\n            winnings += getbet(\"twonums\", ( (i/3) + 45) );\r\n        }\r\n      }\r\n\r\n\r\n\r\n\r\n\r\n      //single\r\n      //for drawing a 00\r\n      if(draw == 37){\r\n        winnings += getbet(\"single\", 37);\r\n      }else\r\n      {\r\n        winnings += getbet(\"single\", draw);\r\n      }\r\n      for(i = 0; i <56; i++)\r\n      {\r\n        if(i<2){\r\n          redblack[i] = 0;\r\n          evenodd[i] = 0;\r\n          lowhigh[i] = 0;\r\n        }if(i<3){\r\n          dozens[i] = 0;\r\n          columns[i] = 0;\r\n        }if(i< 11){\r\n          six[i] = 0;\r\n        }if(i< 22){\r\n          four[i] = 0;\r\n        }if(i< 12){\r\n          three[i] = 0;\r\n        }if(i< 56){\r\n          two[i] = 0;\r\n        }if(i< 38){\r\n          single[i] = 0;\r\n        }\r\n      }\r\n    }\r\nemit ReRender(1);\r\n\r\n\r\n}\r\n}\r\n",
  "sourcePath": "C:\\Users\\jerem\\chainjeremy\\casino\\blockchaincasino\\contracts\\Blockchaincasino.sol",
  "compiler": {
    "name": "solc",
    "version": "0.4.23+commit.124ca40d.Emscripten.clang"
  },
  "schemaVersion": "2.0.0",
  "updatedAt": "2021-04-26T16:18:33.640Z"
}