{
  "contractName": "Blockchaincasino",
  "abi": [
    {
      "constant": false,
      "inputs": [
        {
          "name": "_money",
          "type": "uint256"
        },
        {
          "name": "bet",
          "type": "string"
        },
        {
          "name": "number",
          "type": "uint256"
        }
      ],
      "name": "setbet",
      "outputs": [
        {
          "name": "",
          "type": "uint256"
        }
      ],
      "payable": false,
      "stateMutability": "nonpayable",
      "type": "function"
    },
    {
      "constant": false,
      "inputs": [
        {
          "name": "bet",
          "type": "string"
        },
        {
          "name": "number",
          "type": "uint256"
        }
      ],
      "name": "getbet",
      "outputs": [
        {
          "name": "",
          "type": "uint256"
        }
      ],
      "payable": false,
      "stateMutability": "nonpayable",
      "type": "function"
    },
    {
      "constant": true,
      "inputs": [
        {
          "name": "a",
          "type": "uint256"
        }
      ],
      "name": "test",
      "outputs": [
        {
          "name": "",
          "type": "uint256"
        }
      ],
      "payable": false,
      "stateMutability": "view",
      "type": "function"
    },
    {
      "constant": false,
      "inputs": [
        {
          "name": "draw",
          "type": "uint256"
        }
      ],
      "name": "play",
      "outputs": [
        {
          "name": "",
          "type": "uint256"
        }
      ],
      "payable": false,
      "stateMutability": "nonpayable",
      "type": "function"
    }
  ],
  "bytecode": "0x6080604052600a600055602060405190810160405280600060ff1681525060029060016200002f92919062000347565b50602060405190810160405280600060ff1681525060049060016200005692919062000347565b50602060405190810160405280600060ff1681525060069060016200007d92919062000347565b50602060405190810160405280600060ff168152506008906001620000a492919062000391565b50602060405190810160405280600060ff16815250600b906001620000cb92919062000391565b50602060405190810160405280600060ff16815250600e906001620000f2929190620003db565b50602060405190810160405280600060ff1681525060199060016200011992919062000425565b50602060405190810160405280600060ff16815250602f906001620001409291906200046f565b50602060405190810160405280600060ff16815250603b90600162000167929190620004b9565b50602060405190810160405280600060ff1681525060739060016200018e92919062000503565b5061024060405190810160405280600160ff168152602001600360ff168152602001600560ff168152602001600760ff168152602001600960ff168152602001600c60ff168152602001600e60ff168152602001601060ff168152602001601260ff168152602001601360ff168152602001601560ff168152602001601760ff168152602001601960ff168152602001601b60ff168152602001601e60ff168152602001602060ff168152602001602260ff168152602001602460ff168152506099906012620002609291906200054d565b5061024060405190810160405280600260ff168152602001600460ff168152602001600660ff168152602001600860ff168152602001600a60ff168152602001600b60ff168152602001600d60ff168152602001600f60ff168152602001601160ff168152602001601460ff168152602001601660ff168152602001601860ff168152602001601a60ff168152602001601c60ff168152602001601d60ff168152602001601f60ff168152602001602160ff168152602001602360ff1681525060ab906012620003329291906200054d565b503480156200034057600080fd5b50620005bf565b82600281019282156200037e579160200282015b828111156200037d578251829060ff169055916020019190600101906200035b565b5b5090506200038d919062000597565b5090565b8260038101928215620003c8579160200282015b82811115620003c7578251829060ff16905591602001919060010190620003a5565b5b509050620003d7919062000597565b5090565b82600b810192821562000412579160200282015b8281111562000411578251829060ff16905591602001919060010190620003ef565b5b50905062000421919062000597565b5090565b82601681019282156200045c579160200282015b828111156200045b578251829060ff1690559160200191906001019062000439565b5b5090506200046b919062000597565b5090565b82600c8101928215620004a6579160200282015b82811115620004a5578251829060ff1690559160200191906001019062000483565b5b509050620004b5919062000597565b5090565b8260388101928215620004f0579160200282015b82811115620004ef578251829060ff16905591602001919060010190620004cd565b5b509050620004ff919062000597565b5090565b82602681019282156200053a579160200282015b8281111562000539578251829060ff1690559160200191906001019062000517565b5b50905062000549919062000597565b5090565b826012810192821562000584579160200282015b8281111562000583578251829060ff1690559160200191906001019062000561565b5b50905062000593919062000597565b5090565b620005bc91905b80821115620005b85760008160009055506001016200059e565b5090565b90565b61252b80620005cf6000396000f300608060405260043610610062576000357c0100000000000000000000000000000000000000000000000000000000900463ffffffff16806322ae8b6d1461006757806329e99f07146100ee5780636898f82b1461012f578063c1058b0d14610170575b600080fd5b34801561007357600080fd5b506100d8600480360381019080803590602001908201803590602001908080601f016020809104026020016040519081016040528093929190818152602001838380828437820191505050505050919291929080359060200190929190505050610201565b6040518082815260200191505060405180910390f35b3480156100fa57600080fd5b5061011960048036038101908080359060200190929190505050610bc3565b6040518082815260200191505060405180910390f35b34801561013b57600080fd5b5061015a60048036038101908080359060200190929190505050610bd5565b6040518082815260200191505060405180910390f35b34801561017c57600080fd5b506101eb60048036038101908080359060200190929190803590602001908201803590602001908080601f016020809104026020016040519081016040528093929190818152602001838380828437820191505050505050919291929080359060200190929190505050611af8565b6040518082815260200191505060405180910390f35b600060405180807f72656400000000000000000000000000000000000000000000000000000000008152506003019050604051809103902060001916836040518082805190602001908083835b602083101515610273578051825260208201915060208101905060208303925061024e565b6001836020036101000a03801982511681845116808217855250505050505090500191505060405180910390206000191614156102c357600260006002811015156102ba57fe5b01549050610bbd565b60405180807f626c61636b0000000000000000000000000000000000000000000000000000008152506005019050604051809103902060001916836040518082805190602001908083835b602083101515610333578051825260208201915060208101905060208303925061030e565b6001836020036101000a0380198251168184511680821785525050505050509050019150506040518091039020600019161415610383576002600160028110151561037a57fe5b01549050610bbd565b60405180807f6576656e000000000000000000000000000000000000000000000000000000008152506004019050604051809103902060001916836040518082805190602001908083835b6020831015156103f357805182526020820191506020810190506020830392506103ce565b6001836020036101000a0380198251168184511680821785525050505050509050019150506040518091039020600019161415610443576004600060028110151561043a57fe5b01549050610bbd565b60405180807f6f646400000000000000000000000000000000000000000000000000000000008152506003019050604051809103902060001916836040518082805190602001908083835b6020831015156104b3578051825260208201915060208101905060208303925061048e565b6001836020036101000a038019825116818451168082178552505050505050905001915050604051809103902060001916141561050357600460016002811015156104fa57fe5b01549050610bbd565b60405180807f6c6f7700000000000000000000000000000000000000000000000000000000008152506003019050604051809103902060001916836040518082805190602001908083835b602083101515610573578051825260208201915060208101905060208303925061054e565b6001836020036101000a03801982511681845116808217855250505050505090500191505060405180910390206000191614156105c357600660006002811015156105ba57fe5b01549050610bbd565b60405180807f68696768000000000000000000000000000000000000000000000000000000008152506004019050604051809103902060001916836040518082805190602001908083835b602083101515610633578051825260208201915060208101905060208303925061060e565b6001836020036101000a0380198251168184511680821785525050505050509050019150506040518091039020600019161415610683576006600160028110151561067a57fe5b01549050610bbd565b60405180807f646f7a656e7300000000000000000000000000000000000000000000000000008152506006019050604051809103902060001916836040518082805190602001908083835b6020831015156106f357805182526020820191506020810190506020830392506106ce565b6001836020036101000a03801982511681845116808217855250505050505090500191505060405180910390206000191614156107425760088260038110151561073957fe5b01549050610bbd565b60405180807f636f6c756d6e73000000000000000000000000000000000000000000000000008152506007019050604051809103902060001916836040518082805190602001908083835b6020831015156107b2578051825260208201915060208101905060208303925061078d565b6001836020036101000a038019825116818451168082178552505050505050905001915050604051809103902060001916141561080157600b826003811015156107f857fe5b01549050610bbd565b60405180807f7369786e756d00000000000000000000000000000000000000000000000000008152506006019050604051809103902060001916836040518082805190602001908083835b602083101515610871578051825260208201915060208101905060208303925061084c565b6001836020036101000a03801982511681845116808217855250505050505090500191505060405180910390206000191614156108c057600e82600b811015156108b757fe5b01549050610bbd565b60405180807f666f75726e756d000000000000000000000000000000000000000000000000008152506007019050604051809103902060001916836040518082805190602001908083835b602083101515610930578051825260208201915060208101905060208303925061090b565b6001836020036101000a038019825116818451168082178552505050505050905001915050604051809103902060001916141561097f5760198260168110151561097657fe5b01549050610bbd565b60405180807f74687265656e756d7300000000000000000000000000000000000000000000008152506009019050604051809103902060001916836040518082805190602001908083835b6020831015156109ef57805182526020820191506020810190506020830392506109ca565b6001836020036101000a0380198251168184511680821785525050505050509050019150506040518091039020600019161415610a3e57602f82600c81101515610a3557fe5b01549050610bbd565b60405180807f74776f6e756d73000000000000000000000000000000000000000000000000008152506007019050604051809103902060001916836040518082805190602001908083835b602083101515610aae5780518252602082019150602081019050602083039250610a89565b6001836020036101000a0380198251168184511680821785525050505050509050019150506040518091039020600019161415610afd57603b82603881101515610af457fe5b01549050610bbd565b60405180807f73696e676c6500000000000000000000000000000000000000000000000000008152506006019050604051809103902060001916836040518082805190602001908083835b602083101515610b6d5780518252602082019150602081019050602083039250610b48565b6001836020036101000a0380198251168184511680821785525050505050509050019150506040518091039020600019161415610bbc57607382602681101515610bb357fe5b01549050610bbd565b5b92915050565b6000610bce82610bd5565b9050919050565b6000806000905060006001819055505b60126001541015610ccd576099600154601281101515610c0157fe5b0154831415610c5357610c4a6040805190810160405280600381526020017f72656400000000000000000000000000000000000000000000000000000000008152506000610201565b81019050610ccd565b60ab600154601281101515610c6457fe5b0154831415610cb657610cad6040805190810160405280600581526020017f626c61636b0000000000000000000000000000000000000000000000000000008152506000610201565b81019050610ccd565b600160008154809291906001019190505550610be5565b6000600284811515610cdb57fe5b061415610d2b57610d226040805190810160405280600481526020017f6576656e000000000000000000000000000000000000000000000000000000008152506001610201565b81019050610d70565b610d6b6040805190810160405280600381526020017f6f646400000000000000000000000000000000000000000000000000000000008152506001610201565b810190505b6012831115610dc257610db96040805190810160405280600481526020017f68696768000000000000000000000000000000000000000000000000000000008152506000610201565b81019050610e07565b610e026040805190810160405280600381526020017f6c6f7700000000000000000000000000000000000000000000000000000000008152506000610201565b810190505b60018310158015610e195750600c8311155b15610e6757610e5e6040805190810160405280600681526020017f646f7a656e7300000000000000000000000000000000000000000000000000008152506000610201565b81019050610f17565b600d8310158015610e79575060188311155b15610ec757610ebe6040805190810160405280600681526020017f646f7a656e7300000000000000000000000000000000000000000000000000008152506001610201565b81019050610f16565b6019831115610f1557610f106040805190810160405280600681526020017f646f7a656e7300000000000000000000000000000000000000000000000000008152506002610201565b810190505b5b5b6000600384811515610f2557fe5b061415610f7557610f6c6040805190810160405280600781526020017f636f6c756d6e73000000000000000000000000000000000000000000000000008152506000610201565b81019050611035565b6000600360018501811515610f8657fe5b061415610fd657610fcd6040805190810160405280600781526020017f636f6c756d6e73000000000000000000000000000000000000000000000000008152506001610201565b81019050611034565b6000600360028501811515610fe757fe5b0614156110335761102e6040805190810160405280600781526020017f636f6c756d6e73000000000000000000000000000000000000000000000000008152506002610201565b810190505b5b5b60018310158015611047575060068311155b15611af15761108c6040805190810160405280600681526020017f7369786e756d00000000000000000000000000000000000000000000000000008152506000610201565b81019050600483101580156110a2575060098311155b156110ec576110e76040805190810160405280600681526020017f7369786e756d00000000000000000000000000000000000000000000000000008152506001610201565b810190505b600783101580156110fe5750600c8311155b15611148576111436040805190810160405280600681526020017f7369786e756d00000000000000000000000000000000000000000000000000008152506002610201565b810190505b600a831015801561115a5750600f8311155b156111a45761119f6040805190810160405280600681526020017f7369786e756d00000000000000000000000000000000000000000000000000008152506003610201565b810190505b600d83101580156111b6575060128311155b15611200576111fb6040805190810160405280600681526020017f7369786e756d00000000000000000000000000000000000000000000000000008152506004610201565b810190505b60108310158015611212575060158311155b1561125c576112576040805190810160405280600681526020017f7369786e756d00000000000000000000000000000000000000000000000000008152506005610201565b810190505b6013831015801561126e575060188311155b156112b8576112b36040805190810160405280600681526020017f7369786e756d00000000000000000000000000000000000000000000000000008152506006610201565b810190505b601683101580156112ca5750601b8311155b156113145761130f6040805190810160405280600681526020017f7369786e756d00000000000000000000000000000000000000000000000000008152506007610201565b810190505b601983101580156113265750601e8311155b156113705761136b6040805190810160405280600681526020017f7369786e756d00000000000000000000000000000000000000000000000000008152506008610201565b810190505b601c8310158015611382575060218311155b156113cc576113c76040805190810160405280600681526020017f7369786e756d00000000000000000000000000000000000000000000000000008152506009610201565b810190505b601f83101580156113de575060248311155b15611428576114236040805190810160405280600681526020017f7369786e756d0000000000000000000000000000000000000000000000000000815250600a610201565b810190505b600180819055505b601f6001541115156114e05760015483148061144f5750600180540183145b8061145e575060036001540183145b8061146d575060046001540183145b156114ca576114c56040805190810160405280600781526020017f666f75726e756d00000000000000000000000000000000000000000000000000815250600160036002600154018115156114be57fe5b0403610201565b810190505b6003600160008282540192505081905550611430565b60026001819055505b6020600154111515611598576001548314806115085750600180540183145b80611517575060036001540183145b80611526575060046001540183145b156115825761157d6040805190810160405280600781526020017f666f75726e756d00000000000000000000000000000000000000000000000000815250600a6003600180540181151561157657fe5b0401610201565b810190505b60036001600082825401925050819055506114e9565b600180819055505b602260015410156116355760015483101580156115c257506002600154018311155b1561161f5761161a6040805190810160405280600981526020017f74687265656e756d7300000000000000000000000000000000000000000000008152506001600360026001540181151561161357fe5b0403610201565b810190505b60036001600082825401925050819055506115a0565b600180819055505b60226001541115156116cf5760015483148061165c5750600180540183145b156116b9576116b46040805190810160405280600781526020017f74776f6e756d7300000000000000000000000000000000000000000000000000815250600160036002600154018115156116ad57fe5b0403610201565b810190505b600360016000828254019250508190555061163d565b60026001819055505b6023600154111515611769576001548314806116f75750600180540183145b156117535761174e6040805190810160405280600781526020017f74776f6e756d7300000000000000000000000000000000000000000000000000815250600b6003600180540181151561174757fe5b0401610201565b810190505b60036001600082825401925050819055506116d8565b600180819055505b601f60015411151561180457600154831480611791575060036001540183145b156117ee576117e96040805190810160405280600781526020017f74776f6e756d7300000000000000000000000000000000000000000000000000815250601760036002600154018115156117e257fe5b0401610201565b810190505b6003600160008282540192505081905550611771565b60026001819055505b602060015411151561189f5760015483148061182d575060036001540183145b15611889576118846040805190810160405280600781526020017f74776f6e756d730000000000000000000000000000000000000000000000000081525060226003600180540181151561187d57fe5b0401610201565b810190505b600360016000828254019250508190555061180d565b60036001819055505b6021600154111515611938576001548314806118c8575060036001540183145b156119225761191d6040805190810160405280600781526020017f74776f6e756d7300000000000000000000000000000000000000000000000000815250602d600360015481151561191657fe5b0401610201565b810190505b60036001600082825401925050819055506118a8565b6119776040805190810160405280600681526020017f73696e676c65000000000000000000000000000000000000000000000000000081525084610201565b8101905060006001819055505b60386001541015611ae957600260015410156119e357600060026001546002811015156119ad57fe5b0181905550600060046001546002811015156119c557fe5b0181905550600060066001546002811015156119dd57fe5b01819055505b60036001541015611a1f5760006008600154600381101515611a0157fe5b01819055506000600b600154600381101515611a1957fe5b01819055505b600b6001541015611a43576000600e600154600b81101515611a3d57fe5b01819055505b60166001541015611a675760006019600154601681101515611a6157fe5b01819055505b600c6001541015611a8b576000602f600154600c81101515611a8557fe5b01819055505b60386001541015611aaf576000603b600154603881101515611aa957fe5b01819055505b600b60261015611ad25760006073600154602681101515611acc57fe5b01819055505b600160008154809291906001019190505550611984565b809150611af2565b5b50919050565b6000836000541015156124f75760405180807f72656400000000000000000000000000000000000000000000000000000000008152506003019050604051809103902060001916836040518082805190602001908083835b602083101515611b755780518252602082019150602081019050602083039250611b50565b6001836020036101000a0380198251168184511680821785525050505050509050019150506040518091039020600019161415611bcb578360026000600281101515611bbd57fe5b0181905550606390506124f8565b60405180807f626c61636b0000000000000000000000000000000000000000000000000000008152506005019050604051809103902060001916836040518082805190602001908083835b602083101515611c3b5780518252602082019150602081019050602083039250611c16565b6001836020036101000a0380198251168184511680821785525050505050509050019150506040518091039020600019161415611ca1578360026001600281101515611c8357fe5b018190555060026001600281101515611c9857fe5b015490506124f8565b60405180807f6576656e000000000000000000000000000000000000000000000000000000008152506004019050604051809103902060001916836040518082805190602001908083835b602083101515611d115780518252602082019150602081019050602083039250611cec565b6001836020036101000a0380198251168184511680821785525050505050509050019150506040518091039020600019161415611d63578360046000600281101515611d5957fe5b01819055506124f6565b60405180807f6f646400000000000000000000000000000000000000000000000000000000008152506003019050604051809103902060001916836040518082805190602001908083835b602083101515611dd35780518252602082019150602081019050602083039250611dae565b6001836020036101000a0380198251168184511680821785525050505050509050019150506040518091039020600019161415611e25578360046001600281101515611e1b57fe5b01819055506124f5565b60405180807f6c6f7700000000000000000000000000000000000000000000000000000000008152506003019050604051809103902060001916836040518082805190602001908083835b602083101515611e955780518252602082019150602081019050602083039250611e70565b6001836020036101000a0380198251168184511680821785525050505050509050019150506040518091039020600019161415611ee7578360066000600281101515611edd57fe5b01819055506124f4565b60405180807f68696768000000000000000000000000000000000000000000000000000000008152506004019050604051809103902060001916836040518082805190602001908083835b602083101515611f575780518252602082019150602081019050602083039250611f32565b6001836020036101000a0380198251168184511680821785525050505050509050019150506040518091039020600019161415611fa9578360066001600281101515611f9f57fe5b01819055506124f3565b60405180807f646f7a656e7300000000000000000000000000000000000000000000000000008152506006019050604051809103902060001916836040518082805190602001908083835b6020831015156120195780518252602082019150602081019050602083039250611ff4565b6001836020036101000a038019825116818451168082178552505050505050905001915050604051809103902060001916141561206a578360088360038110151561206057fe5b01819055506124f2565b60405180807f636f6c756d6e73000000000000000000000000000000000000000000000000008152506007019050604051809103902060001916836040518082805190602001908083835b6020831015156120da57805182526020820191506020810190506020830392506120b5565b6001836020036101000a038019825116818451168082178552505050505050905001915050604051809103902060001916141561212b5783600b8360038110151561212157fe5b01819055506124f1565b60405180807f7369786e756d00000000000000000000000000000000000000000000000000008152506006019050604051809103902060001916836040518082805190602001908083835b60208310151561219b5780518252602082019150602081019050602083039250612176565b6001836020036101000a03801982511681845116808217855250505050505090500191505060405180910390206000191614156121ec5783600e83600b811015156121e257fe5b01819055506124f0565b60405180807f666f75726e756d000000000000000000000000000000000000000000000000008152506007019050604051809103902060001916836040518082805190602001908083835b60208310151561225c5780518252602082019150602081019050602083039250612237565b6001836020036101000a03801982511681845116808217855250505050505090500191505060405180910390206000191614156122ad57836019836016811015156122a357fe5b01819055506124ef565b60405180807f74687265656e756d7300000000000000000000000000000000000000000000008152506009019050604051809103902060001916836040518082805190602001908083835b60208310151561231d57805182526020820191506020810190506020830392506122f8565b6001836020036101000a038019825116818451168082178552505050505050905001915050604051809103902060001916141561236e5783602f83600c8110151561236457fe5b01819055506124ee565b60405180807f74776f6e756d73000000000000000000000000000000000000000000000000008152506007019050604051809103902060001916836040518082805190602001908083835b6020831015156123de57805182526020820191506020810190506020830392506123b9565b6001836020036101000a038019825116818451168082178552505050505050905001915050604051809103902060001916141561242f5783603b8360388110151561242557fe5b01819055506124ed565b60405180807f73696e676c6500000000000000000000000000000000000000000000000000008152506006019050604051809103902060001916836040518082805190602001908083835b60208310151561249f578051825260208201915060208101905060208303925061247a565b6001836020036101000a03801982511681845116808217855250505050505090500191505060405180910390206000191614156124ec57836073836026811015156124e657fe5b01819055505b5b5b5b5b5b5b5b5b5b5b5b5b93925050505600a165627a7a7230582070c9ad6637689f9d3f672ba536fdd8f9f10368ef6a45ecb429251be37f02dd1c0029",
  "source": "pragma solidity ^0.4.18;\r\n\r\ncontract Blockchaincasino\r\n{\r\nuint chips = 10;\r\nuint i;\r\nuint[2] redblack = [0];\r\nuint[2] evenodd = [0];\r\nuint[2] lowhigh = [0];\r\nuint[3] dozens = [0];\r\nuint[3] columns = [0];\r\nuint[11] six = [0];\r\nuint[22] four = [0];\r\nuint[12] three = [0];\r\nuint[56] two = [0];\r\nuint[38] single = [0];\r\n//bets position\r\n//[Red,Black,even, odd, low ,high, dozens, columns, sixnum,\r\n//fournum,threenums, twonums, straight\r\nuint[18] red = [1, 3, 5, 7, 9, 12, 14, 16, 18, 19, 21, 23, 25, 27, 30, 32, 34, 36];\r\nuint[18] black = [2, 4, 6, 8, 10, 11, 13, 15, 17, 20, 22, 24, 26, 28, 29, 31, 33, 35];\r\n\r\n//string betName[11] = ['Red','B','evenodd', 'lowhigh', 'dozens',\r\n//'columns', 'sixnum', 'Fivenum', 'fournum','threenums', 'twonums', 'straight'];\r\nuint roll;\r\n  function setbet(uint _money, string bet, uint number) public returns (uint)\r\n  {\r\n\r\n      if(chips >= _money)\r\n      {\r\n        if((keccak256(bet) == keccak256(\"red\")))\r\n        {\r\n          redblack[0] = _money;\r\n          return 99;\r\n        }else if( (keccak256(bet) == keccak256(\"black\")))\r\n        {\r\n          redblack[1] = _money;\r\n          return redblack[1];\r\n        }else if((keccak256(bet) == keccak256(\"even\")))\r\n        {\r\n            evenodd[0] = _money;\r\n        }else if((keccak256(bet) == keccak256(\"odd\"))){\r\n          evenodd[1] = _money;\r\n        }else if((keccak256(bet) == keccak256(\"low\")))\r\n        {\r\n            lowhigh[0] = _money;\r\n        }else if((keccak256(bet) == keccak256(\"high\")))\r\n        {\r\n          lowhigh[1] = _money;\r\n        }else if((keccak256(bet) == keccak256(\"dozens\")))\r\n        {\r\n          dozens[number] = _money;\r\n        }else if((keccak256(bet) == keccak256(\"columns\")))\r\n        {\r\n            columns[number] = _money;\r\n        }else if((keccak256(bet) == keccak256(\"sixnum\")))\r\n        {\r\n            six[number] = _money;\r\n        }\r\n        else if((keccak256(bet) == keccak256(\"fournum\")))\r\n        {\r\n            four[number] = _money;\r\n        }else if((keccak256(bet) == keccak256(\"threenums\")))\r\n        {\r\n            three[number] = _money;\r\n        }else if((keccak256(bet) == keccak256(\"twonums\")))\r\n        {\r\n            two[number] = _money;\r\n        }else if((keccak256(bet) == keccak256(\"single\")))\r\n        {\r\n            single[number] = _money;\r\n        }\r\n      }\r\n\r\n  }\r\n  function getbet(string bet, uint number) public returns (uint)\r\n  {\r\n\r\n    if((keccak256(bet) == keccak256(\"red\")))\r\n    {\r\n      return redblack[0];\r\n    }else if( (keccak256(bet) == keccak256(\"black\")))\r\n    {\r\n      return redblack[1];\r\n      //return 3;\r\n    }else if((keccak256(bet) == keccak256(\"even\")))\r\n    {\r\n      return  evenodd[0];\r\n    }else if((keccak256(bet) == keccak256(\"odd\"))){\r\n    return  evenodd[1];\r\n    }else if((keccak256(bet) == keccak256(\"low\")))\r\n    {\r\n      return  lowhigh[0];\r\n    }else if((keccak256(bet) == keccak256(\"high\")))\r\n    {\r\n    return  lowhigh[1];\r\n    }else if((keccak256(bet) == keccak256(\"dozens\")))\r\n    {\r\n    return  dozens[number];\r\n    }else if((keccak256(bet) == keccak256(\"columns\")))\r\n    {\r\n    return    columns[number];\r\n    }else if((keccak256(bet) == keccak256(\"sixnum\")))\r\n    {\r\n    return    six[number];\r\n    }\r\n    else if((keccak256(bet) == keccak256(\"fournum\")))\r\n    {\r\n    return    four[number];\r\n    }else if((keccak256(bet) == keccak256(\"threenums\")))\r\n    {\r\n    return    three[number];\r\n    }else if((keccak256(bet) == keccak256(\"twonums\")))\r\n    {\r\n    return    two[number];\r\n    }else if((keccak256(bet) == keccak256(\"single\")))\r\n    {\r\n    return    single[number];\r\n    }\r\n    }\r\n    function test(uint a) public view returns (uint)\r\n    {\r\n    return play(a);\r\n    }\r\n\r\n\r\n\r\n    function play(uint draw) public returns (uint)\r\n    {\r\n\r\n\r\n      uint winnings = 0;\r\n\r\n      //red or black\r\n      for(i = 0; i < 18; i++)\r\n      {\r\n        if(draw == red[i] ){\r\n          winnings += getbet(\"red\",0);\r\n          break;\r\n        }else if(draw == black[i]){\r\n          winnings+= getbet(\"black\",0);\r\n          break;\r\n      }\r\n    }\r\n      //even odds\r\n      if(draw%2 == 0){\r\n        winnings += getbet(\"even\", 1);\r\n      }else{\r\n        winnings += getbet(\"odd\",1);\r\n      }\r\n\r\n      //high low\r\n      if(draw > 18){\r\n        winnings+= getbet(\"high\",0);\r\n      }\r\n      else{\r\n        winnings+= getbet(\"low\",0);\r\n      }\r\n\r\n      //dozens\r\n      if(draw >= 1 && draw <= 12){\r\n        winnings+= getbet(\"dozens\",0);\r\n      }else if(draw >= 13 && draw <= 24){\r\n        winnings+= getbet(\"dozens\",1);\r\n      }else if(draw > 25){\r\n        winnings+= getbet(\"dozens\",2);\r\n      }\r\n\r\n      //columns\r\n      // if you place a bet on the third column\r\n      if( (draw % 3) == 0)\r\n      {\r\n        winnings+= getbet(\"columns\",0);\r\n      }//second column\r\n      else if( ((draw + 1)%3) == 0){\r\n        winnings += getbet(\"columns\",1);\r\n      }//first column\r\n      else if( ((draw +2)%3) == 0){\r\n        winnings += getbet(\"columns\", 2);\r\n      }\r\n\r\n      // six number bets\r\n      if(draw >= 1 && draw <=6){\r\n        winnings+= getbet(\"sixnum\",0);\r\n      if(draw >=4 && draw <=9){\r\n        winnings+= getbet(\"sixnum\",1);\r\n      }if(draw >=7 && draw <=12){\r\n        winnings+= getbet(\"sixnum\",2);\r\n      }if(draw >=10 && draw <=15){\r\n        winnings+= getbet(\"sixnum\",3);\r\n      }if(draw >=13 && draw <=18){\r\n        winnings+= getbet(\"sixnum\",4);\r\n      }if(draw >=16 && draw <=21){\r\n        winnings+= getbet(\"sixnum\",5);\r\n      }if(draw >=19 && draw <=24){\r\n        winnings+= getbet(\"sixnum\",6);\r\n      }if(draw >=22 && draw <=27){\r\n        winnings+= getbet(\"sixnum\",7);\r\n      }if(draw >=25 && draw <=30){\r\n        winnings+= getbet(\"sixnum\",8);\r\n      }if(draw >=28 && draw <=33){\r\n        winnings+= getbet(\"sixnum\",9);\r\n      }if(draw >=31 && draw <=36){\r\n        winnings+= getbet(\"sixnum\",10);\r\n      }\r\n\r\n      //fournum\r\n      for(i = 1; i<=31; i+=3){\r\n        if( (draw == i) || (draw == (i+1)) || (draw == (i+3)) || (draw == (i+4)) )\r\n        {\r\n        winnings += getbet(\"fournum\", ((i+2)/3)-1);\r\n        }\r\n      }\r\n      for(i = 2; i<=32; i+=3){\r\n        if( (draw == i) || (draw == (i+1)) || (draw == (i+3)) || (draw == (i+4)))\r\n        {\r\n        winnings += getbet(\"fournum\", ((i+1)/3)+10);\r\n        }\r\n      }\r\n\r\n      // three numbers\r\n      for(i = 1; i<34;i+=3){\r\n        if(draw >= i && draw <= i+2){\r\n          winnings += getbet(\"threenums\", ((i+2)/3)-1);\r\n        }\r\n      }\r\n\r\n\r\n      //two numbers for vertical betting on the first vertical lines ie 1,2;4,5;\r\n      for(i = 1; i<=34; i+=3){\r\n        if( (draw == i) || (draw == (i+1)) )\r\n        {\r\n            winnings += getbet(\"twonums\", ( ((i+2)/3) -1) );\r\n        }\r\n      }\r\n      //two numbers for vertical betting on the second vertical line\r\n      for(i = 2; i<=35; i+=3){\r\n        if( (draw == i) || (draw == (i+1)) )\r\n        {\r\n            winnings += getbet(\"twonums\", (((i+1)/3) + 11) );\r\n        }\r\n      }\r\n      //two numbers for horizontal betting on the first column horizontal lines\r\n      // bets like 1,4; 7,10;\r\n\r\n      for(i = 1; i<=31; i+=3){\r\n        if ( (draw == i) || (draw ==(i+3)) )\r\n        {\r\n            winnings += getbet(\"twonums\", (((i+2)/3) + 23) );\r\n        }\r\n      }\r\n      for(i = 2; i<=32; i+=3){\r\n        if( (draw == i) || (draw == (i+3)) )\r\n        {\r\n            winnings += getbet(\"twonums\", (((i+1)/3) + 34) );\r\n        }\r\n      }\r\n      for(i = 3; i<=33; i+=3){\r\n        if( (draw == i) || (draw == (i+3)) )\r\n        {\r\n            winnings += getbet(\"twonums\", ( (i/3) + 45) );\r\n        }\r\n      }\r\n\r\n\r\n      // two bets\r\n\r\n\r\n      //single\r\n      winnings += getbet(\"single\", draw);\r\n\r\n      for(i = 0; i <56; i++)\r\n      {\r\n        if(i<2){\r\n          redblack[i] = 0;\r\n          evenodd[i] = 0;\r\n          lowhigh[i] = 0;\r\n        }if(i<3){\r\n          dozens[i] = 0;\r\n          columns[i] = 0;\r\n        }if(i< 11){\r\n          six[i] = 0;\r\n        }if(i< 22){\r\n          four[i] = 0;\r\n        }if(i< 12){\r\n          three[i] = 0;\r\n        }if(i< 56){\r\n          two[i] = 0;\r\n        }if(38< 11){\r\n          single[i] = 0;\r\n        }\r\n      }\r\n      return winnings;\r\n    }\r\n\r\n\r\n}\r\n}\r\n",
  "sourcePath": "C:\\Users\\jerem\\chainjeremy\\casino\\blockchaincasino\\contracts\\Blockchaincasino.sol",
  "compiler": {
    "name": "solc",
    "version": "0.4.23+commit.124ca40d.Emscripten.clang"
  },
  "schemaVersion": "2.0.0",
  "updatedAt": "2021-04-08T18:31:07.378Z"
}