{
  "contractName": "Blockchaincasino",
  "abi": [
    {
      "constant": true,
      "inputs": [],
      "name": "getPassBet",
      "outputs": [
        {
          "name": "",
          "type": "int256"
        }
      ],
      "payable": false,
      "stateMutability": "view",
      "type": "function"
    },
    {
      "constant": true,
      "inputs": [],
      "name": "startcraps",
      "outputs": [
        {
          "name": "",
          "type": "int256"
        }
      ],
      "payable": false,
      "stateMutability": "view",
      "type": "function"
    },
    {
      "constant": true,
      "inputs": [],
      "name": "rollDice",
      "outputs": [
        {
          "name": "",
          "type": "int256"
        }
      ],
      "payable": false,
      "stateMutability": "view",
      "type": "function"
    },
    {
      "constant": true,
      "inputs": [],
      "name": "play",
      "outputs": [
        {
          "name": "",
          "type": "int256"
        }
      ],
      "payable": false,
      "stateMutability": "view",
      "type": "function"
    },
    {
      "constant": false,
      "inputs": [
        {
          "name": "_bet",
          "type": "int256"
        }
      ],
      "name": "setPassBet",
      "outputs": [],
      "payable": false,
      "stateMutability": "nonpayable",
      "type": "function"
    },
    {
      "constant": true,
      "inputs": [],
      "name": "test",
      "outputs": [
        {
          "name": "",
          "type": "bool"
        }
      ],
      "payable": false,
      "stateMutability": "view",
      "type": "function"
    },
    {
      "inputs": [],
      "payable": false,
      "stateMutability": "nonpayable",
      "type": "constructor"
    }
  ],
  "bytecode": "0x60606040526000600455341561001457600080fd5b6040805190810160405280600581526020017f6c6f6f73650000000000000000000000000000000000000000000000000000008152506006908051906020019061005f9291906100cc565b506040805190810160405280600381526020017f77696e0000000000000000000000000000000000000000000000000000000000815250600790805190602001906100ab9291906100cc565b506001600560006101000a81548160ff021916908315150217905550610171565b828054600181600116156101000203166002900490600052602060002090601f016020900481019282601f1061010d57805160ff191683800117855561013b565b8280016001018555821561013b579182015b8281111561013a57825182559160200191906001019061011f565b5b509050610148919061014c565b5090565b61016e91905b8082111561016a576000816000905550600101610152565b5090565b90565b610494806101806000396000f300606060405260043610610078576000357c0100000000000000000000000000000000000000000000000000000000900463ffffffff16806328a695b11461007d5780636633eb37146100a6578063837e7cc6146100cf57806393e84cd9146100f8578063c7b6774914610121578063f8a8fd6d14610144575b600080fd5b341561008857600080fd5b610090610171565b6040518082815260200191505060405180910390f35b34156100b157600080fd5b6100b961017b565b6040518082815260200191505060405180910390f35b34156100da57600080fd5b6100e2610344565b6040518082815260200191505060405180910390f35b341561010357600080fd5b61010b61039d565b6040518082815260200191505060405180910390f35b341561012c57600080fd5b61014260048080359060200190919050506103ec565b005b341561014f57600080fd5b61015761040a565b604051808215151515815260200191505060405180910390f35b6000600154905090565b600080600080610189610344565b9250610193610344565b91508183019050600560009054906101000a900460ff16156102b35760078114806101be5750600b81145b156101ef576001600560006101000a81548160ff02191690831515021790555060006004819055506001935061033e565b600560009054906101000a900460ff1615801561020c5750600781145b1561023d576001600560006101000a81548160ff02191690831515021790555060006004819055506000935061033e565b600281148061024c5750600381145b806102575750600c81145b15610288576000600560006101000a81548160ff02191690831515021790555060006004819055506000935061033e565b6000600560006101000a81548160ff021916908315150217905550806004819055506007935061033e565b60078114156102e8576001600560006101000a81548160ff02191690831515021790555060006004819055506000935061033e565b60045481141561031e576001600560006101000a81548160ff02191690831515021790555060006004819055506001935061033e565b6000600560006101000a81548160ff021916908315150217905550600893505b50505090565b600080444260405180838152602001828152602001925050506040518091039020600190049050600060078281151561037957fe5b0714156103895760019150610399565b60078181151561039557fe5b0791505b5090565b6000806103a861017b565b905060018114156103d55760026103bd610171565b026000808282540192505081905550600691506103e8565b60028114156103e757600191506103e8565b5b5090565b806000541215156103ff57806001819055505b600060018190555050565b6000600560009054906101000a900460ff1615610445576000600560006101000a81548160ff02191690831515021790555060019050610465565b6001600560006101000a81548160ff021916908315150217905550600090505b905600a165627a7a723058207bb1ebb592e5929d7955ee148115cfa421264a4eda493072463979334c85236a0029",
  "source": "pragma solidity ^0.4.18;\r\n\r\ncontract Blockchaincasino {\r\n  int chips;\r\n  int Passbet;\r\n  int dice;\r\n  string PIE;\r\n  int pointnum = 0;\r\n  bool firstthrow;\r\n  string loose;\r\n  string win;\r\n  function Blockchaincasino() public {\r\n    loose = \"loose\";\r\n    win = \"win\";\r\n    firstthrow = true;\r\n  }\r\n  function setPassBet(int _bet) public\r\n  {\r\n    if(chips >= _bet){\r\n      Passbet = _bet;\r\n    }\r\n    Passbet = 0;\r\n  }\r\n  function getPassBet() public view returns(int){\r\n    return Passbet;\r\n  }\r\n  //starts a game of craps\r\n  function startcraps() public view returns (int)\r\n{\r\n    int d1 = rollDice();\r\n    int d2 = rollDice();\r\n    int DiceTot = d1 + d2;\r\n\r\n  if(firstthrow)\r\n  {\r\n    if ( DiceTot == 7 || DiceTot == 11)\r\n    {\r\n      firstthrow = true;\r\n      pointnum = 0;\r\n      return 1;\r\n    }else if(!firstthrow && DiceTot == 7)\r\n    {\r\n      firstthrow = true;\r\n      pointnum = 0;\r\n      return 0;\r\n    }\r\n    else if(DiceTot == 2 || DiceTot == 3 || DiceTot == 12)\r\n    {\r\n      firstthrow = false;\r\n      pointnum = 0;\r\n      return 0;\r\n    }\r\n    else\r\n    {\r\n      firstthrow = false;\r\n      pointnum = DiceTot;\r\n      return 7;\r\n    }\r\n  }\r\n  else\r\n  {\r\n      if(DiceTot == 7)\r\n      {\r\n        firstthrow = true;\r\n        pointnum = 0;\r\n        return 0;\r\n      }\r\n      else if(DiceTot == pointnum)\r\n      {\r\n        firstthrow = true;\r\n        pointnum = 0;\r\n        return 1;\r\n\r\n      }else\r\n      {\r\n        firstthrow = false;\r\n        return 8;\r\n      }\r\n  }\r\n\r\n}\r\n  function test() public view returns(bool){\r\n    if(firstthrow){\r\n      firstthrow = false;\r\n      return true;\r\n    }\r\n    else{\r\n      firstthrow = true;\r\n      return false;\r\n    }\r\n  }\r\n  function play() public view returns (int)\r\n  {\r\n    // 0 = loose; 1= win; 2 = re-roll\r\n    int point = startcraps();\r\n    if(point == 1){\r\n      chips += getPassBet() * 2;\r\n      return 6;\r\n    }else if(point == 2){\r\n      return 1;\r\n      //startcraps();\r\n    }\r\n  }\r\n\r\n  function rollDice() public view returns (int)\r\n  {\r\n    int randomHash = int(keccak256(block.difficulty, now));\r\n    if(randomHash % 7 == 0){\r\n      return 1;\r\n    }else{\r\n\r\n      return (randomHash % 7);\r\n    }\r\n  }\r\n}\r\n",
  "sourcePath": "C:\\Users\\jerem\\chainjeremy\\blockchaincasino\\casino\\contracts\\Blockchaincasino.sol",
  "compiler": {
    "name": "solc",
    "version": "0.4.18+commit.9cf6e910.Emscripten.clang"
  },
  "schemaVersion": "1.0.1",
  "updatedAt": "2021-03-24T22:37:45.795Z"
}