{
  "contractName": "Blockchaincasino",
  "abi": [
    {
      "constant": true,
      "inputs": [],
      "name": "chips",
      "outputs": [
        {
          "name": "",
          "type": "uint256"
        }
      ],
      "payable": false,
      "stateMutability": "view",
      "type": "function"
    },
    {
      "constant": true,
      "inputs": [],
      "name": "betsplaced",
      "outputs": [
        {
          "name": "",
          "type": "uint256"
        }
      ],
      "payable": false,
      "stateMutability": "view",
      "type": "function"
    },
    {
      "constant": true,
      "inputs": [],
      "name": "winnings",
      "outputs": [
        {
          "name": "",
          "type": "uint256"
        }
      ],
      "payable": false,
      "stateMutability": "view",
      "type": "function"
    },
    {
      "payable": true,
      "stateMutability": "payable",
      "type": "fallback"
    },
    {
      "anonymous": false,
      "inputs": [
        {
          "indexed": false,
          "name": "value",
          "type": "uint256"
        }
      ],
      "name": "ReRender",
      "type": "event"
    },
    {
      "constant": false,
      "inputs": [],
      "name": "getChips",
      "outputs": [
        {
          "name": "",
          "type": "uint256"
        }
      ],
      "payable": false,
      "stateMutability": "nonpayable",
      "type": "function"
    },
    {
      "constant": false,
      "inputs": [
        {
          "name": "amount",
          "type": "uint256"
        }
      ],
      "name": "MoreChips",
      "outputs": [],
      "payable": true,
      "stateMutability": "payable",
      "type": "function"
    },
    {
      "constant": false,
      "inputs": [],
      "name": "ClearWinnings",
      "outputs": [],
      "payable": false,
      "stateMutability": "nonpayable",
      "type": "function"
    },
    {
      "constant": false,
      "inputs": [
        {
          "name": "wins",
          "type": "uint256"
        }
      ],
      "name": "Payout",
      "outputs": [],
      "payable": false,
      "stateMutability": "nonpayable",
      "type": "function"
    },
    {
      "constant": false,
      "inputs": [
        {
          "name": "_money",
          "type": "uint256"
        },
        {
          "name": "bet",
          "type": "string"
        },
        {
          "name": "number",
          "type": "uint256"
        }
      ],
      "name": "setbet",
      "outputs": [
        {
          "name": "",
          "type": "uint256"
        }
      ],
      "payable": false,
      "stateMutability": "nonpayable",
      "type": "function"
    },
    {
      "constant": false,
      "inputs": [
        {
          "name": "bet",
          "type": "string"
        },
        {
          "name": "number",
          "type": "uint256"
        }
      ],
      "name": "getbet",
      "outputs": [
        {
          "name": "",
          "type": "uint256"
        }
      ],
      "payable": false,
      "stateMutability": "nonpayable",
      "type": "function"
    },
    {
      "constant": true,
      "inputs": [
        {
          "name": "a",
          "type": "uint256"
        }
      ],
      "name": "test",
      "outputs": [
        {
          "name": "",
          "type": "uint256"
        }
      ],
      "payable": false,
      "stateMutability": "view",
      "type": "function"
    },
    {
      "constant": false,
      "inputs": [
        {
          "name": "draw",
          "type": "uint256"
        }
      ],
      "name": "play",
      "outputs": [
        {
          "name": "",
          "type": "uint256"
        }
      ],
      "payable": false,
      "stateMutability": "nonpayable",
      "type": "function"
    }
  ],
  "bytecode": "0x60806040526000600455602060405190810160405280600060ff1681525060069060016200002f92919062000347565b50602060405190810160405280600060ff1681525060089060016200005692919062000347565b50602060405190810160405280600060ff16815250600a9060016200007d92919062000347565b50602060405190810160405280600060ff16815250600c906001620000a492919062000391565b50602060405190810160405280600060ff16815250600f906001620000cb92919062000391565b50602060405190810160405280600060ff168152506012906001620000f2929190620003db565b50602060405190810160405280600060ff16815250601d9060016200011992919062000425565b50602060405190810160405280600060ff168152506033906001620001409291906200046f565b50602060405190810160405280600060ff16815250603f90600162000167929190620004b9565b50602060405190810160405280600060ff1681525060779060016200018e92919062000503565b5061024060405190810160405280600160ff168152602001600360ff168152602001600560ff168152602001600760ff168152602001600960ff168152602001600c60ff168152602001600e60ff168152602001601060ff168152602001601260ff168152602001601360ff168152602001601560ff168152602001601760ff168152602001601960ff168152602001601b60ff168152602001601e60ff168152602001602060ff168152602001602260ff168152602001602460ff16815250609d906012620002609291906200054d565b5061024060405190810160405280600260ff168152602001600460ff168152602001600660ff168152602001600860ff168152602001600a60ff168152602001600b60ff168152602001600d60ff168152602001600f60ff168152602001601160ff168152602001601460ff168152602001601660ff168152602001601860ff168152602001601a60ff168152602001601c60ff168152602001601d60ff168152602001601f60ff168152602001602160ff168152602001602360ff1681525060af906012620003329291906200054d565b503480156200034057600080fd5b50620005bf565b82600281019282156200037e579160200282015b828111156200037d578251829060ff169055916020019190600101906200035b565b5b5090506200038d919062000597565b5090565b8260038101928215620003c8579160200282015b82811115620003c7578251829060ff16905591602001919060010190620003a5565b5b509050620003d7919062000597565b5090565b82600b810192821562000412579160200282015b8281111562000411578251829060ff16905591602001919060010190620003ef565b5b50905062000421919062000597565b5090565b82601681019282156200045c579160200282015b828111156200045b578251829060ff1690559160200191906001019062000439565b5b5090506200046b919062000597565b5090565b82600c8101928215620004a6579160200282015b82811115620004a5578251829060ff1690559160200191906001019062000483565b5b509050620004b5919062000597565b5090565b8260388101928215620004f0579160200282015b82811115620004ef578251829060ff16905591602001919060010190620004cd565b5b509050620004ff919062000597565b5090565b82602681019282156200053a579160200282015b8281111562000539578251829060ff1690559160200191906001019062000517565b5b50905062000549919062000597565b5090565b826012810192821562000584579160200282015b8281111562000583578251829060ff1690559160200191906001019062000561565b5b50905062000593919062000597565b5090565b620005bc91905b80821115620005b85760008160009055506001016200059e565b5090565b90565b612d0080620005cf6000396000f3006080604052600436106100af576000357c0100000000000000000000000000000000000000000000000000000000900463ffffffff16806322427047146100b157806322ae8b6d146100de57806329e99f071461016557806334452f91146101a65780634396a976146101c65780634c6c46df146101f157806353661d38146102085780636898f82b14610233578063c1058b0d14610274578063d134474c14610305578063e393cd2f14610330575b005b3480156100bd57600080fd5b506100dc6004803603810190808035906020019092919050505061035b565b005b3480156100ea57600080fd5b5061014f600480360381019080803590602001908201803590602001908080601f0160208091040260200160405190810160405280939291908181526020018383808284378201915050505050509192919290803590602001909291905050506103f6565b6040518082815260200191505060405180910390f35b34801561017157600080fd5b5061019060048036038101908080359060200190929190505050610e95565b6040518082815260200191505060405180910390f35b6101c460048036038101908080359060200190929190505050610ea7565b005b3480156101d257600080fd5b506101db610f01565b6040518082815260200191505060405180910390f35b3480156101fd57600080fd5b50610206610f07565b005b34801561021457600080fd5b5061021d610f41565b6040518082815260200191505060405180910390f35b34801561023f57600080fd5b5061025e60048036038101908080359060200190929190505050610f47565b6040518082815260200191505060405180910390f35b34801561028057600080fd5b506102ef60048036038101908080359060200190929190803590602001908201803590602001908080601f016020809104026020016040519081016040528093929190818152602001838380828437820191505050505050919291929080359060200190929190505050612065565b6040518082815260200191505060405180910390f35b34801561031157600080fd5b5061031a612c8c565b6040518082815260200191505060405180910390f35b34801561033c57600080fd5b50610345612c92565b6040518082815260200191505060405180910390f35b806003541015151561036c57600080fd5b3373ffffffffffffffffffffffffffffffffffffffff166108fc829081150290604051600060405180830381858888f193505050501580156103b2573d6000803e3d6000fd5b5060006001819055507fafc95d1f039c281835f22bd8b6130230b62953de60e8c4126096832f79b4d03960016040518082815260200191505060405180910390a150565b60007fafc95d1f039c281835f22bd8b6130230b62953de60e8c4126096832f79b4d03960016040518082815260200191505060405180910390a160405180807f72656400000000000000000000000000000000000000000000000000000000008152506003019050604051809103902060001916836040518082805190602001908083835b6020831015156104a0578051825260208201915060208101905060208303925061047b565b6001836020036101000a03801982511681845116808217855250505050505090500191505060405180910390206000191614156104f3576002600660006002811015156104e957fe5b0154029050610e8f565b60405180807f626c61636b0000000000000000000000000000000000000000000000000000008152506005019050604051809103902060001916836040518082805190602001908083835b602083101515610563578051825260208201915060208101905060208303925061053e565b6001836020036101000a03801982511681845116808217855250505050505090500191505060405180910390206000191614156105b6576002600660016002811015156105ac57fe5b0154029050610e8f565b60405180807f6576656e000000000000000000000000000000000000000000000000000000008152506004019050604051809103902060001916836040518082805190602001908083835b6020831015156106265780518252602082019150602081019050602083039250610601565b6001836020036101000a03801982511681845116808217855250505050505090500191505060405180910390206000191614156106795760026008600060028110151561066f57fe5b0154029050610e8f565b60405180807f6f646400000000000000000000000000000000000000000000000000000000008152506003019050604051809103902060001916836040518082805190602001908083835b6020831015156106e957805182526020820191506020810190506020830392506106c4565b6001836020036101000a038019825116818451168082178552505050505050905001915050604051809103902060001916141561073c5760026008600160028110151561073257fe5b0154029050610e8f565b60405180807f6c6f7700000000000000000000000000000000000000000000000000000000008152506003019050604051809103902060001916836040518082805190602001908083835b6020831015156107ac5780518252602082019150602081019050602083039250610787565b6001836020036101000a03801982511681845116808217855250505050505090500191505060405180910390206000191614156107ff576002600a60006002811015156107f557fe5b0154029050610e8f565b60405180807f68696768000000000000000000000000000000000000000000000000000000008152506004019050604051809103902060001916836040518082805190602001908083835b60208310151561086f578051825260208201915060208101905060208303925061084a565b6001836020036101000a03801982511681845116808217855250505050505090500191505060405180910390206000191614156108c2576002600a60016002811015156108b857fe5b0154029050610e8f565b60405180807f646f7a656e7300000000000000000000000000000000000000000000000000008152506006019050604051809103902060001916836040518082805190602001908083835b602083101515610932578051825260208201915060208101905060208303925061090d565b6001836020036101000a038019825116818451168082178552505050505050905001915050604051809103902060001916141561099657600c8260038110151561097857fe5b01546002600c8460038110151561098b57fe5b015402019050610e8f565b60405180807f636f6c756d6e73000000000000000000000000000000000000000000000000008152506007019050604051809103902060001916836040518082805190602001908083835b602083101515610a0657805182526020820191506020810190506020830392506109e1565b6001836020036101000a0380198251168184511680821785525050505050509050019150506040518091039020600019161415610a6a57600f82600381101515610a4c57fe5b01546002600f84600381101515610a5f57fe5b015402019050610e8f565b60405180807f7369786e756d00000000000000000000000000000000000000000000000000008152506006019050604051809103902060001916836040518082805190602001908083835b602083101515610ada5780518252602082019150602081019050602083039250610ab5565b6001836020036101000a0380198251168184511680821785525050505050509050019150506040518091039020600019161415610b3e57601282600b81101515610b2057fe5b01546005601284600b81101515610b3357fe5b015402019050610e8f565b60405180807f666f75726e756d000000000000000000000000000000000000000000000000008152506007019050604051809103902060001916836040518082805190602001908083835b602083101515610bae5780518252602082019150602081019050602083039250610b89565b6001836020036101000a0380198251168184511680821785525050505050509050019150506040518091039020600019161415610c1257601d82601681101515610bf457fe5b01546008601d84601681101515610c0757fe5b015402019050610e8f565b60405180807f74687265656e756d7300000000000000000000000000000000000000000000008152506009019050604051809103902060001916836040518082805190602001908083835b602083101515610c825780518252602082019150602081019050602083039250610c5d565b6001836020036101000a0380198251168184511680821785525050505050509050019150506040518091039020600019161415610ce657603382600c81101515610cc857fe5b0154600b603384600c81101515610cdb57fe5b015402019050610e8f565b60405180807f74776f6e756d73000000000000000000000000000000000000000000000000008152506007019050604051809103902060001916836040518082805190602001908083835b602083101515610d565780518252602082019150602081019050602083039250610d31565b6001836020036101000a0380198251168184511680821785525050505050509050019150506040518091039020600019161415610dba57603f82603881101515610d9c57fe5b01546011603f84603881101515610daf57fe5b015402019050610e8f565b60405180807f73696e676c6500000000000000000000000000000000000000000000000000008152506006019050604051809103902060001916836040518082805190602001908083835b602083101515610e2a5780518252602082019150602081019050602083039250610e05565b6001836020036101000a0380198251168184511680821785525050505050509050019150506040518091039020600019161415610e8e57607782602681101515610e7057fe5b01546023607784602681101515610e8357fe5b015402019050610e8f565b5b92915050565b6000610ea082610f47565b9050919050565b346003600082825401925050819055507fafc95d1f039c281835f22bd8b6130230b62953de60e8c4126096832f79b4d03960016040518082815260200191505060405180910390a180600080828254019250508190555050565b60005481565b7fafc95d1f039c281835f22bd8b6130230b62953de60e8c4126096832f79b4d03960016040518082815260200191505060405180910390a1565b60025481565b60008060028190555060006005819055505b6012600554101561105757609d600554601281101515610f7557fe5b0154821415610fd257610fbe6040805190810160405280600381526020017f726564000000000000000000000000000000000000000000000000000000000081525060006103f6565b600160008282540192505081905550611057565b60af600554601281101515610fe357fe5b01548214156110405761102c6040805190810160405280600581526020017f626c61636b00000000000000000000000000000000000000000000000000000081525060006103f6565b600160008282540192505081905550611057565b600560008154809291906001019190505550610f59565b600060028381151561106557fe5b0614156110c0576110ac6040805190810160405280600481526020017f6576656e0000000000000000000000000000000000000000000000000000000081525060016103f6565b600160008282540192505081905550611110565b6111006040805190810160405280600381526020017f6f6464000000000000000000000000000000000000000000000000000000000081525060016103f6565b6001600082825401925050819055505b601282111561116d576111596040805190810160405280600481526020017f686967680000000000000000000000000000000000000000000000000000000081525060006103f6565b6001600082825401925050819055506111bd565b6111ad6040805190810160405280600381526020017f6c6f77000000000000000000000000000000000000000000000000000000000081525060006103f6565b6001600082825401925050819055505b600182101580156111cf5750600c8211155b15611228576112146040805190810160405280600681526020017f646f7a656e73000000000000000000000000000000000000000000000000000081525060006103f6565b6001600082825401925050819055506112ee565b600d821015801561123a575060188211155b156112935761127f6040805190810160405280600681526020017f646f7a656e73000000000000000000000000000000000000000000000000000081525060016103f6565b6001600082825401925050819055506112ed565b60198211156112ec576112dc6040805190810160405280600681526020017f646f7a656e73000000000000000000000000000000000000000000000000000081525060026103f6565b6001600082825401925050819055505b5b5b60006003838115156112fc57fe5b061415611357576113436040805190810160405280600781526020017f636f6c756d6e730000000000000000000000000000000000000000000000000081525060006103f6565b60016000828254019250508190555061142d565b600060036001840181151561136857fe5b0614156113c3576113af6040805190810160405280600781526020017f636f6c756d6e730000000000000000000000000000000000000000000000000081525060016103f6565b60016000828254019250508190555061142c565b60006003600284018115156113d457fe5b06141561142b5761141b6040805190810160405280600781526020017f636f6c756d6e730000000000000000000000000000000000000000000000000081525060026103f6565b6001600082825401925050819055505b5b5b6001821015801561143f575060068211155b15612028576114846040805190810160405280600681526020017f7369786e756d000000000000000000000000000000000000000000000000000081525060006103f6565b600160008282540192505081905550600482101580156114a5575060098211155b156114fa576114ea6040805190810160405280600681526020017f7369786e756d000000000000000000000000000000000000000000000000000081525060016103f6565b6001600082825401925050819055505b6007821015801561150c5750600c8211155b15611561576115516040805190810160405280600681526020017f7369786e756d000000000000000000000000000000000000000000000000000081525060026103f6565b6001600082825401925050819055505b600a82101580156115735750600f8211155b156115c8576115b86040805190810160405280600681526020017f7369786e756d000000000000000000000000000000000000000000000000000081525060036103f6565b6001600082825401925050819055505b600d82101580156115da575060128211155b1561162f5761161f6040805190810160405280600681526020017f7369786e756d000000000000000000000000000000000000000000000000000081525060046103f6565b6001600082825401925050819055505b60108210158015611641575060158211155b15611696576116866040805190810160405280600681526020017f7369786e756d000000000000000000000000000000000000000000000000000081525060056103f6565b6001600082825401925050819055505b601382101580156116a8575060188211155b156116fd576116ed6040805190810160405280600681526020017f7369786e756d000000000000000000000000000000000000000000000000000081525060066103f6565b6001600082825401925050819055505b6016821015801561170f5750601b8211155b15611764576117546040805190810160405280600681526020017f7369786e756d000000000000000000000000000000000000000000000000000081525060076103f6565b6001600082825401925050819055505b601982101580156117765750601e8211155b156117cb576117bb6040805190810160405280600681526020017f7369786e756d000000000000000000000000000000000000000000000000000081525060086103f6565b6001600082825401925050819055505b601c82101580156117dd575060218211155b15611832576118226040805190810160405280600681526020017f7369786e756d000000000000000000000000000000000000000000000000000081525060096103f6565b6001600082825401925050819055505b601f8210158015611844575060248211155b15611899576118896040805190810160405280600681526020017f7369786e756d0000000000000000000000000000000000000000000000000000815250600a6103f6565b6001600082825401925050819055505b60016005819055505b601f60055411151561195e576005548214806118c2575060016005540182145b806118d1575060036005540182145b806118e0575060046005540182145b15611948576119386040805190810160405280600781526020017f666f75726e756d000000000000000000000000000000000000000000000000008152506001600360026005540181151561193157fe5b04036103f6565b6001600082825401925050819055505b60036005600082825401925050819055506118a2565b60026005819055505b6020600554111515611a2357600554821480611987575060016005540182145b80611996575060036005540182145b806119a5575060046005540182145b15611a0d576119fd6040805190810160405280600781526020017f666f75726e756d00000000000000000000000000000000000000000000000000815250600a60036001600554018115156119f657fe5b04016103f6565b6001600082825401925050819055505b6003600560008282540192505081905550611967565b60016005819055505b60226005541015611acc576005548210158015611a4e57506002600554018211155b15611ab657611aa66040805190810160405280600981526020017f74687265656e756d73000000000000000000000000000000000000000000000081525060016003600260055401811515611a9f57fe5b04036103f6565b6001600082825401925050819055505b6003600560008282540192505081905550611a2c565b60016005819055505b6022600554111515611b7357600554821480611af5575060016005540182145b15611b5d57611b4d6040805190810160405280600781526020017f74776f6e756d730000000000000000000000000000000000000000000000000081525060016003600260055401811515611b4657fe5b04036103f6565b6001600082825401925050819055505b6003600560008282540192505081905550611ad5565b60026005819055505b6023600554111515611c1a57600554821480611b9c575060016005540182145b15611c0457611bf46040805190810160405280600781526020017f74776f6e756d7300000000000000000000000000000000000000000000000000815250600b6003600160055401811515611bed57fe5b04016103f6565b6001600082825401925050819055505b6003600560008282540192505081905550611b7c565b60016005819055505b601f600554111515611cc157600554821480611c43575060036005540182145b15611cab57611c9b6040805190810160405280600781526020017f74776f6e756d730000000000000000000000000000000000000000000000000081525060176003600260055401811515611c9457fe5b04016103f6565b6001600082825401925050819055505b6003600560008282540192505081905550611c23565b60026005819055505b6020600554111515611d6857600554821480611cea575060036005540182145b15611d5257611d426040805190810160405280600781526020017f74776f6e756d730000000000000000000000000000000000000000000000000081525060226003600160055401811515611d3b57fe5b04016103f6565b6001600082825401925050819055505b6003600560008282540192505081905550611cca565b60036005819055505b6021600554111515611e0c57600554821480611d91575060036005540182145b15611df657611de66040805190810160405280600781526020017f74776f6e756d7300000000000000000000000000000000000000000000000000815250602d6003600554811515611ddf57fe5b04016103f6565b6001600082825401925050819055505b6003600560008282540192505081905550611d71565b6025821415611e6957611e556040805190810160405280600681526020017f73696e676c65000000000000000000000000000000000000000000000000000081525060256103f6565b600160008282540192505081905550611eb8565b611ea86040805190810160405280600681526020017f73696e676c650000000000000000000000000000000000000000000000000000815250836103f6565b6001600082825401925050819055505b60006005819055505b603860055410156120275760026005541015611f205760006006600554600281101515611eea57fe5b018190555060006008600554600281101515611f0257fe5b01819055506000600a600554600281101515611f1a57fe5b01819055505b60036005541015611f5c576000600c600554600381101515611f3e57fe5b01819055506000600f600554600381101515611f5657fe5b01819055505b600b6005541015611f805760006012600554600b81101515611f7a57fe5b01819055505b60166005541015611fa4576000601d600554601681101515611f9e57fe5b01819055505b600c6005541015611fc85760006033600554600c81101515611fc257fe5b01819055505b60386005541015611fec576000603f600554603881101515611fe657fe5b01819055505b60266005541015612010576000607760055460268110151561200a57fe5b01819055505b600560008154809291906001019190505550611ec1565b5b7fafc95d1f039c281835f22bd8b6130230b62953de60e8c4126096832f79b4d03960016040518082815260200191505060405180910390a1919050565b60007fafc95d1f039c281835f22bd8b6130230b62953de60e8c4126096832f79b4d03960016040518082815260200191505060405180910390a183600054101515612c855760405180807f72656400000000000000000000000000000000000000000000000000000000008152506003019050604051809103902060001916836040518082805190602001908083835b60208310151561211a57805182526020820191506020810190506020830392506120f5565b6001836020036101000a038019825116818451168082178552505050505050905001915050604051809103902060001916141561219457836006600060028110151561216257fe5b016000828254019250508190555083600080828254039250508190555083600260008282540192505081905550612c84565b60405180807f626c61636b0000000000000000000000000000000000000000000000000000008152506005019050604051809103902060001916836040518082805190602001908083835b60208310151561220457805182526020820191506020810190506020830392506121df565b6001836020036101000a038019825116818451168082178552505050505050905001915050604051809103902060001916141561227e57836006600160028110151561224c57fe5b016000828254019250508190555083600080828254039250508190555083600260008282540192505081905550612c83565b60405180807f6576656e000000000000000000000000000000000000000000000000000000008152506004019050604051809103902060001916836040518082805190602001908083835b6020831015156122ee57805182526020820191506020810190506020830392506122c9565b6001836020036101000a038019825116818451168082178552505050505050905001915050604051809103902060001916141561236857836008600060028110151561233657fe5b016000828254019250508190555083600080828254039250508190555083600260008282540192505081905550612c82565b60405180807f6f646400000000000000000000000000000000000000000000000000000000008152506003019050604051809103902060001916836040518082805190602001908083835b6020831015156123d857805182526020820191506020810190506020830392506123b3565b6001836020036101000a038019825116818451168082178552505050505050905001915050604051809103902060001916141561245257836008600160028110151561242057fe5b016000828254019250508190555083600080828254039250508190555083600260008282540192505081905550612c81565b60405180807f6c6f7700000000000000000000000000000000000000000000000000000000008152506003019050604051809103902060001916836040518082805190602001908083835b6020831015156124c2578051825260208201915060208101905060208303925061249d565b6001836020036101000a038019825116818451168082178552505050505050905001915050604051809103902060001916141561253c5783600a600060028110151561250a57fe5b016000828254019250508190555083600080828254039250508190555083600260008282540192505081905550612c80565b60405180807f68696768000000000000000000000000000000000000000000000000000000008152506004019050604051809103902060001916836040518082805190602001908083835b6020831015156125ac5780518252602082019150602081019050602083039250612587565b6001836020036101000a038019825116818451168082178552505050505050905001915050604051809103902060001916141561261d5783600a60016002811015156125f457fe5b018190555083600080828254039250508190555083600260008282540192505081905550612c7f565b60405180807f646f7a656e7300000000000000000000000000000000000000000000000000008152506006019050604051809103902060001916836040518082805190602001908083835b60208310151561268d5780518252602082019150602081019050602083039250612668565b6001836020036101000a03801982511681845116808217855250505050505090500191505060405180910390206000191614156127065783600c836003811015156126d457fe5b016000828254019250508190555083600080828254039250508190555083600260008282540192505081905550612c7e565b60405180807f636f6c756d6e73000000000000000000000000000000000000000000000000008152506007019050604051809103902060001916836040518082805190602001908083835b6020831015156127765780518252602082019150602081019050602083039250612751565b6001836020036101000a03801982511681845116808217855250505050505090500191505060405180910390206000191614156127ef5783600f836003811015156127bd57fe5b016000828254019250508190555083600080828254039250508190555083600260008282540192505081905550612c7d565b60405180807f7369786e756d00000000000000000000000000000000000000000000000000008152506006019050604051809103902060001916836040518082805190602001908083835b60208310151561285f578051825260208201915060208101905060208303925061283a565b6001836020036101000a03801982511681845116808217855250505050505090500191505060405180910390206000191614156128d85783601283600b811015156128a657fe5b016000828254019250508190555083600080828254039250508190555083600260008282540192505081905550612c7c565b60405180807f666f75726e756d000000000000000000000000000000000000000000000000008152506007019050604051809103902060001916836040518082805190602001908083835b6020831015156129485780518252602082019150602081019050602083039250612923565b6001836020036101000a03801982511681845116808217855250505050505090500191505060405180910390206000191614156129c15783601d8360168110151561298f57fe5b016000828254019250508190555083600080828254039250508190555083600260008282540192505081905550612c7b565b60405180807f74687265656e756d7300000000000000000000000000000000000000000000008152506009019050604051809103902060001916836040518082805190602001908083835b602083101515612a315780518252602082019150602081019050602083039250612a0c565b6001836020036101000a0380198251168184511680821785525050505050509050019150506040518091039020600019161415612aaa5783603383600c81101515612a7857fe5b016000828254019250508190555083600080828254039250508190555083600260008282540192505081905550612c7a565b60405180807f74776f6e756d73000000000000000000000000000000000000000000000000008152506007019050604051809103902060001916836040518082805190602001908083835b602083101515612b1a5780518252602082019150602081019050602083039250612af5565b6001836020036101000a0380198251168184511680821785525050505050509050019150506040518091039020600019161415612b935783603f83603881101515612b6157fe5b016000828254019250508190555083600080828254039250508190555083600260008282540192505081905550612c79565b60405180807f73696e676c6500000000000000000000000000000000000000000000000000008152506006019050604051809103902060001916836040518082805190602001908083835b602083101515612c035780518252602082019150602081019050602083039250612bde565b6001836020036101000a0380198251168184511680821785525050505050509050019150506040518091039020600019161415612c785783607783602681101515612c4a57fe5b0160008282540192505081905550836000808282540392505081905550836002600082825401925050819055505b5b5b5b5b5b5b5b5b5b5b5b5b5b9392505050565b60015481565b60007fafc95d1f039c281835f22bd8b6130230b62953de60e8c4126096832f79b4d03960016040518082815260200191505060405180910390a16000549050905600a165627a7a72305820a7c8b9abfecbeb5f021d2eef26a1110520589e39f0dfa603f62c18bbe65deb6a0029",
  "source": "pragma solidity ^0.4.18;\r\n\r\ncontract Blockchaincasino\r\n{\r\nuint public chips;\r\nuint public winnings;\r\nuint public betsplaced;\r\nuint HouseWinningsInEther;\r\nuint money = 0;\r\nuint i;\r\nuint[2] redblack = [0];\r\nuint[2] evenodd = [0];\r\nuint[2] lowhigh = [0];\r\nuint[3] dozens = [0];\r\nuint[3] columns = [0];\r\nuint[11] six = [0];\r\nuint[22] four = [0];\r\nuint[12] three = [0];\r\nuint[56] two = [0];\r\nuint[38] single = [0];\r\n//bets position\r\n//[Red,Black,even, odd, low ,high, dozens, columns, sixnum,\r\n//fournum,threenums, twonums, straight\r\nuint[18] red = [1, 3, 5, 7, 9, 12, 14, 16, 18, 19, 21, 23, 25, 27, 30, 32, 34, 36];\r\nuint[18] black = [2, 4, 6, 8, 10, 11, 13, 15, 17, 20, 22, 24, 26, 28, 29, 31, 33, 35];\r\n\r\n//string betName[11] = ['Red','B','evenodd', 'lowhigh', 'dozens',\r\n//'columns', 'sixnum', 'Fivenum', 'fournum','threenums', 'twonums', 'straight'];\r\nuint roll;\r\nfunction() external payable {\r\n\r\n}\r\nevent ReRender(\r\n  uint value\r\n  );\r\nfunction getChips() public returns(uint){\r\n\r\n  emit ReRender(1);\r\n  return chips;\r\n}\r\nfunction MoreChips(uint amount) public payable{\r\n  HouseWinningsInEther += msg.value;\r\n  emit ReRender(1);\r\n  chips += amount;\r\n}\r\nfunction ClearWinnings() public {\r\n\r\n  emit ReRender(1);\r\n\r\n}\r\n\r\nfunction Payout(uint wins) external{\r\n  require( HouseWinningsInEther >= wins);\r\n  msg.sender.transfer(wins);\r\n  winnings = 0;\r\n  emit ReRender(1);\r\n}\r\n  function setbet(uint _money, string bet, uint number) public returns (uint)\r\n  {\r\n\r\n    emit ReRender(1);\r\n      if(chips >= _money)\r\n      {\r\n        if((keccak256(bet) == keccak256(\"red\")))\r\n        {\r\n          redblack[0] += _money;\r\n          chips -= _money;\r\n          betsplaced += _money;\r\n        }else if( (keccak256(bet) == keccak256(\"black\")))\r\n        {\r\n          redblack[1] += _money;\r\n          chips -= _money;\r\n          betsplaced += _money;\r\n        }else if((keccak256(bet) == keccak256(\"even\")))\r\n        {\r\n            evenodd[0] += _money;\r\n            chips -= _money;\r\n            betsplaced += _money;\r\n        }else if((keccak256(bet) == keccak256(\"odd\"))){\r\n          evenodd[1] += _money;\r\n          chips -= _money;\r\n          betsplaced += _money;\r\n        }else if((keccak256(bet) == keccak256(\"low\")))\r\n        {\r\n            lowhigh[0] += _money;\r\n            chips -= _money;\r\n            betsplaced += _money;\r\n        }else if((keccak256(bet) == keccak256(\"high\")))\r\n        {\r\n          lowhigh[1] = _money;\r\n          chips -= _money;\r\n          betsplaced += _money;\r\n        }else if((keccak256(bet) == keccak256(\"dozens\")))\r\n        {\r\n          dozens[number] += _money;\r\n          chips -= _money;\r\n          betsplaced += _money;\r\n        }else if((keccak256(bet) == keccak256(\"columns\")))\r\n        {\r\n            columns[number] += _money;\r\n            chips -= _money;\r\n            betsplaced += _money;\r\n        }else if((keccak256(bet) == keccak256(\"sixnum\")))\r\n        {\r\n            six[number] += _money;\r\n            chips -= _money;\r\n            betsplaced += _money;\r\n        }\r\n        else if((keccak256(bet) == keccak256(\"fournum\")))\r\n        {\r\n            four[number] += _money;\r\n            chips -= _money;\r\n            betsplaced += _money;\r\n        }else if((keccak256(bet) == keccak256(\"threenums\")))\r\n        {\r\n            three[number] += _money;\r\n            chips -= _money;\r\n            betsplaced += _money;\r\n        }else if((keccak256(bet) == keccak256(\"twonums\")))\r\n        {\r\n            two[number] += _money;\r\n            chips -= _money;\r\n            betsplaced += _money;\r\n        }else if((keccak256(bet) == keccak256(\"single\")))\r\n        {\r\n            single[number] += _money;\r\n            chips -= _money;\r\n            betsplaced += _money;\r\n        }\r\n      }\r\n  }\r\n  function getbet(string bet, uint number) public returns (uint)\r\n  {\r\n    emit ReRender(1);\r\n    if((keccak256(bet) == keccak256(\"red\")))\r\n    {\r\n    return redblack[0] * 2 ;\r\n    }else if( (keccak256(bet) == keccak256(\"black\")))\r\n    {\r\n    return redblack[1] * 2;\r\n    }else if((keccak256(bet) == keccak256(\"even\")))\r\n    {\r\n    return evenodd[0] * 2;\r\n    }else if((keccak256(bet) == keccak256(\"odd\")))\r\n    {\r\n    return evenodd[1] * 2;\r\n    }else if((keccak256(bet) == keccak256(\"low\")))\r\n    {\r\n    return lowhigh[0] * 2;\r\n    }else if((keccak256(bet) == keccak256(\"high\")))\r\n    {\r\n    return lowhigh[1] * 2;\r\n    }else if((keccak256(bet) == keccak256(\"dozens\")))\r\n    {\r\n    return ( (dozens[number] * 2) + dozens[number]);\r\n    }else if((keccak256(bet) == keccak256(\"columns\")))\r\n    {\r\n    return ( (columns[number] * 2) + columns[number]);\r\n    }else if((keccak256(bet) == keccak256(\"sixnum\")))\r\n    {\r\n    return ( (six[number] * 5) + six[number]);\r\n    }\r\n    else if((keccak256(bet) == keccak256(\"fournum\")))\r\n    {\r\n    return ( (four[number] * 8) + four[number]);\r\n    }else if((keccak256(bet) == keccak256(\"threenums\")))\r\n    {\r\n    return ( (three[number] * 11) + three[number]);\r\n    }else if((keccak256(bet) == keccak256(\"twonums\")))\r\n    {\r\n    return ( (two[number] * 17) + two[number]);\r\n    }else if((keccak256(bet) == keccak256(\"single\")))\r\n    {\r\n    return ( (single[number] * 35) + single[number]);\r\n    }\r\n    }\r\n    function test(uint a) public view returns (uint)\r\n    {\r\n    return play(a);\r\n    }\r\n\r\n\r\n\r\n    function play(uint draw) public returns (uint)\r\n    {\r\n\r\n      betsplaced = 0;\r\n      //red or black\r\n      for(i = 0; i < 18; i++)\r\n      {\r\n        if(draw == red[i] ){\r\n          winnings += getbet(\"red\",0);\r\n          break;\r\n        }else if(draw == black[i]){\r\n          winnings+= getbet(\"black\",0);\r\n          break;\r\n      }\r\n    }\r\n      //even odds\r\n      if(draw%2 == 0){\r\n        winnings += getbet(\"even\", 1);\r\n      }else{\r\n        winnings += getbet(\"odd\",1);\r\n      }\r\n\r\n      //high low\r\n      if(draw > 18){\r\n        winnings+= getbet(\"high\",0);\r\n      }\r\n      else{\r\n        winnings+= getbet(\"low\",0);\r\n      }\r\n\r\n      //dozens\r\n      if(draw >= 1 && draw <= 12){\r\n        winnings+= getbet(\"dozens\",0);\r\n      }else if(draw >= 13 && draw <= 24){\r\n        winnings+= getbet(\"dozens\",1);\r\n      }else if(draw > 25){\r\n        winnings+= getbet(\"dozens\",2);\r\n      }\r\n\r\n      //columns\r\n      // if you place a bet on the third column\r\n      if( (draw % 3) == 0)\r\n      {\r\n        winnings+= getbet(\"columns\",0);\r\n      }//second column\r\n      else if( ((draw + 1)%3) == 0){\r\n        winnings += getbet(\"columns\",1);\r\n      }//first column\r\n      else if( ((draw +2)%3) == 0){\r\n        winnings += getbet(\"columns\", 2);\r\n      }\r\n\r\n      // six number bets\r\n      if(draw >= 1 && draw <=6){\r\n        winnings+= getbet(\"sixnum\",0);\r\n      if(draw >=4 && draw <=9){\r\n        winnings+= getbet(\"sixnum\",1);\r\n      }if(draw >=7 && draw <=12){\r\n        winnings+= getbet(\"sixnum\",2);\r\n      }if(draw >=10 && draw <=15){\r\n        winnings+= getbet(\"sixnum\",3);\r\n      }if(draw >=13 && draw <=18){\r\n        winnings+= getbet(\"sixnum\",4);\r\n      }if(draw >=16 && draw <=21){\r\n        winnings+= getbet(\"sixnum\",5);\r\n      }if(draw >=19 && draw <=24){\r\n        winnings+= getbet(\"sixnum\",6);\r\n      }if(draw >=22 && draw <=27){\r\n        winnings+= getbet(\"sixnum\",7);\r\n      }if(draw >=25 && draw <=30){\r\n        winnings+= getbet(\"sixnum\",8);\r\n      }if(draw >=28 && draw <=33){\r\n        winnings+= getbet(\"sixnum\",9);\r\n      }if(draw >=31 && draw <=36){\r\n        winnings+= getbet(\"sixnum\",10);\r\n      }\r\n\r\n      //fournum 1,2,5,4 ; 4,5,8,7\r\n      for(i = 1; i<=31; i+=3){\r\n        if( (draw == i) || (draw == (i+1)) || (draw == (i+3)) || (draw == (i+4)) )\r\n        {\r\n        winnings += getbet(\"fournum\", ((i+2)/3)-1);\r\n        }\r\n      }\r\n      //2,5,6,9; 5,8,9,6\r\n      for(i = 2; i<=32; i+=3){\r\n        if( (draw == i) || (draw == (i+1)) || (draw == (i+3)) || (draw == (i+4)))\r\n        {\r\n        winnings += getbet(\"fournum\", ((i+1)/3)+10);\r\n        }\r\n      }\r\n\r\n      // three numbers 1,2,3 ; 4,5,6\r\n      for(i = 1; i<34;i+=3){\r\n        if(draw >= i && draw <= i+2){\r\n          winnings += getbet(\"threenums\", ((i+2)/3)-1);\r\n        }\r\n      }\r\n\r\n\r\n      //two numbers for vertical betting on the first vertical lines ie 1,2;4,5;\r\n      for(i = 1; i<=34; i+=3){\r\n        if( (draw == i) || (draw == (i+1)) )\r\n        {\r\n            winnings += getbet(\"twonums\", ( ((i+2)/3) -1) );\r\n        }\r\n      }\r\n      //two numbers for vertical betting on the second vertical line 2,3; 5,6\r\n      for(i = 2; i<=35; i+=3){\r\n        if( (draw == i) || (draw == (i+1)) )\r\n        {\r\n            winnings += getbet(\"twonums\", (((i+1)/3) + 11) );\r\n        }\r\n      }\r\n      //two numbers for horizontal betting on the first column horizontal lines\r\n      // bets like 1,4; 7,10;\r\n\r\n      for(i = 1; i<=31; i+=3){\r\n        if ( (draw == i) || (draw ==(i+3)) )\r\n        {\r\n            winnings += getbet(\"twonums\", (((i+2)/3) + 23) );\r\n        }\r\n      }\r\n      //second horizontal line 2,5; 5,8\r\n      for(i = 2; i<=32; i+=3){\r\n        if( (draw == i) || (draw == (i+3)) )\r\n        {\r\n            winnings += getbet(\"twonums\", (((i+1)/3) + 34) );\r\n        }\r\n      }\r\n      //third horizontal line 3,6; 6,9\r\n      for(i = 3; i<=33; i+=3){\r\n        if( (draw == i) || (draw == (i+3)) )\r\n        {\r\n            winnings += getbet(\"twonums\", ( (i/3) + 45) );\r\n        }\r\n      }\r\n\r\n\r\n\r\n\r\n\r\n      //single\r\n      //for drawing a 00\r\n      if(draw == 37){\r\n        winnings += getbet(\"single\", 37);\r\n      }else\r\n      {\r\n        winnings += getbet(\"single\", draw);\r\n      }\r\n      for(i = 0; i <56; i++)\r\n      {\r\n        if(i<2){\r\n          redblack[i] = 0;\r\n          evenodd[i] = 0;\r\n          lowhigh[i] = 0;\r\n        }if(i<3){\r\n          dozens[i] = 0;\r\n          columns[i] = 0;\r\n        }if(i< 11){\r\n          six[i] = 0;\r\n        }if(i< 22){\r\n          four[i] = 0;\r\n        }if(i< 12){\r\n          three[i] = 0;\r\n        }if(i< 56){\r\n          two[i] = 0;\r\n        }if(i< 38){\r\n          single[i] = 0;\r\n        }\r\n      }\r\n    }\r\n  emit ReRender(1);\r\n\r\n\r\n}\r\n}\r\n",
  "sourcePath": "C:\\Users\\jerem\\chainjeremy\\casino\\blockchaincasino\\contracts\\Blockchaincasino.sol",
  "compiler": {
    "name": "solc",
    "version": "0.4.23+commit.124ca40d.Emscripten.clang"
  },
  "schemaVersion": "2.0.0",
  "updatedAt": "2021-04-25T16:03:36.038Z"
}