{
  "contractName": "Blockchaincasino",
  "abi": [
    {
      "constant": false,
      "inputs": [
        {
          "name": "winnings",
          "type": "uint256"
        }
      ],
      "name": "withdraw",
      "outputs": [],
      "payable": false,
      "stateMutability": "nonpayable",
      "type": "function"
    },
    {
      "constant": true,
      "inputs": [],
      "name": "chips",
      "outputs": [
        {
          "name": "",
          "type": "uint256"
        }
      ],
      "payable": false,
      "stateMutability": "view",
      "type": "function"
    },
    {
      "constant": true,
      "inputs": [],
      "name": "betsplaced",
      "outputs": [
        {
          "name": "",
          "type": "uint256"
        }
      ],
      "payable": false,
      "stateMutability": "view",
      "type": "function"
    },
    {
      "constant": false,
      "inputs": [
        {
          "name": "amount",
          "type": "uint256"
        }
      ],
      "name": "Pay",
      "outputs": [],
      "payable": true,
      "stateMutability": "payable",
      "type": "function"
    },
    {
      "constant": false,
      "inputs": [
        {
          "name": "money",
          "type": "uint256"
        }
      ],
      "name": "AdjustChips",
      "outputs": [],
      "payable": false,
      "stateMutability": "nonpayable",
      "type": "function"
    },
    {
      "constant": true,
      "inputs": [],
      "name": "Bankobj",
      "outputs": [
        {
          "name": "",
          "type": "address"
        }
      ],
      "payable": false,
      "stateMutability": "view",
      "type": "function"
    },
    {
      "constant": true,
      "inputs": [],
      "name": "winnings",
      "outputs": [
        {
          "name": "",
          "type": "uint256"
        }
      ],
      "payable": false,
      "stateMutability": "view",
      "type": "function"
    },
    {
      "constant": true,
      "inputs": [],
      "name": "getchips",
      "outputs": [
        {
          "name": "",
          "type": "uint256"
        }
      ],
      "payable": false,
      "stateMutability": "view",
      "type": "function"
    },
    {
      "inputs": [
        {
          "name": "bankaddress",
          "type": "address"
        }
      ],
      "payable": false,
      "stateMutability": "nonpayable",
      "type": "constructor"
    },
    {
      "constant": false,
      "inputs": [],
      "name": "ClearWinnings",
      "outputs": [],
      "payable": false,
      "stateMutability": "nonpayable",
      "type": "function"
    },
    {
      "constant": false,
      "inputs": [
        {
          "name": "_money",
          "type": "uint256"
        },
        {
          "name": "bet",
          "type": "string"
        },
        {
          "name": "number",
          "type": "uint256"
        }
      ],
      "name": "setbet",
      "outputs": [
        {
          "name": "",
          "type": "uint256"
        }
      ],
      "payable": false,
      "stateMutability": "nonpayable",
      "type": "function"
    },
    {
      "constant": false,
      "inputs": [
        {
          "name": "bet",
          "type": "string"
        },
        {
          "name": "number",
          "type": "uint256"
        }
      ],
      "name": "getbet",
      "outputs": [
        {
          "name": "",
          "type": "uint256"
        }
      ],
      "payable": false,
      "stateMutability": "nonpayable",
      "type": "function"
    },
    {
      "constant": false,
      "inputs": [
        {
          "name": "draw",
          "type": "uint256"
        }
      ],
      "name": "play",
      "outputs": [
        {
          "name": "",
          "type": "uint256"
        }
      ],
      "payable": false,
      "stateMutability": "nonpayable",
      "type": "function"
    }
  ],
  "bytecode": "0x6080604052602060405190810160405280600060ff1681525060049060016200002a929190620003a7565b50602060405190810160405280600060ff16815250600690600162000051929190620003a7565b50602060405190810160405280600060ff16815250600890600162000078929190620003a7565b50602060405190810160405280600060ff16815250600a9060016200009f929190620003f1565b50602060405190810160405280600060ff16815250600d906001620000c6929190620003f1565b50602060405190810160405280600060ff168152506010906001620000ed9291906200043b565b50602060405190810160405280600060ff16815250601b9060016200011492919062000485565b50602060405190810160405280600060ff1681525060319060016200013b929190620004cf565b50602060405190810160405280600060ff16815250603d9060016200016292919062000519565b50602060405190810160405280600060ff1681525060759060016200018992919062000563565b5061024060405190810160405280600160ff168152602001600360ff168152602001600560ff168152602001600760ff168152602001600960ff168152602001600c60ff168152602001600e60ff168152602001601060ff168152602001601260ff168152602001601360ff168152602001601560ff168152602001601760ff168152602001601960ff168152602001601b60ff168152602001601e60ff168152602001602060ff168152602001602260ff168152602001602460ff16815250609b9060126200025b929190620005ad565b5061024060405190810160405280600260ff168152602001600460ff168152602001600660ff168152602001600860ff168152602001600a60ff168152602001600b60ff168152602001600d60ff168152602001600f60ff168152602001601160ff168152602001601460ff168152602001601660ff168152602001601860ff168152602001601a60ff168152602001601c60ff168152602001601d60ff168152602001601f60ff168152602001602160ff168152602001602360ff1681525060ad9060126200032d929190620005ad565b503480156200033b57600080fd5b5060405160208062003968833981018060405281019080805190602001909291905050508060bf60006101000a81548173ffffffffffffffffffffffffffffffffffffffff021916908373ffffffffffffffffffffffffffffffffffffffff160217905550506200061f565b8260028101928215620003de579160200282015b82811115620003dd578251829060ff16905591602001919060010190620003bb565b5b509050620003ed9190620005f7565b5090565b826003810192821562000428579160200282015b8281111562000427578251829060ff1690559160200191906001019062000405565b5b509050620004379190620005f7565b5090565b82600b810192821562000472579160200282015b8281111562000471578251829060ff169055916020019190600101906200044f565b5b509050620004819190620005f7565b5090565b8260168101928215620004bc579160200282015b82811115620004bb578251829060ff1690559160200191906001019062000499565b5b509050620004cb9190620005f7565b5090565b82600c810192821562000506579160200282015b8281111562000505578251829060ff16905591602001919060010190620004e3565b5b509050620005159190620005f7565b5090565b826038810192821562000550579160200282015b828111156200054f578251829060ff169055916020019190600101906200052d565b5b5090506200055f9190620005f7565b5090565b82602681019282156200059a579160200282015b8281111562000599578251829060ff1690559160200191906001019062000577565b5b509050620005a99190620005f7565b5090565b8260128101928215620005e4579160200282015b82811115620005e3578251829060ff16905591602001919060010190620005c1565b5b509050620005f39190620005f7565b5090565b6200061c91905b8082111562000618576000816000905550600101620005fe565b5090565b90565b613339806200062f6000396000f3006080604052600436106100ba576000357c0100000000000000000000000000000000000000000000000000000000900463ffffffff16806322ae8b6d146100bf5780632e1a7d4d146101465780634396a976146101735780634c6c46df1461019e57806353661d38146101b55780636898f82b146101e0578063781a2cca146102215780638ffbf10014610241578063b42fd8471461026e578063c1058b0d146102c5578063d134474c14610356578063e5e9f09614610381575b600080fd5b3480156100cb57600080fd5b50610130600480360381019080803590602001908201803590602001908080601f0160208091040260200160405190810160405280939291908181526020018383808284378201915050505050509192919290803590602001909291905050506103ac565b6040518082815260200191505060405180910390f35b34801561015257600080fd5b5061017160048036038101908080359060200190929190505050610e13565b005b34801561017f57600080fd5b50610188610e5d565b6040518082815260200191505060405180910390f35b3480156101aa57600080fd5b506101b3610e63565b005b3480156101c157600080fd5b506101ca610e6d565b6040518082815260200191505060405180910390f35b3480156101ec57600080fd5b5061020b60048036038101908080359060200190929190505050610e73565b6040518082815260200191505060405180910390f35b61023f60048036038101908080359060200190929190505050611f03565b005b34801561024d57600080fd5b5061026c60048036038101908080359060200190929190505050611f15565b005b34801561027a57600080fd5b50610283611f23565b604051808273ffffffffffffffffffffffffffffffffffffffff1673ffffffffffffffffffffffffffffffffffffffff16815260200191505060405180910390f35b3480156102d157600080fd5b5061034060048036038101908080359060200190929190803590602001908201803590602001908080601f016020809104026020016040519081016040528093929190818152602001838380828437820191505050505050919291929080359060200190929190505050611f49565b6040518082815260200191505060405180910390f35b34801561036257600080fd5b5061036b6132fe565b6040518082815260200191505060405180910390f35b34801561038d57600080fd5b50610396613304565b6040518082815260200191505060405180910390f35b600060405180807f72656400000000000000000000000000000000000000000000000000000000008152506003019050604051809103902060001916836040518082805190602001908083835b60208310151561041e57805182526020820191506020810190506020830392506103f9565b6001836020036101000a03801982511681845116808217855250505050505090500191505060405180910390206000191614156104715760026004600060028110151561046757fe5b0154029050610e0d565b60405180807f626c61636b0000000000000000000000000000000000000000000000000000008152506005019050604051809103902060001916836040518082805190602001908083835b6020831015156104e157805182526020820191506020810190506020830392506104bc565b6001836020036101000a03801982511681845116808217855250505050505090500191505060405180910390206000191614156105345760026004600160028110151561052a57fe5b0154029050610e0d565b60405180807f6576656e000000000000000000000000000000000000000000000000000000008152506004019050604051809103902060001916836040518082805190602001908083835b6020831015156105a4578051825260208201915060208101905060208303925061057f565b6001836020036101000a03801982511681845116808217855250505050505090500191505060405180910390206000191614156105f7576002600660006002811015156105ed57fe5b0154029050610e0d565b60405180807f6f646400000000000000000000000000000000000000000000000000000000008152506003019050604051809103902060001916836040518082805190602001908083835b6020831015156106675780518252602082019150602081019050602083039250610642565b6001836020036101000a03801982511681845116808217855250505050505090500191505060405180910390206000191614156106ba576002600660016002811015156106b057fe5b0154029050610e0d565b60405180807f6c6f7700000000000000000000000000000000000000000000000000000000008152506003019050604051809103902060001916836040518082805190602001908083835b60208310151561072a5780518252602082019150602081019050602083039250610705565b6001836020036101000a038019825116818451168082178552505050505050905001915050604051809103902060001916141561077d5760026008600060028110151561077357fe5b0154029050610e0d565b60405180807f68696768000000000000000000000000000000000000000000000000000000008152506004019050604051809103902060001916836040518082805190602001908083835b6020831015156107ed57805182526020820191506020810190506020830392506107c8565b6001836020036101000a03801982511681845116808217855250505050505090500191505060405180910390206000191614156108405760026008600160028110151561083657fe5b0154029050610e0d565b60405180807f646f7a656e7300000000000000000000000000000000000000000000000000008152506006019050604051809103902060001916836040518082805190602001908083835b6020831015156108b0578051825260208201915060208101905060208303925061088b565b6001836020036101000a038019825116818451168082178552505050505050905001915050604051809103902060001916141561091457600a826003811015156108f657fe5b01546002600a8460038110151561090957fe5b015402019050610e0d565b60405180807f636f6c756d6e73000000000000000000000000000000000000000000000000008152506007019050604051809103902060001916836040518082805190602001908083835b602083101515610984578051825260208201915060208101905060208303925061095f565b6001836020036101000a03801982511681845116808217855250505050505090500191505060405180910390206000191614156109e857600d826003811015156109ca57fe5b01546002600d846003811015156109dd57fe5b015402019050610e0d565b60405180807f7369786e756d00000000000000000000000000000000000000000000000000008152506006019050604051809103902060001916836040518082805190602001908083835b602083101515610a585780518252602082019150602081019050602083039250610a33565b6001836020036101000a0380198251168184511680821785525050505050509050019150506040518091039020600019161415610abc57601082600b81101515610a9e57fe5b01546005601084600b81101515610ab157fe5b015402019050610e0d565b60405180807f666f75726e756d000000000000000000000000000000000000000000000000008152506007019050604051809103902060001916836040518082805190602001908083835b602083101515610b2c5780518252602082019150602081019050602083039250610b07565b6001836020036101000a0380198251168184511680821785525050505050509050019150506040518091039020600019161415610b9057601b82601681101515610b7257fe5b01546008601b84601681101515610b8557fe5b015402019050610e0d565b60405180807f74687265656e756d7300000000000000000000000000000000000000000000008152506009019050604051809103902060001916836040518082805190602001908083835b602083101515610c005780518252602082019150602081019050602083039250610bdb565b6001836020036101000a0380198251168184511680821785525050505050509050019150506040518091039020600019161415610c6457603182600c81101515610c4657fe5b0154600b603184600c81101515610c5957fe5b015402019050610e0d565b60405180807f74776f6e756d73000000000000000000000000000000000000000000000000008152506007019050604051809103902060001916836040518082805190602001908083835b602083101515610cd45780518252602082019150602081019050602083039250610caf565b6001836020036101000a0380198251168184511680821785525050505050509050019150506040518091039020600019161415610d3857603d82603881101515610d1a57fe5b01546011603d84603881101515610d2d57fe5b015402019050610e0d565b60405180807f73696e676c6500000000000000000000000000000000000000000000000000008152506006019050604051809103902060001916836040518082805190602001908083835b602083101515610da85780518252602082019150602081019050602083039250610d83565b6001836020036101000a0380198251168184511680821785525050505050509050019150506040518091039020600019161415610e0c57607582602681101515610dee57fe5b01546023607584602681101515610e0157fe5b015402019050610e0d565b5b92915050565b3373ffffffffffffffffffffffffffffffffffffffff166108fc829081150290604051600060405180830381858888f19350505050158015610e59573d6000803e3d6000fd5b5050565b60005481565b6000600181905550565b60025481565b60008060028190555060008214158015610e8e575060258214155b15611d425760006003819055505b60126003541015610f9a57609b600354601281101515610eb857fe5b0154821415610f1557610f016040805190810160405280600381526020017f726564000000000000000000000000000000000000000000000000000000000081525060006103ac565b600160008282540192505081905550610f9a565b60ad600354601281101515610f2657fe5b0154821415610f8357610f6f6040805190810160405280600581526020017f626c61636b00000000000000000000000000000000000000000000000000000081525060016103ac565b600160008282540192505081905550610f9a565b600360008154809291906001019190505550610e9c565b6000600283811515610fa857fe5b06141561100357610fef6040805190810160405280600481526020017f6576656e0000000000000000000000000000000000000000000000000000000081525060006103ac565b600160008282540192505081905550611053565b6110436040805190810160405280600381526020017f6f6464000000000000000000000000000000000000000000000000000000000081525060016103ac565b6001600082825401925050819055505b60128211156110b05761109c6040805190810160405280600481526020017f686967680000000000000000000000000000000000000000000000000000000081525060016103ac565b600160008282540192505081905550611100565b6110f06040805190810160405280600381526020017f6c6f77000000000000000000000000000000000000000000000000000000000081525060006103ac565b6001600082825401925050819055505b600182101580156111125750600c8211155b1561116b576111576040805190810160405280600681526020017f646f7a656e73000000000000000000000000000000000000000000000000000081525060006103ac565b600160008282540192505081905550611231565b600d821015801561117d575060188211155b156111d6576111c26040805190810160405280600681526020017f646f7a656e73000000000000000000000000000000000000000000000000000081525060016103ac565b600160008282540192505081905550611230565b601982111561122f5761121f6040805190810160405280600681526020017f646f7a656e73000000000000000000000000000000000000000000000000000081525060026103ac565b6001600082825401925050819055505b5b5b600060038381151561123f57fe5b06141561129a576112866040805190810160405280600781526020017f636f6c756d6e730000000000000000000000000000000000000000000000000081525060006103ac565b600160008282540192505081905550611370565b60006003600184018115156112ab57fe5b061415611306576112f26040805190810160405280600781526020017f636f6c756d6e730000000000000000000000000000000000000000000000000081525060016103ac565b60016000828254019250508190555061136f565b600060036002840181151561131757fe5b06141561136e5761135e6040805190810160405280600781526020017f636f6c756d6e730000000000000000000000000000000000000000000000000081525060026103ac565b6001600082825401925050819055505b5b5b60018210158015611382575060068211155b156113d7576113c76040805190810160405280600681526020017f7369786e756d000000000000000000000000000000000000000000000000000081525060006103ac565b6001600082825401925050819055505b600482101580156113e9575060098211155b1561143e5761142e6040805190810160405280600681526020017f7369786e756d000000000000000000000000000000000000000000000000000081525060016103ac565b6001600082825401925050819055505b600782101580156114505750600c8211155b156114a5576114956040805190810160405280600681526020017f7369786e756d000000000000000000000000000000000000000000000000000081525060026103ac565b6001600082825401925050819055505b600a82101580156114b75750600f8211155b1561150c576114fc6040805190810160405280600681526020017f7369786e756d000000000000000000000000000000000000000000000000000081525060036103ac565b6001600082825401925050819055505b600d821015801561151e575060128211155b15611573576115636040805190810160405280600681526020017f7369786e756d000000000000000000000000000000000000000000000000000081525060046103ac565b6001600082825401925050819055505b60108210158015611585575060158211155b156115da576115ca6040805190810160405280600681526020017f7369786e756d000000000000000000000000000000000000000000000000000081525060056103ac565b6001600082825401925050819055505b601382101580156115ec575060188211155b15611641576116316040805190810160405280600681526020017f7369786e756d000000000000000000000000000000000000000000000000000081525060066103ac565b6001600082825401925050819055505b601682101580156116535750601b8211155b156116a8576116986040805190810160405280600681526020017f7369786e756d000000000000000000000000000000000000000000000000000081525060076103ac565b6001600082825401925050819055505b601982101580156116ba5750601e8211155b1561170f576116ff6040805190810160405280600681526020017f7369786e756d000000000000000000000000000000000000000000000000000081525060086103ac565b6001600082825401925050819055505b601c8210158015611721575060218211155b15611776576117666040805190810160405280600681526020017f7369786e756d000000000000000000000000000000000000000000000000000081525060096103ac565b6001600082825401925050819055505b601f8210158015611788575060248211155b156117dd576117cd6040805190810160405280600681526020017f7369786e756d0000000000000000000000000000000000000000000000000000815250600a6103ac565b6001600082825401925050819055505b60016003819055505b601f6003541115156118a057600354821480611806575060016003540182145b806118145750600380540182145b80611823575060046003540182145b1561188b5761187b6040805190810160405280600781526020017f666f75726e756d000000000000000000000000000000000000000000000000008152506001600360026003540181151561187457fe5b04036103ac565b6001600082825401925050819055505b600380600082825401925050819055506117e6565b60026003819055505b6020600354111515611963576003548214806118c9575060016003540182145b806118d75750600380540182145b806118e6575060046003540182145b1561194e5761193e6040805190810160405280600781526020017f666f75726e756d00000000000000000000000000000000000000000000000000815250600a600360016003540181151561193757fe5b04016103ac565b6001600082825401925050819055505b600380600082825401925050819055506118a9565b60016003819055505b60226003541015611a0b57600354821015801561198e57506002600354018211155b156119f6576119e66040805190810160405280600981526020017f74687265656e756d730000000000000000000000000000000000000000000000815250600160036002600354018115156119df57fe5b04036103ac565b6001600082825401925050819055505b6003806000828254019250508190555061196c565b60016003819055505b6022600354111515611ab157600354821480611a34575060016003540182145b15611a9c57611a8c6040805190810160405280600781526020017f74776f6e756d730000000000000000000000000000000000000000000000000081525060016003600260035401811515611a8557fe5b04036103ac565b6001600082825401925050819055505b60038060008282540192505081905550611a14565b60026003819055505b6023600354111515611b5757600354821480611ada575060016003540182145b15611b4257611b326040805190810160405280600781526020017f74776f6e756d7300000000000000000000000000000000000000000000000000815250600b6003600160035401811515611b2b57fe5b04016103ac565b6001600082825401925050819055505b60038060008282540192505081905550611aba565b60016003819055505b601f600354111515611bfc57600354821480611b7f5750600380540182145b15611be757611bd76040805190810160405280600781526020017f74776f6e756d730000000000000000000000000000000000000000000000000081525060176003600260035401811515611bd057fe5b04016103ac565b6001600082825401925050819055505b60038060008282540192505081905550611b60565b60026003819055505b6020600354111515611ca157600354821480611c245750600380540182145b15611c8c57611c7c6040805190810160405280600781526020017f74776f6e756d730000000000000000000000000000000000000000000000000081525060226003600160035401811515611c7557fe5b04016103ac565b6001600082825401925050819055505b60038060008282540192505081905550611c05565b600380819055505b6021600354111515611d4157600354821480611cc85750600380540182145b15611d2c57611d1c6040805190810160405280600781526020017f74776f6e756d7300000000000000000000000000000000000000000000000000815250602d60038054811515611d1557fe5b04016103ac565b6001600082825401925050819055505b60038060008282540192505081905550611ca9565b5b611d816040805190810160405280600681526020017f73696e676c650000000000000000000000000000000000000000000000000000815250836103ac565b60016000828254019250508190555060006003819055505b60386003541015611efe5760026003541015611df85760006004600354600281101515611dc257fe5b018190555060006006600354600281101515611dda57fe5b018190555060006008600354600281101515611df257fe5b01819055505b600380541015611e33576000600a600354600381101515611e1557fe5b01819055506000600d600354600381101515611e2d57fe5b01819055505b600b6003541015611e575760006010600354600b81101515611e5157fe5b01819055505b60166003541015611e7b576000601b600354601681101515611e7557fe5b01819055505b600c6003541015611e9f5760006031600354600c81101515611e9957fe5b01819055505b60386003541015611ec3576000603d600354603881101515611ebd57fe5b01819055505b60266003541015611ee75760006075600354602681101515611ee157fe5b01819055505b600360008154809291906001019190505550611d99565b919050565b80600080828254019250508190555050565b806000540360008190555050565b60bf60009054906101000a900473ffffffffffffffffffffffffffffffffffffffff1681565b600060405180807f72656400000000000000000000000000000000000000000000000000000000008152506003019050604051809103902060001916836040518082805190602001908083835b602083101515611fbb5780518252602082019150602081019050602083039250611f96565b6001836020036101000a03801982511681845116808217855250505050505090500191505060405180910390206000191614156120cf57836004600060028110151561200357fe5b016000828254019250508190555060bf60009054906101000a900473ffffffffffffffffffffffffffffffffffffffff1673ffffffffffffffffffffffffffffffffffffffff16638ffbf100856040518263ffffffff167c010000000000000000000000000000000000000000000000000000000002815260040180828152602001915050600060405180830381600087803b1580156120a257600080fd5b505af11580156120b6573d6000803e3d6000fd5b50505050836002600082825401925050819055506132f7565b60405180807f626c61636b0000000000000000000000000000000000000000000000000000008152506005019050604051809103902060001916836040518082805190602001908083835b60208310151561213f578051825260208201915060208101905060208303925061211a565b6001836020036101000a038019825116818451168082178552505050505050905001915050604051809103902060001916141561225357836004600160028110151561218757fe5b016000828254019250508190555060bf60009054906101000a900473ffffffffffffffffffffffffffffffffffffffff1673ffffffffffffffffffffffffffffffffffffffff16638ffbf100856040518263ffffffff167c010000000000000000000000000000000000000000000000000000000002815260040180828152602001915050600060405180830381600087803b15801561222657600080fd5b505af115801561223a573d6000803e3d6000fd5b50505050836002600082825401925050819055506132f6565b60405180807f6576656e000000000000000000000000000000000000000000000000000000008152506004019050604051809103902060001916836040518082805190602001908083835b6020831015156122c3578051825260208201915060208101905060208303925061229e565b6001836020036101000a03801982511681845116808217855250505050505090500191505060405180910390206000191614156123d757836006600060028110151561230b57fe5b016000828254019250508190555060bf60009054906101000a900473ffffffffffffffffffffffffffffffffffffffff1673ffffffffffffffffffffffffffffffffffffffff16638ffbf100856040518263ffffffff167c010000000000000000000000000000000000000000000000000000000002815260040180828152602001915050600060405180830381600087803b1580156123aa57600080fd5b505af11580156123be573d6000803e3d6000fd5b50505050836002600082825401925050819055506132f5565b60405180807f6f646400000000000000000000000000000000000000000000000000000000008152506003019050604051809103902060001916836040518082805190602001908083835b6020831015156124475780518252602082019150602081019050602083039250612422565b6001836020036101000a038019825116818451168082178552505050505050905001915050604051809103902060001916141561255b57836006600160028110151561248f57fe5b016000828254019250508190555060bf60009054906101000a900473ffffffffffffffffffffffffffffffffffffffff1673ffffffffffffffffffffffffffffffffffffffff16638ffbf100856040518263ffffffff167c010000000000000000000000000000000000000000000000000000000002815260040180828152602001915050600060405180830381600087803b15801561252e57600080fd5b505af1158015612542573d6000803e3d6000fd5b50505050836002600082825401925050819055506132f4565b60405180807f6c6f7700000000000000000000000000000000000000000000000000000000008152506003019050604051809103902060001916836040518082805190602001908083835b6020831015156125cb57805182526020820191506020810190506020830392506125a6565b6001836020036101000a03801982511681845116808217855250505050505090500191505060405180910390206000191614156126df57836008600060028110151561261357fe5b016000828254019250508190555060bf60009054906101000a900473ffffffffffffffffffffffffffffffffffffffff1673ffffffffffffffffffffffffffffffffffffffff16638ffbf100856040518263ffffffff167c010000000000000000000000000000000000000000000000000000000002815260040180828152602001915050600060405180830381600087803b1580156126b257600080fd5b505af11580156126c6573d6000803e3d6000fd5b50505050836002600082825401925050819055506132f3565b60405180807f68696768000000000000000000000000000000000000000000000000000000008152506004019050604051809103902060001916836040518082805190602001908083835b60208310151561274f578051825260208201915060208101905060208303925061272a565b6001836020036101000a038019825116818451168082178552505050505050905001915050604051809103902060001916141561285a57836008600160028110151561279757fe5b018190555060bf60009054906101000a900473ffffffffffffffffffffffffffffffffffffffff1673ffffffffffffffffffffffffffffffffffffffff16638ffbf100856040518263ffffffff167c010000000000000000000000000000000000000000000000000000000002815260040180828152602001915050600060405180830381600087803b15801561282d57600080fd5b505af1158015612841573d6000803e3d6000fd5b50505050836002600082825401925050819055506132f2565b60405180807f646f7a656e7300000000000000000000000000000000000000000000000000008152506006019050604051809103902060001916836040518082805190602001908083835b6020831015156128ca57805182526020820191506020810190506020830392506128a5565b6001836020036101000a03801982511681845116808217855250505050505090500191505060405180910390206000191614156129dd5783600a8360038110151561291157fe5b016000828254019250508190555060bf60009054906101000a900473ffffffffffffffffffffffffffffffffffffffff1673ffffffffffffffffffffffffffffffffffffffff16638ffbf100856040518263ffffffff167c010000000000000000000000000000000000000000000000000000000002815260040180828152602001915050600060405180830381600087803b1580156129b057600080fd5b505af11580156129c4573d6000803e3d6000fd5b50505050836002600082825401925050819055506132f1565b60405180807f636f6c756d6e73000000000000000000000000000000000000000000000000008152506007019050604051809103902060001916836040518082805190602001908083835b602083101515612a4d5780518252602082019150602081019050602083039250612a28565b6001836020036101000a0380198251168184511680821785525050505050509050019150506040518091039020600019161415612b605783600d83600381101515612a9457fe5b016000828254019250508190555060bf60009054906101000a900473ffffffffffffffffffffffffffffffffffffffff1673ffffffffffffffffffffffffffffffffffffffff16638ffbf100856040518263ffffffff167c010000000000000000000000000000000000000000000000000000000002815260040180828152602001915050600060405180830381600087803b158015612b3357600080fd5b505af1158015612b47573d6000803e3d6000fd5b50505050836002600082825401925050819055506132f0565b60405180807f7369786e756d00000000000000000000000000000000000000000000000000008152506006019050604051809103902060001916836040518082805190602001908083835b602083101515612bd05780518252602082019150602081019050602083039250612bab565b6001836020036101000a0380198251168184511680821785525050505050509050019150506040518091039020600019161415612ce35783601083600b81101515612c1757fe5b016000828254019250508190555060bf60009054906101000a900473ffffffffffffffffffffffffffffffffffffffff1673ffffffffffffffffffffffffffffffffffffffff16638ffbf100856040518263ffffffff167c010000000000000000000000000000000000000000000000000000000002815260040180828152602001915050600060405180830381600087803b158015612cb657600080fd5b505af1158015612cca573d6000803e3d6000fd5b50505050836002600082825401925050819055506132ef565b60405180807f666f75726e756d000000000000000000000000000000000000000000000000008152506007019050604051809103902060001916836040518082805190602001908083835b602083101515612d535780518252602082019150602081019050602083039250612d2e565b6001836020036101000a0380198251168184511680821785525050505050509050019150506040518091039020600019161415612e665783601b83601681101515612d9a57fe5b016000828254019250508190555060bf60009054906101000a900473ffffffffffffffffffffffffffffffffffffffff1673ffffffffffffffffffffffffffffffffffffffff16638ffbf100856040518263ffffffff167c010000000000000000000000000000000000000000000000000000000002815260040180828152602001915050600060405180830381600087803b158015612e3957600080fd5b505af1158015612e4d573d6000803e3d6000fd5b50505050836002600082825401925050819055506132ee565b60405180807f74687265656e756d7300000000000000000000000000000000000000000000008152506009019050604051809103902060001916836040518082805190602001908083835b602083101515612ed65780518252602082019150602081019050602083039250612eb1565b6001836020036101000a0380198251168184511680821785525050505050509050019150506040518091039020600019161415612fe95783603183600c81101515612f1d57fe5b016000828254019250508190555060bf60009054906101000a900473ffffffffffffffffffffffffffffffffffffffff1673ffffffffffffffffffffffffffffffffffffffff16638ffbf100856040518263ffffffff167c010000000000000000000000000000000000000000000000000000000002815260040180828152602001915050600060405180830381600087803b158015612fbc57600080fd5b505af1158015612fd0573d6000803e3d6000fd5b50505050836002600082825401925050819055506132ed565b60405180807f74776f6e756d73000000000000000000000000000000000000000000000000008152506007019050604051809103902060001916836040518082805190602001908083835b6020831015156130595780518252602082019150602081019050602083039250613034565b6001836020036101000a038019825116818451168082178552505050505050905001915050604051809103902060001916141561316c5783603d836038811015156130a057fe5b016000828254019250508190555060bf60009054906101000a900473ffffffffffffffffffffffffffffffffffffffff1673ffffffffffffffffffffffffffffffffffffffff16638ffbf100856040518263ffffffff167c010000000000000000000000000000000000000000000000000000000002815260040180828152602001915050600060405180830381600087803b15801561313f57600080fd5b505af1158015613153573d6000803e3d6000fd5b50505050836002600082825401925050819055506132ec565b60405180807f73696e676c6500000000000000000000000000000000000000000000000000008152506006019050604051809103902060001916836040518082805190602001908083835b6020831015156131dc57805182526020820191506020810190506020830392506131b7565b6001836020036101000a03801982511681845116808217855250505050505090500191505060405180910390206000191614156132eb578360758360268110151561322357fe5b016000828254019250508190555060bf60009054906101000a900473ffffffffffffffffffffffffffffffffffffffff1673ffffffffffffffffffffffffffffffffffffffff16638ffbf100856040518263ffffffff167c010000000000000000000000000000000000000000000000000000000002815260040180828152602001915050600060405180830381600087803b1580156132c257600080fd5b505af11580156132d6573d6000803e3d6000fd5b50505050836002600082825401925050819055505b5b5b5b5b5b5b5b5b5b5b5b5b9392505050565b60015481565b600080549050905600a165627a7a7230582036897d37bc6f51bffd51160230155ae8ec754c14bc622a780d1f3fe5986221c80029",
  "source": "pragma solidity ^0.4.23;\r\n\r\nimport \"./Bank.sol\";\r\ncontract Blockchaincasino is Bank\r\n{\r\n\r\n//inialized variables holds the value of the bets\r\nuint public winnings;\r\nuint public betsplaced;\r\nuint i;\r\nuint[2] redblack = [0];\r\nuint[2] evenodd = [0];\r\nuint[2] lowhigh = [0];\r\nuint[3] dozens = [0];\r\nuint[3] columns = [0];\r\nuint[11] six = [0];\r\nuint[22] four = [0];\r\nuint[12] three = [0];\r\nuint[56] two = [0];\r\nuint[38] single = [0];\r\n//fournum,threenums, twonums, straight\r\nuint[18] red = [1, 3, 5, 7, 9, 12, 14, 16, 18, 19, 21, 23, 25, 27, 30, 32, 34, 36];\r\nuint[18] black = [2, 4, 6, 8, 10, 11, 13, 15, 17, 20, 22, 24, 26, 28, 29, 31, 33, 35];\r\n\r\n// Bank object for calling bank functions and variables\r\nBank public Bankobj;\r\n//accepts the address to the bank smart contract\r\nconstructor(address bankaddress) public{\r\n  //inialies the bank object\r\n  Bankobj = Bank(bankaddress);\r\n}\r\n//removes all the winnings of the player\r\n//only if we can pay them\r\nfunction ClearWinnings() public {\r\n//  require(Bankobj.balance >= (winnings * 10**18));\r\n  winnings = 0;\r\n}\r\n//keeps track of the bet placed so we can access it later when we play the playgame\r\n//param 1 amount of chips bet; param 2 type of bet ex,black; param 3 array possition that the button presses is\r\n//associated with\r\n  function setbet(uint _money, string bet, uint number) public returns (uint)\r\n  {\r\n        if((keccak256(bet) == keccak256(\"red\")))\r\n        {\r\n\r\n          redblack[0] += _money;\r\n          Bankobj.AdjustChips(_money);\r\n          betsplaced += _money;\r\n        }else if( (keccak256(bet) == keccak256(\"black\")))\r\n        {\r\n          redblack[1] += _money;\r\n          Bankobj.AdjustChips(_money);\r\n          betsplaced += _money;\r\n        }else if((keccak256(bet) == keccak256(\"even\")))\r\n        {\r\n            evenodd[0] += _money;\r\n          Bankobj.AdjustChips(_money);\r\n            betsplaced += _money;\r\n        }else if((keccak256(bet) == keccak256(\"odd\"))){\r\n          evenodd[1] += _money;\r\n          Bankobj.AdjustChips(_money);\r\n          betsplaced += _money;\r\n        }else if((keccak256(bet) == keccak256(\"low\")))\r\n        {\r\n            lowhigh[0] += _money;\r\n            Bankobj.AdjustChips(_money);\r\n            betsplaced += _money;\r\n        }else if((keccak256(bet) == keccak256(\"high\")))\r\n        {\r\n          lowhigh[1] = _money;\r\n          Bankobj.AdjustChips(_money);\r\n          betsplaced += _money;\r\n        }else if((keccak256(bet) == keccak256(\"dozens\")))\r\n        {\r\n          dozens[number] += _money;\r\n          Bankobj.AdjustChips(_money);\r\n          betsplaced += _money;\r\n        }else if((keccak256(bet) == keccak256(\"columns\")))\r\n        {\r\n            columns[number] += _money;\r\n          Bankobj.AdjustChips(_money);\r\n            betsplaced += _money;\r\n        }else if((keccak256(bet) == keccak256(\"sixnum\")))\r\n        {\r\n            six[number] += _money;\r\n          Bankobj.AdjustChips(_money);\r\n            betsplaced += _money;\r\n        }\r\n        else if((keccak256(bet) == keccak256(\"fournum\")))\r\n        {\r\n            four[number] += _money;\r\n          Bankobj.AdjustChips(_money);\r\n            betsplaced += _money;\r\n        }else if((keccak256(bet) == keccak256(\"threenums\")))\r\n        {\r\n            three[number] += _money;\r\n          Bankobj.AdjustChips(_money);\r\n            betsplaced += _money;\r\n        }else if((keccak256(bet) == keccak256(\"twonums\")))\r\n        {\r\n            two[number] += _money;\r\n          Bankobj.AdjustChips(_money);\r\n            betsplaced += _money;\r\n        }else if((keccak256(bet) == keccak256(\"single\")))\r\n        {\r\n            single[number] += _money;\r\n          Bankobj.AdjustChips(_money);\r\n            betsplaced += _money;\r\n        }\r\n\r\n  }\r\n  //gets a value from an array that holds onto the betsplaced\r\n  //this function is called to check every bet position if the\r\n  //winning number can be there\r\n  //Ex, function is calle if the number is a red number and does the firset if statement\r\n  //param1 the type of bet param2 the array position of the bet type\r\n  function getbet(string bet, uint number) public returns (uint)\r\n  {\r\n    if((keccak256(bet) == keccak256(\"red\")))\r\n    {\r\n    return redblack[0] * 2 ;\r\n    }else if( (keccak256(bet) == keccak256(\"black\")))\r\n    {\r\n    return redblack[1] * 2;\r\n    }else if((keccak256(bet) == keccak256(\"even\")))\r\n    {\r\n    return evenodd[0] * 2;\r\n    }else if((keccak256(bet) == keccak256(\"odd\")))\r\n    {\r\n    return evenodd[1] * 2;\r\n    }else if((keccak256(bet) == keccak256(\"low\")))\r\n    {\r\n    return lowhigh[0] * 2;\r\n    }else if((keccak256(bet) == keccak256(\"high\")))\r\n    {\r\n    return lowhigh[1] * 2;\r\n    }else if((keccak256(bet) == keccak256(\"dozens\")))\r\n    {\r\n    return ( (dozens[number] * 2) + dozens[number]);\r\n    }else if((keccak256(bet) == keccak256(\"columns\")))\r\n    {\r\n    return ( (columns[number] * 2) + columns[number]);\r\n    }else if((keccak256(bet) == keccak256(\"sixnum\")))\r\n    {\r\n    return ( (six[number] * 5) + six[number]);\r\n    }\r\n    else if((keccak256(bet) == keccak256(\"fournum\")))\r\n    {\r\n    return ( (four[number] * 8) + four[number]);\r\n    }else if((keccak256(bet) == keccak256(\"threenums\")))\r\n    {\r\n    return ( (three[number] * 11) + three[number]);\r\n    }else if((keccak256(bet) == keccak256(\"twonums\")))\r\n    {\r\n    return ( (two[number] * 17) + two[number]);\r\n    }else if((keccak256(bet) == keccak256(\"single\")))\r\n    {\r\n    return ( (single[number] * 35) + single[number]);\r\n    }\r\n    }\r\n//searches to see if the drawn number has any bets placed on it\r\n//param1 draw: is the number the ball lands on\r\n//sets the winnings if the number drawn belongs to that possition\r\n//then sets the set bet arrays to zzero\r\n    function play(uint draw) public returns (uint)\r\n    {\r\n\r\n      betsplaced = 0;\r\n      if(draw != 0 && draw != 37){\r\n      //red or black\r\n      for(i = 0; i < 18; i++)\r\n      {\r\n        if(draw == red[i] ){\r\n          winnings += getbet(\"red\",0);\r\n          break;\r\n        }else if(draw == black[i]){\r\n          winnings+= getbet(\"black\",1);\r\n          break;\r\n      }\r\n    }\r\n      //even odds\r\n      if(draw%2 == 0){\r\n        winnings += getbet(\"even\", 0);\r\n      }else{\r\n        winnings += getbet(\"odd\",1);\r\n      }\r\n\r\n      //high low\r\n      if(draw > 18){\r\n        winnings+= getbet(\"high\",1);\r\n      }\r\n      else{\r\n        winnings+= getbet(\"low\",0);\r\n      }\r\n\r\n      //dozens\r\n      if(draw >= 1 && draw <= 12){\r\n        winnings+= getbet(\"dozens\",0);\r\n      }else if(draw >= 13 && draw <= 24){\r\n        winnings+= getbet(\"dozens\",1);\r\n      }else if(draw > 25){\r\n        winnings+= getbet(\"dozens\",2);\r\n      }\r\n\r\n      //columns\r\n      // if you place a bet on the third column\r\n      if( (draw % 3) == 0)\r\n      {\r\n        winnings+= getbet(\"columns\",0);\r\n      }//second column\r\n      else if( ((draw + 1)%3) == 0){\r\n        winnings += getbet(\"columns\",1);\r\n      }//first column\r\n      else if( ((draw +2)%3) == 0){\r\n        winnings += getbet(\"columns\", 2);\r\n      }\r\n\r\n//bet six numbers\r\n            if(draw >= 1 && draw <=6){\r\n              winnings+= getbet(\"sixnum\",0);\r\n            }if(draw >=4 && draw <=9){\r\n              winnings+= getbet(\"sixnum\",1);\r\n            }if(draw >=7 && draw <=12){\r\n              winnings+= getbet(\"sixnum\",2);\r\n            }if(draw >=10 && draw <=15){\r\n              winnings+= getbet(\"sixnum\",3);\r\n            }if(draw >=13 && draw <=18){\r\n              winnings+= getbet(\"sixnum\",4);\r\n            }if(draw >=16 && draw <=21){\r\n              winnings+= getbet(\"sixnum\",5);\r\n            }if(draw >=19 && draw <=24){\r\n              winnings+= getbet(\"sixnum\",6);\r\n            }if(draw >=22 && draw <=27){\r\n              winnings+= getbet(\"sixnum\",7);\r\n            }if(draw >=25 && draw <=30){\r\n              winnings+= getbet(\"sixnum\",8);\r\n            }if(draw >=28 && draw <=33){\r\n              winnings+= getbet(\"sixnum\",9);\r\n            }if(draw >=31 && draw <=36){\r\n              winnings+= getbet(\"sixnum\",10);\r\n            }\r\n\r\n      //fournum 1,2,5,4 ; 4,5,8,7\r\n      for(i = 1; i<=31; i+=3){\r\n        if( (draw == i) || (draw == (i+1)) || (draw == (i+3)) || (draw == (i+4)) )\r\n        {\r\n        winnings += getbet(\"fournum\", ((i+2)/3)-1);\r\n        }\r\n      }\r\n      //2,5,6,9; 5,8,9,6\r\n      for(i = 2; i<=32; i+=3){\r\n        if( (draw == i) || (draw == (i+1)) || (draw == (i+3)) || (draw == (i+4)))\r\n        {\r\n        winnings += getbet(\"fournum\", ((i+1)/3)+10);\r\n        }\r\n      }\r\n\r\n      // three numbers 1,2,3 ; 4,5,6\r\n      for(i = 1; i<34;i+=3){\r\n        if(draw >= i && draw <= i+2){\r\n          winnings += getbet(\"threenums\", ((i+2)/3)-1);\r\n        }\r\n      }\r\n\r\n\r\n      //two numbers for vertical betting on the first vertical lines ie 1,2;4,5;\r\n      for(i = 1; i<=34; i+=3){\r\n        if( (draw == i) || (draw == (i+1)) )\r\n        {\r\n            winnings += getbet(\"twonums\", ( ((i+2)/3) -1) );\r\n        }\r\n      }\r\n      //two numbers for vertical betting on the second vertical line 2,3; 5,6\r\n      for(i = 2; i<=35; i+=3){\r\n        if( (draw == i) || (draw == (i+1)) )\r\n        {\r\n            winnings += getbet(\"twonums\", (((i+1)/3) + 11) );\r\n        }\r\n      }\r\n      //two numbers for horizontal betting on the first column horizontal lines\r\n      // bets like 1,4; 7,10;\r\n\r\n      for(i = 1; i<=31; i+=3){\r\n        if ( (draw == i) || (draw ==(i+3)) )\r\n        {\r\n            winnings += getbet(\"twonums\", (((i+2)/3) + 23) );\r\n        }\r\n      }\r\n      //second horizontal line 2,5; 5,8\r\n      for(i = 2; i<=32; i+=3){\r\n        if( (draw == i) || (draw == (i+3)) )\r\n        {\r\n            winnings += getbet(\"twonums\", (((i+1)/3) + 34) );\r\n        }\r\n      }\r\n      //third horizontal line 3,6; 6,9\r\n      for(i = 3; i<=33; i+=3){\r\n        if( (draw == i) || (draw == (i+3)) )\r\n        {\r\n            winnings += getbet(\"twonums\", ( (i/3) + 45) );\r\n        }\r\n      }\r\n}\r\n      //single\r\n      //for drawing a 00\r\n        winnings += getbet(\"single\", draw);\r\n\r\n//sets all arrays to zero so we don't win based on old bets\r\n      for(i = 0; i <56; i++)\r\n      {\r\n        if(i<2){\r\n          redblack[i] = 0;\r\n          evenodd[i] = 0;\r\n          lowhigh[i] = 0;\r\n        }if(i<3){\r\n          dozens[i] = 0;\r\n          columns[i] = 0;\r\n        }if(i< 11){\r\n          six[i] = 0;\r\n        }if(i< 22){\r\n          four[i] = 0;\r\n        }if(i< 12){\r\n          three[i] = 0;\r\n        }if(i< 56){\r\n          two[i] = 0;\r\n        }if(i< 38){\r\n          single[i] = 0;\r\n        }\r\n      }\r\n\r\n    }\r\n}\r\n",
  "sourcePath": "C:\\Users\\jerem\\chainjeremy\\casino\\blockchaincasino\\contracts\\Blockchaincasino.sol",
  "compiler": {
    "name": "solc",
    "version": "0.4.23+commit.124ca40d.Emscripten.clang"
  },
  "schemaVersion": "2.0.0",
  "updatedAt": "2021-04-30T02:38:11.116Z"
}