{
  "contractName": "Blockchaincasino",
  "abi": [
    {
      "constant": true,
      "inputs": [],
      "name": "chips",
      "outputs": [
        {
          "name": "",
          "type": "uint256"
        }
      ],
      "payable": false,
      "stateMutability": "view",
      "type": "function"
    },
    {
      "constant": true,
      "inputs": [],
      "name": "betsplaced",
      "outputs": [
        {
          "name": "",
          "type": "uint256"
        }
      ],
      "payable": false,
      "stateMutability": "view",
      "type": "function"
    },
    {
      "constant": true,
      "inputs": [],
      "name": "winnings",
      "outputs": [
        {
          "name": "",
          "type": "uint256"
        }
      ],
      "payable": false,
      "stateMutability": "view",
      "type": "function"
    },
    {
      "payable": true,
      "stateMutability": "payable",
      "type": "fallback"
    },
    {
      "constant": false,
      "inputs": [],
      "name": "getChips",
      "outputs": [
        {
          "name": "",
          "type": "uint256"
        }
      ],
      "payable": false,
      "stateMutability": "nonpayable",
      "type": "function"
    },
    {
      "constant": false,
      "inputs": [
        {
          "name": "amount",
          "type": "uint256"
        }
      ],
      "name": "MoreChips",
      "outputs": [],
      "payable": true,
      "stateMutability": "payable",
      "type": "function"
    },
    {
      "constant": false,
      "inputs": [],
      "name": "ClearWinnings",
      "outputs": [],
      "payable": false,
      "stateMutability": "nonpayable",
      "type": "function"
    },
    {
      "constant": false,
      "inputs": [
        {
          "name": "_money",
          "type": "uint256"
        },
        {
          "name": "bet",
          "type": "string"
        },
        {
          "name": "number",
          "type": "uint256"
        }
      ],
      "name": "setbet",
      "outputs": [
        {
          "name": "",
          "type": "uint256"
        }
      ],
      "payable": false,
      "stateMutability": "nonpayable",
      "type": "function"
    },
    {
      "constant": true,
      "inputs": [
        {
          "name": "bet",
          "type": "string"
        },
        {
          "name": "number",
          "type": "uint256"
        }
      ],
      "name": "getbet",
      "outputs": [
        {
          "name": "",
          "type": "uint256"
        }
      ],
      "payable": false,
      "stateMutability": "view",
      "type": "function"
    },
    {
      "constant": true,
      "inputs": [
        {
          "name": "a",
          "type": "uint256"
        }
      ],
      "name": "test",
      "outputs": [
        {
          "name": "",
          "type": "uint256"
        }
      ],
      "payable": false,
      "stateMutability": "view",
      "type": "function"
    },
    {
      "constant": false,
      "inputs": [
        {
          "name": "draw",
          "type": "uint256"
        }
      ],
      "name": "play",
      "outputs": [
        {
          "name": "",
          "type": "uint256"
        }
      ],
      "payable": false,
      "stateMutability": "nonpayable",
      "type": "function"
    }
  ],
  "bytecode": "0x60806040526000600355602060405190810160405280600060ff1681525060059060016200002f92919062000347565b50602060405190810160405280600060ff1681525060079060016200005692919062000347565b50602060405190810160405280600060ff1681525060099060016200007d92919062000347565b50602060405190810160405280600060ff16815250600b906001620000a492919062000391565b50602060405190810160405280600060ff16815250600e906001620000cb92919062000391565b50602060405190810160405280600060ff168152506011906001620000f2929190620003db565b50602060405190810160405280600060ff16815250601c9060016200011992919062000425565b50602060405190810160405280600060ff168152506032906001620001409291906200046f565b50602060405190810160405280600060ff16815250603e90600162000167929190620004b9565b50602060405190810160405280600060ff1681525060769060016200018e92919062000503565b5061024060405190810160405280600160ff168152602001600360ff168152602001600560ff168152602001600760ff168152602001600960ff168152602001600c60ff168152602001600e60ff168152602001601060ff168152602001601260ff168152602001601360ff168152602001601560ff168152602001601760ff168152602001601960ff168152602001601b60ff168152602001601e60ff168152602001602060ff168152602001602260ff168152602001602460ff16815250609c906012620002609291906200054d565b5061024060405190810160405280600260ff168152602001600460ff168152602001600660ff168152602001600860ff168152602001600a60ff168152602001600b60ff168152602001600d60ff168152602001600f60ff168152602001601160ff168152602001601460ff168152602001601660ff168152602001601860ff168152602001601a60ff168152602001601c60ff168152602001601d60ff168152602001601f60ff168152602001602160ff168152602001602360ff1681525060ae906012620003329291906200054d565b503480156200034057600080fd5b50620005bf565b82600281019282156200037e579160200282015b828111156200037d578251829060ff169055916020019190600101906200035b565b5b5090506200038d919062000597565b5090565b8260038101928215620003c8579160200282015b82811115620003c7578251829060ff16905591602001919060010190620003a5565b5b509050620003d7919062000597565b5090565b82600b810192821562000412579160200282015b8281111562000411578251829060ff16905591602001919060010190620003ef565b5b50905062000421919062000597565b5090565b82601681019282156200045c579160200282015b828111156200045b578251829060ff1690559160200191906001019062000439565b5b5090506200046b919062000597565b5090565b82600c8101928215620004a6579160200282015b82811115620004a5578251829060ff1690559160200191906001019062000483565b5b509050620004b5919062000597565b5090565b8260388101928215620004f0579160200282015b82811115620004ef578251829060ff16905591602001919060010190620004cd565b5b509050620004ff919062000597565b5090565b82602681019282156200053a579160200282015b8281111562000539578251829060ff1690559160200191906001019062000517565b5b50905062000549919062000597565b5090565b826012810192821562000584579160200282015b8281111562000583578251829060ff1690559160200191906001019062000561565b5b50905062000593919062000597565b5090565b620005bc91905b80821115620005b85760008160009055506001016200059e565b5090565b90565b612a6680620005cf6000396000f3006080604052600436106100a4576000357c0100000000000000000000000000000000000000000000000000000000900463ffffffff16806322ae8b6d146100a657806329e99f071461012d57806334452f911461016e5780634396a9761461018e5780634c6c46df146101b957806353661d38146101d05780636898f82b146101fb578063c1058b0d1461023c578063d134474c146102cd578063e393cd2f146102f8575b005b3480156100b257600080fd5b50610117600480360381019080803590602001908201803590602001908080601f016020809104026020016040519081016040528093929190818152602001838380828437820191505050505050919291929080359060200190929190505050610323565b6040518082815260200191505060405180910390f35b34801561013957600080fd5b5061015860048036038101908080359060200190929190505050610d8a565b6040518082815260200191505060405180910390f35b61018c60048036038101908080359060200190929190505050610d9c565b005b34801561019a57600080fd5b506101a3610dae565b6040518082815260200191505060405180910390f35b3480156101c557600080fd5b506101ce610db4565b005b3480156101dc57600080fd5b506101e5610dc6565b6040518082815260200191505060405180910390f35b34801561020757600080fd5b5061022660048036038101908080359060200190929190505050610dcc565b6040518082815260200191505060405180910390f35b34801561024857600080fd5b506102b760048036038101908080359060200190929190803590602001908201803590602001908080601f016020809104026020016040519081016040528093929190818152602001838380828437820191505050505050919291929080359060200190929190505050611ea8565b6040518082815260200191505060405180910390f35b3480156102d957600080fd5b506102e2612a2b565b6040518082815260200191505060405180910390f35b34801561030457600080fd5b5061030d612a31565b6040518082815260200191505060405180910390f35b600060405180807f72656400000000000000000000000000000000000000000000000000000000008152506003019050604051809103902060001916836040518082805190602001908083835b6020831015156103955780518252602082019150602081019050602083039250610370565b6001836020036101000a03801982511681845116808217855250505050505090500191505060405180910390206000191614156103e8576002600560006002811015156103de57fe5b0154029050610d84565b60405180807f626c61636b0000000000000000000000000000000000000000000000000000008152506005019050604051809103902060001916836040518082805190602001908083835b6020831015156104585780518252602082019150602081019050602083039250610433565b6001836020036101000a03801982511681845116808217855250505050505090500191505060405180910390206000191614156104ab576002600560016002811015156104a157fe5b0154029050610d84565b60405180807f6576656e000000000000000000000000000000000000000000000000000000008152506004019050604051809103902060001916836040518082805190602001908083835b60208310151561051b57805182526020820191506020810190506020830392506104f6565b6001836020036101000a038019825116818451168082178552505050505050905001915050604051809103902060001916141561056e5760026007600060028110151561056457fe5b0154029050610d84565b60405180807f6f646400000000000000000000000000000000000000000000000000000000008152506003019050604051809103902060001916836040518082805190602001908083835b6020831015156105de57805182526020820191506020810190506020830392506105b9565b6001836020036101000a03801982511681845116808217855250505050505090500191505060405180910390206000191614156106315760026007600160028110151561062757fe5b0154029050610d84565b60405180807f6c6f7700000000000000000000000000000000000000000000000000000000008152506003019050604051809103902060001916836040518082805190602001908083835b6020831015156106a1578051825260208201915060208101905060208303925061067c565b6001836020036101000a03801982511681845116808217855250505050505090500191505060405180910390206000191614156106f4576002600960006002811015156106ea57fe5b0154029050610d84565b60405180807f68696768000000000000000000000000000000000000000000000000000000008152506004019050604051809103902060001916836040518082805190602001908083835b602083101515610764578051825260208201915060208101905060208303925061073f565b6001836020036101000a03801982511681845116808217855250505050505090500191505060405180910390206000191614156107b7576002600960016002811015156107ad57fe5b0154029050610d84565b60405180807f646f7a656e7300000000000000000000000000000000000000000000000000008152506006019050604051809103902060001916836040518082805190602001908083835b6020831015156108275780518252602082019150602081019050602083039250610802565b6001836020036101000a038019825116818451168082178552505050505050905001915050604051809103902060001916141561088b57600b8260038110151561086d57fe5b01546002600b8460038110151561088057fe5b015402019050610d84565b60405180807f636f6c756d6e73000000000000000000000000000000000000000000000000008152506007019050604051809103902060001916836040518082805190602001908083835b6020831015156108fb57805182526020820191506020810190506020830392506108d6565b6001836020036101000a038019825116818451168082178552505050505050905001915050604051809103902060001916141561095f57600e8260038110151561094157fe5b01546002600e8460038110151561095457fe5b015402019050610d84565b60405180807f7369786e756d00000000000000000000000000000000000000000000000000008152506006019050604051809103902060001916836040518082805190602001908083835b6020831015156109cf57805182526020820191506020810190506020830392506109aa565b6001836020036101000a0380198251168184511680821785525050505050509050019150506040518091039020600019161415610a3357601182600b81101515610a1557fe5b01546005601184600b81101515610a2857fe5b015402019050610d84565b60405180807f666f75726e756d000000000000000000000000000000000000000000000000008152506007019050604051809103902060001916836040518082805190602001908083835b602083101515610aa35780518252602082019150602081019050602083039250610a7e565b6001836020036101000a0380198251168184511680821785525050505050509050019150506040518091039020600019161415610b0757601c82601681101515610ae957fe5b01546008601c84601681101515610afc57fe5b015402019050610d84565b60405180807f74687265656e756d7300000000000000000000000000000000000000000000008152506009019050604051809103902060001916836040518082805190602001908083835b602083101515610b775780518252602082019150602081019050602083039250610b52565b6001836020036101000a0380198251168184511680821785525050505050509050019150506040518091039020600019161415610bdb57603282600c81101515610bbd57fe5b0154600b603284600c81101515610bd057fe5b015402019050610d84565b60405180807f74776f6e756d73000000000000000000000000000000000000000000000000008152506007019050604051809103902060001916836040518082805190602001908083835b602083101515610c4b5780518252602082019150602081019050602083039250610c26565b6001836020036101000a0380198251168184511680821785525050505050509050019150506040518091039020600019161415610caf57603e82603881101515610c9157fe5b01546011603e84603881101515610ca457fe5b015402019050610d84565b60405180807f73696e676c6500000000000000000000000000000000000000000000000000008152506006019050604051809103902060001916836040518082805190602001908083835b602083101515610d1f5780518252602082019150602081019050602083039250610cfa565b6001836020036101000a0380198251168184511680821785525050505050509050019150506040518091039020600019161415610d8357607682602681101515610d6557fe5b01546023607684602681101515610d7857fe5b015402019050610d84565b5b92915050565b6000610d9582610dcc565b9050919050565b80600080828254019250508190555050565b60005481565b60006001819055506000600281905550565b60025481565b6000806004819055505b60126004541015610ed457609c600454601281101515610df257fe5b0154821415610e4f57610e3b6040805190810160405280600381526020017f72656400000000000000000000000000000000000000000000000000000000008152506000610323565b600160008282540192505081905550610ed4565b60ae600454601281101515610e6057fe5b0154821415610ebd57610ea96040805190810160405280600581526020017f626c61636b0000000000000000000000000000000000000000000000000000008152506000610323565b600160008282540192505081905550610ed4565b600460008154809291906001019190505550610dd6565b6000600283811515610ee257fe5b061415610f3d57610f296040805190810160405280600481526020017f6576656e000000000000000000000000000000000000000000000000000000008152506001610323565b600160008282540192505081905550610f8d565b610f7d6040805190810160405280600381526020017f6f646400000000000000000000000000000000000000000000000000000000008152506001610323565b6001600082825401925050819055505b6012821115610fea57610fd66040805190810160405280600481526020017f68696768000000000000000000000000000000000000000000000000000000008152506000610323565b60016000828254019250508190555061103a565b61102a6040805190810160405280600381526020017f6c6f7700000000000000000000000000000000000000000000000000000000008152506000610323565b6001600082825401925050819055505b6001821015801561104c5750600c8211155b156110a5576110916040805190810160405280600681526020017f646f7a656e7300000000000000000000000000000000000000000000000000008152506000610323565b60016000828254019250508190555061116b565b600d82101580156110b7575060188211155b15611110576110fc6040805190810160405280600681526020017f646f7a656e7300000000000000000000000000000000000000000000000000008152506001610323565b60016000828254019250508190555061116a565b6019821115611169576111596040805190810160405280600681526020017f646f7a656e7300000000000000000000000000000000000000000000000000008152506002610323565b6001600082825401925050819055505b5b5b600060038381151561117957fe5b0614156111d4576111c06040805190810160405280600781526020017f636f6c756d6e73000000000000000000000000000000000000000000000000008152506000610323565b6001600082825401925050819055506112aa565b60006003600184018115156111e557fe5b0614156112405761122c6040805190810160405280600781526020017f636f6c756d6e73000000000000000000000000000000000000000000000000008152506001610323565b6001600082825401925050819055506112a9565b600060036002840181151561125157fe5b0614156112a8576112986040805190810160405280600781526020017f636f6c756d6e73000000000000000000000000000000000000000000000000008152506002610323565b6001600082825401925050819055505b5b5b600182101580156112bc575060068211155b15611ea3576113016040805190810160405280600681526020017f7369786e756d00000000000000000000000000000000000000000000000000008152506000610323565b60016000828254019250508190555060048210158015611322575060098211155b15611377576113676040805190810160405280600681526020017f7369786e756d00000000000000000000000000000000000000000000000000008152506001610323565b6001600082825401925050819055505b600782101580156113895750600c8211155b156113de576113ce6040805190810160405280600681526020017f7369786e756d00000000000000000000000000000000000000000000000000008152506002610323565b6001600082825401925050819055505b600a82101580156113f05750600f8211155b15611445576114356040805190810160405280600681526020017f7369786e756d00000000000000000000000000000000000000000000000000008152506003610323565b6001600082825401925050819055505b600d8210158015611457575060128211155b156114ac5761149c6040805190810160405280600681526020017f7369786e756d00000000000000000000000000000000000000000000000000008152506004610323565b6001600082825401925050819055505b601082101580156114be575060158211155b15611513576115036040805190810160405280600681526020017f7369786e756d00000000000000000000000000000000000000000000000000008152506005610323565b6001600082825401925050819055505b60138210158015611525575060188211155b1561157a5761156a6040805190810160405280600681526020017f7369786e756d00000000000000000000000000000000000000000000000000008152506006610323565b6001600082825401925050819055505b6016821015801561158c5750601b8211155b156115e1576115d16040805190810160405280600681526020017f7369786e756d00000000000000000000000000000000000000000000000000008152506007610323565b6001600082825401925050819055505b601982101580156115f35750601e8211155b15611648576116386040805190810160405280600681526020017f7369786e756d00000000000000000000000000000000000000000000000000008152506008610323565b6001600082825401925050819055505b601c821015801561165a575060218211155b156116af5761169f6040805190810160405280600681526020017f7369786e756d00000000000000000000000000000000000000000000000000008152506009610323565b6001600082825401925050819055505b601f82101580156116c1575060248211155b15611716576117066040805190810160405280600681526020017f7369786e756d0000000000000000000000000000000000000000000000000000815250600a610323565b6001600082825401925050819055505b60016004819055505b601f6004541115156117da5760045482148061173f575060016004540182145b8061174e575060036004540182145b8061175c5750600480540182145b156117c4576117b46040805190810160405280600781526020017f666f75726e756d00000000000000000000000000000000000000000000000000815250600160036002600454018115156117ad57fe5b0403610323565b6001600082825401925050819055505b600360046000828254019250508190555061171f565b60026004819055505b602060045411151561189e57600454821480611803575060016004540182145b80611812575060036004540182145b806118205750600480540182145b15611888576118786040805190810160405280600781526020017f666f75726e756d00000000000000000000000000000000000000000000000000815250600a600360016004540181151561187157fe5b0401610323565b6001600082825401925050819055505b60036004600082825401925050819055506117e3565b60016004819055505b602260045410156119475760045482101580156118c957506002600454018211155b15611931576119216040805190810160405280600981526020017f74687265656e756d7300000000000000000000000000000000000000000000008152506001600360026004540181151561191a57fe5b0403610323565b6001600082825401925050819055505b60036004600082825401925050819055506118a7565b60016004819055505b60226004541115156119ee57600454821480611970575060016004540182145b156119d8576119c86040805190810160405280600781526020017f74776f6e756d7300000000000000000000000000000000000000000000000000815250600160036002600454018115156119c157fe5b0403610323565b6001600082825401925050819055505b6003600460008282540192505081905550611950565b60026004819055505b6023600454111515611a9557600454821480611a17575060016004540182145b15611a7f57611a6f6040805190810160405280600781526020017f74776f6e756d7300000000000000000000000000000000000000000000000000815250600b6003600160045401811515611a6857fe5b0401610323565b6001600082825401925050819055505b60036004600082825401925050819055506119f7565b60016004819055505b601f600454111515611b3c57600454821480611abe575060036004540182145b15611b2657611b166040805190810160405280600781526020017f74776f6e756d730000000000000000000000000000000000000000000000000081525060176003600260045401811515611b0f57fe5b0401610323565b6001600082825401925050819055505b6003600460008282540192505081905550611a9e565b60026004819055505b6020600454111515611be357600454821480611b65575060036004540182145b15611bcd57611bbd6040805190810160405280600781526020017f74776f6e756d730000000000000000000000000000000000000000000000000081525060226003600160045401811515611bb657fe5b0401610323565b6001600082825401925050819055505b6003600460008282540192505081905550611b45565b60036004819055505b6021600454111515611c8757600454821480611c0c575060036004540182145b15611c7157611c616040805190810160405280600781526020017f74776f6e756d7300000000000000000000000000000000000000000000000000815250602d6003600454811515611c5a57fe5b0401610323565b6001600082825401925050819055505b6003600460008282540192505081905550611bec565b6025821415611ce457611cd06040805190810160405280600681526020017f73696e676c6500000000000000000000000000000000000000000000000000008152506025610323565b600160008282540192505081905550611d33565b611d236040805190810160405280600681526020017f73696e676c65000000000000000000000000000000000000000000000000000081525083610323565b6001600082825401925050819055505b60006004819055505b60386004541015611ea25760026004541015611d9b5760006005600454600281101515611d6557fe5b018190555060006007600454600281101515611d7d57fe5b018190555060006009600454600281101515611d9557fe5b01819055505b60036004541015611dd7576000600b600454600381101515611db957fe5b01819055506000600e600454600381101515611dd157fe5b01819055505b600b6004541015611dfb5760006011600454600b81101515611df557fe5b01819055505b60166004541015611e1f576000601c600454601681101515611e1957fe5b01819055505b600c6004541015611e435760006032600454600c81101515611e3d57fe5b01819055505b60386004541015611e67576000603e600454603881101515611e6157fe5b01819055505b60266004541015611e8b5760006076600454602681101515611e8557fe5b01819055505b600460008154809291906001019190505550611d3c565b5b919050565b600083600054101515612a245760405180807f72656400000000000000000000000000000000000000000000000000000000008152506003019050604051809103902060001916836040518082805190602001908083835b602083101515611f255780518252602082019150602081019050602083039250611f00565b6001836020036101000a0380198251168184511680821785525050505050509050019150506040518091039020600019161415611f96578360056000600281101515611f6d57fe5b018190555083600080828254039250508190555083600260008282540192505081905550612a23565b60405180807f626c61636b0000000000000000000000000000000000000000000000000000008152506005019050604051809103902060001916836040518082805190602001908083835b6020831015156120065780518252602082019150602081019050602083039250611fe1565b6001836020036101000a038019825116818451168082178552505050505050905001915050604051809103902060001916141561207757836005600160028110151561204e57fe5b018190555083600080828254039250508190555083600260008282540192505081905550612a22565b60405180807f6576656e000000000000000000000000000000000000000000000000000000008152506004019050604051809103902060001916836040518082805190602001908083835b6020831015156120e757805182526020820191506020810190506020830392506120c2565b6001836020036101000a038019825116818451168082178552505050505050905001915050604051809103902060001916141561215857836007600060028110151561212f57fe5b018190555083600080828254039250508190555083600260008282540192505081905550612a21565b60405180807f6f646400000000000000000000000000000000000000000000000000000000008152506003019050604051809103902060001916836040518082805190602001908083835b6020831015156121c857805182526020820191506020810190506020830392506121a3565b6001836020036101000a038019825116818451168082178552505050505050905001915050604051809103902060001916141561223957836007600160028110151561221057fe5b018190555083600080828254039250508190555083600260008282540192505081905550612a20565b60405180807f6c6f7700000000000000000000000000000000000000000000000000000000008152506003019050604051809103902060001916836040518082805190602001908083835b6020831015156122a95780518252602082019150602081019050602083039250612284565b6001836020036101000a038019825116818451168082178552505050505050905001915050604051809103902060001916141561231a5783600960006002811015156122f157fe5b018190555083600080828254039250508190555083600260008282540192505081905550612a1f565b60405180807f68696768000000000000000000000000000000000000000000000000000000008152506004019050604051809103902060001916836040518082805190602001908083835b60208310151561238a5780518252602082019150602081019050602083039250612365565b6001836020036101000a03801982511681845116808217855250505050505090500191505060405180910390206000191614156123fb5783600960016002811015156123d257fe5b018190555083600080828254039250508190555083600260008282540192505081905550612a1e565b60405180807f646f7a656e7300000000000000000000000000000000000000000000000000008152506006019050604051809103902060001916836040518082805190602001908083835b60208310151561246b5780518252602082019150602081019050602083039250612446565b6001836020036101000a03801982511681845116808217855250505050505090500191505060405180910390206000191614156124db5783600b836003811015156124b257fe5b018190555083600080828254039250508190555083600260008282540192505081905550612a1d565b60405180807f636f6c756d6e73000000000000000000000000000000000000000000000000008152506007019050604051809103902060001916836040518082805190602001908083835b60208310151561254b5780518252602082019150602081019050602083039250612526565b6001836020036101000a03801982511681845116808217855250505050505090500191505060405180910390206000191614156125bb5783600e8360038110151561259257fe5b018190555083600080828254039250508190555083600260008282540192505081905550612a1c565b60405180807f7369786e756d00000000000000000000000000000000000000000000000000008152506006019050604051809103902060001916836040518082805190602001908083835b60208310151561262b5780518252602082019150602081019050602083039250612606565b6001836020036101000a038019825116818451168082178552505050505050905001915050604051809103902060001916141561269b5783601183600b8110151561267257fe5b018190555083600080828254039250508190555083600260008282540192505081905550612a1b565b60405180807f666f75726e756d000000000000000000000000000000000000000000000000008152506007019050604051809103902060001916836040518082805190602001908083835b60208310151561270b57805182526020820191506020810190506020830392506126e6565b6001836020036101000a038019825116818451168082178552505050505050905001915050604051809103902060001916141561277b5783601c8360168110151561275257fe5b018190555083600080828254039250508190555083600260008282540192505081905550612a1a565b60405180807f74687265656e756d7300000000000000000000000000000000000000000000008152506009019050604051809103902060001916836040518082805190602001908083835b6020831015156127eb57805182526020820191506020810190506020830392506127c6565b6001836020036101000a038019825116818451168082178552505050505050905001915050604051809103902060001916141561285b5783603283600c8110151561283257fe5b018190555083600080828254039250508190555083600260008282540192505081905550612a19565b60405180807f74776f6e756d73000000000000000000000000000000000000000000000000008152506007019050604051809103902060001916836040518082805190602001908083835b6020831015156128cb57805182526020820191506020810190506020830392506128a6565b6001836020036101000a038019825116818451168082178552505050505050905001915050604051809103902060001916141561293b5783603e8360388110151561291257fe5b018190555083600080828254039250508190555083600260008282540192505081905550612a18565b60405180807f73696e676c6500000000000000000000000000000000000000000000000000008152506006019050604051809103902060001916836040518082805190602001908083835b6020831015156129ab5780518252602082019150602081019050602083039250612986565b6001836020036101000a0380198251168184511680821785525050505050509050019150506040518091039020600019161415612a1757836076836026811015156129f257fe5b0181905550836000808282540392505081905550836002600082825401925050819055505b5b5b5b5b5b5b5b5b5b5b5b5b5b9392505050565b60015481565b600080549050905600a165627a7a72305820c2eae5d71370c2b835482c5b691aee35269d083a5f25a56f88e3b0a6ab86d3180029",
  "source": "pragma solidity ^0.4.18;\r\n\r\ncontract Blockchaincasino\r\n{\r\nuint public chips;\r\nuint public winnings;\r\nuint public betsplaced;\r\nuint money = 0;\r\nuint i;\r\nuint[2] redblack = [0];\r\nuint[2] evenodd = [0];\r\nuint[2] lowhigh = [0];\r\nuint[3] dozens = [0];\r\nuint[3] columns = [0];\r\nuint[11] six = [0];\r\nuint[22] four = [0];\r\nuint[12] three = [0];\r\nuint[56] two = [0];\r\nuint[38] single = [0];\r\n//bets position\r\n//[Red,Black,even, odd, low ,high, dozens, columns, sixnum,\r\n//fournum,threenums, twonums, straight\r\nuint[18] red = [1, 3, 5, 7, 9, 12, 14, 16, 18, 19, 21, 23, 25, 27, 30, 32, 34, 36];\r\nuint[18] black = [2, 4, 6, 8, 10, 11, 13, 15, 17, 20, 22, 24, 26, 28, 29, 31, 33, 35];\r\n\r\n//string betName[11] = ['Red','B','evenodd', 'lowhigh', 'dozens',\r\n//'columns', 'sixnum', 'Fivenum', 'fournum','threenums', 'twonums', 'straight'];\r\nuint roll;\r\nfunction() external payable {\r\n\r\n}\r\nfunction getChips() public returns(uint){\r\n  return chips;\r\n}\r\nfunction MoreChips(uint amount) public payable{\r\n  chips += amount;\r\n}\r\nfunction ClearWinnings() public {\r\n  winnings = 0;\r\n  betsplaced = 0;\r\n}\r\n  function setbet(uint _money, string bet, uint number) public returns (uint)\r\n  {\r\n\r\n      if(chips >= _money)\r\n      {\r\n        if((keccak256(bet) == keccak256(\"red\")))\r\n        {\r\n          redblack[0] = _money;\r\n          chips -= _money;\r\n          betsplaced += _money;\r\n        }else if( (keccak256(bet) == keccak256(\"black\")))\r\n        {\r\n          redblack[1] = _money;\r\n          chips -= _money;\r\n          betsplaced += _money;\r\n        }else if((keccak256(bet) == keccak256(\"even\")))\r\n        {\r\n            evenodd[0] = _money;\r\n            chips -= _money;\r\n            betsplaced += _money;\r\n        }else if((keccak256(bet) == keccak256(\"odd\"))){\r\n          evenodd[1] = _money;\r\n          chips -= _money;\r\n          betsplaced += _money;\r\n        }else if((keccak256(bet) == keccak256(\"low\")))\r\n        {\r\n            lowhigh[0] = _money;\r\n            chips -= _money;\r\n            betsplaced += _money;\r\n        }else if((keccak256(bet) == keccak256(\"high\")))\r\n        {\r\n          lowhigh[1] = _money;\r\n          chips -= _money;\r\n          betsplaced += _money;\r\n        }else if((keccak256(bet) == keccak256(\"dozens\")))\r\n        {\r\n          dozens[number] = _money;\r\n          chips -= _money;\r\n          betsplaced += _money;\r\n        }else if((keccak256(bet) == keccak256(\"columns\")))\r\n        {\r\n            columns[number] = _money;\r\n            chips -= _money;\r\n            betsplaced += _money;\r\n        }else if((keccak256(bet) == keccak256(\"sixnum\")))\r\n        {\r\n            six[number] = _money;\r\n            chips -= _money;\r\n            betsplaced += _money;\r\n        }\r\n        else if((keccak256(bet) == keccak256(\"fournum\")))\r\n        {\r\n            four[number] = _money;\r\n            chips -= _money;\r\n            betsplaced += _money;\r\n        }else if((keccak256(bet) == keccak256(\"threenums\")))\r\n        {\r\n            three[number] = _money;\r\n            chips -= _money;\r\n            betsplaced += _money;\r\n        }else if((keccak256(bet) == keccak256(\"twonums\")))\r\n        {\r\n            two[number] = _money;\r\n            chips -= _money;\r\n            betsplaced += _money;\r\n        }else if((keccak256(bet) == keccak256(\"single\")))\r\n        {\r\n            single[number] = _money;\r\n            chips -= _money;\r\n            betsplaced += _money;\r\n        }\r\n      }\r\n\r\n  }\r\n  function getbet(string bet, uint number) public view returns (uint)\r\n  {\r\n\r\n    if((keccak256(bet) == keccak256(\"red\")))\r\n    {\r\n    return redblack[0] * 2 ;\r\n    }else if( (keccak256(bet) == keccak256(\"black\")))\r\n    {\r\n    return redblack[1] * 2;\r\n    }else if((keccak256(bet) == keccak256(\"even\")))\r\n    {\r\n    return evenodd[0] * 2;\r\n    }else if((keccak256(bet) == keccak256(\"odd\")))\r\n    {\r\n    return evenodd[1] * 2;\r\n    }else if((keccak256(bet) == keccak256(\"low\")))\r\n    {\r\n    return lowhigh[0] * 2;\r\n    }else if((keccak256(bet) == keccak256(\"high\")))\r\n    {\r\n    return lowhigh[1] * 2;\r\n    }else if((keccak256(bet) == keccak256(\"dozens\")))\r\n    {\r\n    return ( (dozens[number] * 2) + dozens[number]);\r\n    }else if((keccak256(bet) == keccak256(\"columns\")))\r\n    {\r\n    return ( (columns[number] * 2) + columns[number]);\r\n    }else if((keccak256(bet) == keccak256(\"sixnum\")))\r\n    {\r\n    return ( (six[number] * 5) + six[number]);\r\n    }\r\n    else if((keccak256(bet) == keccak256(\"fournum\")))\r\n    {\r\n    return ( (four[number] * 8) + four[number]);\r\n    }else if((keccak256(bet) == keccak256(\"threenums\")))\r\n    {\r\n    return ( (three[number] * 11) + three[number]);\r\n    }else if((keccak256(bet) == keccak256(\"twonums\")))\r\n    {\r\n    return ( (two[number] * 17) + two[number]);\r\n    }else if((keccak256(bet) == keccak256(\"single\")))\r\n    {\r\n    return ( (single[number] * 35) + single[number]);\r\n    }\r\n    }\r\n    function test(uint a) public view returns (uint)\r\n    {\r\n    return play(a);\r\n    }\r\n\r\n\r\n\r\n    function play(uint draw) public returns (uint)\r\n    {\r\n\r\n      //red or black\r\n      for(i = 0; i < 18; i++)\r\n      {\r\n        if(draw == red[i] ){\r\n          winnings += getbet(\"red\",0);\r\n          break;\r\n        }else if(draw == black[i]){\r\n          winnings+= getbet(\"black\",0);\r\n          break;\r\n      }\r\n    }\r\n      //even odds\r\n      if(draw%2 == 0){\r\n        winnings += getbet(\"even\", 1);\r\n      }else{\r\n        winnings += getbet(\"odd\",1);\r\n      }\r\n\r\n      //high low\r\n      if(draw > 18){\r\n        winnings+= getbet(\"high\",0);\r\n      }\r\n      else{\r\n        winnings+= getbet(\"low\",0);\r\n      }\r\n\r\n      //dozens\r\n      if(draw >= 1 && draw <= 12){\r\n        winnings+= getbet(\"dozens\",0);\r\n      }else if(draw >= 13 && draw <= 24){\r\n        winnings+= getbet(\"dozens\",1);\r\n      }else if(draw > 25){\r\n        winnings+= getbet(\"dozens\",2);\r\n      }\r\n\r\n      //columns\r\n      // if you place a bet on the third column\r\n      if( (draw % 3) == 0)\r\n      {\r\n        winnings+= getbet(\"columns\",0);\r\n      }//second column\r\n      else if( ((draw + 1)%3) == 0){\r\n        winnings += getbet(\"columns\",1);\r\n      }//first column\r\n      else if( ((draw +2)%3) == 0){\r\n        winnings += getbet(\"columns\", 2);\r\n      }\r\n\r\n      // six number bets\r\n      if(draw >= 1 && draw <=6){\r\n        winnings+= getbet(\"sixnum\",0);\r\n      if(draw >=4 && draw <=9){\r\n        winnings+= getbet(\"sixnum\",1);\r\n      }if(draw >=7 && draw <=12){\r\n        winnings+= getbet(\"sixnum\",2);\r\n      }if(draw >=10 && draw <=15){\r\n        winnings+= getbet(\"sixnum\",3);\r\n      }if(draw >=13 && draw <=18){\r\n        winnings+= getbet(\"sixnum\",4);\r\n      }if(draw >=16 && draw <=21){\r\n        winnings+= getbet(\"sixnum\",5);\r\n      }if(draw >=19 && draw <=24){\r\n        winnings+= getbet(\"sixnum\",6);\r\n      }if(draw >=22 && draw <=27){\r\n        winnings+= getbet(\"sixnum\",7);\r\n      }if(draw >=25 && draw <=30){\r\n        winnings+= getbet(\"sixnum\",8);\r\n      }if(draw >=28 && draw <=33){\r\n        winnings+= getbet(\"sixnum\",9);\r\n      }if(draw >=31 && draw <=36){\r\n        winnings+= getbet(\"sixnum\",10);\r\n      }\r\n\r\n      //fournum 1,2,5,4 ; 4,5,8,7\r\n      for(i = 1; i<=31; i+=3){\r\n        if( (draw == i) || (draw == (i+1)) || (draw == (i+3)) || (draw == (i+4)) )\r\n        {\r\n        winnings += getbet(\"fournum\", ((i+2)/3)-1);\r\n        }\r\n      }\r\n      //2,5,6,9; 5,8,9,6\r\n      for(i = 2; i<=32; i+=3){\r\n        if( (draw == i) || (draw == (i+1)) || (draw == (i+3)) || (draw == (i+4)))\r\n        {\r\n        winnings += getbet(\"fournum\", ((i+1)/3)+10);\r\n        }\r\n      }\r\n\r\n      // three numbers 1,2,3 ; 4,5,6\r\n      for(i = 1; i<34;i+=3){\r\n        if(draw >= i && draw <= i+2){\r\n          winnings += getbet(\"threenums\", ((i+2)/3)-1);\r\n        }\r\n      }\r\n\r\n\r\n      //two numbers for vertical betting on the first vertical lines ie 1,2;4,5;\r\n      for(i = 1; i<=34; i+=3){\r\n        if( (draw == i) || (draw == (i+1)) )\r\n        {\r\n            winnings += getbet(\"twonums\", ( ((i+2)/3) -1) );\r\n        }\r\n      }\r\n      //two numbers for vertical betting on the second vertical line 2,3; 5,6\r\n      for(i = 2; i<=35; i+=3){\r\n        if( (draw == i) || (draw == (i+1)) )\r\n        {\r\n            winnings += getbet(\"twonums\", (((i+1)/3) + 11) );\r\n        }\r\n      }\r\n      //two numbers for horizontal betting on the first column horizontal lines\r\n      // bets like 1,4; 7,10;\r\n\r\n      for(i = 1; i<=31; i+=3){\r\n        if ( (draw == i) || (draw ==(i+3)) )\r\n        {\r\n            winnings += getbet(\"twonums\", (((i+2)/3) + 23) );\r\n        }\r\n      }\r\n      //second horizontal line 2,5; 5,8\r\n      for(i = 2; i<=32; i+=3){\r\n        if( (draw == i) || (draw == (i+3)) )\r\n        {\r\n            winnings += getbet(\"twonums\", (((i+1)/3) + 34) );\r\n        }\r\n      }\r\n      //third horizontal line 3,6; 6,9\r\n      for(i = 3; i<=33; i+=3){\r\n        if( (draw == i) || (draw == (i+3)) )\r\n        {\r\n            winnings += getbet(\"twonums\", ( (i/3) + 45) );\r\n        }\r\n      }\r\n\r\n\r\n\r\n\r\n\r\n      //single\r\n      //for drawing a 00\r\n      if(draw == 37){\r\n        winnings += getbet(\"single\", 37);\r\n      }else\r\n      {\r\n        winnings += getbet(\"single\", draw);\r\n      }\r\n      for(i = 0; i <56; i++)\r\n      {\r\n        if(i<2){\r\n          redblack[i] = 0;\r\n          evenodd[i] = 0;\r\n          lowhigh[i] = 0;\r\n        }if(i<3){\r\n          dozens[i] = 0;\r\n          columns[i] = 0;\r\n        }if(i< 11){\r\n          six[i] = 0;\r\n        }if(i< 22){\r\n          four[i] = 0;\r\n        }if(i< 12){\r\n          three[i] = 0;\r\n        }if(i< 56){\r\n          two[i] = 0;\r\n        }if(i< 38){\r\n          single[i] = 0;\r\n        }\r\n      }\r\n    }\r\n\r\n\r\n}\r\n}\r\n",
  "sourcePath": "C:\\Users\\jerem\\chainjeremy\\casino\\blockchaincasino\\contracts\\Blockchaincasino.sol",
  "compiler": {
    "name": "solc",
    "version": "0.4.23+commit.124ca40d.Emscripten.clang"
  },
  "schemaVersion": "2.0.0",
  "updatedAt": "2021-04-22T19:36:03.643Z"
}