{
  "contractName": "Blockchaincasino",
  "abi": [
    {
      "constant": false,
      "inputs": [
        {
          "name": "winnings",
          "type": "uint256"
        }
      ],
      "name": "withdraw",
      "outputs": [],
      "payable": false,
      "stateMutability": "nonpayable",
      "type": "function"
    },
    {
      "constant": true,
      "inputs": [],
      "name": "chips",
      "outputs": [
        {
          "name": "",
          "type": "uint256"
        }
      ],
      "payable": false,
      "stateMutability": "view",
      "type": "function"
    },
    {
      "constant": true,
      "inputs": [],
      "name": "betsplaced",
      "outputs": [
        {
          "name": "",
          "type": "uint256"
        }
      ],
      "payable": false,
      "stateMutability": "view",
      "type": "function"
    },
    {
      "constant": false,
      "inputs": [
        {
          "name": "amount",
          "type": "uint256"
        }
      ],
      "name": "Pay",
      "outputs": [],
      "payable": true,
      "stateMutability": "payable",
      "type": "function"
    },
    {
      "constant": false,
      "inputs": [
        {
          "name": "money",
          "type": "uint256"
        }
      ],
      "name": "AdjustChips",
      "outputs": [],
      "payable": false,
      "stateMutability": "nonpayable",
      "type": "function"
    },
    {
      "constant": false,
      "inputs": [],
      "name": "Test",
      "outputs": [
        {
          "name": "",
          "type": "uint256"
        }
      ],
      "payable": false,
      "stateMutability": "nonpayable",
      "type": "function"
    },
    {
      "constant": true,
      "inputs": [],
      "name": "Bankobj",
      "outputs": [
        {
          "name": "",
          "type": "address"
        }
      ],
      "payable": false,
      "stateMutability": "view",
      "type": "function"
    },
    {
      "constant": true,
      "inputs": [],
      "name": "winnings",
      "outputs": [
        {
          "name": "",
          "type": "uint256"
        }
      ],
      "payable": false,
      "stateMutability": "view",
      "type": "function"
    },
    {
      "constant": true,
      "inputs": [],
      "name": "tsting",
      "outputs": [
        {
          "name": "",
          "type": "uint256"
        }
      ],
      "payable": false,
      "stateMutability": "view",
      "type": "function"
    },
    {
      "constant": true,
      "inputs": [],
      "name": "getchips",
      "outputs": [
        {
          "name": "",
          "type": "uint256"
        }
      ],
      "payable": false,
      "stateMutability": "view",
      "type": "function"
    },
    {
      "inputs": [
        {
          "name": "bankaddress",
          "type": "address"
        }
      ],
      "payable": false,
      "stateMutability": "nonpayable",
      "type": "constructor"
    },
    {
      "anonymous": false,
      "inputs": [
        {
          "indexed": false,
          "name": "value",
          "type": "uint256"
        }
      ],
      "name": "ReRender",
      "type": "event"
    },
    {
      "constant": false,
      "inputs": [],
      "name": "ClearWinnings",
      "outputs": [],
      "payable": false,
      "stateMutability": "nonpayable",
      "type": "function"
    },
    {
      "constant": false,
      "inputs": [
        {
          "name": "_money",
          "type": "uint256"
        },
        {
          "name": "bet",
          "type": "string"
        },
        {
          "name": "number",
          "type": "uint256"
        }
      ],
      "name": "setbet",
      "outputs": [
        {
          "name": "",
          "type": "uint256"
        }
      ],
      "payable": false,
      "stateMutability": "nonpayable",
      "type": "function"
    },
    {
      "constant": false,
      "inputs": [
        {
          "name": "bet",
          "type": "string"
        },
        {
          "name": "number",
          "type": "uint256"
        }
      ],
      "name": "getbet",
      "outputs": [
        {
          "name": "",
          "type": "uint256"
        }
      ],
      "payable": false,
      "stateMutability": "nonpayable",
      "type": "function"
    },
    {
      "constant": false,
      "inputs": [
        {
          "name": "draw",
          "type": "uint256"
        }
      ],
      "name": "play",
      "outputs": [
        {
          "name": "",
          "type": "uint256"
        }
      ],
      "payable": false,
      "stateMutability": "nonpayable",
      "type": "function"
    }
  ],
  "bytecode": "0x60806040526000600155602060405190810160405280600060ff1681525060059060016200002f929190620003ac565b50602060405190810160405280600060ff16815250600790600162000056929190620003ac565b50602060405190810160405280600060ff1681525060099060016200007d929190620003ac565b50602060405190810160405280600060ff16815250600b906001620000a4929190620003f6565b50602060405190810160405280600060ff16815250600e906001620000cb929190620003f6565b50602060405190810160405280600060ff168152506011906001620000f292919062000440565b50602060405190810160405280600060ff16815250601c906001620001199291906200048a565b50602060405190810160405280600060ff16815250603290600162000140929190620004d4565b50602060405190810160405280600060ff16815250603e906001620001679291906200051e565b50602060405190810160405280600060ff1681525060769060016200018e92919062000568565b5061024060405190810160405280600160ff168152602001600360ff168152602001600560ff168152602001600760ff168152602001600960ff168152602001600c60ff168152602001600e60ff168152602001601060ff168152602001601260ff168152602001601360ff168152602001601560ff168152602001601760ff168152602001601960ff168152602001601b60ff168152602001601e60ff168152602001602060ff168152602001602260ff168152602001602460ff16815250609c90601262000260929190620005b2565b5061024060405190810160405280600260ff168152602001600460ff168152602001600660ff168152602001600860ff168152602001600a60ff168152602001600b60ff168152602001600d60ff168152602001600f60ff168152602001601160ff168152602001601460ff168152602001601660ff168152602001601860ff168152602001601a60ff168152602001601c60ff168152602001601d60ff168152602001601f60ff168152602001602160ff168152602001602360ff1681525060ae90601262000332929190620005b2565b503480156200034057600080fd5b506040516020806200376e833981018060405281019080805190602001909291905050508060c060006101000a81548173ffffffffffffffffffffffffffffffffffffffff021916908373ffffffffffffffffffffffffffffffffffffffff1602179055505062000624565b8260028101928215620003e3579160200282015b82811115620003e2578251829060ff16905591602001919060010190620003c0565b5b509050620003f29190620005fc565b5090565b82600381019282156200042d579160200282015b828111156200042c578251829060ff169055916020019190600101906200040a565b5b5090506200043c9190620005fc565b5090565b82600b810192821562000477579160200282015b8281111562000476578251829060ff1690559160200191906001019062000454565b5b509050620004869190620005fc565b5090565b8260168101928215620004c1579160200282015b82811115620004c0578251829060ff169055916020019190600101906200049e565b5b509050620004d09190620005fc565b5090565b82600c81019282156200050b579160200282015b828111156200050a578251829060ff16905591602001919060010190620004e8565b5b5090506200051a9190620005fc565b5090565b826038810192821562000555579160200282015b8281111562000554578251829060ff1690559160200191906001019062000532565b5b509050620005649190620005fc565b5090565b82602681019282156200059f579160200282015b828111156200059e578251829060ff169055916020019190600101906200057c565b5b509050620005ae9190620005fc565b5090565b8260128101928215620005e9579160200282015b82811115620005e8578251829060ff16905591602001919060010190620005c6565b5b509050620005f89190620005fc565b5090565b6200062191905b808211156200061d57600081600090555060010162000603565b5090565b90565b61313a80620006346000396000f3006080604052600436106100d0576000357c0100000000000000000000000000000000000000000000000000000000900463ffffffff16806322ae8b6d146100d55780632e1a7d4d1461015c5780634396a976146101895780634c6c46df146101b457806353661d38146101cb5780636898f82b146101f6578063781a2cca146102375780638ffbf10014610257578063a163a62414610284578063b42fd847146102af578063c1058b0d14610306578063d134474c14610397578063de453690146103c2578063e5e9f096146103ed575b600080fd5b3480156100e157600080fd5b50610146600480360381019080803590602001908201803590602001908080601f016020809104026020016040519081016040528093929190818152602001838380828437820191505050505050919291929080359060200190929190505050610418565b6040518082815260200191505060405180910390f35b34801561016857600080fd5b5061018760048036038101908080359060200190929190505050610eb7565b005b34801561019557600080fd5b5061019e610f5f565b6040518082815260200191505060405180910390f35b3480156101c057600080fd5b506101c9610f65565b005b3480156101d757600080fd5b506101e0610fa7565b6040518082815260200191505060405180910390f35b34801561020257600080fd5b5061022160048036038101908080359060200190929190505050610fad565b6040518082815260200191505060405180910390f35b61025560048036038101908080359060200190929190505050611c16565b005b34801561026357600080fd5b5061028260048036038101908080359060200190929190505050611c60565b005b34801561029057600080fd5b50610299611ca5565b6040518082815260200191505060405180910390f35b3480156102bb57600080fd5b506102c4611cae565b604051808273ffffffffffffffffffffffffffffffffffffffff1673ffffffffffffffffffffffffffffffffffffffff16815260200191505060405180910390f35b34801561031257600080fd5b5061038160048036038101908080359060200190929190803590602001908201803590602001908080601f016020809104026020016040519081016040528093929190818152602001838380828437820191505050505050919291929080359060200190929190505050611cd4565b6040518082815260200191505060405180910390f35b3480156103a357600080fd5b506103ac6130f9565b6040518082815260200191505060405180910390f35b3480156103ce57600080fd5b506103d76130ff565b6040518082815260200191505060405180910390f35b3480156103f957600080fd5b50610402613105565b6040518082815260200191505060405180910390f35b60007fafc95d1f039c281835f22bd8b6130230b62953de60e8c4126096832f79b4d03960016040518082815260200191505060405180910390a160405180807f72656400000000000000000000000000000000000000000000000000000000008152506003019050604051809103902060001916836040518082805190602001908083835b6020831015156104c2578051825260208201915060208101905060208303925061049d565b6001836020036101000a03801982511681845116808217855250505050505090500191505060405180910390206000191614156105155760026005600060028110151561050b57fe5b0154029050610eb1565b60405180807f626c61636b0000000000000000000000000000000000000000000000000000008152506005019050604051809103902060001916836040518082805190602001908083835b6020831015156105855780518252602082019150602081019050602083039250610560565b6001836020036101000a03801982511681845116808217855250505050505090500191505060405180910390206000191614156105d8576002600560016002811015156105ce57fe5b0154029050610eb1565b60405180807f6576656e000000000000000000000000000000000000000000000000000000008152506004019050604051809103902060001916836040518082805190602001908083835b6020831015156106485780518252602082019150602081019050602083039250610623565b6001836020036101000a038019825116818451168082178552505050505050905001915050604051809103902060001916141561069b5760026007600060028110151561069157fe5b0154029050610eb1565b60405180807f6f646400000000000000000000000000000000000000000000000000000000008152506003019050604051809103902060001916836040518082805190602001908083835b60208310151561070b57805182526020820191506020810190506020830392506106e6565b6001836020036101000a038019825116818451168082178552505050505050905001915050604051809103902060001916141561075e5760026007600160028110151561075457fe5b0154029050610eb1565b60405180807f6c6f7700000000000000000000000000000000000000000000000000000000008152506003019050604051809103902060001916836040518082805190602001908083835b6020831015156107ce57805182526020820191506020810190506020830392506107a9565b6001836020036101000a03801982511681845116808217855250505050505090500191505060405180910390206000191614156108215760026009600060028110151561081757fe5b0154029050610eb1565b60405180807f68696768000000000000000000000000000000000000000000000000000000008152506004019050604051809103902060001916836040518082805190602001908083835b602083101515610891578051825260208201915060208101905060208303925061086c565b6001836020036101000a03801982511681845116808217855250505050505090500191505060405180910390206000191614156108e4576002600960016002811015156108da57fe5b0154029050610eb1565b60405180807f646f7a656e7300000000000000000000000000000000000000000000000000008152506006019050604051809103902060001916836040518082805190602001908083835b602083101515610954578051825260208201915060208101905060208303925061092f565b6001836020036101000a03801982511681845116808217855250505050505090500191505060405180910390206000191614156109b857600b8260038110151561099a57fe5b01546002600b846003811015156109ad57fe5b015402019050610eb1565b60405180807f636f6c756d6e73000000000000000000000000000000000000000000000000008152506007019050604051809103902060001916836040518082805190602001908083835b602083101515610a285780518252602082019150602081019050602083039250610a03565b6001836020036101000a0380198251168184511680821785525050505050509050019150506040518091039020600019161415610a8c57600e82600381101515610a6e57fe5b01546002600e84600381101515610a8157fe5b015402019050610eb1565b60405180807f7369786e756d00000000000000000000000000000000000000000000000000008152506006019050604051809103902060001916836040518082805190602001908083835b602083101515610afc5780518252602082019150602081019050602083039250610ad7565b6001836020036101000a0380198251168184511680821785525050505050509050019150506040518091039020600019161415610b6057601182600b81101515610b4257fe5b01546005601184600b81101515610b5557fe5b015402019050610eb1565b60405180807f666f75726e756d000000000000000000000000000000000000000000000000008152506007019050604051809103902060001916836040518082805190602001908083835b602083101515610bd05780518252602082019150602081019050602083039250610bab565b6001836020036101000a0380198251168184511680821785525050505050509050019150506040518091039020600019161415610c3457601c82601681101515610c1657fe5b01546008601c84601681101515610c2957fe5b015402019050610eb1565b60405180807f74687265656e756d7300000000000000000000000000000000000000000000008152506009019050604051809103902060001916836040518082805190602001908083835b602083101515610ca45780518252602082019150602081019050602083039250610c7f565b6001836020036101000a0380198251168184511680821785525050505050509050019150506040518091039020600019161415610d0857603282600c81101515610cea57fe5b0154600b603284600c81101515610cfd57fe5b015402019050610eb1565b60405180807f74776f6e756d73000000000000000000000000000000000000000000000000008152506007019050604051809103902060001916836040518082805190602001908083835b602083101515610d785780518252602082019150602081019050602083039250610d53565b6001836020036101000a0380198251168184511680821785525050505050509050019150506040518091039020600019161415610ddc57603e82603881101515610dbe57fe5b01546011603e84603881101515610dd157fe5b015402019050610eb1565b60405180807f73696e676c6500000000000000000000000000000000000000000000000000008152506006019050604051809103902060001916836040518082805190602001908083835b602083101515610e4c5780518252602082019150602081019050602083039250610e27565b6001836020036101000a0380198251168184511680821785525050505050509050019150506040518091039020600019161415610eb057607682602681101515610e9257fe5b01546023607684602681101515610ea557fe5b015402019050610eb1565b5b92915050565b3073ffffffffffffffffffffffffffffffffffffffff16318111151515610edd57600080fd5b3373ffffffffffffffffffffffffffffffffffffffff166108fc829081150290604051600060405180830381858888f19350505050158015610f23573d6000803e3d6000fd5b507fafc95d1f039c281835f22bd8b6130230b62953de60e8c4126096832f79b4d03960016040518082815260200191505060405180910390a150565b60005481565b60006002819055507fafc95d1f039c281835f22bd8b6130230b62953de60e8c4126096832f79b4d03960016040518082815260200191505060405180910390a1565b60035481565b60008060038190555060008214158015610fc8575060258214155b15611a1c5760006004819055505b601260045410156110d457609c600454601281101515610ff257fe5b015482141561104f5761103b6040805190810160405280600381526020017f72656400000000000000000000000000000000000000000000000000000000008152506000610418565b6002600082825401925050819055506110d4565b60ae60045460128110151561106057fe5b01548214156110bd576110a96040805190810160405280600581526020017f626c61636b0000000000000000000000000000000000000000000000000000008152506000610418565b6002600082825401925050819055506110d4565b600460008154809291906001019190505550610fd6565b60006002838115156110e257fe5b06141561113d576111296040805190810160405280600481526020017f6576656e000000000000000000000000000000000000000000000000000000008152506000610418565b60026000828254019250508190555061118d565b61117d6040805190810160405280600381526020017f6f646400000000000000000000000000000000000000000000000000000000008152506001610418565b6002600082825401925050819055505b60128211156111ea576111d66040805190810160405280600481526020017f68696768000000000000000000000000000000000000000000000000000000008152506001610418565b60026000828254019250508190555061123a565b61122a6040805190810160405280600381526020017f6c6f7700000000000000000000000000000000000000000000000000000000008152506000610418565b6002600082825401925050819055505b6001821015801561124c5750600c8211155b156112a5576112916040805190810160405280600681526020017f646f7a656e7300000000000000000000000000000000000000000000000000008152506000610418565b60026000828254019250508190555061136b565b600d82101580156112b7575060188211155b15611310576112fc6040805190810160405280600681526020017f646f7a656e7300000000000000000000000000000000000000000000000000008152506001610418565b60026000828254019250508190555061136a565b6019821115611369576113596040805190810160405280600681526020017f646f7a656e7300000000000000000000000000000000000000000000000000008152506002610418565b6002600082825401925050819055505b5b5b600060038381151561137957fe5b0614156113d4576113c06040805190810160405280600781526020017f636f6c756d6e73000000000000000000000000000000000000000000000000008152506000610418565b6002600082825401925050819055506114aa565b60006003600184018115156113e557fe5b0614156114405761142c6040805190810160405280600781526020017f636f6c756d6e73000000000000000000000000000000000000000000000000008152506001610418565b6002600082825401925050819055506114a9565b600060036002840181151561145157fe5b0614156114a8576114986040805190810160405280600781526020017f636f6c756d6e73000000000000000000000000000000000000000000000000008152506002610418565b6002600082825401925050819055505b5b5b60016004819055505b601f60045411151561156e576004548214806114d3575060016004540182145b806114e2575060036004540182145b806114f05750600480540182145b15611558576115486040805190810160405280600781526020017f666f75726e756d000000000000000000000000000000000000000000000000008152506001600360026004540181151561154157fe5b0403610418565b6002600082825401925050819055505b60036004600082825401925050819055506114b3565b60026004819055505b602060045411151561163257600454821480611597575060016004540182145b806115a6575060036004540182145b806115b45750600480540182145b1561161c5761160c6040805190810160405280600781526020017f666f75726e756d00000000000000000000000000000000000000000000000000815250600a600360016004540181151561160557fe5b0401610418565b6002600082825401925050819055505b6003600460008282540192505081905550611577565b60016004819055505b602260045410156116db57600454821015801561165d57506002600454018211155b156116c5576116b56040805190810160405280600981526020017f74687265656e756d730000000000000000000000000000000000000000000000815250600160036002600454018115156116ae57fe5b0403610418565b6002600082825401925050819055505b600360046000828254019250508190555061163b565b60016004819055505b602260045411151561178257600454821480611704575060016004540182145b1561176c5761175c6040805190810160405280600781526020017f74776f6e756d73000000000000000000000000000000000000000000000000008152506001600360026004540181151561175557fe5b0403610418565b6002600082825401925050819055505b60036004600082825401925050819055506116e4565b60026004819055505b6023600454111515611829576004548214806117ab575060016004540182145b15611813576118036040805190810160405280600781526020017f74776f6e756d7300000000000000000000000000000000000000000000000000815250600b60036001600454018115156117fc57fe5b0401610418565b6002600082825401925050819055505b600360046000828254019250508190555061178b565b60016004819055505b601f6004541115156118d057600454821480611852575060036004540182145b156118ba576118aa6040805190810160405280600781526020017f74776f6e756d7300000000000000000000000000000000000000000000000000815250601760036002600454018115156118a357fe5b0401610418565b6002600082825401925050819055505b6003600460008282540192505081905550611832565b60026004819055505b6020600454111515611977576004548214806118f9575060036004540182145b15611961576119516040805190810160405280600781526020017f74776f6e756d73000000000000000000000000000000000000000000000000008152506022600360016004540181151561194a57fe5b0401610418565b6002600082825401925050819055505b60036004600082825401925050819055506118d9565b60036004819055505b6021600454111515611a1b576004548214806119a0575060036004540182145b15611a05576119f56040805190810160405280600781526020017f74776f6e756d7300000000000000000000000000000000000000000000000000815250602d60036004548115156119ee57fe5b0401610418565b6002600082825401925050819055505b6003600460008282540192505081905550611980565b5b611a5b6040805190810160405280600681526020017f73696e676c65000000000000000000000000000000000000000000000000000081525083610418565b60026000828254019250508190555060006004819055505b60386004541015611bd95760026004541015611ad25760006005600454600281101515611a9c57fe5b018190555060006007600454600281101515611ab457fe5b018190555060006009600454600281101515611acc57fe5b01819055505b60036004541015611b0e576000600b600454600381101515611af057fe5b01819055506000600e600454600381101515611b0857fe5b01819055505b600b6004541015611b325760006011600454600b81101515611b2c57fe5b01819055505b60166004541015611b56576000601c600454601681101515611b5057fe5b01819055505b600c6004541015611b7a5760006032600454600c81101515611b7457fe5b01819055505b60386004541015611b9e576000603e600454603881101515611b9857fe5b01819055505b60266004541015611bc25760006076600454602681101515611bbc57fe5b01819055505b600460008154809291906001019190505550611a73565b7fafc95d1f039c281835f22bd8b6130230b62953de60e8c4126096832f79b4d03960016040518082815260200191505060405180910390a1919050565b7fafc95d1f039c281835f22bd8b6130230b62953de60e8c4126096832f79b4d03960036040518082815260200191505060405180910390a180600080828254019250508190555050565b80600054036000819055507fafc95d1f039c281835f22bd8b6130230b62953de60e8c4126096832f79b4d039816040518082815260200191505060405180910390a150565b60008054905090565b60c060009054906101000a900473ffffffffffffffffffffffffffffffffffffffff1681565b60007fafc95d1f039c281835f22bd8b6130230b62953de60e8c4126096832f79b4d03960036040518082815260200191505060405180910390a160405180807f72656400000000000000000000000000000000000000000000000000000000008152506003019050604051809103902060001916836040518082805190602001908083835b602083101515611d7e5780518252602082019150602081019050602083039250611d59565b6001836020036101000a0380198251168184511680821785525050505050509050019150506040518091039020600019161415611e92578360056000600281101515611dc657fe5b016000828254019250508190555060c060009054906101000a900473ffffffffffffffffffffffffffffffffffffffff1673ffffffffffffffffffffffffffffffffffffffff16638ffbf100856040518263ffffffff167c010000000000000000000000000000000000000000000000000000000002815260040180828152602001915050600060405180830381600087803b158015611e6557600080fd5b505af1158015611e79573d6000803e3d6000fd5b50505050836003600082825401925050819055506130ba565b60405180807f626c61636b0000000000000000000000000000000000000000000000000000008152506005019050604051809103902060001916836040518082805190602001908083835b602083101515611f025780518252602082019150602081019050602083039250611edd565b6001836020036101000a0380198251168184511680821785525050505050509050019150506040518091039020600019161415612016578360056001600281101515611f4a57fe5b016000828254019250508190555060c060009054906101000a900473ffffffffffffffffffffffffffffffffffffffff1673ffffffffffffffffffffffffffffffffffffffff16638ffbf100856040518263ffffffff167c010000000000000000000000000000000000000000000000000000000002815260040180828152602001915050600060405180830381600087803b158015611fe957600080fd5b505af1158015611ffd573d6000803e3d6000fd5b50505050836003600082825401925050819055506130b9565b60405180807f6576656e000000000000000000000000000000000000000000000000000000008152506004019050604051809103902060001916836040518082805190602001908083835b6020831015156120865780518252602082019150602081019050602083039250612061565b6001836020036101000a038019825116818451168082178552505050505050905001915050604051809103902060001916141561219a5783600760006002811015156120ce57fe5b016000828254019250508190555060c060009054906101000a900473ffffffffffffffffffffffffffffffffffffffff1673ffffffffffffffffffffffffffffffffffffffff16638ffbf100856040518263ffffffff167c010000000000000000000000000000000000000000000000000000000002815260040180828152602001915050600060405180830381600087803b15801561216d57600080fd5b505af1158015612181573d6000803e3d6000fd5b50505050836003600082825401925050819055506130b8565b60405180807f6f646400000000000000000000000000000000000000000000000000000000008152506003019050604051809103902060001916836040518082805190602001908083835b60208310151561220a57805182526020820191506020810190506020830392506121e5565b6001836020036101000a038019825116818451168082178552505050505050905001915050604051809103902060001916141561231e57836007600160028110151561225257fe5b016000828254019250508190555060c060009054906101000a900473ffffffffffffffffffffffffffffffffffffffff1673ffffffffffffffffffffffffffffffffffffffff16638ffbf100856040518263ffffffff167c010000000000000000000000000000000000000000000000000000000002815260040180828152602001915050600060405180830381600087803b1580156122f157600080fd5b505af1158015612305573d6000803e3d6000fd5b50505050836003600082825401925050819055506130b7565b60405180807f6c6f7700000000000000000000000000000000000000000000000000000000008152506003019050604051809103902060001916836040518082805190602001908083835b60208310151561238e5780518252602082019150602081019050602083039250612369565b6001836020036101000a03801982511681845116808217855250505050505090500191505060405180910390206000191614156124a25783600960006002811015156123d657fe5b016000828254019250508190555060c060009054906101000a900473ffffffffffffffffffffffffffffffffffffffff1673ffffffffffffffffffffffffffffffffffffffff16638ffbf100856040518263ffffffff167c010000000000000000000000000000000000000000000000000000000002815260040180828152602001915050600060405180830381600087803b15801561247557600080fd5b505af1158015612489573d6000803e3d6000fd5b50505050836003600082825401925050819055506130b6565b60405180807f68696768000000000000000000000000000000000000000000000000000000008152506004019050604051809103902060001916836040518082805190602001908083835b60208310151561251257805182526020820191506020810190506020830392506124ed565b6001836020036101000a038019825116818451168082178552505050505050905001915050604051809103902060001916141561261d57836009600160028110151561255a57fe5b018190555060c060009054906101000a900473ffffffffffffffffffffffffffffffffffffffff1673ffffffffffffffffffffffffffffffffffffffff16638ffbf100856040518263ffffffff167c010000000000000000000000000000000000000000000000000000000002815260040180828152602001915050600060405180830381600087803b1580156125f057600080fd5b505af1158015612604573d6000803e3d6000fd5b50505050836003600082825401925050819055506130b5565b60405180807f646f7a656e7300000000000000000000000000000000000000000000000000008152506006019050604051809103902060001916836040518082805190602001908083835b60208310151561268d5780518252602082019150602081019050602083039250612668565b6001836020036101000a03801982511681845116808217855250505050505090500191505060405180910390206000191614156127a05783600b836003811015156126d457fe5b016000828254019250508190555060c060009054906101000a900473ffffffffffffffffffffffffffffffffffffffff1673ffffffffffffffffffffffffffffffffffffffff16638ffbf100856040518263ffffffff167c010000000000000000000000000000000000000000000000000000000002815260040180828152602001915050600060405180830381600087803b15801561277357600080fd5b505af1158015612787573d6000803e3d6000fd5b50505050836003600082825401925050819055506130b4565b60405180807f636f6c756d6e73000000000000000000000000000000000000000000000000008152506007019050604051809103902060001916836040518082805190602001908083835b60208310151561281057805182526020820191506020810190506020830392506127eb565b6001836020036101000a03801982511681845116808217855250505050505090500191505060405180910390206000191614156129235783600e8360038110151561285757fe5b016000828254019250508190555060c060009054906101000a900473ffffffffffffffffffffffffffffffffffffffff1673ffffffffffffffffffffffffffffffffffffffff16638ffbf100856040518263ffffffff167c010000000000000000000000000000000000000000000000000000000002815260040180828152602001915050600060405180830381600087803b1580156128f657600080fd5b505af115801561290a573d6000803e3d6000fd5b50505050836003600082825401925050819055506130b3565b60405180807f7369786e756d00000000000000000000000000000000000000000000000000008152506006019050604051809103902060001916836040518082805190602001908083835b602083101515612993578051825260208201915060208101905060208303925061296e565b6001836020036101000a0380198251168184511680821785525050505050509050019150506040518091039020600019161415612aa65783601183600b811015156129da57fe5b016000828254019250508190555060c060009054906101000a900473ffffffffffffffffffffffffffffffffffffffff1673ffffffffffffffffffffffffffffffffffffffff16638ffbf100856040518263ffffffff167c010000000000000000000000000000000000000000000000000000000002815260040180828152602001915050600060405180830381600087803b158015612a7957600080fd5b505af1158015612a8d573d6000803e3d6000fd5b50505050836003600082825401925050819055506130b2565b60405180807f666f75726e756d000000000000000000000000000000000000000000000000008152506007019050604051809103902060001916836040518082805190602001908083835b602083101515612b165780518252602082019150602081019050602083039250612af1565b6001836020036101000a0380198251168184511680821785525050505050509050019150506040518091039020600019161415612c295783601c83601681101515612b5d57fe5b016000828254019250508190555060c060009054906101000a900473ffffffffffffffffffffffffffffffffffffffff1673ffffffffffffffffffffffffffffffffffffffff16638ffbf100856040518263ffffffff167c010000000000000000000000000000000000000000000000000000000002815260040180828152602001915050600060405180830381600087803b158015612bfc57600080fd5b505af1158015612c10573d6000803e3d6000fd5b50505050836003600082825401925050819055506130b1565b60405180807f74687265656e756d7300000000000000000000000000000000000000000000008152506009019050604051809103902060001916836040518082805190602001908083835b602083101515612c995780518252602082019150602081019050602083039250612c74565b6001836020036101000a0380198251168184511680821785525050505050509050019150506040518091039020600019161415612dac5783603283600c81101515612ce057fe5b016000828254019250508190555060c060009054906101000a900473ffffffffffffffffffffffffffffffffffffffff1673ffffffffffffffffffffffffffffffffffffffff16638ffbf100856040518263ffffffff167c010000000000000000000000000000000000000000000000000000000002815260040180828152602001915050600060405180830381600087803b158015612d7f57600080fd5b505af1158015612d93573d6000803e3d6000fd5b50505050836003600082825401925050819055506130b0565b60405180807f74776f6e756d73000000000000000000000000000000000000000000000000008152506007019050604051809103902060001916836040518082805190602001908083835b602083101515612e1c5780518252602082019150602081019050602083039250612df7565b6001836020036101000a0380198251168184511680821785525050505050509050019150506040518091039020600019161415612f2f5783603e83603881101515612e6357fe5b016000828254019250508190555060c060009054906101000a900473ffffffffffffffffffffffffffffffffffffffff1673ffffffffffffffffffffffffffffffffffffffff16638ffbf100856040518263ffffffff167c010000000000000000000000000000000000000000000000000000000002815260040180828152602001915050600060405180830381600087803b158015612f0257600080fd5b505af1158015612f16573d6000803e3d6000fd5b50505050836003600082825401925050819055506130af565b60405180807f73696e676c6500000000000000000000000000000000000000000000000000008152506006019050604051809103902060001916836040518082805190602001908083835b602083101515612f9f5780518252602082019150602081019050602083039250612f7a565b6001836020036101000a03801982511681845116808217855250505050505090500191505060405180910390206000191614156130ae5783607683602681101515612fe657fe5b016000828254019250508190555060c060009054906101000a900473ffffffffffffffffffffffffffffffffffffffff1673ffffffffffffffffffffffffffffffffffffffff16638ffbf100856040518263ffffffff167c010000000000000000000000000000000000000000000000000000000002815260040180828152602001915050600060405180830381600087803b15801561308557600080fd5b505af1158015613099573d6000803e3d6000fd5b50505050836003600082825401925050819055505b5b5b5b5b5b5b5b5b5b5b5b5b7fafc95d1f039c281835f22bd8b6130230b62953de60e8c4126096832f79b4d03960016040518082815260200191505060405180910390a19392505050565b60025481565b60015481565b600080549050905600a165627a7a7230582073632ef4f820e8a9dcaf6797293a892475e67f124b38195a443823822596775b0029",
  "source": "pragma solidity ^0.4.23;\r\n\r\nimport \"./Bank.sol\";\r\ncontract Blockchaincasino is Bank\r\n{\r\n//uint public chips = 10;\r\nuint public winnings;\r\nuint public betsplaced;\r\n//uint HouseWinningsInEther;\r\nuint i;\r\nuint[2] redblack = [0];\r\nuint[2] evenodd = [0];\r\nuint[2] lowhigh = [0];\r\nuint[3] dozens = [0];\r\nuint[3] columns = [0];\r\nuint[11] six = [0];\r\nuint[22] four = [0];\r\nuint[12] three = [0];\r\nuint[56] two = [0];\r\nuint[38] single = [0];\r\n//bets position\r\n//[Red,Black,even, odd, low ,high, dozens, columns, sixnum,\r\n//fournum,threenums, twonums, straight\r\nuint[18] red = [1, 3, 5, 7, 9, 12, 14, 16, 18, 19, 21, 23, 25, 27, 30, 32, 34, 36];\r\nuint[18] black = [2, 4, 6, 8, 10, 11, 13, 15, 17, 20, 22, 24, 26, 28, 29, 31, 33, 35];\r\n\r\n\r\nBank public Bankobj;\r\nevent ReRender(uint value);\r\n\r\nconstructor(address bankaddress) public{\r\n\r\n  Bankobj = Bank(bankaddress);\r\n}\r\n/*\r\nfunction getChips() public returns(uint){\r\n\r\n  // emit ReRender(1);\r\n  return chips;\r\n}\r\n/*function MoreChips(uint amount) public{\r\n\r\n  // emit ReRender(1);\r\n  chips += amount;\r\n}\r\n*/\r\nfunction ClearWinnings() public {\r\nwinnings = 0;\r\nemit ReRender(1);\r\n}\r\n/*\r\nfunction Payout(uint wins) external{\r\n  require( HouseWinningsInEther >= wins);\r\n  HouseWinningsInEther -= wins;\r\n  msg.sender.transfer(wins);\r\n  winnings = 0;\r\n  // emit ReRender(1);\r\n}\r\n*//*\r\nfunction getChips() public view returns (uint)\r\n{\r\n    return Bankobj.getchips();\r\n}\r\n*/\r\n  function setbet(uint _money, string bet, uint number) public returns (uint)\r\n  {\r\n\r\n     emit ReRender(3);\r\n\r\n        if((keccak256(bet) == keccak256(\"red\")))\r\n        {\r\n\r\n          redblack[0] += _money;\r\n          Bankobj.AdjustChips(_money);\r\n          betsplaced += _money;\r\n        }else if( (keccak256(bet) == keccak256(\"black\")))\r\n        {\r\n          redblack[1] += _money;\r\n          Bankobj.AdjustChips(_money);\r\n          betsplaced += _money;\r\n        }else if((keccak256(bet) == keccak256(\"even\")))\r\n        {\r\n            evenodd[0] += _money;\r\n          Bankobj.AdjustChips(_money);\r\n            betsplaced += _money;\r\n        }else if((keccak256(bet) == keccak256(\"odd\"))){\r\n          evenodd[1] += _money;\r\n          Bankobj.AdjustChips(_money);\r\n          betsplaced += _money;\r\n        }else if((keccak256(bet) == keccak256(\"low\")))\r\n        {\r\n            lowhigh[0] += _money;\r\n            Bankobj.AdjustChips(_money);\r\n            betsplaced += _money;\r\n        }else if((keccak256(bet) == keccak256(\"high\")))\r\n        {\r\n          lowhigh[1] = _money;\r\n          Bankobj.AdjustChips(_money);\r\n          betsplaced += _money;\r\n        }else if((keccak256(bet) == keccak256(\"dozens\")))\r\n        {\r\n          dozens[number] += _money;\r\n          Bankobj.AdjustChips(_money);\r\n          betsplaced += _money;\r\n        }else if((keccak256(bet) == keccak256(\"columns\")))\r\n        {\r\n            columns[number] += _money;\r\n          Bankobj.AdjustChips(_money);\r\n            betsplaced += _money;\r\n        }else if((keccak256(bet) == keccak256(\"sixnum\")))\r\n        {\r\n            six[number] += _money;\r\n          Bankobj.AdjustChips(_money);\r\n            betsplaced += _money;\r\n        }\r\n        else if((keccak256(bet) == keccak256(\"fournum\")))\r\n        {\r\n            four[number] += _money;\r\n          Bankobj.AdjustChips(_money);\r\n            betsplaced += _money;\r\n        }else if((keccak256(bet) == keccak256(\"threenums\")))\r\n        {\r\n            three[number] += _money;\r\n          Bankobj.AdjustChips(_money);\r\n            betsplaced += _money;\r\n        }else if((keccak256(bet) == keccak256(\"twonums\")))\r\n        {\r\n            two[number] += _money;\r\n          Bankobj.AdjustChips(_money);\r\n            betsplaced += _money;\r\n        }else if((keccak256(bet) == keccak256(\"single\")))\r\n        {\r\n            single[number] += _money;\r\n          Bankobj.AdjustChips(_money);\r\n            betsplaced += _money;\r\n        }\r\n        emit ReRender(1);\r\n\r\n  }\r\n  function getbet(string bet, uint number) public returns (uint)\r\n  {\r\n    emit ReRender(1);\r\n\r\n\r\n    if((keccak256(bet) == keccak256(\"red\")))\r\n    {\r\n    return redblack[0] * 2 ;\r\n    }else if( (keccak256(bet) == keccak256(\"black\")))\r\n    {\r\n    return redblack[1] * 2;\r\n    }else if((keccak256(bet) == keccak256(\"even\")))\r\n    {\r\n    return evenodd[0] * 2;\r\n    }else if((keccak256(bet) == keccak256(\"odd\")))\r\n    {\r\n    return evenodd[1] * 2;\r\n    }else if((keccak256(bet) == keccak256(\"low\")))\r\n    {\r\n    return lowhigh[0] * 2;\r\n    }else if((keccak256(bet) == keccak256(\"high\")))\r\n    {\r\n    return lowhigh[1] * 2;\r\n    }else if((keccak256(bet) == keccak256(\"dozens\")))\r\n    {\r\n    return ( (dozens[number] * 2) + dozens[number]);\r\n    }else if((keccak256(bet) == keccak256(\"columns\")))\r\n    {\r\n    return ( (columns[number] * 2) + columns[number]);\r\n    }else if((keccak256(bet) == keccak256(\"sixnum\")))\r\n    {\r\n    return ( (six[number] * 5) + six[number]);\r\n    }\r\n    else if((keccak256(bet) == keccak256(\"fournum\")))\r\n    {\r\n    return ( (four[number] * 8) + four[number]);\r\n    }else if((keccak256(bet) == keccak256(\"threenums\")))\r\n    {\r\n    return ( (three[number] * 11) + three[number]);\r\n    }else if((keccak256(bet) == keccak256(\"twonums\")))\r\n    {\r\n    return ( (two[number] * 17) + two[number]);\r\n    }else if((keccak256(bet) == keccak256(\"single\")))\r\n    {\r\n    return ( (single[number] * 35) + single[number]);\r\n    }\r\n    }\r\n\r\n    function play(uint draw) public returns (uint)\r\n    {\r\n\r\n      betsplaced = 0;\r\n      if(draw != 0 && draw != 37){\r\n      //red or black\r\n      for(i = 0; i < 18; i++)\r\n      {\r\n        if(draw == red[i] ){\r\n          winnings += getbet(\"red\",0);\r\n          break;\r\n        }else if(draw == black[i]){\r\n          winnings+= getbet(\"black\",0);\r\n          break;\r\n      }\r\n    }\r\n      //even odds\r\n      if(draw%2 == 0){\r\n        winnings += getbet(\"even\", 0);\r\n      }else{\r\n        winnings += getbet(\"odd\",1);\r\n      }\r\n\r\n      //high low\r\n      if(draw > 18){\r\n        winnings+= getbet(\"high\",1);\r\n      }\r\n      else{\r\n        winnings+= getbet(\"low\",0);\r\n      }\r\n\r\n      //dozens\r\n      if(draw >= 1 && draw <= 12){\r\n        winnings+= getbet(\"dozens\",0);\r\n      }else if(draw >= 13 && draw <= 24){\r\n        winnings+= getbet(\"dozens\",1);\r\n      }else if(draw > 25){\r\n        winnings+= getbet(\"dozens\",2);\r\n      }\r\n\r\n      //columns\r\n      // if you place a bet on the third column\r\n      if( (draw % 3) == 0)\r\n      {\r\n        winnings+= getbet(\"columns\",0);\r\n      }//second column\r\n      else if( ((draw + 1)%3) == 0){\r\n        winnings += getbet(\"columns\",1);\r\n      }//first column\r\n      else if( ((draw +2)%3) == 0){\r\n        winnings += getbet(\"columns\", 2);\r\n      }\r\n\r\n\r\n\r\n      //fournum 1,2,5,4 ; 4,5,8,7\r\n      for(i = 1; i<=31; i+=3){\r\n        if( (draw == i) || (draw == (i+1)) || (draw == (i+3)) || (draw == (i+4)) )\r\n        {\r\n        winnings += getbet(\"fournum\", ((i+2)/3)-1);\r\n        }\r\n      }\r\n      //2,5,6,9; 5,8,9,6\r\n      for(i = 2; i<=32; i+=3){\r\n        if( (draw == i) || (draw == (i+1)) || (draw == (i+3)) || (draw == (i+4)))\r\n        {\r\n        winnings += getbet(\"fournum\", ((i+1)/3)+10);\r\n        }\r\n      }\r\n\r\n      // three numbers 1,2,3 ; 4,5,6\r\n      for(i = 1; i<34;i+=3){\r\n        if(draw >= i && draw <= i+2){\r\n          winnings += getbet(\"threenums\", ((i+2)/3)-1);\r\n        }\r\n      }\r\n\r\n\r\n      //two numbers for vertical betting on the first vertical lines ie 1,2;4,5;\r\n      for(i = 1; i<=34; i+=3){\r\n        if( (draw == i) || (draw == (i+1)) )\r\n        {\r\n            winnings += getbet(\"twonums\", ( ((i+2)/3) -1) );\r\n        }\r\n      }\r\n      //two numbers for vertical betting on the second vertical line 2,3; 5,6\r\n      for(i = 2; i<=35; i+=3){\r\n        if( (draw == i) || (draw == (i+1)) )\r\n        {\r\n            winnings += getbet(\"twonums\", (((i+1)/3) + 11) );\r\n        }\r\n      }\r\n      //two numbers for horizontal betting on the first column horizontal lines\r\n      // bets like 1,4; 7,10;\r\n\r\n      for(i = 1; i<=31; i+=3){\r\n        if ( (draw == i) || (draw ==(i+3)) )\r\n        {\r\n            winnings += getbet(\"twonums\", (((i+2)/3) + 23) );\r\n        }\r\n      }\r\n      //second horizontal line 2,5; 5,8\r\n      for(i = 2; i<=32; i+=3){\r\n        if( (draw == i) || (draw == (i+3)) )\r\n        {\r\n            winnings += getbet(\"twonums\", (((i+1)/3) + 34) );\r\n        }\r\n      }\r\n      //third horizontal line 3,6; 6,9\r\n      for(i = 3; i<=33; i+=3){\r\n        if( (draw == i) || (draw == (i+3)) )\r\n        {\r\n            winnings += getbet(\"twonums\", ( (i/3) + 45) );\r\n        }\r\n      }\r\n\r\n\r\n\r\n\r\n}\r\n      //single\r\n      //for drawing a 00\r\n        winnings += getbet(\"single\", draw);\r\n\r\n      for(i = 0; i <56; i++)\r\n      {\r\n        if(i<2){\r\n          redblack[i] = 0;\r\n          evenodd[i] = 0;\r\n          lowhigh[i] = 0;\r\n        }if(i<3){\r\n          dozens[i] = 0;\r\n          columns[i] = 0;\r\n        }if(i< 11){\r\n          six[i] = 0;\r\n        }if(i< 22){\r\n          four[i] = 0;\r\n        }if(i< 12){\r\n          three[i] = 0;\r\n        }if(i< 56){\r\n          two[i] = 0;\r\n        }if(i< 38){\r\n          single[i] = 0;\r\n        }\r\n      }\r\n      emit ReRender(1);\r\n\r\n    }\r\n\r\n\r\n}\r\n",
  "sourcePath": "C:\\Users\\jerem\\chainjeremy\\casino\\blockchaincasino\\contracts\\Blockchaincasino.sol",
  "compiler": {
    "name": "solc",
    "version": "0.4.23+commit.124ca40d.Emscripten.clang"
  },
  "schemaVersion": "2.0.0",
  "updatedAt": "2021-04-28T21:45:21.317Z"
}