{
  "contractName": "Blockchaincasino",
  "abi": [
    {
      "constant": true,
      "inputs": [],
      "name": "chips",
      "outputs": [
        {
          "name": "",
          "type": "uint256"
        }
      ],
      "payable": false,
      "stateMutability": "view",
      "type": "function"
    },
    {
      "constant": true,
      "inputs": [],
      "name": "winnings",
      "outputs": [
        {
          "name": "",
          "type": "uint256"
        }
      ],
      "payable": false,
      "stateMutability": "view",
      "type": "function"
    },
    {
      "payable": true,
      "stateMutability": "payable",
      "type": "fallback"
    },
    {
      "constant": false,
      "inputs": [],
      "name": "getChips",
      "outputs": [
        {
          "name": "",
          "type": "uint256"
        }
      ],
      "payable": false,
      "stateMutability": "nonpayable",
      "type": "function"
    },
    {
      "constant": false,
      "inputs": [
        {
          "name": "amount",
          "type": "uint256"
        }
      ],
      "name": "MoreChips",
      "outputs": [],
      "payable": true,
      "stateMutability": "payable",
      "type": "function"
    },
    {
      "constant": false,
      "inputs": [],
      "name": "ClearWinnings",
      "outputs": [],
      "payable": false,
      "stateMutability": "nonpayable",
      "type": "function"
    },
    {
      "constant": false,
      "inputs": [
        {
          "name": "_money",
          "type": "uint256"
        },
        {
          "name": "bet",
          "type": "string"
        },
        {
          "name": "number",
          "type": "uint256"
        }
      ],
      "name": "setbet",
      "outputs": [
        {
          "name": "",
          "type": "uint256"
        }
      ],
      "payable": false,
      "stateMutability": "nonpayable",
      "type": "function"
    },
    {
      "constant": true,
      "inputs": [
        {
          "name": "bet",
          "type": "string"
        },
        {
          "name": "number",
          "type": "uint256"
        }
      ],
      "name": "getbet",
      "outputs": [
        {
          "name": "",
          "type": "uint256"
        }
      ],
      "payable": false,
      "stateMutability": "view",
      "type": "function"
    },
    {
      "constant": true,
      "inputs": [
        {
          "name": "a",
          "type": "uint256"
        }
      ],
      "name": "test",
      "outputs": [
        {
          "name": "",
          "type": "uint256"
        }
      ],
      "payable": false,
      "stateMutability": "view",
      "type": "function"
    },
    {
      "constant": false,
      "inputs": [
        {
          "name": "draw",
          "type": "uint256"
        }
      ],
      "name": "play",
      "outputs": [
        {
          "name": "",
          "type": "uint256"
        }
      ],
      "payable": false,
      "stateMutability": "nonpayable",
      "type": "function"
    }
  ],
  "bytecode": "0x60806040526000600255602060405190810160405280600060ff1681525060049060016200002f92919062000347565b50602060405190810160405280600060ff1681525060069060016200005692919062000347565b50602060405190810160405280600060ff1681525060089060016200007d92919062000347565b50602060405190810160405280600060ff16815250600a906001620000a492919062000391565b50602060405190810160405280600060ff16815250600d906001620000cb92919062000391565b50602060405190810160405280600060ff168152506010906001620000f2929190620003db565b50602060405190810160405280600060ff16815250601b9060016200011992919062000425565b50602060405190810160405280600060ff168152506031906001620001409291906200046f565b50602060405190810160405280600060ff16815250603d90600162000167929190620004b9565b50602060405190810160405280600060ff1681525060759060016200018e92919062000503565b5061024060405190810160405280600160ff168152602001600360ff168152602001600560ff168152602001600760ff168152602001600960ff168152602001600c60ff168152602001600e60ff168152602001601060ff168152602001601260ff168152602001601360ff168152602001601560ff168152602001601760ff168152602001601960ff168152602001601b60ff168152602001601e60ff168152602001602060ff168152602001602260ff168152602001602460ff16815250609b906012620002609291906200054d565b5061024060405190810160405280600260ff168152602001600460ff168152602001600660ff168152602001600860ff168152602001600a60ff168152602001600b60ff168152602001600d60ff168152602001600f60ff168152602001601160ff168152602001601460ff168152602001601660ff168152602001601860ff168152602001601a60ff168152602001601c60ff168152602001601d60ff168152602001601f60ff168152602001602160ff168152602001602360ff1681525060ad906012620003329291906200054d565b503480156200034057600080fd5b50620005bf565b82600281019282156200037e579160200282015b828111156200037d578251829060ff169055916020019190600101906200035b565b5b5090506200038d919062000597565b5090565b8260038101928215620003c8579160200282015b82811115620003c7578251829060ff16905591602001919060010190620003a5565b5b509050620003d7919062000597565b5090565b82600b810192821562000412579160200282015b8281111562000411578251829060ff16905591602001919060010190620003ef565b5b50905062000421919062000597565b5090565b82601681019282156200045c579160200282015b828111156200045b578251829060ff1690559160200191906001019062000439565b5b5090506200046b919062000597565b5090565b82600c8101928215620004a6579160200282015b82811115620004a5578251829060ff1690559160200191906001019062000483565b5b509050620004b5919062000597565b5090565b8260388101928215620004f0579160200282015b82811115620004ef578251829060ff16905591602001919060010190620004cd565b5b509050620004ff919062000597565b5090565b82602681019282156200053a579160200282015b8281111562000539578251829060ff1690559160200191906001019062000517565b5b50905062000549919062000597565b5090565b826012810192821562000584579160200282015b8281111562000583578251829060ff1690559160200191906001019062000561565b5b50905062000593919062000597565b5090565b620005bc91905b80821115620005b85760008160009055506001016200059e565b5090565b90565b61294480620005cf6000396000f300608060405260043610610099576000357c0100000000000000000000000000000000000000000000000000000000900463ffffffff16806322ae8b6d1461009b57806329e99f071461012257806334452f91146101635780634396a976146101835780634c6c46df146101ae5780636898f82b146101c5578063c1058b0d14610206578063d134474c14610297578063e393cd2f146102c2575b005b3480156100a757600080fd5b5061010c600480360381019080803590602001908201803590602001908080601f0160208091040260200160405190810160405280939291908181526020018383808284378201915050505050509192919290803590602001909291905050506102ed565b6040518082815260200191505060405180910390f35b34801561012e57600080fd5b5061014d60048036038101908080359060200190929190505050610d54565b6040518082815260200191505060405180910390f35b61018160048036038101908080359060200190929190505050610d66565b005b34801561018f57600080fd5b50610198610d78565b6040518082815260200191505060405180910390f35b3480156101ba57600080fd5b506101c3610d7e565b005b3480156101d157600080fd5b506101f060048036038101908080359060200190929190505050610d88565b6040518082815260200191505060405180910390f35b34801561021257600080fd5b5061028160048036038101908080359060200190929190803590602001908201803590602001908080601f016020809104026020016040519081016040528093929190818152602001838380828437820191505050505050919291929080359060200190929190505050611e56565b6040518082815260200191505060405180910390f35b3480156102a357600080fd5b506102ac612909565b6040518082815260200191505060405180910390f35b3480156102ce57600080fd5b506102d761290f565b6040518082815260200191505060405180910390f35b600060405180807f72656400000000000000000000000000000000000000000000000000000000008152506003019050604051809103902060001916836040518082805190602001908083835b60208310151561035f578051825260208201915060208101905060208303925061033a565b6001836020036101000a03801982511681845116808217855250505050505090500191505060405180910390206000191614156103b2576002600460006002811015156103a857fe5b0154029050610d4e565b60405180807f626c61636b0000000000000000000000000000000000000000000000000000008152506005019050604051809103902060001916836040518082805190602001908083835b60208310151561042257805182526020820191506020810190506020830392506103fd565b6001836020036101000a03801982511681845116808217855250505050505090500191505060405180910390206000191614156104755760026004600160028110151561046b57fe5b0154029050610d4e565b60405180807f6576656e000000000000000000000000000000000000000000000000000000008152506004019050604051809103902060001916836040518082805190602001908083835b6020831015156104e557805182526020820191506020810190506020830392506104c0565b6001836020036101000a03801982511681845116808217855250505050505090500191505060405180910390206000191614156105385760026006600060028110151561052e57fe5b0154029050610d4e565b60405180807f6f646400000000000000000000000000000000000000000000000000000000008152506003019050604051809103902060001916836040518082805190602001908083835b6020831015156105a85780518252602082019150602081019050602083039250610583565b6001836020036101000a03801982511681845116808217855250505050505090500191505060405180910390206000191614156105fb576002600660016002811015156105f157fe5b0154029050610d4e565b60405180807f6c6f7700000000000000000000000000000000000000000000000000000000008152506003019050604051809103902060001916836040518082805190602001908083835b60208310151561066b5780518252602082019150602081019050602083039250610646565b6001836020036101000a03801982511681845116808217855250505050505090500191505060405180910390206000191614156106be576002600860006002811015156106b457fe5b0154029050610d4e565b60405180807f68696768000000000000000000000000000000000000000000000000000000008152506004019050604051809103902060001916836040518082805190602001908083835b60208310151561072e5780518252602082019150602081019050602083039250610709565b6001836020036101000a03801982511681845116808217855250505050505090500191505060405180910390206000191614156107815760026008600160028110151561077757fe5b0154029050610d4e565b60405180807f646f7a656e7300000000000000000000000000000000000000000000000000008152506006019050604051809103902060001916836040518082805190602001908083835b6020831015156107f157805182526020820191506020810190506020830392506107cc565b6001836020036101000a038019825116818451168082178552505050505050905001915050604051809103902060001916141561085557600a8260038110151561083757fe5b01546002600a8460038110151561084a57fe5b015402019050610d4e565b60405180807f636f6c756d6e73000000000000000000000000000000000000000000000000008152506007019050604051809103902060001916836040518082805190602001908083835b6020831015156108c557805182526020820191506020810190506020830392506108a0565b6001836020036101000a038019825116818451168082178552505050505050905001915050604051809103902060001916141561092957600d8260038110151561090b57fe5b01546002600d8460038110151561091e57fe5b015402019050610d4e565b60405180807f7369786e756d00000000000000000000000000000000000000000000000000008152506006019050604051809103902060001916836040518082805190602001908083835b6020831015156109995780518252602082019150602081019050602083039250610974565b6001836020036101000a03801982511681845116808217855250505050505090500191505060405180910390206000191614156109fd57601082600b811015156109df57fe5b01546005601084600b811015156109f257fe5b015402019050610d4e565b60405180807f666f75726e756d000000000000000000000000000000000000000000000000008152506007019050604051809103902060001916836040518082805190602001908083835b602083101515610a6d5780518252602082019150602081019050602083039250610a48565b6001836020036101000a0380198251168184511680821785525050505050509050019150506040518091039020600019161415610ad157601b82601681101515610ab357fe5b01546008601b84601681101515610ac657fe5b015402019050610d4e565b60405180807f74687265656e756d7300000000000000000000000000000000000000000000008152506009019050604051809103902060001916836040518082805190602001908083835b602083101515610b415780518252602082019150602081019050602083039250610b1c565b6001836020036101000a0380198251168184511680821785525050505050509050019150506040518091039020600019161415610ba557603182600c81101515610b8757fe5b0154600b603184600c81101515610b9a57fe5b015402019050610d4e565b60405180807f74776f6e756d73000000000000000000000000000000000000000000000000008152506007019050604051809103902060001916836040518082805190602001908083835b602083101515610c155780518252602082019150602081019050602083039250610bf0565b6001836020036101000a0380198251168184511680821785525050505050509050019150506040518091039020600019161415610c7957603d82603881101515610c5b57fe5b01546011603d84603881101515610c6e57fe5b015402019050610d4e565b60405180807f73696e676c6500000000000000000000000000000000000000000000000000008152506006019050604051809103902060001916836040518082805190602001908083835b602083101515610ce95780518252602082019150602081019050602083039250610cc4565b6001836020036101000a0380198251168184511680821785525050505050509050019150506040518091039020600019161415610d4d57607582602681101515610d2f57fe5b01546023607584602681101515610d4257fe5b015402019050610d4e565b5b92915050565b6000610d5f82610d88565b9050919050565b80600080828254019250508190555050565b60005481565b6000600181905550565b6000806003819055505b60126003541015610e9057609b600354601281101515610dae57fe5b0154821415610e0b57610df76040805190810160405280600381526020017f726564000000000000000000000000000000000000000000000000000000000081525060006102ed565b600160008282540192505081905550610e90565b60ad600354601281101515610e1c57fe5b0154821415610e7957610e656040805190810160405280600581526020017f626c61636b00000000000000000000000000000000000000000000000000000081525060006102ed565b600160008282540192505081905550610e90565b600360008154809291906001019190505550610d92565b6000600283811515610e9e57fe5b061415610ef957610ee56040805190810160405280600481526020017f6576656e0000000000000000000000000000000000000000000000000000000081525060016102ed565b600160008282540192505081905550610f49565b610f396040805190810160405280600381526020017f6f6464000000000000000000000000000000000000000000000000000000000081525060016102ed565b6001600082825401925050819055505b6012821115610fa657610f926040805190810160405280600481526020017f686967680000000000000000000000000000000000000000000000000000000081525060006102ed565b600160008282540192505081905550610ff6565b610fe66040805190810160405280600381526020017f6c6f77000000000000000000000000000000000000000000000000000000000081525060006102ed565b6001600082825401925050819055505b600182101580156110085750600c8211155b156110615761104d6040805190810160405280600681526020017f646f7a656e73000000000000000000000000000000000000000000000000000081525060006102ed565b600160008282540192505081905550611127565b600d8210158015611073575060188211155b156110cc576110b86040805190810160405280600681526020017f646f7a656e73000000000000000000000000000000000000000000000000000081525060016102ed565b600160008282540192505081905550611126565b6019821115611125576111156040805190810160405280600681526020017f646f7a656e73000000000000000000000000000000000000000000000000000081525060026102ed565b6001600082825401925050819055505b5b5b600060038381151561113557fe5b0614156111905761117c6040805190810160405280600781526020017f636f6c756d6e730000000000000000000000000000000000000000000000000081525060006102ed565b600160008282540192505081905550611266565b60006003600184018115156111a157fe5b0614156111fc576111e86040805190810160405280600781526020017f636f6c756d6e730000000000000000000000000000000000000000000000000081525060016102ed565b600160008282540192505081905550611265565b600060036002840181151561120d57fe5b061415611264576112546040805190810160405280600781526020017f636f6c756d6e730000000000000000000000000000000000000000000000000081525060026102ed565b6001600082825401925050819055505b5b5b60018210158015611278575060068211155b15611e51576112bd6040805190810160405280600681526020017f7369786e756d000000000000000000000000000000000000000000000000000081525060006102ed565b600160008282540192505081905550600482101580156112de575060098211155b15611333576113236040805190810160405280600681526020017f7369786e756d000000000000000000000000000000000000000000000000000081525060016102ed565b6001600082825401925050819055505b600782101580156113455750600c8211155b1561139a5761138a6040805190810160405280600681526020017f7369786e756d000000000000000000000000000000000000000000000000000081525060026102ed565b6001600082825401925050819055505b600a82101580156113ac5750600f8211155b15611401576113f16040805190810160405280600681526020017f7369786e756d000000000000000000000000000000000000000000000000000081525060036102ed565b6001600082825401925050819055505b600d8210158015611413575060128211155b15611468576114586040805190810160405280600681526020017f7369786e756d000000000000000000000000000000000000000000000000000081525060046102ed565b6001600082825401925050819055505b6010821015801561147a575060158211155b156114cf576114bf6040805190810160405280600681526020017f7369786e756d000000000000000000000000000000000000000000000000000081525060056102ed565b6001600082825401925050819055505b601382101580156114e1575060188211155b15611536576115266040805190810160405280600681526020017f7369786e756d000000000000000000000000000000000000000000000000000081525060066102ed565b6001600082825401925050819055505b601682101580156115485750601b8211155b1561159d5761158d6040805190810160405280600681526020017f7369786e756d000000000000000000000000000000000000000000000000000081525060076102ed565b6001600082825401925050819055505b601982101580156115af5750601e8211155b15611604576115f46040805190810160405280600681526020017f7369786e756d000000000000000000000000000000000000000000000000000081525060086102ed565b6001600082825401925050819055505b601c8210158015611616575060218211155b1561166b5761165b6040805190810160405280600681526020017f7369786e756d000000000000000000000000000000000000000000000000000081525060096102ed565b6001600082825401925050819055505b601f821015801561167d575060248211155b156116d2576116c26040805190810160405280600681526020017f7369786e756d0000000000000000000000000000000000000000000000000000815250600a6102ed565b6001600082825401925050819055505b60016003819055505b601f600354111515611795576003548214806116fb575060016003540182145b806117095750600380540182145b80611718575060046003540182145b15611780576117706040805190810160405280600781526020017f666f75726e756d000000000000000000000000000000000000000000000000008152506001600360026003540181151561176957fe5b04036102ed565b6001600082825401925050819055505b600380600082825401925050819055506116db565b60026003819055505b6020600354111515611858576003548214806117be575060016003540182145b806117cc5750600380540182145b806117db575060046003540182145b15611843576118336040805190810160405280600781526020017f666f75726e756d00000000000000000000000000000000000000000000000000815250600a600360016003540181151561182c57fe5b04016102ed565b6001600082825401925050819055505b6003806000828254019250508190555061179e565b60016003819055505b6022600354101561190057600354821015801561188357506002600354018211155b156118eb576118db6040805190810160405280600981526020017f74687265656e756d730000000000000000000000000000000000000000000000815250600160036002600354018115156118d457fe5b04036102ed565b6001600082825401925050819055505b60038060008282540192505081905550611861565b60016003819055505b60226003541115156119a657600354821480611929575060016003540182145b15611991576119816040805190810160405280600781526020017f74776f6e756d73000000000000000000000000000000000000000000000000008152506001600360026003540181151561197a57fe5b04036102ed565b6001600082825401925050819055505b60038060008282540192505081905550611909565b60026003819055505b6023600354111515611a4c576003548214806119cf575060016003540182145b15611a3757611a276040805190810160405280600781526020017f74776f6e756d7300000000000000000000000000000000000000000000000000815250600b6003600160035401811515611a2057fe5b04016102ed565b6001600082825401925050819055505b600380600082825401925050819055506119af565b60016003819055505b601f600354111515611af157600354821480611a745750600380540182145b15611adc57611acc6040805190810160405280600781526020017f74776f6e756d730000000000000000000000000000000000000000000000000081525060176003600260035401811515611ac557fe5b04016102ed565b6001600082825401925050819055505b60038060008282540192505081905550611a55565b60026003819055505b6020600354111515611b9657600354821480611b195750600380540182145b15611b8157611b716040805190810160405280600781526020017f74776f6e756d730000000000000000000000000000000000000000000000000081525060226003600160035401811515611b6a57fe5b04016102ed565b6001600082825401925050819055505b60038060008282540192505081905550611afa565b600380819055505b6021600354111515611c3657600354821480611bbd5750600380540182145b15611c2157611c116040805190810160405280600781526020017f74776f6e756d7300000000000000000000000000000000000000000000000000815250602d60038054811515611c0a57fe5b04016102ed565b6001600082825401925050819055505b60038060008282540192505081905550611b9e565b6025821415611c9357611c7f6040805190810160405280600681526020017f73696e676c65000000000000000000000000000000000000000000000000000081525060256102ed565b600160008282540192505081905550611ce2565b611cd26040805190810160405280600681526020017f73696e676c650000000000000000000000000000000000000000000000000000815250836102ed565b6001600082825401925050819055505b60006003819055505b60386003541015611e505760026003541015611d4a5760006004600354600281101515611d1457fe5b018190555060006006600354600281101515611d2c57fe5b018190555060006008600354600281101515611d4457fe5b01819055505b600380541015611d85576000600a600354600381101515611d6757fe5b01819055506000600d600354600381101515611d7f57fe5b01819055505b600b6003541015611da95760006010600354600b81101515611da357fe5b01819055505b60166003541015611dcd576000601b600354601681101515611dc757fe5b01819055505b600c6003541015611df15760006031600354600c81101515611deb57fe5b01819055505b60386003541015611e15576000603d600354603881101515611e0f57fe5b01819055505b60266003541015611e395760006075600354602681101515611e3357fe5b01819055505b600360008154809291906001019190505550611ceb565b5b919050565b6000836000541015156129025760405180807f72656400000000000000000000000000000000000000000000000000000000008152506003019050604051809103902060001916836040518082805190602001908083835b602083101515611ed35780518252602082019150602081019050602083039250611eae565b6001836020036101000a0380198251168184511680821785525050505050509050019150506040518091039020600019161415611f34578360046000600281101515611f1b57fe5b0181905550836000808282540392505081905550612901565b60405180807f626c61636b0000000000000000000000000000000000000000000000000000008152506005019050604051809103902060001916836040518082805190602001908083835b602083101515611fa45780518252602082019150602081019050602083039250611f7f565b6001836020036101000a0380198251168184511680821785525050505050509050019150506040518091039020600019161415612005578360046001600281101515611fec57fe5b0181905550836000808282540392505081905550612900565b60405180807f6576656e000000000000000000000000000000000000000000000000000000008152506004019050604051809103902060001916836040518082805190602001908083835b6020831015156120755780518252602082019150602081019050602083039250612050565b6001836020036101000a03801982511681845116808217855250505050505090500191505060405180910390206000191614156120d65783600660006002811015156120bd57fe5b01819055508360008082825403925050819055506128ff565b60405180807f6f646400000000000000000000000000000000000000000000000000000000008152506003019050604051809103902060001916836040518082805190602001908083835b6020831015156121465780518252602082019150602081019050602083039250612121565b6001836020036101000a03801982511681845116808217855250505050505090500191505060405180910390206000191614156121a757836006600160028110151561218e57fe5b01819055508360008082825403925050819055506128fe565b60405180807f6c6f7700000000000000000000000000000000000000000000000000000000008152506003019050604051809103902060001916836040518082805190602001908083835b60208310151561221757805182526020820191506020810190506020830392506121f2565b6001836020036101000a038019825116818451168082178552505050505050905001915050604051809103902060001916141561227857836008600060028110151561225f57fe5b01819055508360008082825403925050819055506128fd565b60405180807f68696768000000000000000000000000000000000000000000000000000000008152506004019050604051809103902060001916836040518082805190602001908083835b6020831015156122e857805182526020820191506020810190506020830392506122c3565b6001836020036101000a038019825116818451168082178552505050505050905001915050604051809103902060001916141561234957836008600160028110151561233057fe5b01819055508360008082825403925050819055506128fc565b60405180807f646f7a656e7300000000000000000000000000000000000000000000000000008152506006019050604051809103902060001916836040518082805190602001908083835b6020831015156123b95780518252602082019150602081019050602083039250612394565b6001836020036101000a03801982511681845116808217855250505050505090500191505060405180910390206000191614156124195783600a8360038110151561240057fe5b01819055508360008082825403925050819055506128fb565b60405180807f636f6c756d6e73000000000000000000000000000000000000000000000000008152506007019050604051809103902060001916836040518082805190602001908083835b6020831015156124895780518252602082019150602081019050602083039250612464565b6001836020036101000a03801982511681845116808217855250505050505090500191505060405180910390206000191614156124e95783600d836003811015156124d057fe5b01819055508360008082825403925050819055506128fa565b60405180807f7369786e756d00000000000000000000000000000000000000000000000000008152506006019050604051809103902060001916836040518082805190602001908083835b6020831015156125595780518252602082019150602081019050602083039250612534565b6001836020036101000a03801982511681845116808217855250505050505090500191505060405180910390206000191614156125b95783601083600b811015156125a057fe5b01819055508360008082825403925050819055506128f9565b60405180807f666f75726e756d000000000000000000000000000000000000000000000000008152506007019050604051809103902060001916836040518082805190602001908083835b6020831015156126295780518252602082019150602081019050602083039250612604565b6001836020036101000a03801982511681845116808217855250505050505090500191505060405180910390206000191614156126895783601b8360168110151561267057fe5b01819055508360008082825403925050819055506128f8565b60405180807f74687265656e756d7300000000000000000000000000000000000000000000008152506009019050604051809103902060001916836040518082805190602001908083835b6020831015156126f957805182526020820191506020810190506020830392506126d4565b6001836020036101000a03801982511681845116808217855250505050505090500191505060405180910390206000191614156127595783603183600c8110151561274057fe5b01819055508360008082825403925050819055506128f7565b60405180807f74776f6e756d73000000000000000000000000000000000000000000000000008152506007019050604051809103902060001916836040518082805190602001908083835b6020831015156127c957805182526020820191506020810190506020830392506127a4565b6001836020036101000a03801982511681845116808217855250505050505090500191505060405180910390206000191614156128295783603d8360388110151561281057fe5b01819055508360008082825403925050819055506128f6565b60405180807f73696e676c6500000000000000000000000000000000000000000000000000008152506006019050604051809103902060001916836040518082805190602001908083835b6020831015156128995780518252602082019150602081019050602083039250612874565b6001836020036101000a03801982511681845116808217855250505050505090500191505060405180910390206000191614156128f557836075836026811015156128e057fe5b01819055508360008082825403925050819055505b5b5b5b5b5b5b5b5b5b5b5b5b5b9392505050565b60015481565b600080549050905600a165627a7a723058209537c7d6a86ad28e7469e1ec499563e42bf9fd11ad9368252149562c75b320d40029",
  "source": "pragma solidity ^0.4.18;\r\n\r\ncontract Blockchaincasino\r\n{\r\nuint public chips;\r\nuint public winnings;\r\nuint money = 0;\r\nuint i;\r\nuint[2] redblack = [0];\r\nuint[2] evenodd = [0];\r\nuint[2] lowhigh = [0];\r\nuint[3] dozens = [0];\r\nuint[3] columns = [0];\r\nuint[11] six = [0];\r\nuint[22] four = [0];\r\nuint[12] three = [0];\r\nuint[56] two = [0];\r\nuint[38] single = [0];\r\n//bets position\r\n//[Red,Black,even, odd, low ,high, dozens, columns, sixnum,\r\n//fournum,threenums, twonums, straight\r\nuint[18] red = [1, 3, 5, 7, 9, 12, 14, 16, 18, 19, 21, 23, 25, 27, 30, 32, 34, 36];\r\nuint[18] black = [2, 4, 6, 8, 10, 11, 13, 15, 17, 20, 22, 24, 26, 28, 29, 31, 33, 35];\r\n\r\n//string betName[11] = ['Red','B','evenodd', 'lowhigh', 'dozens',\r\n//'columns', 'sixnum', 'Fivenum', 'fournum','threenums', 'twonums', 'straight'];\r\nuint roll;\r\nfunction() external payable {\r\n\r\n}\r\nfunction getChips() public returns(uint){\r\n  return chips;\r\n}\r\nfunction MoreChips(uint amount) public payable{\r\n  chips += amount;\r\n}\r\nfunction ClearWinnings() public {\r\n  winnings = 0;\r\n}\r\n  function setbet(uint _money, string bet, uint number) public returns (uint)\r\n  {\r\n\r\n      if(chips >= _money)\r\n      {\r\n        if((keccak256(bet) == keccak256(\"red\")))\r\n        {\r\n          redblack[0] = _money;\r\n          chips -= _money;\r\n        }else if( (keccak256(bet) == keccak256(\"black\")))\r\n        {\r\n          redblack[1] = _money;\r\n          chips -= _money;\r\n        }else if((keccak256(bet) == keccak256(\"even\")))\r\n        {\r\n            evenodd[0] = _money;\r\n            chips -= _money;\r\n        }else if((keccak256(bet) == keccak256(\"odd\"))){\r\n          evenodd[1] = _money;\r\n          chips -= _money;\r\n        }else if((keccak256(bet) == keccak256(\"low\")))\r\n        {\r\n            lowhigh[0] = _money;\r\n            chips -= _money;\r\n        }else if((keccak256(bet) == keccak256(\"high\")))\r\n        {\r\n          lowhigh[1] = _money;\r\n          chips -= _money;\r\n        }else if((keccak256(bet) == keccak256(\"dozens\")))\r\n        {\r\n          dozens[number] = _money;\r\n          chips -= _money;\r\n        }else if((keccak256(bet) == keccak256(\"columns\")))\r\n        {\r\n            columns[number] = _money;\r\n            chips -= _money;\r\n        }else if((keccak256(bet) == keccak256(\"sixnum\")))\r\n        {\r\n            six[number] = _money;\r\n            chips -= _money;\r\n        }\r\n        else if((keccak256(bet) == keccak256(\"fournum\")))\r\n        {\r\n            four[number] = _money;\r\n            chips -= _money;\r\n        }else if((keccak256(bet) == keccak256(\"threenums\")))\r\n        {\r\n            three[number] = _money;\r\n            chips -= _money;\r\n        }else if((keccak256(bet) == keccak256(\"twonums\")))\r\n        {\r\n            two[number] = _money;\r\n            chips -= _money;\r\n        }else if((keccak256(bet) == keccak256(\"single\")))\r\n        {\r\n            single[number] = _money;\r\n            chips -= _money;\r\n        }\r\n      }\r\n\r\n  }\r\n  function getbet(string bet, uint number) public view returns (uint)\r\n  {\r\n\r\n    if((keccak256(bet) == keccak256(\"red\")))\r\n    {\r\n    return redblack[0] * 2 ;\r\n    }else if( (keccak256(bet) == keccak256(\"black\")))\r\n    {\r\n    return redblack[1] * 2;\r\n    }else if((keccak256(bet) == keccak256(\"even\")))\r\n    {\r\n    return evenodd[0] * 2;\r\n    }else if((keccak256(bet) == keccak256(\"odd\")))\r\n    {\r\n    return evenodd[1] * 2;\r\n    }else if((keccak256(bet) == keccak256(\"low\")))\r\n    {\r\n    return lowhigh[0] * 2;\r\n    }else if((keccak256(bet) == keccak256(\"high\")))\r\n    {\r\n    return lowhigh[1] * 2;\r\n    }else if((keccak256(bet) == keccak256(\"dozens\")))\r\n    {\r\n    return ( (dozens[number] * 2) + dozens[number]);\r\n    }else if((keccak256(bet) == keccak256(\"columns\")))\r\n    {\r\n    return ( (columns[number] * 2) + columns[number]);\r\n    }else if((keccak256(bet) == keccak256(\"sixnum\")))\r\n    {\r\n    return ( (six[number] * 5) + six[number]);\r\n    }\r\n    else if((keccak256(bet) == keccak256(\"fournum\")))\r\n    {\r\n    return ( (four[number] * 8) + four[number]);\r\n    }else if((keccak256(bet) == keccak256(\"threenums\")))\r\n    {\r\n    return ( (three[number] * 11) + three[number]);\r\n    }else if((keccak256(bet) == keccak256(\"twonums\")))\r\n    {\r\n    return ( (two[number] * 17) + two[number]);\r\n    }else if((keccak256(bet) == keccak256(\"single\")))\r\n    {\r\n    return ( (single[number] * 35) + single[number]);\r\n    }\r\n    }\r\n    function test(uint a) public view returns (uint)\r\n    {\r\n    return play(a);\r\n    }\r\n\r\n\r\n\r\n    function play(uint draw) public returns (uint)\r\n    {\r\n\r\n      //red or black\r\n      for(i = 0; i < 18; i++)\r\n      {\r\n        if(draw == red[i] ){\r\n          winnings += getbet(\"red\",0);\r\n          break;\r\n        }else if(draw == black[i]){\r\n          winnings+= getbet(\"black\",0);\r\n          break;\r\n      }\r\n    }\r\n      //even odds\r\n      if(draw%2 == 0){\r\n        winnings += getbet(\"even\", 1);\r\n      }else{\r\n        winnings += getbet(\"odd\",1);\r\n      }\r\n\r\n      //high low\r\n      if(draw > 18){\r\n        winnings+= getbet(\"high\",0);\r\n      }\r\n      else{\r\n        winnings+= getbet(\"low\",0);\r\n      }\r\n\r\n      //dozens\r\n      if(draw >= 1 && draw <= 12){\r\n        winnings+= getbet(\"dozens\",0);\r\n      }else if(draw >= 13 && draw <= 24){\r\n        winnings+= getbet(\"dozens\",1);\r\n      }else if(draw > 25){\r\n        winnings+= getbet(\"dozens\",2);\r\n      }\r\n\r\n      //columns\r\n      // if you place a bet on the third column\r\n      if( (draw % 3) == 0)\r\n      {\r\n        winnings+= getbet(\"columns\",0);\r\n      }//second column\r\n      else if( ((draw + 1)%3) == 0){\r\n        winnings += getbet(\"columns\",1);\r\n      }//first column\r\n      else if( ((draw +2)%3) == 0){\r\n        winnings += getbet(\"columns\", 2);\r\n      }\r\n\r\n      // six number bets\r\n      if(draw >= 1 && draw <=6){\r\n        winnings+= getbet(\"sixnum\",0);\r\n      if(draw >=4 && draw <=9){\r\n        winnings+= getbet(\"sixnum\",1);\r\n      }if(draw >=7 && draw <=12){\r\n        winnings+= getbet(\"sixnum\",2);\r\n      }if(draw >=10 && draw <=15){\r\n        winnings+= getbet(\"sixnum\",3);\r\n      }if(draw >=13 && draw <=18){\r\n        winnings+= getbet(\"sixnum\",4);\r\n      }if(draw >=16 && draw <=21){\r\n        winnings+= getbet(\"sixnum\",5);\r\n      }if(draw >=19 && draw <=24){\r\n        winnings+= getbet(\"sixnum\",6);\r\n      }if(draw >=22 && draw <=27){\r\n        winnings+= getbet(\"sixnum\",7);\r\n      }if(draw >=25 && draw <=30){\r\n        winnings+= getbet(\"sixnum\",8);\r\n      }if(draw >=28 && draw <=33){\r\n        winnings+= getbet(\"sixnum\",9);\r\n      }if(draw >=31 && draw <=36){\r\n        winnings+= getbet(\"sixnum\",10);\r\n      }\r\n\r\n      //fournum 1,2,5,4 ; 4,5,8,7\r\n      for(i = 1; i<=31; i+=3){\r\n        if( (draw == i) || (draw == (i+1)) || (draw == (i+3)) || (draw == (i+4)) )\r\n        {\r\n        winnings += getbet(\"fournum\", ((i+2)/3)-1);\r\n        }\r\n      }\r\n      //2,5,6,9; 5,8,9,6\r\n      for(i = 2; i<=32; i+=3){\r\n        if( (draw == i) || (draw == (i+1)) || (draw == (i+3)) || (draw == (i+4)))\r\n        {\r\n        winnings += getbet(\"fournum\", ((i+1)/3)+10);\r\n        }\r\n      }\r\n\r\n      // three numbers 1,2,3 ; 4,5,6\r\n      for(i = 1; i<34;i+=3){\r\n        if(draw >= i && draw <= i+2){\r\n          winnings += getbet(\"threenums\", ((i+2)/3)-1);\r\n        }\r\n      }\r\n\r\n\r\n      //two numbers for vertical betting on the first vertical lines ie 1,2;4,5;\r\n      for(i = 1; i<=34; i+=3){\r\n        if( (draw == i) || (draw == (i+1)) )\r\n        {\r\n            winnings += getbet(\"twonums\", ( ((i+2)/3) -1) );\r\n        }\r\n      }\r\n      //two numbers for vertical betting on the second vertical line 2,3; 5,6\r\n      for(i = 2; i<=35; i+=3){\r\n        if( (draw == i) || (draw == (i+1)) )\r\n        {\r\n            winnings += getbet(\"twonums\", (((i+1)/3) + 11) );\r\n        }\r\n      }\r\n      //two numbers for horizontal betting on the first column horizontal lines\r\n      // bets like 1,4; 7,10;\r\n\r\n      for(i = 1; i<=31; i+=3){\r\n        if ( (draw == i) || (draw ==(i+3)) )\r\n        {\r\n            winnings += getbet(\"twonums\", (((i+2)/3) + 23) );\r\n        }\r\n      }\r\n      //second horizontal line 2,5; 5,8\r\n      for(i = 2; i<=32; i+=3){\r\n        if( (draw == i) || (draw == (i+3)) )\r\n        {\r\n            winnings += getbet(\"twonums\", (((i+1)/3) + 34) );\r\n        }\r\n      }\r\n      //third horizontal line 3,6; 6,9\r\n      for(i = 3; i<=33; i+=3){\r\n        if( (draw == i) || (draw == (i+3)) )\r\n        {\r\n            winnings += getbet(\"twonums\", ( (i/3) + 45) );\r\n        }\r\n      }\r\n\r\n\r\n\r\n\r\n\r\n      //single\r\n      //for drawing a 00\r\n      if(draw == 37){\r\n        winnings += getbet(\"single\", 37);\r\n      }else\r\n      {\r\n        winnings += getbet(\"single\", draw);\r\n      }\r\n      for(i = 0; i <56; i++)\r\n      {\r\n        if(i<2){\r\n          redblack[i] = 0;\r\n          evenodd[i] = 0;\r\n          lowhigh[i] = 0;\r\n        }if(i<3){\r\n          dozens[i] = 0;\r\n          columns[i] = 0;\r\n        }if(i< 11){\r\n          six[i] = 0;\r\n        }if(i< 22){\r\n          four[i] = 0;\r\n        }if(i< 12){\r\n          three[i] = 0;\r\n        }if(i< 56){\r\n          two[i] = 0;\r\n        }if(i< 38){\r\n          single[i] = 0;\r\n        }\r\n      }\r\n    }\r\n\r\n\r\n}\r\n}\r\n",
  "sourcePath": "C:\\Users\\jerem\\chainjeremy\\casino\\blockchaincasino\\contracts\\Blockchaincasino.sol",
  "compiler": {
    "name": "solc",
    "version": "0.4.23+commit.124ca40d.Emscripten.clang"
  },
  "schemaVersion": "2.0.0",
  "updatedAt": "2021-04-22T15:47:03.949Z"
}