{
  "contractName": "slots",
  "abi": [
    {
      "constant": true,
      "inputs": [],
      "name": "turns",
      "outputs": [
        {
          "name": "",
          "type": "uint256"
        }
      ],
      "payable": false,
      "stateMutability": "view",
      "type": "function"
    },
    {
      "constant": true,
      "inputs": [],
      "name": "chips",
      "outputs": [
        {
          "name": "",
          "type": "uint256"
        }
      ],
      "payable": false,
      "stateMutability": "view",
      "type": "function"
    },
    {
      "constant": true,
      "inputs": [],
      "name": "winnings",
      "outputs": [
        {
          "name": "",
          "type": "uint256"
        }
      ],
      "payable": false,
      "stateMutability": "view",
      "type": "function"
    },
    {
      "constant": true,
      "inputs": [],
      "name": "playing",
      "outputs": [
        {
          "name": "",
          "type": "bool"
        }
      ],
      "payable": false,
      "stateMutability": "view",
      "type": "function"
    },
    {
      "inputs": [
        {
          "name": "bank",
          "type": "address"
        }
      ],
      "payable": false,
      "stateMutability": "nonpayable",
      "type": "constructor"
    },
    {
      "constant": true,
      "inputs": [],
      "name": "getPlaying",
      "outputs": [
        {
          "name": "_playing",
          "type": "bool"
        }
      ],
      "payable": false,
      "stateMutability": "view",
      "type": "function"
    },
    {
      "constant": true,
      "inputs": [],
      "name": "getChips",
      "outputs": [
        {
          "name": "_chips",
          "type": "uint256"
        }
      ],
      "payable": false,
      "stateMutability": "view",
      "type": "function"
    },
    {
      "constant": true,
      "inputs": [
        {
          "name": "_turns",
          "type": "uint256"
        }
      ],
      "name": "setTurns",
      "outputs": [
        {
          "name": "numofTurns",
          "type": "uint256"
        }
      ],
      "payable": false,
      "stateMutability": "view",
      "type": "function"
    },
    {
      "constant": true,
      "inputs": [],
      "name": "Playing",
      "outputs": [
        {
          "name": "_playing",
          "type": "bool"
        }
      ],
      "payable": false,
      "stateMutability": "view",
      "type": "function"
    },
    {
      "constant": true,
      "inputs": [
        {
          "name": "_turns",
          "type": "uint256"
        }
      ],
      "name": "updateTurns",
      "outputs": [
        {
          "name": "_turn",
          "type": "uint256"
        }
      ],
      "payable": false,
      "stateMutability": "view",
      "type": "function"
    },
    {
      "constant": false,
      "inputs": [
        {
          "name": "_winnings",
          "type": "uint256"
        },
        {
          "name": "_playing",
          "type": "bool"
        },
        {
          "name": "_chips",
          "type": "uint256"
        },
        {
          "name": "_turns",
          "type": "uint256"
        }
      ],
      "name": "setValues",
      "outputs": [],
      "payable": false,
      "stateMutability": "nonpayable",
      "type": "function"
    },
    {
      "constant": true,
      "inputs": [],
      "name": "getValues",
      "outputs": [
        {
          "name": "_winnings",
          "type": "uint256"
        },
        {
          "name": "_playing",
          "type": "bool"
        },
        {
          "name": "_chips",
          "type": "uint256"
        },
        {
          "name": "_turns",
          "type": "uint256"
        }
      ],
      "payable": false,
      "stateMutability": "view",
      "type": "function"
    }
  ],
  "bytecode": "0x608060405234801561001057600080fd5b5060405160208061049f83398101806040528101908080519060200190929190505050600080819055506000600160006101000a81548160ff0219169083151502179055505061043a806100656000396000f3006080604052600436106100af576000357c0100000000000000000000000000000000000000000000000000000000900463ffffffff16806319eb4a90146100b457806320f88afa146100f85780632f588d8314610139578063401c0347146101685780634396a976146101935780635e9fd5e2146101be578063810ab1541461020b578063d134474c1461023a578063d57dd71014610265578063e393cd2f14610294578063f3efe81c146102bf575b600080fd5b3480156100c057600080fd5b506100c9610300565b604051808581526020018415151515815260200183815260200182815260200194505050505060405180910390f35b34801561010457600080fd5b506101236004803603810190808035906020019092919050505061032d565b6040518082815260200191505060405180910390f35b34801561014557600080fd5b5061014e61035b565b604051808215151515815260200191505060405180910390f35b34801561017457600080fd5b5061017d610372565b6040518082815260200191505060405180910390f35b34801561019f57600080fd5b506101a8610378565b6040518082815260200191505060405180910390f35b3480156101ca57600080fd5b5061020960048036038101908080359060200190929190803515159060200190929190803590602001909291908035906020019092919050505061037e565b005b34801561021757600080fd5b506102206103b3565b604051808215151515815260200191505060405180910390f35b34801561024657600080fd5b5061024f6103ca565b6040518082815260200191505060405180910390f35b34801561027157600080fd5b5061027a6103d0565b604051808215151515815260200191505060405180910390f35b3480156102a057600080fd5b506102a96103e3565b6040518082815260200191505060405180910390f35b3480156102cb57600080fd5b506102ea600480360381019080803590602001909291905050506103ed565b6040518082815260200191505060405180910390f35b600080600080600054600160009054906101000a900460ff16600354600254935093509350935090919293565b6000808214156103495760056002819055506002549050610356565b8160028190555060025490505b919050565b6000600160009054906101000a900460ff16905090565b60025481565b60035481565b836000819055508160038190555082600160006101000a81548160ff0219169083151502179055508060028190555050505050565b6000600160009054906101000a900460ff16905090565b60005481565b600160009054906101000a900460ff1681565b6000600354905090565b60008082111561040557600182039150819050610409565b8190505b9190505600a165627a7a723058206b677834cf5e04efd4b6bd83f9e66c3cb7da8fedfab032a17e0b9a89a138e1210029",
  "source": "pragma solidity ^0.4.18;\r\nimport \"./Bank.sol\"; // attaches the bank sol\r\ncontract slots {\r\n\r\n  uint public winnings; // the winning you get\r\n  bool public playing ; // if the player is playing\r\n  uint public turns; // number of turns\r\n  uint public chips; // how many chips they bought\r\n  // they only get winning if the numbers are the same\r\n//  Bank public Bankobj;\r\n   constructor (address bank) public{\r\n\r\n      winnings = 0; // sets winning value\r\n\r\n      playing = false; // sets the player to false right away\r\n\r\n    }\r\n\r\n    function getPlaying()public view returns (bool _playing){ // get if the player is playing\r\n        return(playing);\r\n    }\r\n    function getChips()public view returns (uint _chips){ // gets the number of chips\r\n        return(chips);\r\n    }\r\n    function setTurns(uint _turns) public view  returns (uint numofTurns){ // sets the turns\r\n      if(_turns == 0){ // checks if the turns is 0\r\n        turns = 5; // if so set it to 5\r\n        return turns; // returns the turns\r\n      }\r\n      else{\r\n        turns = _turns; // sets the turns\r\n        return turns;// returns the turns\r\n      }\r\n    }\r\n    function Playing()public view returns (bool _playing){ // returns if the player is playing\r\n        return(playing);\r\n    }\r\n    function updateTurns( uint _turns )public view returns(uint _turn){// updates the turns\r\n        if(_turns > 0){ // checks if the turns is greater than 0\r\n          _turns = _turns - 1; //decrements the turns\r\n          return _turns; // returns the new turns\r\n        }\r\n        else {\r\n          return _turns;\r\n        }\r\n    }\r\n\r\n    function setValues (uint _winnings,bool _playing,  uint _chips, uint _turns)public { // sets the values\r\n    //  player = _player;\r\n      winnings = _winnings; // sets winnings\r\n      chips = _chips; // sets chips\r\n      playing = _playing; // sets the playing var\r\n      turns = _turns; // sets the turns var\r\n    }\r\n    function getValues()public view returns(uint _winnings, bool _playing, uint _chips ,uint _turns){\r\n      return ( winnings, playing, chips, turns); // returns the values\r\n    }\r\n}\r\n",
  "sourcePath": "C:\\Users\\jerem\\chainjeremy\\casino\\blockchaincasino\\contracts\\slots.sol",
  "compiler": {
    "name": "solc",
    "version": "0.4.23+commit.124ca40d.Emscripten.clang"
  },
  "schemaVersion": "2.0.0",
  "updatedAt": "2021-04-30T02:01:36.474Z"
}